{"abi":[{"type":"constructor","inputs":[],"stateMutability":"nonpayable"},{"type":"function","name":"acceptOwnership","inputs":[],"outputs":[],"stateMutability":"nonpayable"},{"type":"function","name":"addLiquidity","inputs":[{"name":"asset","type":"address","internalType":"contract IERC20"},{"name":"amount","type":"uint256","internalType":"uint256"}],"outputs":[],"stateMutability":"nonpayable"},{"type":"function","name":"apr","inputs":[],"outputs":[{"name":"lendApr_","type":"uint256","internalType":"uint256"},{"name":"borrowApr_","type":"uint256","internalType":"uint256"}],"stateMutability":"view"},{"type":"function","name":"borrowToken","inputs":[{"name":"recipient","type":"address","internalType":"address"},{"name":"amount","type":"uint256","internalType":"uint256"}],"outputs":[],"stateMutability":"nonpayable"},{"type":"function","name":"getRealReserves","inputs":[],"outputs":[{"name":"ftReserve","type":"uint256","internalType":"uint256"},{"name":"xtReserve","type":"uint256","internalType":"uint256"}],"stateMutability":"view"},{"type":"function","name":"getVersion","inputs":[],"outputs":[{"name":"","type":"string","internalType":"string"}],"stateMutability":"pure"},{"type":"function","name":"initialize","inputs":[{"name":"params","type":"tuple","internalType":"struct OrderInitialParams","components":[{"name":"maker","type":"address","internalType":"address"},{"name":"ft","type":"address","internalType":"contract IERC20"},{"name":"xt","type":"address","internalType":"contract IERC20"},{"name":"debtToken","type":"address","internalType":"contract IERC20"},{"name":"gt","type":"address","internalType":"contract IGearingToken"},{"name":"virtualXtReserve","type":"uint256","internalType":"uint256"},{"name":"pool","type":"address","internalType":"contract IERC4626"},{"name":"maturity","type":"uint64","internalType":"uint64"},{"name":"orderConfig","type":"tuple","internalType":"struct OrderConfig","components":[{"name":"curveCuts","type":"tuple","internalType":"struct CurveCuts","components":[{"name":"lendCurveCuts","type":"tuple[]","internalType":"struct CurveCut[]","components":[{"name":"xtReserve","type":"uint256","internalType":"uint256"},{"name":"liqSquare","type":"uint256","internalType":"uint256"},{"name":"offset","type":"int256","internalType":"int256"}]},{"name":"borrowCurveCuts","type":"tuple[]","internalType":"struct CurveCut[]","components":[{"name":"xtReserve","type":"uint256","internalType":"uint256"},{"name":"liqSquare","type":"uint256","internalType":"uint256"},{"name":"offset","type":"int256","internalType":"int256"}]}]},{"name":"gtId","type":"uint256","internalType":"uint256"},{"name":"maxXtReserve","type":"uint256","internalType":"uint256"},{"name":"swapTrigger","type":"address","internalType":"contract ISwapCallback"},{"name":"feeConfig","type":"tuple","internalType":"struct FeeConfig","components":[{"name":"lendTakerFeeRatio","type":"uint32","internalType":"uint32"},{"name":"lendMakerFeeRatio","type":"uint32","internalType":"uint32"},{"name":"borrowTakerFeeRatio","type":"uint32","internalType":"uint32"},{"name":"borrowMakerFeeRatio","type":"uint32","internalType":"uint32"},{"name":"mintGtFeeRatio","type":"uint32","internalType":"uint32"},{"name":"mintGtFeeRef","type":"uint32","internalType":"uint32"}]}]}]}],"outputs":[],"stateMutability":"nonpayable"},{"type":"function","name":"initialize","inputs":[{"name":"","type":"address","internalType":"address"},{"name":"","type":"address[3]","internalType":"contract IERC20[3]"},{"name":"","type":"address","internalType":"contract IGearingToken"},{"name":"","type":"uint256","internalType":"uint256"},{"name":"","type":"address","internalType":"contract ISwapCallback"},{"name":"","type":"tuple","internalType":"struct CurveCuts","components":[{"name":"lendCurveCuts","type":"tuple[]","internalType":"struct CurveCut[]","components":[{"name":"xtReserve","type":"uint256","internalType":"uint256"},{"name":"liqSquare","type":"uint256","internalType":"uint256"},{"name":"offset","type":"int256","internalType":"int256"}]},{"name":"borrowCurveCuts","type":"tuple[]","internalType":"struct CurveCut[]","components":[{"name":"xtReserve","type":"uint256","internalType":"uint256"},{"name":"liqSquare","type":"uint256","internalType":"uint256"},{"name":"offset","type":"int256","internalType":"int256"}]}]},{"name":"","type":"tuple","internalType":"struct MarketConfig","components":[{"name":"treasurer","type":"address","internalType":"address"},{"name":"maturity","type":"uint64","internalType":"uint64"},{"name":"feeConfig","type":"tuple","internalType":"struct FeeConfig","components":[{"name":"lendTakerFeeRatio","type":"uint32","internalType":"uint32"},{"name":"lendMakerFeeRatio","type":"uint32","internalType":"uint32"},{"name":"borrowTakerFeeRatio","type":"uint32","internalType":"uint32"},{"name":"borrowMakerFeeRatio","type":"uint32","internalType":"uint32"},{"name":"mintGtFeeRatio","type":"uint32","internalType":"uint32"},{"name":"mintGtFeeRef","type":"uint32","internalType":"uint32"}]}]}],"outputs":[],"stateMutability":"nonpayable"},{"type":"function","name":"maker","inputs":[],"outputs":[{"name":"","type":"address","internalType":"address"}],"stateMutability":"view"},{"type":"function","name":"market","inputs":[],"outputs":[{"name":"","type":"address","internalType":"contract ITermMaxMarket"}],"stateMutability":"view"},{"type":"function","name":"orderConfig","inputs":[],"outputs":[{"name":"orderConfig_","type":"tuple","internalType":"struct OrderConfig","components":[{"name":"curveCuts","type":"tuple","internalType":"struct CurveCuts","components":[{"name":"lendCurveCuts","type":"tuple[]","internalType":"struct CurveCut[]","components":[{"name":"xtReserve","type":"uint256","internalType":"uint256"},{"name":"liqSquare","type":"uint256","internalType":"uint256"},{"name":"offset","type":"int256","internalType":"int256"}]},{"name":"borrowCurveCuts","type":"tuple[]","internalType":"struct CurveCut[]","components":[{"name":"xtReserve","type":"uint256","internalType":"uint256"},{"name":"liqSquare","type":"uint256","internalType":"uint256"},{"name":"offset","type":"int256","internalType":"int256"}]}]},{"name":"gtId","type":"uint256","internalType":"uint256"},{"name":"maxXtReserve","type":"uint256","internalType":"uint256"},{"name":"swapTrigger","type":"address","internalType":"contract ISwapCallback"},{"name":"feeConfig","type":"tuple","internalType":"struct FeeConfig","components":[{"name":"lendTakerFeeRatio","type":"uint32","internalType":"uint32"},{"name":"lendMakerFeeRatio","type":"uint32","internalType":"uint32"},{"name":"borrowTakerFeeRatio","type":"uint32","internalType":"uint32"},{"name":"borrowMakerFeeRatio","type":"uint32","internalType":"uint32"},{"name":"mintGtFeeRatio","type":"uint32","internalType":"uint32"},{"name":"mintGtFeeRef","type":"uint32","internalType":"uint32"}]}]}],"stateMutability":"view"},{"type":"function","name":"owner","inputs":[],"outputs":[{"name":"","type":"address","internalType":"address"}],"stateMutability":"view"},{"type":"function","name":"pause","inputs":[],"outputs":[],"stateMutability":"nonpayable"},{"type":"function","name":"paused","inputs":[],"outputs":[{"name":"","type":"bool","internalType":"bool"}],"stateMutability":"view"},{"type":"function","name":"pendingOwner","inputs":[],"outputs":[{"name":"","type":"address","internalType":"address"}],"stateMutability":"view"},{"type":"function","name":"pool","inputs":[],"outputs":[{"name":"","type":"address","internalType":"contract IERC4626"}],"stateMutability":"view"},{"type":"function","name":"redeemAll","inputs":[{"name":"recipient","type":"address","internalType":"address"}],"outputs":[{"name":"badDebt","type":"uint256","internalType":"uint256"},{"name":"deliveryData","type":"bytes","internalType":"bytes"}],"stateMutability":"nonpayable"},{"type":"function","name":"removeLiquidity","inputs":[{"name":"asset","type":"address","internalType":"contract IERC20"},{"name":"amount","type":"uint256","internalType":"uint256"},{"name":"recipient","type":"address","internalType":"address"}],"outputs":[],"stateMutability":"nonpayable"},{"type":"function","name":"renounceOwnership","inputs":[],"outputs":[],"stateMutability":"nonpayable"},{"type":"function","name":"setCurveAndPrice","inputs":[{"name":"originalVirtualXtReserve","type":"uint256","internalType":"uint256"},{"name":"virtualXtReserve_","type":"uint256","internalType":"uint256"},{"name":"maxXtReserve_","type":"uint256","internalType":"uint256"},{"name":"newCurveCuts","type":"tuple","internalType":"struct CurveCuts","components":[{"name":"lendCurveCuts","type":"tuple[]","internalType":"struct CurveCut[]","components":[{"name":"xtReserve","type":"uint256","internalType":"uint256"},{"name":"liqSquare","type":"uint256","internalType":"uint256"},{"name":"offset","type":"int256","internalType":"int256"}]},{"name":"borrowCurveCuts","type":"tuple[]","internalType":"struct CurveCut[]","components":[{"name":"xtReserve","type":"uint256","internalType":"uint256"},{"name":"liqSquare","type":"uint256","internalType":"uint256"},{"name":"offset","type":"int256","internalType":"int256"}]}]}],"outputs":[],"stateMutability":"nonpayable"},{"type":"function","name":"setGeneralConfig","inputs":[{"name":"gtId","type":"uint256","internalType":"uint256"},{"name":"swapTrigger","type":"address","internalType":"contract ISwapCallback"}],"outputs":[],"stateMutability":"nonpayable"},{"type":"function","name":"setPool","inputs":[{"name":"newPool","type":"address","internalType":"contract IERC4626"}],"outputs":[],"stateMutability":"nonpayable"},{"type":"function","name":"swapExactTokenToToken","inputs":[{"name":"tokenIn","type":"address","internalType":"contract IERC20"},{"name":"tokenOut","type":"address","internalType":"contract IERC20"},{"name":"recipient","type":"address","internalType":"address"},{"name":"tokenAmtIn","type":"uint128","internalType":"uint128"},{"name":"minTokenOut","type":"uint128","internalType":"uint128"},{"name":"deadline","type":"uint256","internalType":"uint256"}],"outputs":[{"name":"netTokenOut","type":"uint256","internalType":"uint256"}],"stateMutability":"nonpayable"},{"type":"function","name":"swapTokenToExactToken","inputs":[{"name":"tokenIn","type":"address","internalType":"contract IERC20"},{"name":"tokenOut","type":"address","internalType":"contract IERC20"},{"name":"recipient","type":"address","internalType":"address"},{"name":"tokenAmtOut","type":"uint128","internalType":"uint128"},{"name":"maxTokenIn","type":"uint128","internalType":"uint128"},{"name":"deadline","type":"uint256","internalType":"uint256"}],"outputs":[{"name":"netTokenIn","type":"uint256","internalType":"uint256"}],"stateMutability":"nonpayable"},{"type":"function","name":"tokenReserves","inputs":[],"outputs":[{"name":"ftReserve","type":"uint256","internalType":"uint256"},{"name":"xtReserve","type":"uint256","internalType":"uint256"}],"stateMutability":"view"},{"type":"function","name":"transferOwnership","inputs":[{"name":"newOwner","type":"address","internalType":"address"}],"outputs":[],"stateMutability":"nonpayable"},{"type":"function","name":"unpause","inputs":[],"outputs":[],"stateMutability":"nonpayable"},{"type":"function","name":"updateFeeConfig","inputs":[{"name":"newFeeConfig","type":"tuple","internalType":"struct FeeConfig","components":[{"name":"lendTakerFeeRatio","type":"uint32","internalType":"uint32"},{"name":"lendMakerFeeRatio","type":"uint32","internalType":"uint32"},{"name":"borrowTakerFeeRatio","type":"uint32","internalType":"uint32"},{"name":"borrowMakerFeeRatio","type":"uint32","internalType":"uint32"},{"name":"mintGtFeeRatio","type":"uint32","internalType":"uint32"},{"name":"mintGtFeeRef","type":"uint32","internalType":"uint32"}]}],"outputs":[],"stateMutability":"nonpayable"},{"type":"function","name":"updateOrder","inputs":[{"name":"newOrderConfig","type":"tuple","internalType":"struct OrderConfig","components":[{"name":"curveCuts","type":"tuple","internalType":"struct CurveCuts","components":[{"name":"lendCurveCuts","type":"tuple[]","internalType":"struct CurveCut[]","components":[{"name":"xtReserve","type":"uint256","internalType":"uint256"},{"name":"liqSquare","type":"uint256","internalType":"uint256"},{"name":"offset","type":"int256","internalType":"int256"}]},{"name":"borrowCurveCuts","type":"tuple[]","internalType":"struct CurveCut[]","components":[{"name":"xtReserve","type":"uint256","internalType":"uint256"},{"name":"liqSquare","type":"uint256","internalType":"uint256"},{"name":"offset","type":"int256","internalType":"int256"}]}]},{"name":"gtId","type":"uint256","internalType":"uint256"},{"name":"maxXtReserve","type":"uint256","internalType":"uint256"},{"name":"swapTrigger","type":"address","internalType":"contract ISwapCallback"},{"name":"feeConfig","type":"tuple","internalType":"struct FeeConfig","components":[{"name":"lendTakerFeeRatio","type":"uint32","internalType":"uint32"},{"name":"lendMakerFeeRatio","type":"uint32","internalType":"uint32"},{"name":"borrowTakerFeeRatio","type":"uint32","internalType":"uint32"},{"name":"borrowMakerFeeRatio","type":"uint32","internalType":"uint32"},{"name":"mintGtFeeRatio","type":"uint32","internalType":"uint32"},{"name":"mintGtFeeRef","type":"uint32","internalType":"uint32"}]}]},{"name":"ftChangeAmt","type":"int256","internalType":"int256"},{"name":"xtChangeAmt","type":"int256","internalType":"int256"}],"outputs":[],"stateMutability":"nonpayable"},{"type":"function","name":"virtualXtReserve","inputs":[],"outputs":[{"name":"","type":"uint256","internalType":"uint256"}],"stateMutability":"view"},{"type":"function","name":"withdrawAllAssetsBeforeMaturity","inputs":[{"name":"recipient","type":"address","internalType":"address"}],"outputs":[{"name":"debtTokenAmount","type":"uint256","internalType":"uint256"},{"name":"ftAmount","type":"uint256","internalType":"uint256"},{"name":"xtAmount","type":"uint256","internalType":"uint256"}],"stateMutability":"nonpayable"},{"type":"function","name":"withdrawAssets","inputs":[{"name":"token","type":"address","internalType":"contract IERC20"},{"name":"recipient","type":"address","internalType":"address"},{"name":"amount","type":"uint256","internalType":"uint256"}],"outputs":[],"stateMutability":"nonpayable"},{"type":"event","name":"Borrowed","inputs":[{"name":"recipient","type":"address","indexed":true,"internalType":"address"},{"name":"amount","type":"uint256","indexed":false,"internalType":"uint256"}],"anonymous":false},{"type":"event","name":"CurveAndPriceUpdated","inputs":[{"name":"virtualXtReserve","type":"uint256","indexed":false,"internalType":"uint256"},{"name":"maxXtReserve","type":"uint256","indexed":false,"internalType":"uint256"},{"name":"curveCuts","type":"tuple","indexed":false,"internalType":"struct CurveCuts","components":[{"name":"lendCurveCuts","type":"tuple[]","internalType":"struct CurveCut[]","components":[{"name":"xtReserve","type":"uint256","internalType":"uint256"},{"name":"liqSquare","type":"uint256","internalType":"uint256"},{"name":"offset","type":"int256","internalType":"int256"}]},{"name":"borrowCurveCuts","type":"tuple[]","internalType":"struct CurveCut[]","components":[{"name":"xtReserve","type":"uint256","internalType":"uint256"},{"name":"liqSquare","type":"uint256","internalType":"uint256"},{"name":"offset","type":"int256","internalType":"int256"}]}]}],"anonymous":false},{"type":"event","name":"GeneralConfigUpdated","inputs":[{"name":"gtId","type":"uint256","indexed":false,"internalType":"uint256"},{"name":"swapTrigger","type":"address","indexed":false,"internalType":"contract ISwapCallback"}],"anonymous":false},{"type":"event","name":"Initialized","inputs":[{"name":"version","type":"uint64","indexed":false,"internalType":"uint64"}],"anonymous":false},{"type":"event","name":"MakerOwnershipTransferred","inputs":[{"name":"oldMaker","type":"address","indexed":false,"internalType":"address"},{"name":"newMaker","type":"address","indexed":false,"internalType":"address"}],"anonymous":false},{"type":"event","name":"OrderInitialized","inputs":[{"name":"market","type":"address","indexed":true,"internalType":"contract ITermMaxMarket"},{"name":"maker","type":"address","indexed":true,"internalType":"address"},{"name":"maxXtReserve","type":"uint256","indexed":false,"internalType":"uint256"},{"name":"swapTrigger","type":"address","indexed":false,"internalType":"contract ISwapCallback"},{"name":"curveCuts","type":"tuple","indexed":false,"internalType":"struct CurveCuts","components":[{"name":"lendCurveCuts","type":"tuple[]","internalType":"struct CurveCut[]","components":[{"name":"xtReserve","type":"uint256","internalType":"uint256"},{"name":"liqSquare","type":"uint256","internalType":"uint256"},{"name":"offset","type":"int256","internalType":"int256"}]},{"name":"borrowCurveCuts","type":"tuple[]","internalType":"struct CurveCut[]","components":[{"name":"xtReserve","type":"uint256","internalType":"uint256"},{"name":"liqSquare","type":"uint256","internalType":"uint256"},{"name":"offset","type":"int256","internalType":"int256"}]}]}],"anonymous":false},{"type":"event","name":"OrderInitialized","inputs":[{"name":"maker","type":"address","indexed":true,"internalType":"address"},{"name":"market","type":"address","indexed":true,"internalType":"address"}],"anonymous":false},{"type":"event","name":"OwnershipTransferStarted","inputs":[{"name":"previousOwner","type":"address","indexed":true,"internalType":"address"},{"name":"newOwner","type":"address","indexed":true,"internalType":"address"}],"anonymous":false},{"type":"event","name":"OwnershipTransferred","inputs":[{"name":"previousOwner","type":"address","indexed":true,"internalType":"address"},{"name":"newOwner","type":"address","indexed":true,"internalType":"address"}],"anonymous":false},{"type":"event","name":"Paused","inputs":[{"name":"account","type":"address","indexed":false,"internalType":"address"}],"anonymous":false},{"type":"event","name":"PoolUpdated","inputs":[{"name":"pool","type":"address","indexed":true,"internalType":"address"}],"anonymous":false},{"type":"event","name":"Redeemed","inputs":[{"name":"recipient","type":"address","indexed":true,"internalType":"address"},{"name":"debtTokenAmount","type":"uint256","indexed":false,"internalType":"uint256"},{"name":"badDebt","type":"uint256","indexed":false,"internalType":"uint256"},{"name":"deliveryData","type":"bytes","indexed":false,"internalType":"bytes"}],"anonymous":false},{"type":"event","name":"RedeemedAllBeforeMaturity","inputs":[{"name":"recipient","type":"address","indexed":true,"internalType":"address"},{"name":"debtTokenAmount","type":"uint256","indexed":false,"internalType":"uint256"},{"name":"ftAmount","type":"uint256","indexed":false,"internalType":"uint256"},{"name":"xtAmount","type":"uint256","indexed":false,"internalType":"uint256"}],"anonymous":false},{"type":"event","name":"SwapExactTokenToToken","inputs":[{"name":"tokenIn","type":"address","indexed":true,"internalType":"contract IERC20"},{"name":"tokenOut","type":"address","indexed":true,"internalType":"contract IERC20"},{"name":"caller","type":"address","indexed":false,"internalType":"address"},{"name":"recipient","type":"address","indexed":false,"internalType":"address"},{"name":"tokenAmtIn","type":"uint128","indexed":false,"internalType":"uint128"},{"name":"netTokenOut","type":"uint128","indexed":false,"internalType":"uint128"},{"name":"feeAmt","type":"uint128","indexed":false,"internalType":"uint128"}],"anonymous":false},{"type":"event","name":"SwapTokenToExactToken","inputs":[{"name":"tokenIn","type":"address","indexed":true,"internalType":"contract IERC20"},{"name":"tokenOut","type":"address","indexed":true,"internalType":"contract IERC20"},{"name":"caller","type":"address","indexed":false,"internalType":"address"},{"name":"recipient","type":"address","indexed":false,"internalType":"address"},{"name":"tokenAmtOut","type":"uint128","indexed":false,"internalType":"uint128"},{"name":"netTokenIn","type":"uint128","indexed":false,"internalType":"uint128"},{"name":"feeAmt","type":"uint128","indexed":false,"internalType":"uint128"}],"anonymous":false},{"type":"event","name":"Unpaused","inputs":[{"name":"account","type":"address","indexed":false,"internalType":"address"}],"anonymous":false},{"type":"event","name":"UpdateFeeConfig","inputs":[{"name":"feeConfig","type":"tuple","indexed":false,"internalType":"struct FeeConfig","components":[{"name":"lendTakerFeeRatio","type":"uint32","internalType":"uint32"},{"name":"lendMakerFeeRatio","type":"uint32","internalType":"uint32"},{"name":"borrowTakerFeeRatio","type":"uint32","internalType":"uint32"},{"name":"borrowMakerFeeRatio","type":"uint32","internalType":"uint32"},{"name":"mintGtFeeRatio","type":"uint32","internalType":"uint32"},{"name":"mintGtFeeRef","type":"uint32","internalType":"uint32"}]}],"anonymous":false},{"type":"event","name":"UpdateOrder","inputs":[{"name":"curveCuts","type":"tuple","indexed":false,"internalType":"struct CurveCuts","components":[{"name":"lendCurveCuts","type":"tuple[]","internalType":"struct CurveCut[]","components":[{"name":"xtReserve","type":"uint256","internalType":"uint256"},{"name":"liqSquare","type":"uint256","internalType":"uint256"},{"name":"offset","type":"int256","internalType":"int256"}]},{"name":"borrowCurveCuts","type":"tuple[]","internalType":"struct CurveCut[]","components":[{"name":"xtReserve","type":"uint256","internalType":"uint256"},{"name":"liqSquare","type":"uint256","internalType":"uint256"},{"name":"offset","type":"int256","internalType":"int256"}]}]},{"name":"ftChangeAmt","type":"int256","indexed":false,"internalType":"int256"},{"name":"xtChangeAmt","type":"int256","indexed":false,"internalType":"int256"},{"name":"gtId","type":"uint256","indexed":false,"internalType":"uint256"},{"name":"maxXtReserve","type":"uint256","indexed":false,"internalType":"uint256"},{"name":"swapTrigger","type":"address","indexed":false,"internalType":"contract ISwapCallback"}],"anonymous":false},{"type":"event","name":"WithdrawAssets","inputs":[{"name":"token","type":"address","indexed":true,"internalType":"contract IERC20"},{"name":"caller","type":"address","indexed":true,"internalType":"address"},{"name":"recipient","type":"address","indexed":true,"internalType":"address"},{"name":"amount","type":"uint256","indexed":false,"internalType":"uint256"}],"anonymous":false},{"type":"error","name":"BorrowIsNotAllowed","inputs":[]},{"type":"error","name":"CanNotRedeemBeforeFinalLiquidationDeadline","inputs":[{"name":"liquidationDeadline","type":"uint256","internalType":"uint256"}]},{"type":"error","name":"CanNotTransferUintMax","inputs":[]},{"type":"error","name":"CantNotIssueFtWithoutGt","inputs":[]},{"type":"error","name":"CantNotSwapToken","inputs":[{"name":"tokenIn","type":"address","internalType":"contract IERC20"},{"name":"tokenOut","type":"address","internalType":"contract IERC20"}]},{"type":"error","name":"CantSwapSameToken","inputs":[]},{"type":"error","name":"DeadlineExpired","inputs":[]},{"type":"error","name":"EnforcedPause","inputs":[]},{"type":"error","name":"EvacuationIsActived","inputs":[]},{"type":"error","name":"EvacuationIsNotActived","inputs":[]},{"type":"error","name":"ExpectedPause","inputs":[]},{"type":"error","name":"FeeConfigCanNotBeUpdated","inputs":[]},{"type":"error","name":"GtNotApproved","inputs":[{"name":"gtId","type":"uint256","internalType":"uint256"}]},{"type":"error","name":"InsufficientLiquidity","inputs":[]},{"type":"error","name":"InvalidCurveCuts","inputs":[]},{"type":"error","name":"InvalidInitialization","inputs":[]},{"type":"error","name":"LendIsNotAllowed","inputs":[]},{"type":"error","name":"NotEnoughFtOrXtToWithdraw","inputs":[]},{"type":"error","name":"NotInitializing","inputs":[]},{"type":"error","name":"OnlyMarket","inputs":[]},{"type":"error","name":"OwnableInvalidOwner","inputs":[{"name":"owner","type":"address","internalType":"address"}]},{"type":"error","name":"OwnableUnauthorizedAccount","inputs":[{"name":"account","type":"address","internalType":"address"}]},{"type":"error","name":"PriceChangedBeforeSet","inputs":[]},{"type":"error","name":"ReentrancyGuardReentrantCall","inputs":[]},{"type":"error","name":"SafeCastOverflowedIntToUint","inputs":[{"name":"value","type":"int256","internalType":"int256"}]},{"type":"error","name":"SafeCastOverflowedUintDowncast","inputs":[{"name":"bits","type":"uint8","internalType":"uint8"},{"name":"value","type":"uint256","internalType":"uint256"}]},{"type":"error","name":"SafeCastOverflowedUintToInt","inputs":[{"name":"value","type":"uint256","internalType":"uint256"}]},{"type":"error","name":"SafeERC20FailedOperation","inputs":[{"name":"token","type":"address","internalType":"address"}]},{"type":"error","name":"TermIsNotOpen","inputs":[]},{"type":"error","name":"UnexpectedAmount","inputs":[{"name":"expectedAmt","type":"uint256","internalType":"uint256"},{"name":"actualAmt","type":"uint256","internalType":"uint256"}]},{"type":"error","name":"UpdateOrderFunctionDisabled","inputs":[]},{"type":"error","name":"UseOrderInitializationFunctionV2","inputs":[]},{"type":"error","name":"XtReserveTooHigh","inputs":[]}],"bytecode":{"object":"0x6080806040523460aa575f516020615fce5f395f51905f525460ff8160401c16609b576002600160401b03196001600160401b038216016049575b604051615f1f90816100af8239f35b6001600160401b0319166001600160401b039081175f516020615fce5f395f51905f525581527fc7f505b2f371ae2175ee4913f4499e1f2633a7b5936321eed1cdaeb6115181d290602090a15f80603a565b63f92ee8a960e01b5f5260045ffd5b5f80fdfe6080806040526004361015610012575f80fd5b5f905f3560e01c90816307e470f314612de4575080630d8e6e2c14612d9d57806316f0115b14612d755780633f4ba83a14612cf75780634437152a14612ccc57806347fdbc8e146128ad5780634aba348f146124fc5780634bad9510146123fe57806350655d8c14611568578063556eb40f146123b657806356688700146120e357806357ded9c914611df657806359fbf526146119df5780635a91b39c146117da5780635c975abb146117ab578063604df3f31461177e578063715018a6146116ff57806379ba5097146116b25780637bd58ea91461163757806380f55605146116105780638456cb591461159d5780638da5cb5b14611568578063ab0a2c3614611503578063b53f9bff146114bb578063be399be51461106a578063be4319b914610ef0578063d5501b0b14610cf5578063e30c397814610cc0578063f119bef31461092c578063f13de92414610733578063f2fde38b146106ad5763f4c6787e1461017e575f80fd5b346104995761018c366131b9565b94939195610198613930565b6101a0613fe5565b6001600160401b03600b541642101561069e578095421161068f576001600160a01b03858116908416146106805780916001600160801b03881615158061066e575b61028a575b5050947f48054139172b057097b1c514c1e58472e50cc4e9f779f0447d95c62b30403df89161026e60209761022461021e896146c6565b916146c6565b604080513381526001600160a01b0398891660208201526001600160801b0396871691810191909152918516606083015290931660808401529084169490931692819060a0820190565b0390a360015f516020615e8a5f395f51905f5255604051908152f35b6003546001546002549398506001600160a01b03918216945092811692166102b061339f565b88546040516379502c5560e01b81529193919061010090829060049082906001600160a01b03165afa90811561066357906040918b91610634575b5001516080840152826001600160a01b03891686148080610622575b1561052c57506001600160801b0361032992166001600160801b038c16614252565b9692969591949094969a5b60608201516001600160a01b0316806103c4575b5050938b8760209d98958a8f8f90978f976001600160801b037f48054139172b057097b1c514c1e58472e50cc4e9f779f0447d95c62b30403df89f9d999a61026e9d61039b866103a59e30903390614279565b0151971694614312565b6103b96001600160801b038516878561465f565b9297508193506101e7565b6001546040516370a0823160e01b815230600482015290602090829060249082906001600160a01b03165afa80156105215783906104ee575b6002546040516370a0823160e01b81523060048201529250602090839060249082906001600160a01b03165afa9182156104e35784926104ab575b50823b156104a757604051636d1f912560e11b81526004810191909152602481019190915260448101889052606481018990529082908290608490829084905af1801561049c57156103485761048f828092612ee2565b6104995780610348565b80fd5b6040513d84823e3d90fd5b8380fd5b9091506020813d6020116104db575b816104c760209383612ee2565b810103126104d75751905f610438565b5f80fd5b3d91506104ba565b6040513d86823e3d90fd5b506020813d602011610519575b8161050860209383612ee2565b810103126104d757602490516103fd565b3d91506104fb565b6040513d85823e3d90fd5b80610610575b15610562576001600160801b0361055392166001600160801b038c1661422e565b9692969591949094969a610334565b6001600160a01b0389168314806105fe575b15610595576001600160801b0361055392166001600160801b038c1661420a565b506001600160a01b0388168414806105ec575b156105ca57826001600160801b0361055392166001600160801b038c166141b1565b63db5f019960e01b89526001600160a01b038089166004528616602452604489fd5b506001600160a01b03861685146105a8565b506001600160a01b0387168614610574565b506001600160a01b0387168514610532565b506001600160a01b0388168414610307565b61065691506101003d811161065c575b61064e8183612ee2565b81019061345a565b5f6102eb565b503d610644565b6040513d8c823e3d90fd5b506001600160801b03811615156101e2565b63062bc18360e51b8152600490fd5b631ab7da6b60e01b8152600490fd5b630cf6cf4760e01b8152600490fd5b5034610499576020366003190112610499576106c7612e22565b6106cf613540565b5f516020615eca5f395f51905f5280546001600160a01b0319166001600160a01b039283169081179091555f516020615e2a5f395f51905f52549091167f38d16b8cac22d99fc7c124b9cd0de2d3fa1faef420bfe791d8c362d765e227008380a380f35b5034610499576102003660031901126104995761074e612e22565b5036604312156104995760405161076481612ec7565b36608411610910576024905b608482106109145782610781612f03565b5061078a61301a565b5060e4356001600160401b038111610910576107aa903690600401612fbb565b506101003661010319011261049957604051906107c682612ec7565b610104356001600160a01b0381168103610910578252610124356001600160401b038116810361091057602083015260c0366101431901126104995760405161080e81612eac565b6101443563ffffffff8116810361090c5781526101643563ffffffff8116810361090c5760208201526101843563ffffffff8116810361090c5760408201526101a43563ffffffff8116810361090c5760608201526101c43563ffffffff8116810361090c5760808201526101e43563ffffffff8116810361090c5760049360409160a084015201525f516020615eaa5f395f51905f52546001600160401b038116801591826108fc575b5060011490816108f2575b1590816108e9575b506108dd576338acf2a160e11b8152fd5b63f92ee8a960e01b8152fd5b905015836108cc565b303b1591506108c4565b60401c60ff1615915060016108b9565b8280fd5b5080fd5b6020809161092184612e38565b815201910190610770565b503461049957602036600319011261049957610946612e22565b61094e613930565b610956613540565b600d546001546002546001600160a01b0391821693859391831692909184911680610bc6575b50506040516370a0823160e01b815230600482015291602083602481885afa928315610bbb578693610b87575b5082946040516370a0823160e01b8152306004820152602081602481865afa908115610b7c578891610b4a575b5080948181105f14610b435780985b89610aa6575b5050508580975083610a809697610a95575b905084809250610a84575b505060408051868152602081018890529081018490526001600160a01b0392909216917fb5bc2699e393dc5e7873095d3f997a8c077efdb0897378be06169578bde282989150606090a260015f516020615e8a5f395f51905f5255604051938493846040919493926060820195825260208201520152565b0390f35b610a8d9261465f565b5f8282610a08565b610a9e9261465f565b5f86836109fd565b80549298509296955091906001600160a01b0316803b1561091057604051632770a7eb60e21b81526001600160a01b0386166004820152602481018a90529082908290604490829084905af1801561049c57610b2e575b505086610b1c81610b16610a8098999a610b2295613526565b99613526565b94613533565b935085945f80806109eb565b610b39828092612ee2565b6104995780610afd565b81986109e5565b90506020813d602011610b74575b81610b6560209383612ee2565b810103126104d757515f6109d6565b3d9150610b58565b6040513d8a823e3d90fd5b9092506020813d602011610bb3575b81610ba360209383612ee2565b810103126104d75751915f6109a9565b3d9150610b96565b6040513d88823e3d90fd5b6040516370a0823160e01b8152306004820152602081602481855afa908115610521578391610c8b575b5080610bfd575b5061097c565b604051635d043b2960e11b815260048101919091526001600160a01b0384166024820152306044820152929450602091839160649183915af1908115610c80578591610c4e575b5091845f80610bf7565b90506020813d602011610c78575b81610c6960209383612ee2565b810103126104d757515f610c44565b3d9150610c5c565b6040513d87823e3d90fd5b9250506020823d602011610cb8575b81610ca760209383612ee2565b810103126104d7578691515f610bf0565b3d9150610c9a565b50346104995780600319360112610499575f516020615eca5f395f51905f52546040516001600160a01b039091168152602090f35b5034610499578060031936011261049957600d5481906001600160a01b031680610e2a575b506001546040516370a0823160e01b815230600482015290602090829060249082906001600160a01b03165afa801561049c5783908390610df4575b610d609250613533565b6002546040516370a0823160e01b815230600482015291929190602090829060249082906001600160a01b03165afa918215610de85791610db5575b50604092610da991613533565b82519182526020820152f35b90506020813d602011610de0575b81610dd060209383612ee2565b810103126104d757516040610d9c565b3d9150610dc3565b604051903d90823e3d90fd5b50506020813d602011610e22575b81610e0f60209383612ee2565b810103126104d75782610d609151610d56565b3d9150610e02565b6040516370a0823160e01b815230600482015291925090602081602481855afa8015610521578390610ebd575b602091506024604051809481936303d1689d60e11b835260048301525afa90811561049c578291610e8b575b50905f610d1a565b90506020813d602011610eb5575b81610ea660209383612ee2565b810103126104d757515f610e83565b3d9150610e99565b506020813d602011610ee8575b81610ed760209383612ee2565b810103126104d75760209051610e57565b3d9150610eca565b5034610499578060031936011261049957604051610f0d81612e91565b604051610f1981612e62565b60608152606060208201528152816020820152816040820152816060820152608060405191610f4783612eac565b83835283602084015283604084015283606084015283828401528360a08401520152610f7161339f565b81546040516379502c5560e01b81529061010090829060049082906001600160a01b03165afa908115610521579060409160a0949161104b575b500151906080810191825263ffffffff60405193849360208552610fdd8451610140602088015261016087019061327a565b9360208101516040870152604081015160608701526060600180851b039101511660808601525182815116828601528260208201511660c08601528260408201511660e086015282606082015116610100860152826080820151166101208601520151166101408301520390f35b61106491506101003d811161065c5761064e8183612ee2565b5f610fab565b503461049957602036600319011261049957611084612e22565b9061108d613930565b611095613540565b600d546001546040516370a0823160e01b8152306004820152606094926001600160a01b039081169260209183916024918391165afa9081156104e3578491611489575b508390849281611388575b80611289575b508180821115611281576110fd91613526565b935b6005548160055580611224575b5060065481600655806111b3575b509161115891837f2f1ead687f88051b385d58986748ace72880f298dec383297d6d895d00a2deb69450806007558060085580600955600a55613533565b916040519283528360208401526060604084015260018060a01b031691806111836060820187612dfe565b0390a260015f516020615e8a5f395f51905f5255610a806040519283928352604060208401526040830190612dfe565b8060030290600382040361121057600682527ff652222313e28459528d920b65115c16c04f3efc82aaedc97be59f3f377c0d3f825b8281106111f657505061111a565b8084600260039385018281558260018201550155016111e8565b634e487b7160e01b82526011600452602482fd5b8060030290600382040361121057600582527f036b6384b5eca791c62761152d0c79bb0604c104a5fb6f4eb0703f3154bb3db0825b82811061126757505061110c565b808460026003938501828155826001820155015501611259565b5050836110ff565b6040516370a0823160e01b8152306004820152602081602481855afa90811561137d57908792918391611348575b50806112c5575b50506110ea565b604051635d043b2960e11b815260048101919091526001600160a01b0387166024820152306044820152929450602091839160649183915af1908115610c80578591611316575b5091845f806112be565b90506020813d602011611340575b8161133160209383612ee2565b810103126104d757515f61130c565b3d9150611324565b9250506020823d602011611375575b8161136460209383612ee2565b810103126104d7578691515f6112b7565b3d9150611357565b6040513d89823e3d90fd5b8554604051633def417960e11b8152600481018490526001600160a01b0387811660248301529098509193508691889160449183918591165af18015610c8057859686916113d9575b5095916110e4565b9650503d8086883e6113eb8188612ee2565b860195604081880312611485578051906020810151906001600160401b038211611469570187601f82011215611481578051906001600160401b03821161146d5760405198611444601f8401601f19166020018b612ee2565b828a5260208383010111611469578188926020809301838c015e89010152955f6113d1565b8780fd5b634e487b7160e01b88526041600452602488fd5b8680fd5b8580fd5b90506020813d6020116114b3575b816114a460209383612ee2565b810103126104d757515f6110d9565b3d9150611497565b50346104995760c0366003190112610499576004906114d936613041565b5080546001600160a01b031633036114f75763964ccc6760e01b8152fd5b639e0125a960e01b8152fd5b5034610499576080366003190112610499576064356001600160401b03811161091057611534903690600401612fbb565b61153c613540565b600c546004350361155957611556906044356024356139fe565b80f35b63049195d160e41b8252600482fd5b50346104995780600319360112610499575f516020615e2a5f395f51905f52546040516001600160a01b039091168152602090f35b50346104995780600319360112610499576115b6613540565b6115be613fe5565b600160ff195f516020615e6a5f395f51905f525416175f516020615e6a5f395f51905f52557f62e78cea01bee320cd4e420270b5ea74000d11b0c9f74754ebdbfc544b05a2586020604051338152a180f35b5034610499578060031936011261049957546040516001600160a01b039091168152602090f35b503461049957606036600319011261049957611651612e22565b611659612e4c565b9060443591611666613540565b61167183828461465f565b6040519283526001600160a01b03908116923392909116907f9bdcd4ac2980b31e1432dec749a61e528e22be62f85d228386ce6a3fb4c3ed7290602090a480f35b50346104995780600319360112610499575f516020615eca5f395f51905f5254336001600160a01b03909116036116ec576115563361482a565b63118cdaa760e01b815233600452602490fd5b5034610499578060031936011261049957611718613540565b5f516020615eca5f395f51905f5280546001600160a01b03199081169091555f516020615e2a5f395f51905f528054918216905581906001600160a01b03167f8be0079c531659141344cd1fd0a4f28419497f9722a3daafe3b4186f6b6457e08280a380f35b50346104995760403660031901126104995761155661179b612e4c565b6117a3613540565b600435613e90565b5034610499578060031936011261049957602060ff5f516020615e6a5f395f51905f5254166040519015158152f35b5034610499576040366003190112610499576117f4612e22565b60243590611800613930565b611808613540565b6001546040516370a0823160e01b815230600482015290602090829060249082906001600160a01b03165afa9081156104e35784916119ad575b506002546040516370a0823160e01b815230600482015290602090829060249082906001600160a01b03165afa908115610c8057859161197b575b5080841161196c578082101561196557505b828110611949575b50825483906001600160a01b0316803b1561091057604051632770a7eb60e21b81526001600160a01b0384166004820152602481018590529082908290604490829084905af1801561049c57611934575b50506040519182526001600160a01b0316907fac59582e5396aca512fa873a2047e7f4c80f8f55d4a06cb34a78a0187f62719f90602090a260015f516020615e8a5f395f51905f525580f35b8161193e91612ee2565b61090c57825f6118e8565b61195661195f9184613526565b600754906146f7565b5f611897565b905061188f565b633c88ec4160e11b8552600485fd5b90506020813d6020116119a5575b8161199660209383612ee2565b810103126104d757515f61187d565b3d9150611989565b90506020813d6020116119d7575b816119c860209383612ee2565b810103126104d757515f611842565b3d91506119bb565b5034610499576119ee366131b9565b949391956119fa613930565b611a02613fe5565b6001600160401b03600b541642101561069e578095421161068f576001600160a01b03858116908416146106805780916001600160801b038816611a78575b5050947fafc472950ba0847ac0541a7d71ad9977d695e4dba0cc223dba88d5fa8609732a9161026e60209761022461021e896146c6565b6003546001546002549398506001600160a01b0391821694509281169216611a9e61339f565b88546040516379502c5560e01b81529193919061010090829060049082906001600160a01b03165afa90811561066357906040918b91611dd7575b5001516080840152826001600160a01b038916831480611dc5575b15611cee576001600160801b03611b1592166001600160801b038c1661418d565b9692969591949094969a5b6001546040516370a0823160e01b815230600482015290602090829060249082906001600160a01b03165afa90811561049c578291611cbc575b506002546040516370a0823160e01b815230600482015290602090829060249082906001600160a01b03165afa908115610521578391611c8a575b5060608401516001600160a01b03169182611c23575b50505050938b878c8a60209f9a976020978f976001600160801b037fafc472950ba0847ac0541a7d71ad9977d695e4dba0cc223dba88d5fa8609732a9f9d999a61026e9d611c03611c0d9d848c169030903390614279565b0151971692614312565b611c1888878561465f565b929750819350611a41565b823b156104a757604051636d1f912560e11b81526004810191909152602481019190915260448101889052606481018990529082908290608490829084905af1801561049c57611c75575b8080611bab565b611c80828092612ee2565b6104995780611c6e565b90506020813d602011611cb4575b81611ca560209383612ee2565b810103126104d757515f611b95565b3d9150611c98565b90506020813d602011611ce6575b81611cd760209383612ee2565b810103126104d757515f611b5a565b3d9150611cca565b6001600160a01b038916851480611db3575b15611d30576001600160801b03611d2192166001600160801b038c16614134565b9692969591949094969a611b20565b6001600160a01b03891686148080611da1575b15611d6557506001600160801b03611d2192166001600160801b038c166140fb565b905080611d8f575b156105ca57826001600160801b03611d2192166001600160801b038c1661401c565b506001600160a01b0386168414611d6d565b506001600160a01b0388168414611d43565b506001600160a01b0387168614611d00565b506001600160a01b0387168614611af4565b611df091506101003d811161065c5761064e8183612ee2565b5f611ad9565b50346104995780600319360112610499576024611e11613ee7565b6002546040516370a0823160e01b81523060048201529260209184919082906001600160a01b03165afa9182156105215783926120af575b5060405191611e5783612e62565b600554611e6381612f19565b90611e716040519283612ee2565b80825260058652857f036b6384b5eca791c62761152d0c79bb0604c104a5fb6f4eb0703f3154bb3db0602084015b8383106120785750505050835260065492611eb984612f19565b93611ec76040519586612ee2565b80855260068652857ff652222313e28459528d920b65115c16c04f3efc82aaedc97be59f3f377c0d3f602087015b8383106120415750505050602081019384528181518051155f14611fbb5750505083925b80518051611f37575050604080519384525f19602085015293505050f35b8291611f49611f5794611f5093613f2c565b9051613346565b5183613f68565b949091506305f5e1008502948086046305f5e10014811517156112105764087f91cd00029480860461016d1490151715611fa7575092611f9c611fa29260409561335a565b90613381565b610da9565b634e487b7160e01b81526011600452602490fd5b611fd392611f4983611fcc93613f2c565b5184613f68565b91506305f5e1008202918083046305f5e100148115171561202d5764087f91cd00029180830461016d14901517156120195790611f9c846120139361335a565b92611f19565b634e487b7160e01b86526011600452602486fd5b634e487b7160e01b87526011600452602487fd5b6003602060019260405161205481612ec7565b85548152848601548382015260028601546040820152815201920192019190611ef5565b6003602060019260405161208b81612ec7565b85548152848601548382015260028601546040820152815201920192019190611e9f565b9091506020813d6020116120db575b816120cb60209383612ee2565b810103126104d75751905f611e49565b3d91506120be565b503461049957604036600319011261049957806120fe612e22565b6024359061210a613930565b612112613540565b61211e82303384614279565b600d5483546003546001600160a01b03918216939082169282169181168314612157575b8560015f516020615e8a5f395f51905f525580f35b816121ca575050828261216992614895565b803b156121c6576040516340c10f1960e01b8152306004820152602481019290925282908290604490829084905af1801561049c576121b1575b50505b805f80808080612142565b816121bb91612ee2565b61049957805f6121a3565b5050fd5b929150926024602060018060a01b0360015416604051928380926370a0823160e01b82523060048301525afa908115610bbb57869161237f575b506002546040516370a0823160e01b81523060048201529190602090839060249082906001600160a01b03165afa91821561137d578792612348575b50818111156123405750915b826122de575b509261227061229a936122688394602097613533565b928391614895565b604051636e553f6560e01b8152600481019190915230602482015293849283919082906044820190565b03925af1801561049c576122af575b506121a6565b6122d09060203d6020116122d7575b6122c88183612ee2565b8101906132a7565b505f6122a9565b503d6122be565b803b1561148557604051632770a7eb60e21b8152306004820152602481018490529086908290604490829084905af1908115610bbb578691612321575b50612252565b8161232e91969496612ee2565b61233c57845f94929461231b565b8480fd5b90509161224c565b965090506020863d602011612377575b8161236560209383612ee2565b810103126104d757869551905f612240565b3d9150612358565b9550506020853d6020116123ae575b8161239b60209383612ee2565b810103126104d757602486955190612204565b3d915061238e565b5034610499576060366003190112610499576004356001600160401b03811161091057906123e9600492369084016130d8565b506123f2613540565b6344ae5b8160e11b8152fd5b50346104995780600319360112610499576001546040516370a0823160e01b81523060048201529190602090839060249082906001600160a01b03165afa908115610de85780916124c7575b6002546040516370a0823160e01b81523060048201529350602090849060249082906001600160a01b03165afa908115610de85790612494575b6040809350519182526020820152f35b506020823d6020116124bf575b816124ae60209383612ee2565b810103126104d75760409151612484565b3d91506124a1565b90506020823d6020116124f4575b816124e260209383612ee2565b810103126104d757602491519061244a565b3d91506124d5565b5034610499576020366003190112610499576004356001600160401b0381116109105761012060031982360301126109105760405161012081018181106001600160401b038211176128995760405261255782600401612e38565b815261256560248301612e38565b6020820190815261257860448401612e38565b6040830190815261258b60648501612e38565b906060840191825261259f60848601612e38565b6080850190815260a085019260a487013584526125be60c48801612e38565b9260c0870193845260e4880135976001600160401b03891689036128955760e08801988952610104810135906001600160401b03821161289157600461260792369201016130d8565b9561010088019687525f516020615eaa5f395f51905f52549860ff8a60401c1615996001600160401b03811680159081612889575b600114908161287f575b159081612876575b506128675767ffffffffffffffff1981166001175f516020615eaa5f395f51905f52558a61283b575b5088516001600160a01b031661268b6149f5565b80156128275792612794989795926001600160401b0361276996938e6126b46127799b9861482a565b6126bc6149f5565b60015f516020615e8a5f395f51905f52556126d56149f5565b5f516020615e6a5f395f51905f52805460ff1916905580546001600160a01b031990811633179091559051600b805467ffffffffffffffff1916939091169290921790915590516001805483166001600160a01b0392831617905591516002805483169184169190911790559151600380548416918316919091179055915160048054909216908316179055905116613573565b51825160408101519051916139fe565b5160208101516060909101516001600160a01b031690613e90565b51604051919033906001600160a01b03167f5d5233c9f661df85e3b99502226cee2a749189baf89e7eefbe7745ffca7d4a768580a36127d1575080f35b60207fc7f505b2f371ae2175ee4913f4499e1f2633a7b5936321eed1cdaeb6115181d29168ff0000000000000000195f516020615eaa5f395f51905f5254165f516020615eaa5f395f51905f525560018152a180f35b631e4fbdf760e01b8c5260048c905260248cfd5b68ffffffffffffffffff191668010000000000000001175f516020615eaa5f395f51905f52555f612677565b63f92ee8a960e01b8c5260048cfd5b9050155f61264e565b303b159150612646565b8c915061263c565b8a80fd5b8980fd5b634e487b7160e01b84526041600452602484fd5b50346104d75760603660031901126104d7576128c7612e22565b906024356044356001600160a01b03811681036104d7576128e6613930565b6128ee613540565b600d545f546003546001600160a01b03908116969181169492169081612987575050839450823b1561298257604051632770a7eb60e21b81526001600160a01b0392909216600483015260248201529082908290604490829084905af1801561049c5761296d575b50505b60015f516020615e8a5f395f51905f525580f35b8161297791612ee2565b61049957805f612956565b505050fd5b6001546040516370a0823160e01b815230600482015290602090829060249082906001600160a01b03165afa8015612c4f575f90612c99575b6002546040516370a0823160e01b81523060048201529250602090839060249082906001600160a01b03165afa908115612c4f5789925f92612c62575b5081811115612c5a5750915b6001600160a01b031603612b6c579495508594828110612a85575050823b1561298257604051632770a7eb60e21b81526001600160a01b0392909216600483015260248201529082908290604490829084905af1801561049c57612a70575b50505b612959565b81612a7a91612ee2565b61049957805f612a68565b9194909293803b1561091057604051632770a7eb60e21b81526001600160a01b0386166004820152602481018490529082908290604490829084905af1801561049c57612b51575b505090612ae060209392612b1d95613526565b604051632d182be560e21b815260048101919091526001600160a01b03909216602483015230604483015290928391908290869082906064820190565b03925af1801561049c57612b32575b50612959565b612b4a9060203d6020116122d7576122c88183612ee2565b505f612b2c565b81612b5f9195949395612ee2565b61233c579091845f612acd565b90919381612b82575b5050612a6b93945061465f565b803b156104d757604051632770a7eb60e21b815230600482015260248101839052905f908290604490829084905af18015612c4f57612c32575b5080612bcf60209284612bf69899614895565b604051636e553f6560e01b8152600481019190915230602482015294859081906044820190565b038188855af1938415610c8057612a6b94612c13575b8594612b75565b612c2b9060203d6020116122d7576122c88183612ee2565b505f612c0c565b612bf6955090612c445f602093612ee2565b5f9550905080612bbc565b6040513d5f823e3d90fd5b905091612a09565b925090506020823d602011612c91575b81612c7f60209383612ee2565b810103126104d757889151905f6129fd565b3d9150612c72565b506020813d602011612cc4575b81612cb360209383612ee2565b810103126104d757602490516129c0565b3d9150612ca6565b346104d75760203660031901126104d757612cf5612ce8612e22565b612cf0613540565b613573565b005b346104d7575f3660031901126104d757612d0f613540565b5f516020615e6a5f395f51905f525460ff811615612d665760ff19165f516020615e6a5f395f51905f52557f5db9ee0a495bf2e6ff9c91a7834c1ba4fdd244a5e8aa4e537bd38aeae4b073aa6020604051338152a1005b638dfc202b60e01b5f5260045ffd5b346104d7575f3660031901126104d757600d546040516001600160a01b039091168152602090f35b346104d7575f3660031901126104d757610a80604051612dbe604082612ee2565b60058152640322e302e360dc1b6020820152604051918291602083526020830190612dfe565b346104d7575f3660031901126104d757602090600c548152f35b805180835260209291819084018484015e5f828201840152601f01601f1916010190565b600435906001600160a01b03821682036104d757565b35906001600160a01b03821682036104d757565b602435906001600160a01b03821682036104d757565b604081019081106001600160401b03821117612e7d57604052565b634e487b7160e01b5f52604160045260245ffd5b60a081019081106001600160401b03821117612e7d57604052565b60c081019081106001600160401b03821117612e7d57604052565b606081019081106001600160401b03821117612e7d57604052565b90601f801991011681019081106001600160401b03821117612e7d57604052565b608435906001600160a01b03821682036104d757565b6001600160401b038111612e7d5760051b60200190565b81601f820112156104d757803590612f4782612f19565b92612f556040519485612ee2565b828452602060608186019402830101918183116104d757602001925b828410612f7f575050505090565b6060848303126104d7576020606091604051612f9a81612ec7565b86358152828701358382015260408701356040820152815201930192612f71565b91906040838203126104d75760405190612fd482612e62565b819380356001600160401b0381116104d75782612ff2918301612f30565b83526020810135916001600160401b0383116104d7576020926130159201612f30565b910152565b60c435906001600160a01b03821682036104d757565b359063ffffffff821682036104d757565b60c09060031901126104d7576040519061305a82612eac565b8160043563ffffffff811681036104d757815260243563ffffffff811681036104d757602082015260443563ffffffff811681036104d757604082015260643563ffffffff811681036104d757606082015260843563ffffffff811681036104d757608082015260a4359063ffffffff821682036104d75760a00152565b808203929161014084126104d757604051906130f382612e91565b819483356001600160401b0381116104d75760c092613113918601612fbb565b8352602084013560208401526040840135604084015261313560608501612e38565b6060840152607f1901126104d7576080906131b06101206040519461315986612eac565b613164858201613030565b865261317260a08201613030565b602087015261318360c08201613030565b604087015261319460e08201613030565b60608701526131a66101008201613030565b8587015201613030565b60a08401520152565b60c09060031901126104d7576004356001600160a01b03811681036104d757906024356001600160a01b03811681036104d757906044356001600160a01b03811681036104d757906064356001600160801b03811681036104d757906084356001600160801b03811681036104d7579060a43590565b90602080835192838152019201905f5b81811061324c5750505090565b909192602060606001926040875180518352848101518584015201516040820152019401910191909161323f565b6132a4916020613293835160408452604084019061322f565b92015190602081840391015261322f565b90565b908160209103126104d7575190565b9081546132c281612f19565b926132d06040519485612ee2565b81845260208401905f5260205f205f915b8383106132ee5750505050565b6003602060019260405161330181612ec7565b855481528486015483820152600286015460408201528152019201920191906132e1565b8051156133325760200190565b634e487b7160e01b5f52603260045260245ffd5b80518210156133325760209160051b010190565b8181029291811591840414171561336d57565b634e487b7160e01b5f52601160045260245ffd5b811561338b570490565b634e487b7160e01b5f52601260045260245ffd5b604051906133ac82612e91565b816040516133b981612e62565b6133c360056132b6565b81526133cf60066132b6565b602082015281526007546020820152600854604082015260018060a01b0360095416606082015260806040519161340583612eac565b63ffffffff600a548181168552818160201c166020860152818160401c166040860152818160601c1660608601528181851c168486015260a01c1660a08401520152565b519063ffffffff821682036104d757565b8091039061010082126104d7576040519161347483612ec7565b81516001600160a01b03811681036104d75783526020820151906001600160401b03821682036104d75760c0916020850152603f1901126104d75761351960e0604051926134c184612eac565b6134cd60408201613449565b84526134db60608201613449565b60208501526134ec60808201613449565b60408501526134fd60a08201613449565b606085015261350e60c08201613449565b608085015201613449565b60a0820152604082015290565b9190820391821161336d57565b9190820180921161336d57565b5f516020615e2a5f395f51905f52546001600160a01b0316330361356057565b63118cdaa760e01b5f523360045260245ffd5b600d545f9182916001600160a01b03168061384b575b506001600160a01b03169182156137b7576001546040516370a0823160e01b815230600482015290602090829060249082906001600160a01b03165afa8015610521578390613784575b6002546040516370a0823160e01b81523060048201529250602090839060249082906001600160a01b03165afa9182156104e3578492613750575b508181111561374957505b806136d7575b508061364d575b505f516020615e4a5f395f51905f52905b600d80546001600160a01b0319168417905580a2565b60208161366861368f938660018060a01b0360035416614895565b604051636e553f6560e01b8152600481019190915230602482015291829081906044820190565b038185875af1801561049c57905f516020615e4a5f395f51905f5292916136b8575b5090613626565b6136d09060203d6020116122d7576122c88183612ee2565b505f6136b1565b82549091906001600160a01b0316803b156104a757604051632770a7eb60e21b8152306004820152602481018490529084908290604490829084905af180156104e357908491613734575b50509061372e91613533565b5f61361f565b8161373e91612ee2565b61090c57825f613722565b9050613619565b9091506020813d60201161377c575b8161376c60209383612ee2565b810103126104d75751905f61360e565b3d915061375f565b506020813d6020116137af575b8161379e60209383612ee2565b810103126104d757602490516135d3565b3d9150613791565b90816137d3575b5f516020615e4a5f395f51905f529150613637565b5f546003546001600160a01b03918216916137f2918591849116614895565b803b156104d7576040516340c10f1960e01b815230600482015260248101939093525f908390604490829084905af18015612c4f57156137be57505f61383791612ee2565b5f516020615e4a5f395f51905f525f6137be565b6040516370a0823160e01b8152306004820152602081602481855afa908115612c4f575f916138fe575b5080613882575b50613589565b604051635d043b2960e11b8152600481019190915230602482018190526044820152919350602090829060649082905f905af1908115612c4f575f916138cc575b50915f8061387c565b90506020813d6020116138f6575b816138e760209383612ee2565b810103126104d757515f6138c3565b3d91506138da565b90506020813d602011613928575b8161391960209383612ee2565b810103126104d757515f613875565b3d915061390c565b60025f516020615e8a5f395f51905f5254146139595760025f516020615e8a5f395f51905f5255565b633ee5aeb560e01b5f5260045ffd5b5f9080156139f85780806001146139f0576002146139e95760016101338210166001600b831016176139db579060019060025b600181116139b35750825f19048211611fa757500290565b92805f1904811161121057600184166139d2575b80029260011c61399b565b809202916139c7565b6002900a919080611fa75750565b5050600490565b505050600190565b50505f90565b9082518051613e5c575b5060015b83518051821015613b2457613a2382602092613346565b510151158015613af7575b613ae8576020613a3f828651613346565b51015184515f1983019083821161336d57613a5c82602092613346565b510151613a8d613a88613a70868a51613346565b51516040613a7f888c51613346565b51015190614a20565b613968565b906305f5e1008202918083046305f5e100149015171561336d57613ad4613ada92611f9c613a888b6040613a7f6305f5e10099613acb8d8551613346565b51519351613346565b9061335a565b0403613ae857600101613a0c565b632fb66ac560e11b5f5260045ffd5b50613b03818551613346565b515184515f19830183811161336d57613b1b91613346565b51511015613a2e565b50509291602081019283518051613e28575b5060015b84518051821015613c2657613b5182602092613346565b510151158015613bf9575b613ae8576020613b6d828751613346565b51015185515f1983019083821161336d57613b8a82602092613346565b510151613bad613a88613b9e868b51613346565b51516040613a7f888d51613346565b906305f5e1008202918083046305f5e100149015171561336d57613ad4613beb92611f9c613a888c6040613a7f6305f5e10099613acb8d8551613346565b0403613ae857600101613b3a565b50613c05818651613346565b515185515f19830183811161336d57613c1d91613346565b51511015613b5c565b505092939190938451805190600160401b8211612e7d5760055482600555808310613dd5575b5060200160055f527f036b6384b5eca791c62761152d0c79bb0604c104a5fb6f4eb0703f3154bb3db05f915b838310613dab57505050505193845194600160401b8611612e7d5760065486600655808710613d58575b5060065f9081527ff652222313e28459528d920b65115c16c04f3efc82aaedc97be59f3f377c0d3f96916020015b828210613d2d575050507f2a268faf6bdc295a3f8adb7fba521a047fc1704f78898644971113cd1fd50326939450613d28908360085582600c556040519384938452602084015260606040840152606083019061327a565b0390a1565b600360208260406001945180518d558c8685830151910155015160028c015501980191019096613cd0565b8060030290600382040361336d578660030260038104880361336d5760065f528060205f20019103905f5b828110613d91575050613ca2565b805f60026003938501828155826001820155015501613d83565b60036020826040600194518051875583810151868801550151600286015501920192019190613c78565b8060030290600382040361336d578260030260038104840361336d5760055f528060205f20019103905f5b828110613e0e575050613c4c565b805f60026003938501828155826001820155015501613e00565b613e33602091613325565b510151158015613e48575b613ae8575f613b36565b50613e538451613325565b51511515613e3e565b613e67602091613325565b510151158015613e7c575b613ae8575f613a08565b50613e878351613325565b51511515613e72565b6040907fbca957d0af8e295b0b6ee76dbe39b0267cb82ab33483e89d5c6254fa27e15847928160075560018060a01b0316806bffffffffffffffffffffffff60a01b600954161760095582519182526020820152a1565b613efd6001600160401b03600b54164290613526565b6201518081019081811161336d576201517f0190811161336d5762015180900490565b801561336d575f190190565b9190825192835b613f3b575050565b9092613f4690613f20565b9283613f528184613346565b5151821015613f6357919091613f33565b505050565b613f7990939193602085015161335a565b6305f5e1009081810291818304149015171561336d57613faa64087f91cd006132a492049360408596015190614a20565b8093613381565b64087f91cd00613fd7613faa92613fd26132a49598969860208a015161335a565b61335a565b049360408596015190614a20565b60ff5f516020615e6a5f395f51905f525416613ffd57565b63d93c066560e01b5f5260045ffd5b600160ff1b811461336d575f0390565b919283515151156140ec57614051926140438582614038613ee7565b600c549060126157de565b939892989791949097613533565b948086106140d5575090859291600c54915f14614097575061408b9161407d6140909461408593613526565b600c55614a43565b94614a43565b61400c565b9193929190565b926140a490604092613533565b92015182116140c65761408b6140c09161409093600c55614a43565b93614a43565b6361c22b7f60e01b5f5260045ffd5b8590639690657760e01b5f5260045260245260445ffd5b63c480e6d160e01b5f5260045ffd5b919260208451015151156141255761405192614043858261411a613ee7565b600c549060116157de565b63970cabd560e01b5f5260045ffd5b9190916020825101515115614125578161415b91614150613ee7565b600c549060166157de565b919296939490958086106140d5575090859291600c54915f14614097575061408b9161407d6140909461408593613526565b91909181515151156140ec578161415b916141a6613ee7565b600c549060156157de565b919091602082510151511561412557816141d8916141cd613ee7565b600c549060186157de565b919296939490958086116140d5575090859291600c54915f14614097575061408b9161407d6140909461408593613526565b91909181515151156140ec57816141d891614223613ee7565b600c549060176157de565b91909181515151156140ec57816141d891614247613ee7565b600c549060146157de565b919091602082510151511561412557816141d89161426e613ee7565b600c549060136157de565b9092915f1983146142e8576001600160a01b0390811693169182841480156142e0575b6142da576142d893604051936323b872dd60e01b6020860152602485015260448401526064830152606482526142d3608483612ee2565b614a66565b565b50505050565b50801561429c565b630d550c3b60e11b5f5260045ffd5b9190915f838201938412911290801582169115161761336d57565b6040516370a0823160e01b81523060048201525f9b9a9799919894979596939592949290916020836024816001600160a01b038e165afa928315612c4f575f93614629575b5061436e602091614369602495614a43565b6142f7565b6040516370a0823160e01b815230600482015290969093849182906001600160a01b03165afa918215612c4f575f926145f3575b506143696143af92614a43565b5f9390848212156145d0575081156145bd57906143ce6143d39261400c565b6146f7565b8161453c575b5f80546001600160a01b039081169691958b92919081169086160361452f57508282111561451e57509061440c91613526565b833b156104d757604051632770a7eb60e21b815230600482015260248101919091525f8160448183885af18015612c4f57614507575b509086915b816144ab575b505050610100600491604051928380926379502c5560e01b82525afa908115610c80576142d894959161448c575b50516001600160a01b03169061465f565b6144a591506101003d811161065c5761064e8183612ee2565b5f61447b565b81846144b692614895565b823b15610910576040516340c10f1960e01b81523060048201526024810191909152818160448183875af1801561049c576144f2575b8061444d565b816144fc91612ee2565b61233c57845f6144ec565b614515919297505f90612ee2565b5f95905f614442565b935061452991613526565b90614447565b9150935061452991613533565b600d546001600160a01b031680156145ae57604051632d182be560e21b8152600481018490523060248201819052604482015290602090829060649082905f905af18015612c4f5761458f575b506143d9565b6145a79060203d6020116122d7576122c88183612ee2565b505f614589565b63bb55fd2760e01b5f5260045ffd5b90506145ca91925061400c565b906143d3565b9150505f81126145e1575b506143d3565b6145ec91925061400c565b905f6145db565b91506020823d602011614621575b8161460e60209383612ee2565b810103126104d7579051906143696143a2565b3d9150614601565b92506020833d602011614657575b8161464460209383612ee2565b810103126104d75791519161436e614357565b3d9150614637565b9091905f1982146142e8576001600160a01b038316301480156146be575b613f635760405163a9059cbb60e01b60208201526001600160a01b039390931660248401526044808401929092529082526142d891906142d3606483612ee2565b50811561467d565b6001600160801b0381116146e0576001600160801b031690565b6306dfcc6560e41b5f52608060045260245260445ffd5b811561481b576305f5e1008102908082046305f5e100149015171561336d575f54604051633f5ffaf560e01b81526001600160a01b039091169190602081600481865afa908115612c4f575f916147e9575b506305f5e100036305f5e100811161336d576020925f61477b6147766064946001600160801b0396613381565b6146c6565b9160405196879586946339a380ed60e01b865230600487015216602485015260448401525af18015612c4f576147ae5750565b6020813d6020116147e1575b816147c760209383612ee2565b810103126104d757516001600160801b038116036104d757565b3d91506147ba565b90506020813d602011614813575b8161480460209383612ee2565b810103126104d757515f614749565b3d91506147f7565b630444e4fd60e51b5f5260045ffd5b5f516020615eca5f395f51905f5280546001600160a01b03199081169091555f516020615e2a5f395f51905f5280549182166001600160a01b0393841690811790915591167f8be0079c531659141344cd1fd0a4f28419497f9722a3daafe3b4186f6b6457e05f80a3565b821580156149e3575b613f6357604051636eb1769f60e11b81523060048201526001600160a01b03838116602483018190529490831691602081604481865afa908115612c4f575f916149af575b5061492b946149396148f86020945f94613533565b60405163095ea7b360e01b8682019081526001600160a01b03909416602482015260448101919091529687906064820190565b03601f198101885287612ee2565b85519082865af1903d5f519083614990575b5050501561495857505050565b6142d36142d8936040519063095ea7b360e01b602083015260248201525f60448201526044815261498a606482612ee2565b82614a66565b919250906149a557503b15155b5f808061494b565b600191501461499d565b90506020813d6020116149db575b816149ca60209383612ee2565b810103126104d7575161492b6148e3565b3d91506149bd565b506001600160a01b038216301461489e565b60ff5f516020615eaa5f395f51905f525460401c1615614a1157565b631afcd79f60e31b5f5260045ffd5b5f8212614a3157906132a491613533565b614a3d6132a49261400c565b90613526565b6001600160ff1b038111614a545790565b63123baf0360e11b5f5260045260245ffd5b905f602091828151910182855af115612c4f575f513d614ab557506001600160a01b0381163b155b614a955750565b635274afe760e01b5f9081526001600160a01b0391909116600452602490fd5b60011415614a8e565b9293909491945f935f96614ad28782613f2c565b6001810180911161336d5797885b614af35763bb55fd2760e01b5f5260045ffd5b5f1989019689881161336d578789614b0b8382613526565b614b6d614b2482614b1c868a613346565b518b8b613fb1565b9691959094614b658d614b3689614a43565b908b614b418a614a43565b614b4a8d614a43565b90614b5d61408561408561408b8c614a43565b946001615ba2565b949093614a43565b8312918215614c1b575b8215614bfb575b505015614be9575050614b918b87613346565b5151614b9d908d613526565b9a614ba89087613346565b5151614bb391613526565b614bbc91613526565b614bc591613381565b90614bcf91613526565b614bd891613533565b97614be290613f20565b9788614ae0565b9d509b50989950505050505050505050565b614c13919250614c0b908b613346565b515183613533565b118e8e614b7e565b9150614c2689614a43565b841291614b77565b9293909491945f935f96614c428782613f2c565b6001810180911161336d5797885b614c635763bb55fd2760e01b5f5260045ffd5b5f1989019689881161336d578789614c7b8382613526565b614ccd614c8c82614b1c868a613346565b9691959094614b658d614c9e89614a43565b908b614ca98a614a43565b614cb28d614a43565b90614cc561408561408561408b8c614a43565b946004615ba2565b8312918215614d61575b8215614d49575b505015614be9575050614cf18b87613346565b5151614cfd908d613526565b9a614d089087613346565b5151614d1391613526565b614d1c91613526565b614d2591613381565b90614d2f91613526565b614d3891613533565b97614d4290613f20565b9788614c50565b614d59919250614c0b908b613346565b118e8e614cde565b9150614d6c89614a43565b841291614cd7565b9293909491945f935f96614d888782613f2c565b6001810180911161336d5797885b614da95763bb55fd2760e01b5f5260045ffd5b5f1989019689881161336d578789614dc18382613526565b614e13614dd282614b1c868a613346565b9691959094614b658d614de489614a43565b908b614def8a614a43565b614df88d614a43565b90614e0b61408561408561408b8c614a43565b946007615ba2565b8312918215614ea7575b8215614e8f575b505015614be9575050614e378b87613346565b5151614e43908d613526565b9a614e4e9087613346565b5151614e5991613526565b614e6291613526565b614e6b91613381565b90614e7591613526565b614e7e91613533565b97614e8890613f20565b9788614d96565b614e9f919250614c0b908b613346565b118e8e614e24565b9150614eb289614a43565b841291614e1d565b9293909491945f935f96614ece8782613f2c565b6001810180911161336d5797885b614eef5763bb55fd2760e01b5f5260045ffd5b5f1989019689881161336d578789614f078382613526565b614f59614f1882614b1c868a613346565b9691959094614b658d614f2a89614a43565b908b614f358a614a43565b614f3e8d614a43565b90614f5161408561408561408b8c614a43565b946005615ba2565b8312918215614fed575b8215614fd5575b505015614be9575050614f7d8b87613346565b5151614f89908d613526565b9a614f949087613346565b5151614f9f91613526565b614fa891613526565b614fb191613381565b90614fbb91613526565b614fc491613533565b97614fce90613f20565b9788614edc565b614fe5919250614c0b908b613346565b118e8e614f6a565b9150614ff889614a43565b841291614f63565b90919293945f945f936150138287613f2c565b945b86518610156145ae576150288884613533565b9761503f89615037898b613346565b518589613fb1565b926150818d61504d85614a43565b9061505785614a43565b61506088614a43565b61506986614a43565b9161507961408561408b8d614a43565b946002615ba2565b918c515f19810190811161336d578c146151695761509e90614a43565b81128015615158575b8015615130575b1561511f575050600189019a8b8a1161336d57866150cc8d8d613346565b5151906150d891613526565b9b6150e3908c613346565b5151906150ef91613526565b6150f891613533565b61510191613381565b61510a91613526565b61511391613533565b946001905b0194615015565b9c509a509598505050505050505050565b5061513b8189613533565b60018c01808d1161336d57615150908e613346565b5151106150ae565b5061516286614a43565b82126150a7565b9c50925092505061517c8a989398614a43565b811215806151a1575b615193575050600190615118565b995097509295505050505050565b506151ab88614a43565b821215615185565b90919293945f945f936151c68287613f2c565b945b86518610156145ae576151db8884613533565b976151ea89615037898b613346565b9261522c8d6151f885614a43565b9061520285614a43565b61520b88614a43565b61521486614a43565b9161522461408561408b8d614a43565b946003615ba2565b918c515f19810190811161336d578c146153035761524990614a43565b811280156152f2575b80156152ca575b1561511f575050600189019a8b8a1161336d57866152778d8d613346565b51519061528391613526565b9b61528e908c613346565b51519061529a91613526565b6152a391613533565b6152ac91613381565b6152b591613526565b6152be91613533565b946001905b01946151c8565b506152d58189613533565b60018c01808d1161336d576152ea908e613346565b515110615259565b506152fc86614a43565b8212615252565b9c5092509250506153168a989398614a43565b8112158061532d575b6151935750506001906152c3565b5061533788614a43565b82121561531f565b90919293945f945f936153528287613f2c565b945b86518610156145ae576153678884613533565b9761537689615037898b613346565b926153b88d61538485614a43565b9061538e85614a43565b61539788614a43565b6153a086614a43565b916153b061408561408b8d614a43565b946008615ba2565b918c515f19810190811161336d578c1461548f576153d590614a43565b8112801561547e575b8015615456575b1561511f575050600189019a8b8a1161336d57866154038d8d613346565b51519061540f91613526565b9b61541a908c613346565b51519061542691613526565b61542f91613533565b61543891613381565b61544191613526565b61544a91613533565b946001905b0194615354565b506154618189613533565b60018c01808d1161336d57615476908e613346565b5151106153e5565b5061548886614a43565b82126153de565b9c5092509250506154a28a989398614a43565b811215806154b9575b61519357505060019061544f565b506154c388614a43565b8212156154ab565b90919293945f945f936154de8287613f2c565b945b86518610156145ae576154f38884613533565b9761550289615037898b613346565b926155448d61551085614a43565b9061551a85614a43565b61552388614a43565b61552c86614a43565b9161553c61408561408b8d614a43565b946006615ba2565b918c515f19810190811161336d578c1461561b5761556190614a43565b8112801561560a575b80156155e2575b1561511f575050600189019a8b8a1161336d578661558f8d8d613346565b51519061559b91613526565b9b6155a6908c613346565b5151906155b291613526565b6155bb91613533565b6155c491613381565b6155cd91613526565b6155d691613533565b946001905b01946154e0565b506155ed8189613533565b60018c01808d1161336d57615602908e613346565b515110615571565b5061561486614a43565b821261556a565b9c50925092505061562e8a989398614a43565b81121580615645575b6151935750506001906155db565b5061564f88614a43565b821215615637565b81810392915f13801582851316918412161761336d57565b811561338b57600160ff1b81145f1983141661336d570590565b908160021b91600483050361336d57565b81810292915f8212600160ff1b82141661336d57818405149015171561336d57565b60018111156132a457806001600160801b8210156157cd575b600482600160401b61577f9410156157c0575b6401000000008110156157b3575b620100008110156157a6575b61010081101561579a575b601081101561578e575b1015615786575b60030260011c61572e8184613381565b0160011c61573c8184613381565b0160011c61574a8184613381565b0160011c6157588184613381565b0160011c6157668184613381565b0160011c6157748184613381565b0160011c8092613381565b8111900390565b60011b61571e565b811c9160021b91615717565b60081c91811b9161570d565b60101c9160081b91615702565b60201c9160101b916156f6565b60401c9160201b916156e8565b5050608081901c600160401b6156d5565b949392919480601214615b685780601114615b2b5780601614615ab95780601514615a3c57806018146159b7578060171461593557806014146158b55760131461583657634e487b7160e01b5f52605160045260245ffd5b60206080840151935101519063ffffffff8451166305f5e10003926305f5e100841161336d5760609663ffffffff9361586f93866154cb565b9590930151166305f5e10001806305f5e1001161336d57846158a06158ac9361589b6158a5948461335a565b613381565b613526565b8094613533565b90929183905f90565b5060808395949501519251519063ffffffff6040850151166305f5e1000192836305f5e1001161336d5760209563ffffffff936158f29386614eba565b9490930151166305f5e100036305f5e100811161336d576159209161589b61591a928661335a565b83613526565b9261592b8484613526565b9293929190600190565b509360808394929301519351519463ffffffff6040860151166305f5e1000191826305f5e1001161336d57615977856020926159809963ffffffff9587614d74565b97909588613533565b950151166305f5e10003906305f5e100821161336d576159aa6159b09161589b61592b948961335a565b86613526565b8095613526565b509360206080849593940151945101519463ffffffff8551166305f5e10003916305f5e100831161336d576159f985606092615a029963ffffffff958761533f565b97909586613533565b950151166305f5e10001806305f5e1001161336d57856158a0615a339361589b615a2c948461335a565b8095613533565b92939291905f90565b5060808301519251519063ffffffff6040850151166305f5e1000192836305f5e1001161336d5760209663ffffffff93615a769386614c2e565b9590930151166305f5e10003906305f5e100821161336d57615aa2615aa89161589b615aaf948861335a565b85613526565b8094613526565b9092918390600190565b5060206080849695960151935101519063ffffffff8451166305f5e10003926305f5e100841161336d5760609563ffffffff93615af693866151b3565b9490930151166305f5e1000190816305f5e1001161336d576158a0849161589b615b20948461335a565b92615a338484613533565b5060206080849695960151935101519063ffffffff8451166305f5e10003926305f5e100841161336d5760609563ffffffff93615af69386615000565b5060808301519251519063ffffffff6040850151166305f5e1000192836305f5e1001161336d5760209663ffffffff93615a769386614abe565b969593969081600114615e095781600214615de95781600314615da25781600414615d545781600814615d2d5781600714615cf5575080600514615ca457600614615bfb57634e487b7160e01b5f52605160045260245ffd5b615c33615c4c91615c2d615c23615c146143699761400c565b615c1e8b8a615657565b615657565b80968193876142f7565b9361569a565b615c46615c40848061569a565b91615689565b90615657565b5f8112615c925792615c1e615c8c93615c1e615c866002615c7e61408b97615c1e615c796132a49c6156bc565b614a43565b0580956142f7565b9861400c565b9261400c565b635467221960e11b5f5260045260245ffd5b5090615c33615cc291615c2d615c23615c14614369979a989a61400c565b5f8112615c925792615c1e615c8c93615c1e615c866002615c7e615cef97615c1e615c796132a49c6156bc565b9361400c565b615c469150615d276132a496615d21615cef96614369615cef615d1a615c8c9b61400c565b9d8e615657565b946142f7565b9061566f565b615c469150615d276132a49698615d2161408b9695614369615cef615d1a615c8c9b61400c565b5050615c33615d7191615c2d615c2361436996615c1e8b8a615657565b5f8112615c925791615c1e615d986002615c7e615c1e95615c1e615c79615d9e9a996156bc565b9661400c565b9190565b505090615c33615dc291615c2d615c2361436996615c1e898c9a9c615657565b5f8112615c925791615c1e615d986002615c7e615c1e95615c1e615c796132a49a996156bc565b919396615d27915094615d21615c4694614369615cef6132a4998c615657565b91615d27915096615d218598614369615cef615d9e99615c46989961565756fe9016d09d72d40fdae2fd8ceac6b6234c7706214fd39c1cd1e609a0528c199300380cec482764ddef4f75351b5398e3e2bea99ba23e53a00d5521f569fb668e1fcd5ed15c6e187e77e9aee88184c21f4f2182ab5827cb3b7e07fbedcd63f033009b779b17422d0df92223018b32b4d1fa46e071723d6817e2486d003becc55f00f0c57e16840df040f15088dc2f81fe391c3923bec73e23a9662efc9c229c6a00237e158222e3e6968b72b9db0d8043aacf074ad9f650f0d1606b4d82ee432c00a264697066735822122089658b03a57b117248c0884efbe83b9ea08c42d0965560438e7ee036a0132a4564736f6c63430008210033f0c57e16840df040f15088dc2f81fe391c3923bec73e23a9662efc9c229c6a00","linkReferences":{}},"methodIdentifiers":{"acceptOwnership()":"79ba5097","addLiquidity(address,uint256)":"56688700","apr()":"57ded9c9","borrowToken(address,uint256)":"5a91b39c","getRealReserves()":"d5501b0b","getVersion()":"0d8e6e2c","initialize((address,address,address,address,address,uint256,address,uint64,(((uint256,uint256,int256)[],(uint256,uint256,int256)[]),uint256,uint256,address,(uint32,uint32,uint32,uint32,uint32,uint32))))":"4aba348f","initialize(address,address[3],address,uint256,address,((uint256,uint256,int256)[],(uint256,uint256,int256)[]),(address,uint64,(uint32,uint32,uint32,uint32,uint32,uint32)))":"f13de924","maker()":"50655d8c","market()":"80f55605","orderConfig()":"be4319b9","owner()":"8da5cb5b","pause()":"8456cb59","paused()":"5c975abb","pendingOwner()":"e30c3978","pool()":"16f0115b","redeemAll(address)":"be399be5","removeLiquidity(address,uint256,address)":"47fdbc8e","renounceOwnership()":"715018a6","setCurveAndPrice(uint256,uint256,uint256,((uint256,uint256,int256)[],(uint256,uint256,int256)[]))":"ab0a2c36","setGeneralConfig(uint256,address)":"604df3f3","setPool(address)":"4437152a","swapExactTokenToToken(address,address,address,uint128,uint128,uint256)":"59fbf526","swapTokenToExactToken(address,address,address,uint128,uint128,uint256)":"f4c6787e","tokenReserves()":"4bad9510","transferOwnership(address)":"f2fde38b","unpause()":"3f4ba83a","updateFeeConfig((uint32,uint32,uint32,uint32,uint32,uint32))":"b53f9bff","updateOrder((((uint256,uint256,int256)[],(uint256,uint256,int256)[]),uint256,uint256,address,(uint32,uint32,uint32,uint32,uint32,uint32)),int256,int256)":"556eb40f","virtualXtReserve()":"07e470f3","withdrawAllAssetsBeforeMaturity(address)":"f119bef3","withdrawAssets(address,address,uint256)":"7bd58ea9"},"id":46}