{"abi":[{"type":"constructor","inputs":[],"stateMutability":"nonpayable"},{"type":"function","name":"DELEGATION_WITH_SIG_TYPEHASH","inputs":[],"outputs":[{"name":"","type":"bytes32","internalType":"bytes32"}],"stateMutability":"view"},{"type":"function","name":"DOMAIN_SEPARATOR","inputs":[],"outputs":[{"name":"","type":"bytes32","internalType":"bytes32"}],"stateMutability":"view"},{"type":"function","name":"addCollateral","inputs":[{"name":"id","type":"uint256","internalType":"uint256"},{"name":"collateralData","type":"bytes","internalType":"bytes"}],"outputs":[],"stateMutability":"nonpayable"},{"type":"function","name":"approve","inputs":[{"name":"to","type":"address","internalType":"address"},{"name":"tokenId","type":"uint256","internalType":"uint256"}],"outputs":[],"stateMutability":"nonpayable"},{"type":"function","name":"augmentDebt","inputs":[{"name":"caller","type":"address","internalType":"address"},{"name":"id","type":"uint256","internalType":"uint256"},{"name":"ftAmt","type":"uint256","internalType":"uint256"}],"outputs":[],"stateMutability":"nonpayable"},{"type":"function","name":"balanceOf","inputs":[{"name":"owner","type":"address","internalType":"address"}],"outputs":[{"name":"","type":"uint256","internalType":"uint256"}],"stateMutability":"view"},{"type":"function","name":"collateralCapacity","inputs":[],"outputs":[{"name":"","type":"uint256","internalType":"uint256"}],"stateMutability":"view"},{"type":"function","name":"delivery","inputs":[{"name":"proportion","type":"uint256","internalType":"uint256"},{"name":"to","type":"address","internalType":"address"}],"outputs":[{"name":"deliveryData","type":"bytes","internalType":"bytes"}],"stateMutability":"nonpayable"},{"type":"function","name":"eip712Domain","inputs":[],"outputs":[{"name":"fields","type":"bytes1","internalType":"bytes1"},{"name":"name","type":"string","internalType":"string"},{"name":"version","type":"string","internalType":"string"},{"name":"chainId","type":"uint256","internalType":"uint256"},{"name":"verifyingContract","type":"address","internalType":"address"},{"name":"salt","type":"bytes32","internalType":"bytes32"},{"name":"extensions","type":"uint256[]","internalType":"uint256[]"}],"stateMutability":"view"},{"type":"function","name":"flashRepay","inputs":[{"name":"id","type":"uint256","internalType":"uint256"},{"name":"repayAmt","type":"uint128","internalType":"uint128"},{"name":"byDebtToken","type":"bool","internalType":"bool"},{"name":"removedCollateral","type":"bytes","internalType":"bytes"},{"name":"callbackData","type":"bytes","internalType":"bytes"}],"outputs":[{"name":"","type":"bool","internalType":"bool"}],"stateMutability":"nonpayable"},{"type":"function","name":"flashRepay","inputs":[{"name":"id","type":"uint256","internalType":"uint256"},{"name":"byDebtToken","type":"bool","internalType":"bool"},{"name":"callbackData","type":"bytes","internalType":"bytes"}],"outputs":[],"stateMutability":"nonpayable"},{"type":"function","name":"getApproved","inputs":[{"name":"tokenId","type":"uint256","internalType":"uint256"}],"outputs":[{"name":"","type":"address","internalType":"address"}],"stateMutability":"view"},{"type":"function","name":"getCollateralValue","inputs":[{"name":"collateralData","type":"bytes","internalType":"bytes"}],"outputs":[{"name":"collateralValue","type":"uint256","internalType":"uint256"}],"stateMutability":"view"},{"type":"function","name":"getGtConfig","inputs":[],"outputs":[{"name":"","type":"tuple","internalType":"struct GtConfig","components":[{"name":"collateral","type":"address","internalType":"address"},{"name":"debtToken","type":"address","internalType":"contract IERC20Metadata"},{"name":"ft","type":"address","internalType":"contract IERC20"},{"name":"treasurer","type":"address","internalType":"address"},{"name":"maturity","type":"uint64","internalType":"uint64"},{"name":"loanConfig","type":"tuple","internalType":"struct LoanConfig","components":[{"name":"oracle","type":"address","internalType":"contract IOracle"},{"name":"liquidationLtv","type":"uint32","internalType":"uint32"},{"name":"maxLtv","type":"uint32","internalType":"uint32"},{"name":"liquidatable","type":"bool","internalType":"bool"}]}]}],"stateMutability":"view"},{"type":"function","name":"getLiquidationInfo","inputs":[{"name":"id","type":"uint256","internalType":"uint256"}],"outputs":[{"name":"isLiquidable","type":"bool","internalType":"bool"},{"name":"ltv","type":"uint128","internalType":"uint128"},{"name":"maxRepayAmt","type":"uint128","internalType":"uint128"}],"stateMutability":"view"},{"type":"function","name":"getVersion","inputs":[],"outputs":[{"name":"","type":"string","internalType":"string"}],"stateMutability":"pure"},{"type":"function","name":"initialize","inputs":[{"name":"name","type":"string","internalType":"string"},{"name":"symbol","type":"string","internalType":"string"},{"name":"config_","type":"tuple","internalType":"struct GtConfig","components":[{"name":"collateral","type":"address","internalType":"address"},{"name":"debtToken","type":"address","internalType":"contract IERC20Metadata"},{"name":"ft","type":"address","internalType":"contract IERC20"},{"name":"treasurer","type":"address","internalType":"address"},{"name":"maturity","type":"uint64","internalType":"uint64"},{"name":"loanConfig","type":"tuple","internalType":"struct LoanConfig","components":[{"name":"oracle","type":"address","internalType":"contract IOracle"},{"name":"liquidationLtv","type":"uint32","internalType":"uint32"},{"name":"maxLtv","type":"uint32","internalType":"uint32"},{"name":"liquidatable","type":"bool","internalType":"bool"}]}]},{"name":"initalParams","type":"bytes","internalType":"bytes"}],"outputs":[],"stateMutability":"nonpayable"},{"type":"function","name":"isApprovedForAll","inputs":[{"name":"owner","type":"address","internalType":"address"},{"name":"operator","type":"address","internalType":"address"}],"outputs":[{"name":"","type":"bool","internalType":"bool"}],"stateMutability":"view"},{"type":"function","name":"isDelegate","inputs":[{"name":"delegator","type":"address","internalType":"address"},{"name":"delegatee","type":"address","internalType":"address"}],"outputs":[{"name":"","type":"bool","internalType":"bool"}],"stateMutability":"view"},{"type":"function","name":"liquidatable","inputs":[],"outputs":[{"name":"","type":"bool","internalType":"bool"}],"stateMutability":"view"},{"type":"function","name":"liquidate","inputs":[{"name":"id","type":"uint256","internalType":"uint256"},{"name":"repayAmt","type":"uint128","internalType":"uint128"},{"name":"byDebtToken","type":"bool","internalType":"bool"}],"outputs":[],"stateMutability":"nonpayable"},{"type":"function","name":"loanInfo","inputs":[{"name":"id","type":"uint256","internalType":"uint256"}],"outputs":[{"name":"owner","type":"address","internalType":"address"},{"name":"debtAmt","type":"uint128","internalType":"uint128"},{"name":"collateralData","type":"bytes","internalType":"bytes"}],"stateMutability":"view"},{"type":"function","name":"marketAddr","inputs":[],"outputs":[{"name":"","type":"address","internalType":"address"}],"stateMutability":"view"},{"type":"function","name":"merge","inputs":[{"name":"ids","type":"uint256[]","internalType":"uint256[]"}],"outputs":[{"name":"newId","type":"uint256","internalType":"uint256"}],"stateMutability":"nonpayable"},{"type":"function","name":"mint","inputs":[{"name":"collateralProvider","type":"address","internalType":"address"},{"name":"to","type":"address","internalType":"address"},{"name":"debtAmt","type":"uint128","internalType":"uint128"},{"name":"collateralData","type":"bytes","internalType":"bytes"}],"outputs":[{"name":"id","type":"uint256","internalType":"uint256"}],"stateMutability":"nonpayable"},{"type":"function","name":"name","inputs":[],"outputs":[{"name":"","type":"string","internalType":"string"}],"stateMutability":"view"},{"type":"function","name":"nonces","inputs":[{"name":"delegator","type":"address","internalType":"address"}],"outputs":[{"name":"","type":"uint256","internalType":"uint256"}],"stateMutability":"view"},{"type":"function","name":"owner","inputs":[],"outputs":[{"name":"","type":"address","internalType":"address"}],"stateMutability":"view"},{"type":"function","name":"ownerOf","inputs":[{"name":"tokenId","type":"uint256","internalType":"uint256"}],"outputs":[{"name":"","type":"address","internalType":"address"}],"stateMutability":"view"},{"type":"function","name":"previewDelivery","inputs":[{"name":"proportion","type":"uint256","internalType":"uint256"}],"outputs":[{"name":"deliveryData","type":"bytes","internalType":"bytes"}],"stateMutability":"view"},{"type":"function","name":"removeCollateral","inputs":[{"name":"id","type":"uint256","internalType":"uint256"},{"name":"collateralData","type":"bytes","internalType":"bytes"}],"outputs":[],"stateMutability":"nonpayable"},{"type":"function","name":"renounceOwnership","inputs":[],"outputs":[],"stateMutability":"nonpayable"},{"type":"function","name":"repay","inputs":[{"name":"id","type":"uint256","internalType":"uint256"},{"name":"repayAmt","type":"uint128","internalType":"uint128"},{"name":"byDebtToken","type":"bool","internalType":"bool"}],"outputs":[],"stateMutability":"nonpayable"},{"type":"function","name":"repayAndRemoveCollateral","inputs":[{"name":"id","type":"uint256","internalType":"uint256"},{"name":"repayAmt","type":"uint128","internalType":"uint128"},{"name":"byDebtToken","type":"bool","internalType":"bool"},{"name":"collateralRecipient","type":"address","internalType":"address"},{"name":"removedCollateral","type":"bytes","internalType":"bytes"}],"outputs":[{"name":"repayAll","type":"bool","internalType":"bool"},{"name":"finalRepayAmt","type":"uint128","internalType":"uint128"}],"stateMutability":"nonpayable"},{"type":"function","name":"safeTransferFrom","inputs":[{"name":"from","type":"address","internalType":"address"},{"name":"to","type":"address","internalType":"address"},{"name":"tokenId","type":"uint256","internalType":"uint256"}],"outputs":[],"stateMutability":"nonpayable"},{"type":"function","name":"safeTransferFrom","inputs":[{"name":"from","type":"address","internalType":"address"},{"name":"to","type":"address","internalType":"address"},{"name":"tokenId","type":"uint256","internalType":"uint256"},{"name":"data","type":"bytes","internalType":"bytes"}],"outputs":[],"stateMutability":"nonpayable"},{"type":"function","name":"setApprovalForAll","inputs":[{"name":"operator","type":"address","internalType":"address"},{"name":"approved","type":"bool","internalType":"bool"}],"outputs":[],"stateMutability":"nonpayable"},{"type":"function","name":"setDelegate","inputs":[{"name":"delegatee","type":"address","internalType":"address"},{"name":"isDelegate_","type":"bool","internalType":"bool"}],"outputs":[],"stateMutability":"nonpayable"},{"type":"function","name":"setDelegateWithSignature","inputs":[{"name":"params","type":"tuple","internalType":"struct DelegateAble.DelegateParameters","components":[{"name":"delegator","type":"address","internalType":"address"},{"name":"delegatee","type":"address","internalType":"address"},{"name":"isDelegate","type":"bool","internalType":"bool"},{"name":"nonce","type":"uint256","internalType":"uint256"},{"name":"deadline","type":"uint256","internalType":"uint256"}]},{"name":"signature","type":"tuple","internalType":"struct DelegateAble.Signature","components":[{"name":"v","type":"uint8","internalType":"uint8"},{"name":"r","type":"bytes32","internalType":"bytes32"},{"name":"s","type":"bytes32","internalType":"bytes32"}]}],"outputs":[],"stateMutability":"nonpayable"},{"type":"function","name":"setTreasurer","inputs":[{"name":"treasurer","type":"address","internalType":"address"}],"outputs":[],"stateMutability":"nonpayable"},{"type":"function","name":"supportsInterface","inputs":[{"name":"interfaceId","type":"bytes4","internalType":"bytes4"}],"outputs":[{"name":"","type":"bool","internalType":"bool"}],"stateMutability":"view"},{"type":"function","name":"symbol","inputs":[],"outputs":[{"name":"","type":"string","internalType":"string"}],"stateMutability":"view"},{"type":"function","name":"tokenByIndex","inputs":[{"name":"index","type":"uint256","internalType":"uint256"}],"outputs":[{"name":"","type":"uint256","internalType":"uint256"}],"stateMutability":"view"},{"type":"function","name":"tokenOfOwnerByIndex","inputs":[{"name":"owner","type":"address","internalType":"address"},{"name":"index","type":"uint256","internalType":"uint256"}],"outputs":[{"name":"","type":"uint256","internalType":"uint256"}],"stateMutability":"view"},{"type":"function","name":"tokenURI","inputs":[{"name":"tokenId","type":"uint256","internalType":"uint256"}],"outputs":[{"name":"","type":"string","internalType":"string"}],"stateMutability":"view"},{"type":"function","name":"totalSupply","inputs":[],"outputs":[{"name":"","type":"uint256","internalType":"uint256"}],"stateMutability":"view"},{"type":"function","name":"transferFrom","inputs":[{"name":"from","type":"address","internalType":"address"},{"name":"to","type":"address","internalType":"address"},{"name":"tokenId","type":"uint256","internalType":"uint256"}],"outputs":[],"stateMutability":"nonpayable"},{"type":"function","name":"transferOwnership","inputs":[{"name":"newOwner","type":"address","internalType":"address"}],"outputs":[],"stateMutability":"nonpayable"},{"type":"function","name":"updateConfig","inputs":[{"name":"configData","type":"bytes","internalType":"bytes"}],"outputs":[],"stateMutability":"nonpayable"},{"type":"event","name":"AddCollateral","inputs":[{"name":"id","type":"uint256","indexed":true,"internalType":"uint256"},{"name":"newCollateralData","type":"bytes","indexed":false,"internalType":"bytes"}],"anonymous":false},{"type":"event","name":"Approval","inputs":[{"name":"owner","type":"address","indexed":true,"internalType":"address"},{"name":"approved","type":"address","indexed":true,"internalType":"address"},{"name":"tokenId","type":"uint256","indexed":true,"internalType":"uint256"}],"anonymous":false},{"type":"event","name":"ApprovalForAll","inputs":[{"name":"owner","type":"address","indexed":true,"internalType":"address"},{"name":"operator","type":"address","indexed":true,"internalType":"address"},{"name":"approved","type":"bool","indexed":false,"internalType":"bool"}],"anonymous":false},{"type":"event","name":"AugmentDebt","inputs":[{"name":"id","type":"uint256","indexed":true,"internalType":"uint256"},{"name":"ftAmt","type":"uint256","indexed":false,"internalType":"uint256"}],"anonymous":false},{"type":"event","name":"CollateralCapacityUpdated","inputs":[{"name":"newCapacity","type":"uint256","indexed":false,"internalType":"uint256"}],"anonymous":false},{"type":"event","name":"DelegateChanged","inputs":[{"name":"delegator","type":"address","indexed":true,"internalType":"address"},{"name":"delegatee","type":"address","indexed":true,"internalType":"address"},{"name":"isDelegate","type":"bool","indexed":false,"internalType":"bool"}],"anonymous":false},{"type":"event","name":"EIP712DomainChanged","inputs":[],"anonymous":false},{"type":"event","name":"FlashRepay","inputs":[{"name":"id","type":"uint256","indexed":true,"internalType":"uint256"},{"name":"caller","type":"address","indexed":true,"internalType":"address"},{"name":"repayAmt","type":"uint128","indexed":false,"internalType":"uint128"},{"name":"byDebtToken","type":"bool","indexed":false,"internalType":"bool"},{"name":"repayAll","type":"bool","indexed":false,"internalType":"bool"},{"name":"removedCollateral","type":"bytes","indexed":false,"internalType":"bytes"}],"anonymous":false},{"type":"event","name":"GearingTokenInitialized","inputs":[{"name":"market","type":"address","indexed":true,"internalType":"address"},{"name":"name","type":"string","indexed":false,"internalType":"string"},{"name":"symbol","type":"string","indexed":false,"internalType":"string"},{"name":"initialData","type":"bytes","indexed":false,"internalType":"bytes"}],"anonymous":false},{"type":"event","name":"Initialized","inputs":[{"name":"version","type":"uint64","indexed":false,"internalType":"uint64"}],"anonymous":false},{"type":"event","name":"Liquidate","inputs":[{"name":"id","type":"uint256","indexed":true,"internalType":"uint256"},{"name":"liquidator","type":"address","indexed":true,"internalType":"address"},{"name":"repayAmt","type":"uint128","indexed":false,"internalType":"uint128"},{"name":"byDebtToken","type":"bool","indexed":false,"internalType":"bool"},{"name":"cToLiquidator","type":"bytes","indexed":false,"internalType":"bytes"},{"name":"cToTreasurer","type":"bytes","indexed":false,"internalType":"bytes"},{"name":"remainningC","type":"bytes","indexed":false,"internalType":"bytes"}],"anonymous":false},{"type":"event","name":"MergeGts","inputs":[{"name":"owner","type":"address","indexed":true,"internalType":"address"},{"name":"newId","type":"uint256","indexed":true,"internalType":"uint256"},{"name":"ids","type":"uint256[]","indexed":false,"internalType":"uint256[]"}],"anonymous":false},{"type":"event","name":"OwnershipTransferred","inputs":[{"name":"previousOwner","type":"address","indexed":true,"internalType":"address"},{"name":"newOwner","type":"address","indexed":true,"internalType":"address"}],"anonymous":false},{"type":"event","name":"RemoveCollateral","inputs":[{"name":"id","type":"uint256","indexed":true,"internalType":"uint256"},{"name":"newCollateralData","type":"bytes","indexed":false,"internalType":"bytes"}],"anonymous":false},{"type":"event","name":"Repay","inputs":[{"name":"id","type":"uint256","indexed":true,"internalType":"uint256"},{"name":"repayAmt","type":"uint256","indexed":false,"internalType":"uint256"},{"name":"byDebtToken","type":"bool","indexed":false,"internalType":"bool"}],"anonymous":false},{"type":"event","name":"Repay","inputs":[{"name":"id","type":"uint256","indexed":true,"internalType":"uint256"},{"name":"repayAmt","type":"uint256","indexed":false,"internalType":"uint256"},{"name":"byDebtToken","type":"bool","indexed":false,"internalType":"bool"},{"name":"repayAll","type":"bool","indexed":false,"internalType":"bool"}],"anonymous":false},{"type":"event","name":"RepayAndRemoveCollateral","inputs":[{"name":"id","type":"uint256","indexed":true,"internalType":"uint256"},{"name":"repayAmt","type":"uint256","indexed":false,"internalType":"uint256"},{"name":"byDebtToken","type":"bool","indexed":false,"internalType":"bool"},{"name":"removedCollateral","type":"bytes","indexed":false,"internalType":"bytes"}],"anonymous":false},{"type":"event","name":"Transfer","inputs":[{"name":"from","type":"address","indexed":true,"internalType":"address"},{"name":"to","type":"address","indexed":true,"internalType":"address"},{"name":"tokenId","type":"uint256","indexed":true,"internalType":"uint256"}],"anonymous":false},{"type":"event","name":"UpdateConfig","inputs":[{"name":"configData","type":"bytes","indexed":false,"internalType":"bytes"}],"anonymous":false},{"type":"error","name":"AuthorizationFailed","inputs":[{"name":"id","type":"uint256","internalType":"uint256"},{"name":"caller","type":"address","internalType":"address"}]},{"type":"error","name":"CallerIsNotTheOwner","inputs":[{"name":"id","type":"uint256","internalType":"uint256"}]},{"type":"error","name":"CanNotLiquidationAfterFinalDeadline","inputs":[{"name":"id","type":"uint256","internalType":"uint256"},{"name":"liquidationDeadline","type":"uint256","internalType":"uint256"}]},{"type":"error","name":"CanNotMergeLoanWithDiffOwner","inputs":[{"name":"id","type":"uint256","internalType":"uint256"},{"name":"diffOwner","type":"address","internalType":"address"}]},{"type":"error","name":"CanNotTransferUintMax","inputs":[]},{"type":"error","name":"CannotAugmentDebtOnOnlyDeliveryGt","inputs":[]},{"type":"error","name":"CannotDelegateToSelf","inputs":[]},{"type":"error","name":"CannotRemoveCollateralWithDebt","inputs":[]},{"type":"error","name":"CollateralCapacityExceeded","inputs":[]},{"type":"error","name":"DebtValueIsTooSmall","inputs":[{"name":"debtValue","type":"uint256","internalType":"uint256"}]},{"type":"error","name":"DuplicateIdInMerge","inputs":[{"name":"id","type":"uint256","internalType":"uint256"}]},{"type":"error","name":"ERC721EnumerableForbiddenBatchMint","inputs":[]},{"type":"error","name":"ERC721IncorrectOwner","inputs":[{"name":"sender","type":"address","internalType":"address"},{"name":"tokenId","type":"uint256","internalType":"uint256"},{"name":"owner","type":"address","internalType":"address"}]},{"type":"error","name":"ERC721InsufficientApproval","inputs":[{"name":"operator","type":"address","internalType":"address"},{"name":"tokenId","type":"uint256","internalType":"uint256"}]},{"type":"error","name":"ERC721InvalidApprover","inputs":[{"name":"approver","type":"address","internalType":"address"}]},{"type":"error","name":"ERC721InvalidOperator","inputs":[{"name":"operator","type":"address","internalType":"address"}]},{"type":"error","name":"ERC721InvalidOwner","inputs":[{"name":"owner","type":"address","internalType":"address"}]},{"type":"error","name":"ERC721InvalidReceiver","inputs":[{"name":"receiver","type":"address","internalType":"address"}]},{"type":"error","name":"ERC721InvalidSender","inputs":[{"name":"sender","type":"address","internalType":"address"}]},{"type":"error","name":"ERC721NonexistentToken","inputs":[{"name":"tokenId","type":"uint256","internalType":"uint256"}]},{"type":"error","name":"ERC721OutOfBoundsIndex","inputs":[{"name":"owner","type":"address","internalType":"address"},{"name":"index","type":"uint256","internalType":"uint256"}]},{"type":"error","name":"GtDoNotSupportLiquidation","inputs":[]},{"type":"error","name":"GtIdArrayIsEmpty","inputs":[]},{"type":"error","name":"GtIsExpired","inputs":[{"name":"id","type":"uint256","internalType":"uint256"}]},{"type":"error","name":"GtIsExpired","inputs":[]},{"type":"error","name":"GtIsNotHealthy","inputs":[{"name":"id","type":"uint256","internalType":"uint256"},{"name":"owner","type":"address","internalType":"address"},{"name":"ltv","type":"uint128","internalType":"uint128"}]},{"type":"error","name":"GtIsSafe","inputs":[{"name":"id","type":"uint256","internalType":"uint256"}]},{"type":"error","name":"InvalidCollateralData","inputs":[]},{"type":"error","name":"InvalidInitialization","inputs":[]},{"type":"error","name":"InvalidLiquidationLtv","inputs":[]},{"type":"error","name":"InvalidSignature","inputs":[]},{"type":"error","name":"LiquidationLtvMustBeGreaterThanMaxLtv","inputs":[]},{"type":"error","name":"LtvIncreasedAfterLiquidation","inputs":[{"name":"id","type":"uint256","internalType":"uint256"},{"name":"ltvBefore","type":"uint128","internalType":"uint128"},{"name":"ltvAfter","type":"uint128","internalType":"uint128"}]},{"type":"error","name":"NotInitializing","inputs":[]},{"type":"error","name":"OnlyFullRepaySupported","inputs":[]},{"type":"error","name":"OwnableInvalidOwner","inputs":[{"name":"owner","type":"address","internalType":"address"}]},{"type":"error","name":"OwnableUnauthorizedAccount","inputs":[{"name":"account","type":"address","internalType":"address"}]},{"type":"error","name":"ReentrancyGuardReentrantCall","inputs":[]},{"type":"error","name":"RepayAmtExceedsMaxRepayAmt","inputs":[{"name":"id","type":"uint256","internalType":"uint256"},{"name":"repayAmt","type":"uint128","internalType":"uint128"},{"name":"maxRepayAmt","type":"uint128","internalType":"uint128"}]},{"type":"error","name":"SafeCastOverflowedUintDowncast","inputs":[{"name":"bits","type":"uint8","internalType":"uint8"},{"name":"value","type":"uint256","internalType":"uint256"}]},{"type":"error","name":"SafeERC20FailedOperation","inputs":[{"name":"token","type":"address","internalType":"address"}]}],"bytecode":{"object":"0x6080806040523460aa575f5160206152f55f395f51905f525460ff8160401c16609b576002600160401b03196001600160401b038216016049575b60405161524690816100af8239f35b6001600160401b0319166001600160401b039081175f5160206152f55f395f51905f525581527fc7f505b2f371ae2175ee4913f4499e1f2633a7b5936321eed1cdaeb6115181d290602090a15f80603a565b63f92ee8a960e01b5f5260045ffd5b5f80fdfe6080806040526004361015610012575f80fd5b5f905f3560e01c90816301ffc9a7146133075750806306fdde031461324a578063081812fc14613201578063095ea7b3146131155780630d8e6e2c146130fa578063173ba94614612ff957806318160ddd14612fd05780631b2b5fad14612f8557806321e439ef14612d4357806323b872dd14612d2c57806324f39cfc146121dc5780632dd06c62146121995780632f745c591461211b5780633580903414611adf5780633644e51514611ac55780633c568b9814611a3257806342842e0e14611a035780634a994eef146119b95780634f6ccce71461195f57806350ef5c35146117ff57806352b17446146117d75780635fec5d0b146117815780636352211e14611751578063671d64291461170e57806370a08231146116eb578063715018a61461168457806377efba601461149a5780637da39d5b1461147b5780637ecebe00146114385780638349d6be146113cd57806384b0196e146112ae5780638cc6acce146112445780638da5cb5b1461121057806395d89b411461111a578063a22cb4651461107c578063a91a53b314611057578063b88d4fde14610ffb578063c87b56dd14610fa6578063cefa74cc14610f71578063d8fe817514610c80578063de62d8421461091a578063df2cbf3e14610686578063e172864514610668578063e985e9c51461061b578063eef5777c14610530578063f2fde38b14610503578063f3bfc738146104c8578063fc74a13a1461045d5763fe8fd7d914610239575f80fd5b3461045a576102473661357b565b61024f613c92565b6001600160401b0360045460a01c1642101561044b5781835260086020526102796040842061363b565b90610285813033614266565b6020820191825160208151918180820193849201010312610447575160208351938180820195869201010312610447576102c66102cb916001945190614259565b614387565b835283855260086020526001600160801b03604086209151166001600160801b03198254161781550181518051906001600160401b0382116104335761031b8261031585546135e0565b85613b92565b602090601f83116001146103ab57827f7f37e862f2ec2cbe9b0823e61188ca52475f1f16f43051e4b812dbf3089f550f95936103899593610371938a926103a0575b50508160011b915f199060031b1c19161790565b90555b5160405191829160208352602083019061338c565b0390a260015f5160206151915f395f51905f525580f35b015190505f8061035d565b8387528187209190601f198416885b81811061041b57509260019285927f7f37e862f2ec2cbe9b0823e61188ca52475f1f16f43051e4b812dbf3089f550f9896610389989610610403575b505050811b019055610374565b01515f1960f88460031b161c191690555f80806103f6565b929360206001819287860151815501950193016103ba565b634e487b7160e01b86526041600452602486fd5b5f80fd5b632fa243d760e11b8352600483fd5b80fd5b503461045a57604036600319011261045a576104c461047a6133c6565b610482613c92565b61048a614226565b61049f610498600435614343565b809261430e565b60015f5160206151915f395f51905f525560405191829160208352602083019061338c565b0390f35b503461045a578060031936011261045a5760206040517f38d47287497526556d35736679d5577a53750afee9e16b22ce0be2e0d0169bcb8152f35b503461045a57602036600319011261045a5761052d6105206133b0565b610528614226565b613bf2565b80f35b503461045a578060031936011261045a5760a060405161054f81613410565b828152826020820152826040820152826060820152826080820152604051926105778461342b565b80845280602085015280604085015260608401520152610120610598613701565b6040805182516001600160a01b039081168252602080850151821681840152848401518216838501526060858101518316848201526080808701516001600160401b03169085015260a09586015180519093169584019590955281015163ffffffff90811660c08401529281015190921660e08201529101511515610100820152f35b503461045a57604036600319011261045a576106356133b0565b6106466106406133c6565b9161379b565b9060018060a01b03165f52602052602060ff60405f2054166040519015158152f35b503461045a578060031936011261045a576020600954604051908152f35b503461045a5761069536613548565b9061069e613c92565b6106a6613701565b906001600160401b0360808301511642101561090b576106c690846146d1565b93918193915f146107c25791606093916107107f7f8b6086f5224d289706802feb6dc42b31f9343e8f211075a41e76bb80e0bac2969460206107078a613c63565b9101519061430e565b610719876147c4565b811561078757602001515f5160206150f15f395f51905f5254610755916001600160801b038616916001600160a01b0390811691339116614748565b6001600160801b03604051931683521515602083015215156040820152a260015f5160206151915f395f51905f525580f35b604001515f5160206150f15f395f51905f52546107bd916001600160801b038616916001600160a01b0390811691339116614748565b610755565b858752600860205260206001604089206001600160801b038451166001600160801b0319825416178155019101518051906001600160401b0382116108f75761080f8261031585546135e0565b602090601f831160011461086d578260609795937f7f8b6086f5224d289706802feb6dc42b31f9343e8f211075a41e76bb80e0bac299979593610866938d926103a05750508160011b915f199060031b1c19161790565b9055610719565b838a52818a209190601f1984168b5b8181106108df575092600192859260609a98967f7f8b6086f5224d289706802feb6dc42b31f9343e8f211075a41e76bb80e0bac29c9a9896106108c7575b505050811b019055610719565b01515f1960f88460031b161c191690555f80806108ba565b9293602060018192878601518155019501930161087c565b634e487b7160e01b89526041600452602489fd5b632fa243d760e11b8552600485fd5b503461045a57602036600319011261045a576004356001600160401b038111610c7c5736602382011215610c7c578060040135906001600160401b038211610c68578160051b9060208201926109736040519485613461565b8352602083016024819383010191368311610c6457602401905b828210610c545750505061099f613c92565b815115610c45576001600160401b0360806109b8613701565b01511642101561044b57815115610af7575180835260086020526109de6040842061363b565b835b8351811015610b0b578351811015610af75760208160051b8501015190610a073383613cca565b80610a17575b60019150016109e0565b838214610ae3578186526008602052610a326040872061363b565b916001600160801b038351166001600160801b03855116016001600160801b038111610acf576001600160801b0316845260208401906020825194015193602081519181808201938492010103126104475751916020855195818082019788920101031261044757610aab610aca936001965190614259565b9060405191602083015260208252610ac4604083613461565b526147c4565b610a0d565b634e487b7160e01b88526011600452602488fd5b63420aa54960e11b86526004829052602486fd5b634e487b7160e01b5f52603260045260245ffd5b5091818452600860205260206001604086206001600160801b038651166001600160801b031982541617815501930151928351936001600160401b0385116104335794602095610b5f8661031585546135e0565b8691601f8711600114610be35795610b8e9281928798926103a05750508160011b915f199060031b1c19161790565b90555b7f520c32c169c6a8ba85bff03027f1a2b9ce9488b6d7de8911e3de32797fffa24760405185815280610bc73394888301906135ad565b0390a360015f5160206151915f395f51905f5255604051908152f35b9190601f198716848452828420935b818110610c2e575091600193918888999410610c16575b505050811b019055610b91565b01515f1960f88460031b161c191690555f8080610c09565b929389600181928786015181550195019301610bf2565b632e31ed5560e21b8352600483fd5b813581526020918201910161098d565b8580fd5b634e487b7160e01b5f52604160045260245ffd5b5080fd5b503461045a5760a036600319011261045a57600435610c9d6133dc565b90610ca66133f2565b606435929091906001600160a01b0384168403610447576084356001600160401b038111610c6457610cdc90369060040161349d565b610ce4613c92565b610cee3384613cca565b610cf6613701565b916001600160401b03608084015116421015610f6257610d1f90610d18613bd9565b50846146d1565b93916001600160801b03819892985116610f53576001610d3f85836142cd565b9160208101928352878b5260086020526001600160801b0360408c209151166001600160801b03198254161781550190518051906001600160401b038211610f3f57610d8f8261031585546135e0565b602090601f8311600114610ea85795610e53948194610df68560409f96610dfd966001600160801b039c7fa8dae02700945d57b05d5ecedd16815619be453c4e95d2bf64cd4d93c33ff9d69e9c99926103a05750508160011b915f199060031b1c19161790565b905561430e565b8715610e7557602001515f5160206150f15f395f51905f5254610e3291858716916001600160a01b0390811691339116614748565b8851938493169687845215156020840152606089840152606083019061338c565b0390a260015f5160206151915f395f51905f5255825191151582526020820152f35b8901515f5160206150f15f395f51905f5254610ea391858716916001600160a01b0390811691339116614748565b610e32565b601f198316848d52828d209c5b818110610f27575094879460018560409f610dfd966001600160801b039c967fa8dae02700945d57b05d5ecedd16815619be453c4e95d2bf64cd4d93c33ff9d69e9c99610e539c10610f0f575b505050811b01905561430e565b01515f1960f88460031b161c191690555f8080610f02565b828401518e556001909d019c60209384019301610eb5565b634e487b7160e01b8b52604160045260248bfd5b633a1be4b160e11b8952600489fd5b632fa243d760e11b8752600487fd5b503461045a578060031936011261045a575f5160206150f15f395f51905f52546040516001600160a01b039091168152602090f35b3461044757602036600319011261044757610fc2600435613c63565b505f604051610fd2602082613461565b526104c4604051610fe4602082613461565b5f815260405191829160208352602083019061338c565b34610447576080366003190112610447576110146133b0565b61101c6133c6565b90604435606435926001600160401b0384116104475761104361105594369060040161349d565b9261104f838383613819565b3361458f565b005b34610447575f36600319011261044757602060ff60055460e01c166040519015158152f35b34610447576040366003190112610447576110956133b0565b61109d613401565b6001600160a01b03909116908115611107576110b83361379b565b825f526020526110d78160405f209060ff801983541691151516179055565b60405190151581527f17307eab39ab6107e8899845ad3d59bd9653f200f220920489ca2b5937696c3160203392a3005b50630b61174360e31b5f5260045260245ffd5b34610447575f366003190112610447576040515f5f5160206151f15f395f51905f5254611146816135e0565b80845290600181169081156111ec5750600114611182575b6104c48361116e81850382613461565b60405191829160208352602083019061338c565b5f5160206151f15f395f51905f525f9081527ff4bad0a69248f59680a4f2b3000328cec71a413447c96781cfe5996daa8c456e939250905b8082106111d25750909150810160200161116e61115e565b9192600181602092548385880101520191019092916111ba565b60ff191660208086019190915291151560051b8401909101915061116e905061115e565b34610447575f366003190112610447575f5160206150f15f395f51905f52546040516001600160a01b039091168152602090f35b34610447576020366003190112610447576004356001600160401b038111610447576112a96112987fcafde91d88758783031589e338ee24417cd167f8c9d14e7d6bedc99fea47be7692369060040161349d565b6112a0614226565b61116e81614549565b0390a1005b34610447575f366003190112610447577fa16a46d94261c7517cc8ff89f61c0ce93598e3c849801011dee649a6a557d1005415806113a4575b15611367576113396112f76143d3565b6104c461130261449e565b61134760405191611314602084613461565b5f83525f368137604051958695600f60f81b875260e0602088015260e087019061338c565b90858203604087015261338c565b904660608501523060808501525f60a085015283820360c08501526135ad565b60405162461bcd60e51b81526020600482015260156024820152741152540dcc4c8e88155b9a5b9a5d1a585b1a5e9959605a1b6044820152606490fd5b507fa16a46d94261c7517cc8ff89f61c0ce93598e3c849801011dee649a6a557d10154156112e7565b34610447576020366003190112610447576004356113ea81613c63565b905f5260086020526113fe60405f2061363b565b906104c460206001600160801b0384511693015160405193849360018060a01b03168452602084015260606040840152606083019061338c565b346104475760203660031901126104475760206114736114566133b0565b6001600160a01b03165f9081526020819052604090206001015490565b604051908152f35b34610447576020366003190112610447576104c461116e600435614343565b34610447576114a83661357b565b6114b0613c92565b6114ba3383613cca565b6001600160401b0360806114cc613701565b01511642101561167557815f5260086020526114ea60405f2061363b565b906001600160801b0382511661166657600161150682846142cd565b9260208101938452845f5260086020526001600160801b0360405f209151166001600160801b03198254161781550182518051906001600160401b038211610c68576115568261031585546135e0565b602090601f83116001146115d957926115af83610374946115b897947f3e7ef85cf4525ca474d34f21240567dc9e13acae18755ad3a51851dfa7b8340799975f926115ce5750508160011b915f199060031b1c19161790565b90555b3361430e565b0390a260015f5160206151915f395f51905f5255005b015190508a8061035d565b90601f19831691845f52815f20925f5b81811061164e5750936115b896937f3e7ef85cf4525ca474d34f21240567dc9e13acae18755ad3a51851dfa7b83407989693600193836103749810611636575b505050811b0190556115b2565b01515f1960f88460031b161c19169055898080611629565b929360206001819287860151815501950193016115e9565b63ac0bb0c960e01b5f5260045ffd5b632fa243d760e11b5f5260045ffd5b34610447575f3660031901126104475761169c614226565b5f5160206150f15f395f51905f5280546001600160a01b031981169091555f906001600160a01b03167f8be0079c531659141344cd1fd0a4f28419497f9722a3daafe3b4186f6b6457e08280a3005b346104475760203660031901126104475760206114736117096133b0565b613b48565b34610447576020366003190112610447576117276133b0565b61172f614226565b600480546001600160a01b0319166001600160a01b0392909216919091179055005b3461044757602036600319011261044757602061176f600435613c63565b6040516001600160a01b039091168152f35b346104475760403660031901126104475761179a6133b0565b6117a26133c6565b9060018060a01b03165f525f60205260405f209060018060a01b03165f52602052602060ff60405f2054166040519015158152f35b34610447576117e536613548565b5050506117f0613c92565b633ac524a960e11b5f5260045ffd5b34610447576020366003190112610447576004355f52600860205261182660405f2061363b565b61182e613701565b9061183761429d565b506118428183614ae5565b9061184c82614bb8565b9160a084019360608551015161187d575b6060846001600160801b03604051915f83521660208201525f6040820152f35b608001936001600160401b0385511694611c20860180961161194b5760609542106118af57505050505b82808061185d565b516001600160401b031642106118c857506118a7915050565b51602001516001600160801b0384169063ffffffff168110156118ee575b5050506118a7565b6305f5e100116119035750505b8280806118e6565b611919818564e8d4a51000935191015190614c1c565b101561193057516001600160801b03165b506118fb565b5160011c6f7fffffffffffffffffffffffffffffff1661192a565b634e487b7160e01b5f52601160045260245ffd5b34610447576020366003190112610447576004355f5160206151515f395f51905f52548110156119a357611994602091613b18565b90549060031b1c604051908152f35b63295f44f760e21b5f525f60045260245260445ffd5b34610447576040366003190112610447576119d26133b0565b6119da613401565b336001600160a01b038316146119f457611055913361417a565b633be64e5b60e21b5f5260045ffd5b3461044757611055611a143661350e565b9060405192611a24602085613461565b5f845261104f838383613819565b3461044757606036600319011261044757600435611a4e613401565b90604435916001600160401b03831161044757611a72611ab19336906004016134e1565b929091611a7d613c92565b611a873383613cca565b815f526008602052611a9b60405f2061363b565b60206001600160801b0382511691015192613d32565b5060015f5160206151915f395f51905f5255005b34610447575f366003190112610447576020611473614eab565b3461044757608036600319011261044757611af86133b0565b611b006133c6565b6044356001600160801b038116809103610447576064356001600160401b03811161044757611b3390369060040161349d565b92611b3c613c92565b611b44614226565b602084511161210c576001546040516370a0823160e01b815230600482015290602090829060249082906001600160a01b03165afa8015612101575f906120ce575b8551602087810193509087018790031261044757611ba5915190614259565b600954106120bf5783611bb9913090614266565b611bc1613701565b60405191611bce83613446565b8252602082019384526001600160801b0363ffffffff604060a0611bfa611bf58787614ae5565b614bb8565b940151015116911690811161209d57506001611c1760065461380b565b9182600655825f5260086020526001600160801b0360405f209151166001600160801b03198254161781550192519283516001600160401b038111610c6857611c6a81611c6484546135e0565b84613b92565b602094601f821160011461203c57611c9b9293949582915f926120315750508160011b915f199060031b1c19161790565b90555b602090604051611cae8382613461565b5f81526001600160a01b03841693841561201e57611ccb83614a96565b6001600160a01b03811680158015929190889084612000575b611ced866137d3565b60018154019055875f525f5160206151715f395f51905f52895260405f20826001600160601b0360a01b8254161790558782847fddf252ad1be2c89b69c2b068fc378daa952ba7f163c4a11628f55a4df523b3ef5f80a415611f5957505f5160206151515f395f51905f525490865f525f5160206151115f395f51905f5288528160405f2055600160401b821015610c6857611db887611da08460018d96015f5160206151515f395f51905f5255613b18565b90919082549060031b91821b915f19901b1916179055565b03611f06575b50611ef3573b611de3575b5060015f5160206151915f395f51905f5255604051908152f35b82611e1c9160405180938192630a85bd0160e11b83523360048401525f602484015286604484015260806064840152608483019061338c565b03815f885af15f9181611eb3575b50611e7d5750503d15611e76573d611e4181613482565b90611e4f6040519283613461565b81523d5f8383013e5b80519182611e735783633250574960e11b5f5260045260245ffd5b01fd5b6060611e58565b919290916001600160e01b03191663757a42ff60e11b01611ea15750819083611dc9565b633250574960e11b5f5260045260245ffd5b9091508381813d8311611eec575b611ecb8183613461565b8101031261044757516001600160e01b031981168103610447579085611e2a565b503d611ec1565b6339e3563760e11b5f525f60045260245ffd5b611f0f83613b48565b5f19810190811161194b57875f525f5160206150915f395f51905f52875260405f20815f5287528560405f2055855f525f5160206150715f395f51905f52875260405f2055611dbe565b90808214611db857611f6a83613b48565b875f525f5160206150715f395f51905f52895260405f205490825f525f5160206150915f395f51905f528a5260405f2091818103611fcc575b50885f525f5160206150715f395f51905f528a525f60408120555f5288525f6040812055611db8565b815f52828b5260405f2054815f52838c528060405f20555f525f5160206150715f395f51905f528b5260405f20558b611fa3565b61200988614abc565b612012846137d3565b80545f19019055611ce4565b633250574960e11b5f525f60045260245ffd5b01519050868061035d565b601f19821695835f52805f20915f5b8881106120855750836001959697981061206d575b505050811b019055611c9e565b01515f1960f88460031b161c19169055858080612060565b9192602060018192868501518155019401920161204b565b8263733a8cc360e01b5f525f60045260018060a01b031660245260445260645ffd5b63350c14eb60e01b5f5260045ffd5b506020813d6020116120f9575b816120e860209383613461565b810103126104475760209051611b86565b3d91506120db565b6040513d5f823e3d90fd5b633a9fd97f60e01b5f5260045ffd5b34610447576040366003190112610447576121346133b0565b6024359061214181613b48565b82101561217c5760018060a01b03165f525f5160206150915f395f51905f5260205260405f20905f52602052602060405f2054604051908152f35b63295f44f760e21b5f5260018060a01b031660045260245260445ffd5b34610447576060366003190112610447576121cd6121b56133b0565b6121bd613c92565b6121c5614226565b602435613cca565b632a30f76560e21b5f5260045ffd5b3461044757610180366003190112610447576004356001600160401b0381116104475761220d90369060040161349d565b6024356001600160401b0381116104475761222c90369060040161349d565b90610120366043190112610447576040519161224783613410565b6044356001600160a01b0381168103610447578352606435916001600160a01b038316830361044757602084019283526084356001600160a01b0381168103610447576040850190815260a4356001600160a01b0381168103610447576060860190815260c435906001600160401b03821682036104475760808781019283523660e319011261044757604051926122de8461342b565b60e4356001600160a01b03811681036104475784526101043563ffffffff811681036104475760208501526101243563ffffffff8116810361044757604085015261014435801515810361044757606085015260a08801938452610164356001600160401b0381116104475761235890369060040161349d565b965f5160206151d15f395f51905f52549860ff8a60401c1615996001600160401b03811680159081612d24575b6001149081612d1a575b159081612d11575b50612d025767ffffffffffffffff1981166001175f5160206151d15f395f51905f52558a612cd6575b506123c9614e80565b855163ffffffff604081602084015116920151161015612cc7576305f5e10063ffffffff6020885101511611612cb857612401614e80565b86516001600160401b038111610c68576124285f5160206150b15f395f51905f52546135e0565b601f8111612c54575b506020601f8211600114612bba57908061245f925f91612baf575b508160011b915f199060031b1c19161790565b5f5160206150b15f395f51905f52555b87516001600160401b038111610c68576124965f5160206151f15f395f51905f52546135e0565b601f8111612b4b575b506020601f8211600114612acf5790806124cc925f91612ac457508160011b915f199060031b1c19161790565b5f5160206151f15f395f51905f52555b6124e4613618565b6124ec614e80565b87516001600160401b038111610c68576125135f5160206150d15f395f51905f52546135e0565b601f8111612a60575b506020601f82116001146129e4579080612549925f916129d957508160011b915f199060031b1c19161790565b5f5160206150d15f395f51905f52555b8051906001600160401b038211610c68576125815f5160206151315f395f51905f52546135e0565b601f811161296c575b50602090601f83116001146128ef576125b992915f91836128e45750508160011b915f199060031b1c19161790565b5f5160206151315f395f51905f52555b5f7fa16a46d94261c7517cc8ff89f61c0ce93598e3c849801011dee649a6a557d100555f7fa16a46d94261c7517cc8ff89f61c0ce93598e3c849801011dee649a6a557d10155612617614e80565b61262033613bf2565b51600180546001600160a01b03199081166001600160a01b0393841617909155915160028054841691831691821790559251600380549093169082161790915591516004805494516001600160e01b03199095169184169190911760a094851b67ffffffffffffffff60a01b1617815593518051600580546020808501516040808701516060909701516001600160e81b031990941695909816949094179390971b63ffffffff60a01b169290921760c09390931b63ffffffff60c01b169290921790151560e01b60ff60e01b16179055905163313ce56760e01b815292839182905afa8015612101575f906128a9575b61271b9150614051565b600755612726614e80565b60ff60055460e01c166117f05761273c83614549565b60015460405163313ce56760e01b815290602090829060049082906001600160a01b03165afa908115612101575f9161283a575b50906127da6127cb7fa641307d9f32d587ba689ec221e043f942c00c1af322d3d7ef590574528155d8946127a66127bd95614051565b600a5560405194859460608652606086019061338c565b90848203602086015261338c565b8281036040840152339561338c565b0390a26127e357005b68ff0000000000000000195f5160206151d15f395f51905f5254165f5160206151d15f395f51905f52557fc7f505b2f371ae2175ee4913f4499e1f2633a7b5936321eed1cdaeb6115181d2602060405160018152a1005b9190506020823d6020116128a1575b8161285660209383613461565b81010312610447576127da6127cb7fa641307d9f32d587ba689ec221e043f942c00c1af322d3d7ef590574528155d8946127a66128956127bd96614029565b94955050945050612770565b3d9150612849565b506020813d6020116128dc575b816128c360209383613461565b81010312610447576128d761271b91614029565b612711565b3d91506128b6565b015190508d8061035d565b90601f198316915f5160206151315f395f51905f525f52815f20925f5b818110612954575090846001959493921061293c575b505050811b015f5160206151315f395f51905f52556125c9565b01515f1960f88460031b161c191690558c8080612922565b9293602060018192878601518155019501930161290c565b8281111561258a575f5160206151315f395f51905f525f526129cb907f5f9ce34815f8e11431c7bb75a8e6886a91478f7ffc1dbb0a98dc240fddd76b7590601f850160051c90602086106129d1575b601f82910160051c039101613b77565b8c61258a565b5f91506129bb565b90508a01518e61244c565b601f198216905f5160206150d15f395f51905f525f52805f20915f5b8c828210612a485750509083600194939210612a30575b5050811b015f5160206150d15f395f51905f5255612559565b8b01515f1960f88460031b161c191690558d80612a17565b60018495602093958493015181550194019201612a00565b8181111561251c575f5160206150d15f395f51905f525f52612abe907f42ad5d3e1f2e6e70edcf6d991b8a3023d3fca8047a131592f9edb9fd9b89d57d90601f840160051c90602085106129d157601f82910160051c039101613b77565b8c61251c565b90508a01518d61244c565b601f198216905f5160206151f15f395f51905f525f52805f20915f5b8c828210612b335750509083600194939210612b1b575b5050811b015f5160206151f15f395f51905f52556124dc565b8b01515f1960f88460031b161c191690558c80612b02565b60018495602093958493015181550194019201612aeb565b8181111561249f575f5160206151f15f395f51905f525f52612ba9907ff4bad0a69248f59680a4f2b3000328cec71a413447c96781cfe5996daa8c456e90601f840160051c90602085106129d157601f82910160051c039101613b77565b8b61249f565b90508901518d61244c565b601f198216905f5160206150b15f395f51905f525f527f37c58c799b6609234b945e882912ee9ad34948a1dfaa20a97485e1a7752bbf81915f5b8b828210612c3c5750509083600194939210612c24575b5050811b015f5160206150b15f395f51905f525561246f565b8a01515f1960f88460031b161c191690558c80612c0b565b60018495602093958493015181550194019201612bf4565b81811115612431575f5160206150b15f395f51905f525f52612cb2907f37c58c799b6609234b945e882912ee9ad34948a1dfaa20a97485e1a7752bbf8190601f840160051c90602085106129d157601f82910160051c039101613b77565b8b612431565b6381c718e960e01b5f5260045ffd5b63045fe17160e51b5f5260045ffd5b68ffffffffffffffffff191668010000000000000001175f5160206151d15f395f51905f52558a6123c0565b63f92ee8a960e01b5f5260045ffd5b9050158c612397565b303b15915061238f565b8c9150612385565b3461044757611055612d3d3661350e565b91613819565b3461044757366003190161010081126104475760a0136104475760405160a081018181106001600160401b03821117610c6857604052612d816133b0565b8152612d8b6133c6565b60208201908152612d9a6133f2565b6040830190815260608301606435815260808401906084358252606060a3193601126104475760405191606083018381106001600160401b03821117610c685760405260a43560ff81168103610447578352602083019260c4358452604081019360e435855282514211612f6157835188516001600160a01b03165f9081526020819052604090206001015403612f615760209460ff6080945f96612e3d614eab565b9160018060a01b038d51169160018060a01b038d5116918c5115159151905191604051938d8501957f38d47287497526556d35736679d5577a53750afee9e16b22ce0be2e0d0169bcb8752604086015260608501528a84015260a083015260c082015260c08152612eaf60e082613461565b519020604051908982019261190160f01b84526022830152604282015260428152612edb606282613461565b5190209351169151905191604051938452868401526040830152606082015282805260015afa15612101575f516001600160a01b03168015908115612f70575b50612f61576110559260018060a01b038151165f525f602052600160405f2001612f45815461380b565b905551915190511515916001600160a01b03918216911661417a565b638baa579f60e01b5f5260045ffd5b84516001600160a01b03161415905084612f1b565b34610447576020366003190112610447576004356001600160401b03811161044757611473612fba602092369060040161349d565b612fca612fc5613701565b614062565b9061411c565b34610447575f3660031901126104475760205f5160206151515f395f51905f5254604051908152f35b346104475760a0366003190112610447576004356130156133dc565b9061301e6133f2565b6064356001600160401b0381116104475761303d90369060040161349d565b906084356001600160401b0381116104475761305d9036906004016134e1565b929091613068613c92565b6130723386613cca565b845f52600860205261308660405f2061363b565b6001600160801b038151166001600160801b0388161490816130df575b50156130d0576020956130b595613d32565b60015f5160206151915f395f51905f52556040519015158152f35b633a1be4b160e11b5f5260045ffd5b905060208351818501209101516020815191012014876130a3565b34610447575f366003190112610447576104c461116e613618565b346104475760403660031901126104475761312e6133b0565b60243561313a81613c63565b331515806131ee575b806131cb575b6131b85781906001600160a01b0384811691167f8c5be1e5ebec7d5bd14f71427d1e84f3dd0314c0f7b2291e5b200ac8c7c3b9255f80a45f9081525f5160206151b15f395f51905f526020526040902080546001600160a01b0319166001600160a01b03909216919091179055005b63a9fbf51f60e01b5f523360045260245ffd5b506131d58161379b565b335f908152602091909152604090205460ff1615613149565b506001600160a01b038116331415613143565b3461044757602036600319011261044757602061176f60043561322381613c63565b505f9081525f5160206151b15f395f51905f5260205260409020546001600160a01b031690565b34610447575f366003190112610447576040515f5f5160206150b15f395f51905f5254613276816135e0565b80845290600181169081156111ec575060011461329d576104c48361116e81850382613461565b5f5160206150b15f395f51905f525f9081527f37c58c799b6609234b945e882912ee9ad34948a1dfaa20a97485e1a7752bbf81939250905b8082106132ed5750909150810160200161116e61115e565b9192600181602092548385880101520191019092916132d5565b34610447576020366003190112610447576004359063ffffffff60e01b82168092036104475760209163780e9d6360e01b8114908115613349575b5015158152f35b6380ac58cd60e01b81149150811561337b575b811561336a575b5083613342565b6301ffc9a760e01b14905083613363565b635b5e139f60e01b8114915061335c565b805180835260209291819084018484015e5f828201840152601f01601f1916010190565b600435906001600160a01b038216820361044757565b602435906001600160a01b038216820361044757565b602435906001600160801b038216820361044757565b60443590811515820361044757565b60243590811515820361044757565b60c081019081106001600160401b03821117610c6857604052565b608081019081106001600160401b03821117610c6857604052565b604081019081106001600160401b03821117610c6857604052565b90601f801991011681019081106001600160401b03821117610c6857604052565b6001600160401b038111610c6857601f01601f191660200190565b81601f82011215610447576020813591016134b782613482565b926134c56040519485613461565b8284528282011161044757815f92602092838601378301015290565b9181601f84011215610447578235916001600160401b038311610447576020838186019501011161044757565b6060906003190112610447576004356001600160a01b038116810361044757906024356001600160a01b0381168103610447579060443590565b606090600319011261044757600435906024356001600160801b0381168103610447579060443580151581036104475790565b9060406003198301126104475760043591602435906001600160401b038211610447576135aa9160040161349d565b90565b90602080835192838152019201905f5b8181106135ca5750505090565b82518452602093840193909201916001016135bd565b90600182811c9216801561360e575b60208310146135fa57565b634e487b7160e01b5f52602260045260245ffd5b91607f16916135ef565b60405190613627604083613461565b60058252640322e302e360dc1b6020830152565b9060405161364881613446565b600181936001600160801b038154168352019060405180925f9080549061366e826135e0565b80855291600181169081156136da575060011461369b575b505060209291613697910384613461565b0152565b5f908152602081209092505b8183106136be575050810160200181613697613686565b60209193508060019154838589010152019101909184926136a7565b60ff191660208681019190915292151560051b850190920192508391506136979050613686565b6040519061370e82613410565b6001546001600160a01b039081168352600254811660208401526003548116604080850191909152600454918216606085015260a091821c6001600160401b031660808501525190836137608361342b565b60ff600554600180851b038116855263ffffffff81851c16602086015263ffffffff8160c01c16604086015260e01c16151560608401520152565b6001600160a01b03165f9081527f80bb2b638cc20bc4d0a60d66940f3ab4a00c1d7b313497ca82fb0b4ab00793056020526040902090565b6001600160a01b03165f9081527f80bb2b638cc20bc4d0a60d66940f3ab4a00c1d7b313497ca82fb0b4ab00793036020526040902090565b5f19811461194b5760010190565b9091906001600160a01b038316801561201e5761383583614a96565b9033151580613a6a575b506001600160a01b0382169485158015613a4c575b61385d826137d3565b60018154019055855f525f5160206151715f395f51905f5260205260405f20836001600160601b0360a01b8254161790558583887fddf252ad1be2c89b69c2b068fc378daa952ba7f163c4a11628f55a4df523b3ef5f80a41561399f575f5160206151515f395f51905f5254855f525f5160206151115f395f51905f526020528060405f2055600160401b811015610c685785611da082600161390f94015f5160206151515f395f51905f5255613b18565b818603613947575b5050506001600160a01b031680830361392f57505050565b6364283d7b60e01b5f5260045260245260445260645ffd5b61395090613b48565b5f1981019190821161194b575f525f5160206150915f395f51905f5260205260405f20815f526020528360405f2055835f525f5160206150715f395f51905f5260205260405f20555f80613917565b85821461390f576139af83613b48565b855f525f5160206150715f395f51905f5260205260405f205490875f525f5160206150915f395f51905f5260205260405f2091818103613a15575b50865f525f5160206150715f395f51905f526020525f60408120555f526020525f604081205561390f565b815f528260205260405f2054815f52836020528060405f20555f525f5160206150715f395f51905f5260205260405f20555f6139ea565b613a5586614abc565b613a5e846137d3565b80545f19019055613854565b80613ab2575b15613a7b575f61383f565b836001600160a01b038316613a9c57637e27328960e01b5f5260045260245ffd5b63177e802f60e01b5f523360045260245260445ffd5b506001600160a01b03821633148015613af6575b80613a7057505f8481525f5160206151b15f395f51905f5260205260409020546001600160a01b03163314613a70565b50613b008261379b565b335f908152602091909152604090205460ff16613ac6565b5f5160206151515f395f51905f5254811015610af7575f5160206151515f395f51905f525f5260205f2001905f90565b6001600160a01b03811615613b6457613b60906137d3565b5490565b6322718ad960e21b5f525f60045260245ffd5b5f5b828110613b8557505050565b5f82820155600101613b79565b91601f8211613ba1575b505050565b808211613bad57505050565b613bd7925f5260205f20916020601f830160051c92106129d157601f82910160051c039101613b77565b565b60405190613be682613446565b60606020835f81520152565b6001600160a01b03168015613c50575f5160206150f15f395f51905f5280546001600160a01b0319811683179091556001600160a01b03167f8be0079c531659141344cd1fd0a4f28419497f9722a3daafe3b4186f6b6457e05f80a3565b631e4fbdf760e01b5f525f60045260245ffd5b613c6c81614a96565b906001600160a01b03821615613c80575090565b637e27328960e01b5f5260045260245ffd5b60025f5160206151915f395f51905f525414613cbb5760025f5160206151915f395f51905f5255565b633ee5aeb560e01b5f5260045ffd5b6001600160a01b03613cdb82613c63565b6001600160a01b039093169216828114159081613d11575b50613cfc575050565b63e9f7336760e01b5f5260045260245260445ffd5b90505f525f60205260405f20825f5260205260ff60405f205416155f613cf3565b92949091613d3e613701565b9260808401516001600160401b03429116111561167557613d5f90856146d1565b93919097885f14613ed85750602090613d77876147c4565b0151955b613d85873361430e565b8215613ec45760208501516001600160a01b0316945b516001600160a01b031693333b1561044757604051631df1692d60e31b81526001600160a01b03871660048201526001600160801b039190911660248201819052604482019590955260a06064820152915f918391602091839180613e0360a485018e61338c565b84810360031901608486015281815292858401378181018401869052601f01601f19160103018183335af18015612101577f3d6f104fcd5742ab685852140e00ce8de27c4bff19d1b233c905aceee89bc9f594613e82928592613eb4575b505f5160206150f15f395f51905f52546001600160a01b0316903390614748565b6040519182521515602082015284151560408201526080606082015280613eae3395608083019061338c565b0390a390565b5f613ebe91613461565b5f613e61565b60408501516001600160a01b031694613d9b565b9690613ee488826142cd565b9060208101918252613ef9611bf58289614ae5565b6001600160801b0363ffffffff604060a08b0151015116911690613f1c8a613c63565b908211614008575050600190885f5260086020526001600160801b0360405f209151166001600160801b03198254161781550190518051906001600160401b038211610c6857613f708261031585546135e0565b602090601f8311600114613fa557613f9e92915f91836103a05750508160011b915f199060031b1c19161790565b9055613d7b565b90601f19831691845f52815f20925f5b818110613ff05750908460019594939210613fd8575b505050811b019055613d7b565b01515f1960f88460031b161c191690555f8080613fcb565b92936020600181928786015181550195019301613fb5565b8963733a8cc360e01b5f5260045260018060a01b031660245260445260645ffd5b519060ff8216820361044757565b9190826040910312610447576135aa602083519301614029565b60ff16604d811161194b57600a0a90565b60a0810151519051604080516341976e0960e01b81526001600160a01b03928316600482015292909183916024918391165afa8015612101575f915f916140d4575b506140ae90614051565b600a549060405192602084015260408301526060820152606081526135aa608082613461565b6140ae92506140fb915060403d604011614102575b6140f38183613461565b810190614037565b90916140a4565b503d6140e9565b8181029291811591840414171561194b57565b60208151918180820193849201010312610447575160608280518101031261044757602082015160606040840151930151926305f5e1008202918083046305f5e100149015171561194b576135aa9361417491614109565b91614de3565b919060207f4be69b58eeb45ab544475f2106149030062b633ed76279df1a900c710e5ca52491831593845f146141ec57506001600160a01b038581165f9081528084526040808220928416825291845220805460ff191690555b604051931584526001600160a01b03908116941692a3565b6001600160a01b038681165f9081528085526040808220928516825291855220805491151560ff1660ff19929092169190911790556141d4565b5f5160206150f15f395f51905f52546001600160a01b0316330361424657565b63118cdaa760e01b5f523360045260245ffd5b9190820180921161194b57565b91602081519181808201938492010103126104475751908161428757505050565b600154613bd793906001600160a01b0316614748565b604051906142aa82613410565b606060a0835f81525f60208201525f60408201525f838201525f60808201520152565b6020015160208151918180820193849201010312610447575190602081519181808201938492010103126104475751810390811161194b576135aa90614387565b906020815191818082019384920101031261044757518061432d575050565b600154613bd792906001600160a01b0316614f12565b6001546040516370a0823160e01b81523060048201529190602090839060249082906001600160a01b03165afa8015612101575f9061439f575b6143879250614cc4565b604051906020820152602081526135aa604082613461565b506020823d6020116143cb575b816143b960209383613461565b8101031261044757614387915161437d565b3d91506143ac565b6040515f5160206150d15f395f51905f5254815f6143f0836135e0565b808352926001811690811561447f5750600114614414575b6135aa92500382613461565b505f5160206150d15f395f51905f525f90815290917f42ad5d3e1f2e6e70edcf6d991b8a3023d3fca8047a131592f9edb9fd9b89d57d5b8183106144635750509060206135aa92820101614408565b602091935080600191548385880101520191019091839261444b565b602092506135aa94915060ff191682840152151560051b820101614408565b6040515f5160206151315f395f51905f5254815f6144bb836135e0565b808352926001811690811561447f57506001146144de576135aa92500382613461565b505f5160206151315f395f51905f525f90815290917f5f9ce34815f8e11431c7bb75a8e6886a91478f7ffc1dbb0a98dc240fddd76b755b81831061452d5750509060206135aa92820101614408565b6020919350806001915483858801015201910190918392614515565b602081519181808201938492010103126104475760207fb9b9678eb655dc35e53e0dd8d16d8ab6470cf94d444f41f83b0ca53ed9c57916915180600955604051908152a1565b823b61459d575b5050505050565b604051630a85bd0160e11b81526001600160a01b0391821660048201529181166024830152604482019390935260806064820152911691602090829081906145e990608483019061338c565b03815f865af15f918161466e575b5061464c57503d15614645573d61460d81613482565b9061461b6040519283613461565b81523d5f602083013e5b805190816146405782633250574960e11b5f5260045260245ffd5b602001fd5b6060614625565b6001600160e01b03191663757a42ff60e11b01611ea157505f80808080614596565b9091506020813d6020116146ab575b8161468a60209383613461565b8101031261044757516001600160e01b03198116810361044757905f6145f7565b3d915061467d565b81156146bd570490565b634e487b7160e01b5f52601260045260245ffd5b906146da613bd9565b505f915f5260086020526146f060405f2061363b565b926001600160801b03845116806001600160801b03841611614740575b6001600160801b03831690036001600160801b03811161194b576001600160801b03168085521561473a57565b60019250565b91508161470d565b9092915f1983146147b5576001600160a01b0390811693169182841480156147ad575b6147a757613bd793604051936323b872dd60e01b6020860152602485015260448401526064830152606482526147a2608483613461565b615018565b50505050565b50801561476b565b630d550c3b60e11b5f5260045ffd5b6147cd81614a96565b6001600160a01b03811680159190821580614a78575b5f8581525f5160206151715f395f51905f526020526040812080546001600160a01b03191690558590837fddf252ad1be2c89b69c2b068fc378daa952ba7f163c4a11628f55a4df523b3ef8280a483156149c75750505f5160206151515f395f51905f5254835f525f5160206151115f395f51905f526020528060405f2055600160401b811015610c685783611da082600161488e94015f5160206151515f395f51905f5255613b18565b5f5160206151515f395f51905f52545f19810190811161194b57835f525f5160206151115f395f51905f526020526148ca60405f205491613b18565b90549060031b1c6148de81611da084613b18565b5f525f5160206151115f395f51905f5260205260405f2055825f525f5160206151115f395f51905f526020525f60408120555f5160206151515f395f51905f525480156149b3575f190161493181613b18565b8154905f199060031b1b191690555f5160206151515f395f51905f525550613c80575f526008602052600160405f205f81550161496e81546135e0565b9081614978575050565b81601f5f9311600114614989575055565b818352602083206149a691601f0160051c84190190600101613b77565b8082528160208120915555565b634e487b7160e01b5f52603160045260245ffd5b6149d2575b5061488e565b6149db82613b48565b845f525f5160206150715f395f51905f5260205260405f2054915f525f5160206150915f395f51905f5260205260405f2091818103614a41575b50845f525f5160206150715f395f51905f526020525f60408120555f526020525f60408120555f6149cc565b815f528260205260405f2054815f52836020528060405f20555f525f5160206150715f395f51905f5260205260405f20555f614a15565b614a8185614abc565b614a8a836137d3565b80545f190190556147e3565b5f9081525f5160206151715f395f51905f5260205260409020546001600160a01b031690565b5f525f5160206151b15f395f51905f5260205260405f206001600160601b0360a01b8154169055565b919091614af061429d565b92614b0d614afd83614062565b8060a0870152602083015161411c565b845260a082015151602090920151604080516341976e0960e01b81526001600160a01b03928316600482015293909184916024918391165afa91821561210157614b8c925f915f91614b93575b50614b6b9060408701928352614051565b60608601526001600160801b03600754928360808801525116905190614de3565b6020830152565b614b6b9250614bb1915060403d604011614102576140f38183613461565b9091614b5a565b8051908115614c0f57614bd8614bde926060602084015193015190614109565b90614d56565b6001600160801b038111614bf8576001600160801b031690565b6306dfcc6560e41b5f52608060045260245260445ffd5b50506001600160801b0390565b906305f5e1008202905f196305f5e100840992828085109403938085039414614cb85783821115614ca0576305f5e100829109815f0382168092046002816003021880820260020302808202600203028082026002030280820260020302808202600203028091026002030293600183805f03040190848311900302920304170290565b50634e487b715f52156003026011186020526024601cfd5b50906135aa92506146b3565b9190915f838202915f1985820991838084109303928084039314614d445782662386f26fc100001115614d3257507fdfd55a2ef7fed2da00d3bd6d84eb0053f60b3275305c1066e4a4d1417cd9a0419394662386f26fc10000910990828211900360f01b910360101c170290565b634e487b71905260116020526024601cfd5b505050662386f26fc100009192500490565b90662386f26fc100008202905f19662386f26fc10000840992828085109403938085039414614cb85783821115614ca057662386f26fc10000829109815f0382168092046002816003021880820260020302808202600203028082026002030280820260020302808202600203028091026002030293600183805f03040190848311900302920304170290565b91818302915f1981850993838086109503948086039514614e735784831115614e5b5790829109815f0382168092046002816003021880820260020302808202600203028082026002030280820260020302808202600203028091026002030293600183805f03040190848311900302920304170290565b82634e487b715f52156003026011186020526024601cfd5b5050906135aa92506146b3565b60ff5f5160206151d15f395f51905f525460401c1615614e9c57565b631afcd79f60e31b5f5260045ffd5b614eb3614f69565b614ebb614fd3565b6040519060208201927f8b73c3c69bb8fe3d512ecc4cf759cc79239f7b179b0ffacaa9a75d522b39400f8452604083015260608201524660808201523060a082015260a08152614f0c60c082613461565b51902090565b905f1983146147b5576001600160a01b0316903082148015614f61575b613b9c57613bd7926040519263a9059cbb60e01b602085015260248401526044830152604482526147a2606483613461565b508215614f2f565b614f716143d3565b8051908115614f81576020012090565b50507fa16a46d94261c7517cc8ff89f61c0ce93598e3c849801011dee649a6a557d100548015614fae5790565b507fc5d2460186f7233c927e7db2dcc703c0e500b653ca82273b7bfad8045d85a47090565b614fdb61449e565b8051908115614feb576020012090565b50507fa16a46d94261c7517cc8ff89f61c0ce93598e3c849801011dee649a6a557d101548015614fae5790565b905f602091828151910182855af115612101575f513d61506757506001600160a01b0381163b155b6150475750565b635274afe760e01b5f9081526001600160a01b0391909116600452602490fd5b6001141561504056fe645e039705490088daad89bae25049a34f4a9072d398537b1ab2425f24cbed01645e039705490088daad89bae25049a34f4a9072d398537b1ab2425f24cbed0080bb2b638cc20bc4d0a60d66940f3ab4a00c1d7b313497ca82fb0b4ab0079300a16a46d94261c7517cc8ff89f61c0ce93598e3c849801011dee649a6a557d1029016d09d72d40fdae2fd8ceac6b6234c7706214fd39c1cd1e609a0528c199300645e039705490088daad89bae25049a34f4a9072d398537b1ab2425f24cbed03a16a46d94261c7517cc8ff89f61c0ce93598e3c849801011dee649a6a557d103645e039705490088daad89bae25049a34f4a9072d398537b1ab2425f24cbed0280bb2b638cc20bc4d0a60d66940f3ab4a00c1d7b313497ca82fb0b4ab00793029b779b17422d0df92223018b32b4d1fa46e071723d6817e2486d003becc55f0080bb2b638cc20bc4d0a60d66940f3ab4a00c1d7b313497ca82fb0b4ab0079304f0c57e16840df040f15088dc2f81fe391c3923bec73e23a9662efc9c229c6a0080bb2b638cc20bc4d0a60d66940f3ab4a00c1d7b313497ca82fb0b4ab0079301a2646970667358221220fe66a2161bfa2feaf73875846b94f140f5de266e21d91ee86d8210638abb2dd364736f6c63430008210033f0c57e16840df040f15088dc2f81fe391c3923bec73e23a9662efc9c229c6a00","linkReferences":{}},"methodIdentifiers":{"DELEGATION_WITH_SIG_TYPEHASH()":"f3bfc738","DOMAIN_SEPARATOR()":"3644e515","addCollateral(uint256,bytes)":"fe8fd7d9","approve(address,uint256)":"095ea7b3","augmentDebt(address,uint256,uint256)":"2dd06c62","balanceOf(address)":"70a08231","collateralCapacity()":"e1728645","delivery(uint256,address)":"fc74a13a","eip712Domain()":"84b0196e","flashRepay(uint256,bool,bytes)":"3c568b98","flashRepay(uint256,uint128,bool,bytes,bytes)":"173ba946","getApproved(uint256)":"081812fc","getCollateralValue(bytes)":"1b2b5fad","getGtConfig()":"eef5777c","getLiquidationInfo(uint256)":"50ef5c35","getVersion()":"0d8e6e2c","initialize(string,string,(address,address,address,address,uint64,(address,uint32,uint32,bool)),bytes)":"24f39cfc","isApprovedForAll(address,address)":"e985e9c5","isDelegate(address,address)":"5fec5d0b","liquidatable()":"a91a53b3","liquidate(uint256,uint128,bool)":"52b17446","loanInfo(uint256)":"8349d6be","marketAddr()":"cefa74cc","merge(uint256[])":"de62d842","mint(address,address,uint128,bytes)":"35809034","name()":"06fdde03","nonces(address)":"7ecebe00","owner()":"8da5cb5b","ownerOf(uint256)":"6352211e","previewDelivery(uint256)":"7da39d5b","removeCollateral(uint256,bytes)":"77efba60","renounceOwnership()":"715018a6","repay(uint256,uint128,bool)":"df2cbf3e","repayAndRemoveCollateral(uint256,uint128,bool,address,bytes)":"d8fe8175","safeTransferFrom(address,address,uint256)":"42842e0e","safeTransferFrom(address,address,uint256,bytes)":"b88d4fde","setApprovalForAll(address,bool)":"a22cb465","setDelegate(address,bool)":"4a994eef","setDelegateWithSignature((address,address,bool,uint256,uint256),(uint8,bytes32,bytes32))":"21e439ef","setTreasurer(address)":"671d6429","supportsInterface(bytes4)":"01ffc9a7","symbol()":"95d89b41","tokenByIndex(uint256)":"4f6ccce7","tokenOfOwnerByIndex(address,uint256)":"2f745c59","tokenURI(uint256)":"c87b56dd","totalSupply()":"18160ddd","transferFrom(address,address,uint256)":"23b872dd","transferOwnership(address)":"f2fde38b","updateConfig(bytes)":"8cc6acce"},"id":85}