{"abi":[{"type":"function","name":"allowance","inputs":[{"name":"owner","type":"address","internalType":"address"},{"name":"spender","type":"address","internalType":"address"}],"outputs":[{"name":"","type":"uint256","internalType":"uint256"}],"stateMutability":"view"},{"type":"function","name":"approve","inputs":[{"name":"spender","type":"address","internalType":"address"},{"name":"value","type":"uint256","internalType":"uint256"}],"outputs":[{"name":"","type":"bool","internalType":"bool"}],"stateMutability":"nonpayable"},{"type":"function","name":"balanceOf","inputs":[{"name":"account","type":"address","internalType":"address"}],"outputs":[{"name":"","type":"uint256","internalType":"uint256"}],"stateMutability":"view"},{"type":"function","name":"burn","inputs":[{"name":"amount","type":"uint256","internalType":"uint256"}],"outputs":[],"stateMutability":"nonpayable"},{"type":"function","name":"burn","inputs":[{"name":"owner","type":"address","internalType":"address"},{"name":"spender","type":"address","internalType":"address"},{"name":"amount","type":"uint256","internalType":"uint256"}],"outputs":[],"stateMutability":"nonpayable"},{"type":"function","name":"decimals","inputs":[],"outputs":[{"name":"","type":"uint8","internalType":"uint8"}],"stateMutability":"view"},{"type":"function","name":"getVersion","inputs":[],"outputs":[{"name":"","type":"string","internalType":"string"}],"stateMutability":"pure"},{"type":"function","name":"initialize","inputs":[{"name":"name","type":"string","internalType":"string"},{"name":"symbol","type":"string","internalType":"string"},{"name":"decimals_","type":"uint8","internalType":"uint8"}],"outputs":[],"stateMutability":"nonpayable"},{"type":"function","name":"marketAddr","inputs":[],"outputs":[{"name":"","type":"address","internalType":"address"}],"stateMutability":"view"},{"type":"function","name":"mint","inputs":[{"name":"to","type":"address","internalType":"address"},{"name":"amount","type":"uint256","internalType":"uint256"}],"outputs":[],"stateMutability":"nonpayable"},{"type":"function","name":"name","inputs":[],"outputs":[{"name":"","type":"string","internalType":"string"}],"stateMutability":"view"},{"type":"function","name":"owner","inputs":[],"outputs":[{"name":"","type":"address","internalType":"address"}],"stateMutability":"view"},{"type":"function","name":"renounceOwnership","inputs":[],"outputs":[],"stateMutability":"nonpayable"},{"type":"function","name":"symbol","inputs":[],"outputs":[{"name":"","type":"string","internalType":"string"}],"stateMutability":"view"},{"type":"function","name":"totalSupply","inputs":[],"outputs":[{"name":"","type":"uint256","internalType":"uint256"}],"stateMutability":"view"},{"type":"function","name":"transfer","inputs":[{"name":"to","type":"address","internalType":"address"},{"name":"value","type":"uint256","internalType":"uint256"}],"outputs":[{"name":"","type":"bool","internalType":"bool"}],"stateMutability":"nonpayable"},{"type":"function","name":"transferFrom","inputs":[{"name":"from","type":"address","internalType":"address"},{"name":"to","type":"address","internalType":"address"},{"name":"value","type":"uint256","internalType":"uint256"}],"outputs":[{"name":"","type":"bool","internalType":"bool"}],"stateMutability":"nonpayable"},{"type":"function","name":"transferOwnership","inputs":[{"name":"newOwner","type":"address","internalType":"address"}],"outputs":[],"stateMutability":"nonpayable"},{"type":"event","name":"Approval","inputs":[{"name":"owner","type":"address","indexed":true,"internalType":"address"},{"name":"spender","type":"address","indexed":true,"internalType":"address"},{"name":"value","type":"uint256","indexed":false,"internalType":"uint256"}],"anonymous":false},{"type":"event","name":"Initialized","inputs":[{"name":"version","type":"uint64","indexed":false,"internalType":"uint64"}],"anonymous":false},{"type":"event","name":"OwnershipTransferred","inputs":[{"name":"previousOwner","type":"address","indexed":true,"internalType":"address"},{"name":"newOwner","type":"address","indexed":true,"internalType":"address"}],"anonymous":false},{"type":"event","name":"Transfer","inputs":[{"name":"from","type":"address","indexed":true,"internalType":"address"},{"name":"to","type":"address","indexed":true,"internalType":"address"},{"name":"value","type":"uint256","indexed":false,"internalType":"uint256"}],"anonymous":false},{"type":"error","name":"ERC20InsufficientAllowance","inputs":[{"name":"spender","type":"address","internalType":"address"},{"name":"allowance","type":"uint256","internalType":"uint256"},{"name":"needed","type":"uint256","internalType":"uint256"}]},{"type":"error","name":"ERC20InsufficientBalance","inputs":[{"name":"sender","type":"address","internalType":"address"},{"name":"balance","type":"uint256","internalType":"uint256"},{"name":"needed","type":"uint256","internalType":"uint256"}]},{"type":"error","name":"ERC20InvalidApprover","inputs":[{"name":"approver","type":"address","internalType":"address"}]},{"type":"error","name":"ERC20InvalidReceiver","inputs":[{"name":"receiver","type":"address","internalType":"address"}]},{"type":"error","name":"ERC20InvalidSender","inputs":[{"name":"sender","type":"address","internalType":"address"}]},{"type":"error","name":"ERC20InvalidSpender","inputs":[{"name":"spender","type":"address","internalType":"address"}]},{"type":"error","name":"InvalidInitialization","inputs":[]},{"type":"error","name":"NotInitializing","inputs":[]},{"type":"error","name":"OwnableInvalidOwner","inputs":[{"name":"owner","type":"address","internalType":"address"}]},{"type":"error","name":"OwnableUnauthorizedAccount","inputs":[{"name":"account","type":"address","internalType":"address"}]},{"type":"error","name":"SpenderIsNotMarket","inputs":[{"name":"spender","type":"address","internalType":"address"}]}],"bytecode":{"object":"0x6080806040523460aa575f5160206111415f395f51905f525460ff8160401c16609b576002600160401b03196001600160401b038216016049575b60405161109290816100af8239f35b6001600160401b0319166001600160401b039081175f5160206111415f395f51905f525581527fc7f505b2f371ae2175ee4913f4499e1f2633a7b5936321eed1cdaeb6115181d290602090a15f80603a565b63f92ee8a960e01b5f5260045ffd5b5f80fdfe60806040526004361015610011575f80fd5b5f3560e01c806306fdde0314610a89578063095ea7b3146109e45780630d8e6e2c146109a55780631624f6c61461050b57806318160ddd146104e257806323b872dd146104c0578063313ce567146104a157806340c10f19146103d057806342966c68146103ab57806370a0823114610367578063715018a6146103005780638da5cb5b146101a957806395d89b411461020e578063a9059cbb146101dd578063cefa74cc146101a9578063dd62ed3e14610156578063f2fde38b1461012d5763f6b911bc146100df575f80fd5b34610129576101166100f036610bfe565b91906100fa610e88565b826001600160a01b0382811690841603610118575b5050610ebb565b005b6101229183610d19565b5f8261010f565b5f80fd5b3461012957602036600319011261012957610116610149610b70565b610151610e88565b610ca8565b346101295760403660031901126101295761016f610b70565b602435906001600160a01b03821682036101295761018c90610c70565b9060018060a01b03165f52602052602060405f2054604051908152f35b34610129575f366003190112610129575f516020610ffd5f395f51905f52546040516001600160a01b039091168152602090f35b34610129576040366003190112610129576102036101f9610b70565b6024359033610db7565b602060405160018152f35b34610129575f366003190112610129576040515f5f516020610fdd5f395f51905f525461023a81610c38565b80845290600181169081156102dc5750600114610272575b61026e8361026281850382610b86565b60405191829182610b46565b0390f35b5f516020610fdd5f395f51905f525f9081527f46a2803e59a4de4e7a4c574b1243f25977ac4c77d5a1a4a609b5394cebb4a2aa939250905b8082106102c257509091508101602001610262610252565b9192600181602092548385880101520191019092916102aa565b60ff191660208086019190915291151560051b840190910191506102629050610252565b34610129575f36600319011261012957610318610e88565b5f516020610ffd5f395f51905f5280546001600160a01b031981169091555f906001600160a01b03167f8be0079c531659141344cd1fd0a4f28419497f9722a3daafe3b4186f6b6457e08280a3005b34610129576020366003190112610129576001600160a01b03610388610b70565b165f525f516020610fbd5f395f51905f52602052602060405f2054604051908152f35b34610129576020366003190112610129576103c4610e88565b61011660043533610ebb565b34610129576040366003190112610129576103e9610b70565b602435906103f5610e88565b6001600160a01b031690811561048e575f51602061101d5f395f51905f52549080820180921161047a5760207fddf252ad1be2c89b69c2b068fc378daa952ba7f163c4a11628f55a4df523b3ef915f935f51602061101d5f395f51905f52558484525f516020610fbd5f395f51905f52825260408420818154019055604051908152a3005b634e487b7160e01b5f52601160045260245ffd5b63ec442f0560e01b5f525f60045260245ffd5b34610129575f36600319011261012957602060ff5f5416604051908152f35b34610129576102036104d136610bfe565b916104dd833383610d19565b610db7565b34610129575f3660031901126101295760205f51602061101d5f395f51905f5254604051908152f35b346101295760603660031901126101295760043567ffffffffffffffff81116101295761053c903690600401610ba8565b60243567ffffffffffffffff81116101295761055c903690600401610ba8565b60443560ff8116809103610129575f51602061103d5f395f51905f52549060ff8260401c16159167ffffffffffffffff81168015908161099d575b6001149081610993575b15908161098a575b5061097b5767ffffffffffffffff1981166001175f51602061103d5f395f51905f52558261094f575b506105db610f71565b6105e3610f71565b835167ffffffffffffffff811161083b5761060b5f516020610f9d5f395f51905f5254610c38565b601f81116108d5575b50602094601f821160011461085a579481929394955f9261084f575b50508160011b915f199060031b1c1916175f516020610f9d5f395f51905f52555b825167ffffffffffffffff811161083b576106795f516020610fdd5f395f51905f5254610c38565b601f81116107c1575b506020601f821160011461074657819293945f9261073b575b50508160011b915f199060031b1c1916175f516020610fdd5f395f51905f52555b6106c4610f71565b6106cc610f71565b6106d533610ca8565b60ff195f5416175f556106e457005b68ff0000000000000000195f51602061103d5f395f51905f5254165f51602061103d5f395f51905f52557fc7f505b2f371ae2175ee4913f4499e1f2633a7b5936321eed1cdaeb6115181d2602060405160018152a1005b01519050848061069b565b601f198216905f516020610fdd5f395f51905f525f52805f20915f5b8181106107a957509583600195969710610791575b505050811b015f516020610fdd5f395f51905f52556106bc565b01515f1960f88460031b161c19169055848080610777565b9192602060018192868b015181550194019201610762565b81811115610682575f516020610fdd5f395f51905f525f52601f820160051c7f46a2803e59a4de4e7a4c574b1243f25977ac4c77d5a1a4a609b5394cebb4a2aa60208410610833575b81601f9101920160051c03905f5b828110610826575050610682565b5f82820155600101610818565b5f915061080a565b634e487b7160e01b5f52604160045260245ffd5b015190508580610630565b601f198216955f516020610f9d5f395f51905f525f52805f20915f5b8881106108bd575083600195969798106108a5575b505050811b015f516020610f9d5f395f51905f5255610651565b01515f1960f88460031b161c1916905585808061088b565b91926020600181928685015181550194019201610876565b81811115610614575f516020610f9d5f395f51905f525f52601f820160051c7f2ae08a8e29253f69ac5d979a101956ab8f8d9d7ded63fa7a83b16fc47648eab060208410610947575b81601f9101920160051c03905f5b82811061093a575050610614565b5f8282015560010161092c565b5f915061091e565b68ffffffffffffffffff191668010000000000000001175f51602061103d5f395f51905f5255846105d2565b63f92ee8a960e01b5f5260045ffd5b905015866105a9565b303b1591506105a1565b849150610597565b34610129575f3660031901126101295761026e6040516109c6604082610b86565b60058152640322e302e360dc1b602082015260405191829182610b46565b34610129576040366003190112610129576109fd610b70565b602435903315610a76576001600160a01b0316908115610a6357610a2033610c70565b825f526020528060405f20556040519081527f8c5be1e5ebec7d5bd14f71427d1e84f3dd0314c0f7b2291e5b200ac8c7c3b92560203392a3602060405160018152f35b634a1406b160e11b5f525f60045260245ffd5b63e602df0560e01b5f525f60045260245ffd5b34610129575f366003190112610129576040515f5f516020610f9d5f395f51905f5254610ab581610c38565b80845290600181169081156102dc5750600114610adc5761026e8361026281850382610b86565b5f516020610f9d5f395f51905f525f9081527f2ae08a8e29253f69ac5d979a101956ab8f8d9d7ded63fa7a83b16fc47648eab0939250905b808210610b2c57509091508101602001610262610252565b919260018160209254838588010152019101909291610b14565b602060409281835280519182918282860152018484015e5f828201840152601f01601f1916010190565b600435906001600160a01b038216820361012957565b90601f8019910116810190811067ffffffffffffffff82111761083b57604052565b81601f820112156101295780359067ffffffffffffffff821161083b5760405192610bdd601f8401601f191660200185610b86565b8284526020838301011161012957815f926020809301838601378301015290565b6060906003190112610129576004356001600160a01b038116810361012957906024356001600160a01b0381168103610129579060443590565b90600182811c92168015610c66575b6020831014610c5257565b634e487b7160e01b5f52602260045260245ffd5b91607f1691610c47565b6001600160a01b03165f9081527f52c63247e1f47db19d5ce0460030c497f067ca4cebf71ba98eeadabe20bace016020526040902090565b6001600160a01b03168015610d06575f516020610ffd5f395f51905f5280546001600160a01b0319811683179091556001600160a01b03167f8be0079c531659141344cd1fd0a4f28419497f9722a3daafe3b4186f6b6457e05f80a3565b631e4fbdf760e01b5f525f60045260245ffd5b9190610d2483610c70565b60018060a01b0382165f5260205260405f2054925f198410610d47575b50505050565b828410610d94576001600160a01b03811615610a76576001600160a01b03821615610a6357610d7590610c70565b9060018060a01b03165f5260205260405f20910390555f808080610d41565b508290637dc7a0d960e11b5f5260018060a01b031660045260245260445260645ffd5b6001600160a01b0316908115610e75576001600160a01b031691821561048e57815f525f516020610fbd5f395f51905f5260205260405f2054818110610e5c57817fddf252ad1be2c89b69c2b068fc378daa952ba7f163c4a11628f55a4df523b3ef92602092855f525f516020610fbd5f395f51905f5284520360405f2055845f525f516020610fbd5f395f51905f52825260405f20818154019055604051908152a3565b8263391434e360e21b5f5260045260245260445260645ffd5b634b637e8f60e11b5f525f60045260245ffd5b5f516020610ffd5f395f51905f52546001600160a01b03163303610ea857565b63118cdaa760e01b5f523360045260245ffd5b9091906001600160a01b03168015610e7557805f525f516020610fbd5f395f51905f5260205260405f2054838110610f57576020845f94957fddf252ad1be2c89b69c2b068fc378daa952ba7f163c4a11628f55a4df523b3ef938587525f516020610fbd5f395f51905f528452036040862055805f51602061101d5f395f51905f5254035f51602061101d5f395f51905f5255604051908152a3565b915063391434e360e21b5f5260045260245260445260645ffd5b60ff5f51602061103d5f395f51905f525460401c1615610f8d57565b631afcd79f60e31b5f5260045ffdfe52c63247e1f47db19d5ce0460030c497f067ca4cebf71ba98eeadabe20bace0352c63247e1f47db19d5ce0460030c497f067ca4cebf71ba98eeadabe20bace0052c63247e1f47db19d5ce0460030c497f067ca4cebf71ba98eeadabe20bace049016d09d72d40fdae2fd8ceac6b6234c7706214fd39c1cd1e609a0528c19930052c63247e1f47db19d5ce0460030c497f067ca4cebf71ba98eeadabe20bace02f0c57e16840df040f15088dc2f81fe391c3923bec73e23a9662efc9c229c6a00a264697066735822122027325b9cdc52320568fe56bd47898671cfe2bf3d07e899579eb8ee211aed951d64736f6c63430008210033f0c57e16840df040f15088dc2f81fe391c3923bec73e23a9662efc9c229c6a00","linkReferences":{}},"methodIdentifiers":{"allowance(address,address)":"dd62ed3e","approve(address,uint256)":"095ea7b3","balanceOf(address)":"70a08231","burn(address,address,uint256)":"f6b911bc","burn(uint256)":"42966c68","decimals()":"313ce567","getVersion()":"0d8e6e2c","initialize(string,string,uint8)":"1624f6c6","marketAddr()":"cefa74cc","mint(address,uint256)":"40c10f19","name()":"06fdde03","owner()":"8da5cb5b","renounceOwnership()":"715018a6","symbol()":"95d89b41","totalSupply()":"18160ddd","transfer(address,uint256)":"a9059cbb","transferFrom(address,address,uint256)":"23b872dd","transferOwnership(address)":"f2fde38b"},"id":84}