{"abi":[{"type":"constructor","inputs":[{"name":"underlying_","type":"address","internalType":"address"}],"stateMutability":"nonpayable"},{"type":"function","name":"allowance","inputs":[{"name":"owner","type":"address","internalType":"address"},{"name":"spender","type":"address","internalType":"address"}],"outputs":[{"name":"","type":"uint256","internalType":"uint256"}],"stateMutability":"view"},{"type":"function","name":"approve","inputs":[{"name":"spender","type":"address","internalType":"address"},{"name":"value","type":"uint256","internalType":"uint256"}],"outputs":[{"name":"","type":"bool","internalType":"bool"}],"stateMutability":"nonpayable"},{"type":"function","name":"balanceOf","inputs":[{"name":"account","type":"address","internalType":"address"}],"outputs":[{"name":"","type":"uint256","internalType":"uint256"}],"stateMutability":"view"},{"type":"function","name":"borrow","inputs":[{"name":"asset","type":"address","internalType":"address"},{"name":"amount","type":"uint256","internalType":"uint256"},{"name":"interestRateMode","type":"uint256","internalType":"uint256"},{"name":"referralCode","type":"uint16","internalType":"uint16"},{"name":"onBehalfOf","type":"address","internalType":"address"}],"outputs":[],"stateMutability":"nonpayable"},{"type":"function","name":"decimals","inputs":[],"outputs":[{"name":"","type":"uint8","internalType":"uint8"}],"stateMutability":"view"},{"type":"function","name":"getReserveData","inputs":[{"name":"","type":"address","internalType":"address"}],"outputs":[{"name":"","type":"tuple","internalType":"struct IAaveV3Pool.ReserveData","components":[{"name":"configuration","type":"tuple","internalType":"struct IAaveV3Pool.ReserveConfigurationMap","components":[{"name":"data","type":"uint256","internalType":"uint256"}]},{"name":"liquidityIndex","type":"uint128","internalType":"uint128"},{"name":"currentLiquidityRate","type":"uint128","internalType":"uint128"},{"name":"variableBorrowIndex","type":"uint128","internalType":"uint128"},{"name":"currentVariableBorrowRate","type":"uint128","internalType":"uint128"},{"name":"currentStableBorrowRate","type":"uint128","internalType":"uint128"},{"name":"lastUpdateTimestamp","type":"uint40","internalType":"uint40"},{"name":"id","type":"uint16","internalType":"uint16"},{"name":"aTokenAddress","type":"address","internalType":"address"},{"name":"stableDebtTokenAddress","type":"address","internalType":"address"},{"name":"variableDebtTokenAddress","type":"address","internalType":"address"},{"name":"interestRateStrategyAddress","type":"address","internalType":"address"},{"name":"accruedToTreasury","type":"uint128","internalType":"uint128"},{"name":"unbacked","type":"uint128","internalType":"uint128"},{"name":"isolationModeTotalDebt","type":"uint128","internalType":"uint128"}]}],"stateMutability":"view"},{"type":"function","name":"name","inputs":[],"outputs":[{"name":"","type":"string","internalType":"string"}],"stateMutability":"view"},{"type":"function","name":"simulateInterestAccrual","inputs":[{"name":"to","type":"address","internalType":"address"},{"name":"amount","type":"uint256","internalType":"uint256"}],"outputs":[],"stateMutability":"nonpayable"},{"type":"function","name":"supply","inputs":[{"name":"asset","type":"address","internalType":"address"},{"name":"amount","type":"uint256","internalType":"uint256"},{"name":"onBehalfOf","type":"address","internalType":"address"},{"name":"","type":"uint16","internalType":"uint16"}],"outputs":[],"stateMutability":"nonpayable"},{"type":"function","name":"symbol","inputs":[],"outputs":[{"name":"","type":"string","internalType":"string"}],"stateMutability":"view"},{"type":"function","name":"totalSupply","inputs":[],"outputs":[{"name":"","type":"uint256","internalType":"uint256"}],"stateMutability":"view"},{"type":"function","name":"transfer","inputs":[{"name":"to","type":"address","internalType":"address"},{"name":"value","type":"uint256","internalType":"uint256"}],"outputs":[{"name":"","type":"bool","internalType":"bool"}],"stateMutability":"nonpayable"},{"type":"function","name":"transferFrom","inputs":[{"name":"from","type":"address","internalType":"address"},{"name":"to","type":"address","internalType":"address"},{"name":"value","type":"uint256","internalType":"uint256"}],"outputs":[{"name":"","type":"bool","internalType":"bool"}],"stateMutability":"nonpayable"},{"type":"function","name":"underlying","inputs":[],"outputs":[{"name":"","type":"address","internalType":"contract IERC20"}],"stateMutability":"view"},{"type":"function","name":"withdraw","inputs":[{"name":"asset","type":"address","internalType":"address"},{"name":"amount","type":"uint256","internalType":"uint256"},{"name":"to","type":"address","internalType":"address"}],"outputs":[{"name":"","type":"uint256","internalType":"uint256"}],"stateMutability":"nonpayable"},{"type":"event","name":"Approval","inputs":[{"name":"owner","type":"address","indexed":true,"internalType":"address"},{"name":"spender","type":"address","indexed":true,"internalType":"address"},{"name":"value","type":"uint256","indexed":false,"internalType":"uint256"}],"anonymous":false},{"type":"event","name":"Transfer","inputs":[{"name":"from","type":"address","indexed":true,"internalType":"address"},{"name":"to","type":"address","indexed":true,"internalType":"address"},{"name":"value","type":"uint256","indexed":false,"internalType":"uint256"}],"anonymous":false},{"type":"error","name":"ERC20InsufficientAllowance","inputs":[{"name":"spender","type":"address","internalType":"address"},{"name":"allowance","type":"uint256","internalType":"uint256"},{"name":"needed","type":"uint256","internalType":"uint256"}]},{"type":"error","name":"ERC20InsufficientBalance","inputs":[{"name":"sender","type":"address","internalType":"address"},{"name":"balance","type":"uint256","internalType":"uint256"},{"name":"needed","type":"uint256","internalType":"uint256"}]},{"type":"error","name":"ERC20InvalidApprover","inputs":[{"name":"approver","type":"address","internalType":"address"}]},{"type":"error","name":"ERC20InvalidReceiver","inputs":[{"name":"receiver","type":"address","internalType":"address"}]},{"type":"error","name":"ERC20InvalidSender","inputs":[{"name":"sender","type":"address","internalType":"address"}]},{"type":"error","name":"ERC20InvalidSpender","inputs":[{"name":"spender","type":"address","internalType":"address"}]}],"bytecode":{"object":"0x60a06040523461034b576111126020813803918261001c8161034f565b93849283398101031261034b57516001600160a01b0381169081900361034b57610046604061034f565b9060088252674d6f636b4161766560c01b6020830152610066604061034f565b60058152646d4141564560d81b602082015282519091906001600160401b03811161025157600354600181811c91168015610341575b602082101461023357601f81116102d3575b506020601f821160011461027057819293945f92610265575b50508160011b915f199060031b1c1916176003555b81516001600160401b03811161025157600454600181811c91168015610247575b602082101461023357601f81116101c5575b50602092601f821160011461016457928192935f92610159575b50508160011b915f199060031b1c1916176004555b608052604051610d9d908161037582396080518161033b0152f35b015190505f80610129565b601f1982169360045f52805f20915f5b8681106101ad5750836001959610610195575b505050811b0160045561013e565b01515f1960f88460031b161c191690555f8080610187565b91926020600181928685015181550194019201610174565b8181111561010f5760045f52601f820160051c7f8a35acfbc15ff81a39ae7d344fd709f28e8600b4aa8c65c6b64bfe7fe36bd19b6020841061022b575b81601f9101920160051c03905f5b82811061021e57505061010f565b5f82820155600101610210565b5f9150610202565b634e487b7160e01b5f52602260045260245ffd5b90607f16906100fd565b634e487b7160e01b5f52604160045260245ffd5b015190505f806100c7565b601f1982169060035f52805f20915f5b8181106102bb575095836001959697106102a3575b505050811b016003556100dc565b01515f1960f88460031b161c191690555f8080610295565b9192602060018192868b015181550194019201610280565b818111156100ae5760035f52601f820160051c7fc2575a0e9e593c00f959f8c92f12db2869c3395a3b0502d05e2516446f71f85b60208410610339575b81601f9101920160051c03905f5b82811061032c5750506100ae565b5f8282015560010161031e565b5f9150610310565b90607f169061009c565b5f80fd5b6040519190601f01601f191682016001600160401b038111838210176102515760405256fe6080806040526004361015610012575f80fd5b5f905f3560e01c90816306fdde0314610a5257508063095ea7b3146109d057806318160ddd146109b357806323b872dd146108d4578063313ce567146108b957806335ea6a7514610682578063617ba037146105e257806369328dec1461036a5780636f307dc31461032557806370a08231146102ed57806395922001146102c457806395d89b41146101bb578063a415bcad1461014a578063a9059cbb146101185763dd62ed3e146100c3575f80fd5b346101155760403660031901126101155760406100de610b6d565b916100e7610b83565b9260018060a01b031681526001602052209060018060a01b03165f52602052602060405f2054604051908152f35b80fd5b50346101155760403660031901126101155761013f610135610b6d565b6024359033610c5d565b602060405160018152f35b50346101155760a036600319011261011557610164610b6d565b5061016d610bc5565b50610176610baf565b50606460405162461bcd60e51b815260206004820152602060248201527f4d6f636b416176653a20426f72726f77206e6f7420696d706c656d656e7465646044820152fd5b50346101155780600319360112610115576040519080600454908160011c916001811680156102ba575b6020841081146102a65783865290811561027f5750600114610222575b61021e8461021281860382610c23565b60405191829182610b43565b0390f35b600481527f8a35acfbc15ff81a39ae7d344fd709f28e8600b4aa8c65c6b64bfe7fe36bd19b939250905b8082106102655750909150810160200161021282610202565b91926001816020925483858801015201910190929161024c565b60ff191660208087019190915292151560051b850190920192506102129150839050610202565b634e487b7160e01b83526022600452602483fd5b92607f16926101e5565b5034610115576040366003190112610115576102ea6102e1610b6d565b60243590610d07565b80f35b5034610115576020366003190112610115576020906040906001600160a01b03610315610b6d565b1681528083522054604051908152f35b50346101155780600319360112610115576040517f00000000000000000000000000000000000000000000000000000000000000006001600160a01b03168152602090f35b503461052d57606036600319011261052d57610384610b6d565b60243590610390610b99565b9082156105a857331561059557335f525f60205260405f205483811061057a578390335f525f6020520360405f205582600254036002555f6040518481527fddf252ad1be2c89b69c2b068fc378daa952ba7f163c4a11628f55a4df523b3ef60203392a36040516370a0823160e01b81523060048201526001600160a01b039190911691602082602481865afa80156105225784925f91610545575b508281106104bb575b5060405163a9059cbb60e01b81526001600160a01b0390911660048201526024810191909152906020908290818681604481015b03925af180156104b05760209350610485575b50604051908152f35b6104a490833d85116104a9575b61049c8183610c23565b810190610c45565b61047c565b503d610492565b6040513d85823e3d90fd5b90910383811161053157823b1561052d576040516340c10f1960e01b815230600482015260248101919091525f8160448183875af1801561052257610503575b908391610435565b6020919450610469926105175f8693610c23565b5f95925092506104fb565b6040513d5f823e3d90fd5b5f80fd5b634e487b7160e01b5f52601160045260245ffd5b9250506020823d602011610572575b8161056160209383610c23565b8101031261052d578391515f61042c565b3d9150610554565b839063391434e360e21b5f523360045260245260445260645ffd5b634b637e8f60e11b5f525f60045260245ffd5b60405162461bcd60e51b815260206004820152601260248201527104d6f636b416176653a20616d6f756e7420360741b6044820152606490fd5b3461052d57608036600319011261052d576105fb610b6d565b602435610606610b99565b61060e610bc5565b5081156105a8576040516323b872dd60e01b81523360048201523060248201526044810183905292602090849060649082905f906001600160a01b03165af19283156105225761066393610665575b50610d07565b005b61067d9060203d6020116104a95761049c8183610c23565b61065d565b3461052d57602036600319011261052d5761069b610b6d565b506040516106a881610bd6565b6040516106b481610c07565b5f81528152602081015f9052604081015f9052606081015f9052608081015f905260a081015f905260c081015f905260e081015f905261010081015f905261012081015f905261014081015f905261016081015f905261018081015f90526101a081015f90526101c0015f905260405161072d81610c07565b5f81526040519061073d82610bd6565b80825260208201916b033b2e3c9fd0803ce8000000835260408101915f8352606082016b033b2e3c9fd0803ce80000008152608083015f815260a084015f815260c085014264ffffffffff16815260e086015f81526101008701913083526101208801935f85526101408901955f87526101608a01975f89526101808b01995f8b526101a08c019b5f8d526101c0019c5f8e526040519e8f92518352516001600160801b03166020830152516001600160801b03169060400152516001600160801b031660608d0152516001600160801b031660808c0152516001600160801b031660a08b01525164ffffffffff1660c08a01525161ffff1660e0890152600160a01b60019003905116610100880152600160a01b60019003905116610120870152600160a01b60019003905116610140860152600160a01b60019003905116610160850152516001600160801b0316610180840152516001600160801b03166101a0830152516001600160801b03166101c08201526101e090f35b3461052d575f36600319011261052d57602060405160128152f35b3461052d57606036600319011261052d576108ed610b6d565b6108f5610b83565b6001600160a01b0382165f818152600160209081526040808320338452909152902054909260443592915f198110610933575b5061013f9350610c5d565b8381106109985784156109855733156109725761013f945f52600160205260405f2060018060a01b0333165f526020528360405f209103905584610928565b634a1406b160e11b5f525f60045260245ffd5b63e602df0560e01b5f525f60045260245ffd5b8390637dc7a0d960e11b5f523360045260245260445260645ffd5b3461052d575f36600319011261052d576020600254604051908152f35b3461052d57604036600319011261052d576109e9610b6d565b602435903315610985576001600160a01b031690811561097257335f52600160205260405f20825f526020528060405f20556040519081527f8c5be1e5ebec7d5bd14f71427d1e84f3dd0314c0f7b2291e5b200ac8c7c3b92560203392a3602060405160018152f35b3461052d575f36600319011261052d575f6003548060011c90600181168015610b39575b602083108114610b2557828552908115610b015750600114610aa3575b61021e8361021281850382610c23565b91905060035f527fc2575a0e9e593c00f959f8c92f12db2869c3395a3b0502d05e2516446f71f85b915f905b808210610ae757509091508101602001610212610a93565b919260018160209254838588010152019101909291610acf565b60ff191660208086019190915291151560051b840190910191506102129050610a93565b634e487b7160e01b5f52602260045260245ffd5b91607f1691610a76565b602060409281835280519182918282860152018484015e5f828201840152601f01601f1916010190565b600435906001600160a01b038216820361052d57565b602435906001600160a01b038216820361052d57565b604435906001600160a01b038216820361052d57565b608435906001600160a01b038216820361052d57565b6064359061ffff8216820361052d57565b6101e0810190811067ffffffffffffffff821117610bf357604052565b634e487b7160e01b5f52604160045260245ffd5b6020810190811067ffffffffffffffff821117610bf357604052565b90601f8019910116810190811067ffffffffffffffff821117610bf357604052565b9081602091031261052d5751801515810361052d5790565b6001600160a01b0316908115610595576001600160a01b0316918215610cf457815f525f60205260405f2054818110610cdb57817fddf252ad1be2c89b69c2b068fc378daa952ba7f163c4a11628f55a4df523b3ef92602092855f525f84520360405f2055845f525f825260405f20818154019055604051908152a3565b8263391434e360e21b5f5260045260245260445260645ffd5b63ec442f0560e01b5f525f60045260245ffd5b6001600160a01b0316908115610cf457600254908082018092116105315760207fddf252ad1be2c89b69c2b068fc378daa952ba7f163c4a11628f55a4df523b3ef915f9360025584845283825260408420818154019055604051908152a356fea264697066735822122001b12a24a27faa8b6ac41d1e1e3ce41e8e9ba3356a53879a99db766bd6aeaf2464736f6c63430008210033","linkReferences":{}},"methodIdentifiers":{"allowance(address,address)":"dd62ed3e","approve(address,uint256)":"095ea7b3","balanceOf(address)":"70a08231","borrow(address,uint256,uint256,uint16,address)":"a415bcad","decimals()":"313ce567","getReserveData(address)":"35ea6a75","name()":"06fdde03","simulateInterestAccrual(address,uint256)":"95922001","supply(address,uint256,address,uint16)":"617ba037","symbol()":"95d89b41","totalSupply()":"18160ddd","transfer(address,uint256)":"a9059cbb","transferFrom(address,address,uint256)":"23b872dd","underlying()":"6f307dc3","withdraw(address,uint256,address)":"69328dec"},"id":78}