{"abi":[{"type":"constructor","inputs":[],"stateMutability":"nonpayable"},{"type":"function","name":"allowance","inputs":[{"name":"owner","type":"address","internalType":"address"},{"name":"spender","type":"address","internalType":"address"}],"outputs":[{"name":"","type":"uint256","internalType":"uint256"}],"stateMutability":"view"},{"type":"function","name":"approve","inputs":[{"name":"spender","type":"address","internalType":"address"},{"name":"value","type":"uint256","internalType":"uint256"}],"outputs":[{"name":"","type":"bool","internalType":"bool"}],"stateMutability":"nonpayable"},{"type":"function","name":"balanceOf","inputs":[{"name":"account","type":"address","internalType":"address"}],"outputs":[{"name":"","type":"uint256","internalType":"uint256"}],"stateMutability":"view"},{"type":"function","name":"burn","inputs":[{"name":"amount","type":"uint256","internalType":"uint256"}],"outputs":[],"stateMutability":"nonpayable"},{"type":"function","name":"decimals","inputs":[],"outputs":[{"name":"","type":"uint8","internalType":"uint8"}],"stateMutability":"view"},{"type":"function","name":"initialize","inputs":[{"name":"name","type":"string","internalType":"string"},{"name":"symbol","type":"string","internalType":"string"},{"name":"decimals_","type":"uint8","internalType":"uint8"}],"outputs":[],"stateMutability":"nonpayable"},{"type":"function","name":"marketAddr","inputs":[],"outputs":[{"name":"","type":"address","internalType":"address"}],"stateMutability":"view"},{"type":"function","name":"mint","inputs":[{"name":"to","type":"address","internalType":"address"},{"name":"amount","type":"uint256","internalType":"uint256"}],"outputs":[],"stateMutability":"nonpayable"},{"type":"function","name":"name","inputs":[],"outputs":[{"name":"","type":"string","internalType":"string"}],"stateMutability":"view"},{"type":"function","name":"owner","inputs":[],"outputs":[{"name":"","type":"address","internalType":"address"}],"stateMutability":"view"},{"type":"function","name":"renounceOwnership","inputs":[],"outputs":[],"stateMutability":"nonpayable"},{"type":"function","name":"symbol","inputs":[],"outputs":[{"name":"","type":"string","internalType":"string"}],"stateMutability":"view"},{"type":"function","name":"totalSupply","inputs":[],"outputs":[{"name":"","type":"uint256","internalType":"uint256"}],"stateMutability":"view"},{"type":"function","name":"transfer","inputs":[{"name":"to","type":"address","internalType":"address"},{"name":"value","type":"uint256","internalType":"uint256"}],"outputs":[{"name":"","type":"bool","internalType":"bool"}],"stateMutability":"nonpayable"},{"type":"function","name":"transferFrom","inputs":[{"name":"from","type":"address","internalType":"address"},{"name":"to","type":"address","internalType":"address"},{"name":"value","type":"uint256","internalType":"uint256"}],"outputs":[{"name":"","type":"bool","internalType":"bool"}],"stateMutability":"nonpayable"},{"type":"function","name":"transferOwnership","inputs":[{"name":"newOwner","type":"address","internalType":"address"}],"outputs":[],"stateMutability":"nonpayable"},{"type":"event","name":"Approval","inputs":[{"name":"owner","type":"address","indexed":true,"internalType":"address"},{"name":"spender","type":"address","indexed":true,"internalType":"address"},{"name":"value","type":"uint256","indexed":false,"internalType":"uint256"}],"anonymous":false},{"type":"event","name":"Initialized","inputs":[{"name":"version","type":"uint64","indexed":false,"internalType":"uint64"}],"anonymous":false},{"type":"event","name":"OwnershipTransferred","inputs":[{"name":"previousOwner","type":"address","indexed":true,"internalType":"address"},{"name":"newOwner","type":"address","indexed":true,"internalType":"address"}],"anonymous":false},{"type":"event","name":"Transfer","inputs":[{"name":"from","type":"address","indexed":true,"internalType":"address"},{"name":"to","type":"address","indexed":true,"internalType":"address"},{"name":"value","type":"uint256","indexed":false,"internalType":"uint256"}],"anonymous":false},{"type":"error","name":"ERC20InsufficientAllowance","inputs":[{"name":"spender","type":"address","internalType":"address"},{"name":"allowance","type":"uint256","internalType":"uint256"},{"name":"needed","type":"uint256","internalType":"uint256"}]},{"type":"error","name":"ERC20InsufficientBalance","inputs":[{"name":"sender","type":"address","internalType":"address"},{"name":"balance","type":"uint256","internalType":"uint256"},{"name":"needed","type":"uint256","internalType":"uint256"}]},{"type":"error","name":"ERC20InvalidApprover","inputs":[{"name":"approver","type":"address","internalType":"address"}]},{"type":"error","name":"ERC20InvalidReceiver","inputs":[{"name":"receiver","type":"address","internalType":"address"}]},{"type":"error","name":"ERC20InvalidSender","inputs":[{"name":"sender","type":"address","internalType":"address"}]},{"type":"error","name":"ERC20InvalidSpender","inputs":[{"name":"spender","type":"address","internalType":"address"}]},{"type":"error","name":"InvalidInitialization","inputs":[]},{"type":"error","name":"NotInitializing","inputs":[]},{"type":"error","name":"OwnableInvalidOwner","inputs":[{"name":"owner","type":"address","internalType":"address"}]},{"type":"error","name":"OwnableUnauthorizedAccount","inputs":[{"name":"account","type":"address","internalType":"address"}]},{"type":"error","name":"SpenderIsNotMarket","inputs":[{"name":"spender","type":"address","internalType":"address"}]}],"bytecode":{"object":"0x6080806040523460aa575f5160206110525f395f51905f525460ff8160401c16609b576002600160401b03196001600160401b038216016049575b604051610fa390816100af8239f35b6001600160401b0319166001600160401b039081175f5160206110525f395f51905f525581527fc7f505b2f371ae2175ee4913f4499e1f2633a7b5936321eed1cdaeb6115181d290602090a15f80603a565b63f92ee8a960e01b5f5260045ffd5b5f80fdfe60806040526004361015610011575f80fd5b5f3560e01c806306fdde0314610b25578063095ea7b314610aa65780631624f6c61461060c57806318160ddd146105e357806323b872dd1461050b578063313ce567146104ec57806340c10f191461041b57806342966c681461034157806370a08231146102fd578063715018a6146102965780638da5cb5b1461013f57806395d89b41146101a4578063a9059cbb14610173578063cefa74cc1461013f578063dd62ed3e146100f85763f2fde38b146100c9575f80fd5b346100f45760203660031901126100f4576100f26100e5610c0c565b6100ed610e4f565b610d20565b005b5f80fd5b346100f45760403660031901126100f457610111610c0c565b61012261011c610c22565b91610ce8565b9060018060a01b03165f52602052602060405f2054604051908152f35b346100f4575f3660031901126100f4575f516020610f0e5f395f51905f52546040516001600160a01b039091168152602090f35b346100f45760403660031901126100f45761019961018f610c0c565b6024359033610d91565b602060405160018152f35b346100f4575f3660031901126100f4576040515f5f516020610eee5f395f51905f52546101d081610cb0565b80845290600181169081156102725750600114610208575b610204836101f881850382610c38565b60405191829182610be2565b0390f35b5f516020610eee5f395f51905f525f9081527f46a2803e59a4de4e7a4c574b1243f25977ac4c77d5a1a4a609b5394cebb4a2aa939250905b808210610258575090915081016020016101f86101e8565b919260018160209254838588010152019101909291610240565b60ff191660208086019190915291151560051b840190910191506101f890506101e8565b346100f4575f3660031901126100f4576102ae610e4f565b5f516020610f0e5f395f51905f5280546001600160a01b031981169091555f906001600160a01b03167f8be0079c531659141344cd1fd0a4f28419497f9722a3daafe3b4186f6b6457e08280a3005b346100f45760203660031901126100f4576001600160a01b0361031e610c0c565b165f525f516020610ece5f395f51905f52602052602060405f2054604051908152f35b346100f45760203660031901126100f45760043561035d610e4f565b331561040857335f525f516020610ece5f395f51905f5260205260405f20548181106103ef5790805f923384525f516020610ece5f395f51905f52602052036040832055805f516020610f2e5f395f51905f5254035f516020610f2e5f395f51905f52556040519081527fddf252ad1be2c89b69c2b068fc378daa952ba7f163c4a11628f55a4df523b3ef60203392a3005b63391434e360e21b5f523360045260245260445260645ffd5b634b637e8f60e11b5f525f60045260245ffd5b346100f45760403660031901126100f457610434610c0c565b60243590610440610e4f565b6001600160a01b03169081156104d9575f516020610f2e5f395f51905f5254908082018092116104c55760207fddf252ad1be2c89b69c2b068fc378daa952ba7f163c4a11628f55a4df523b3ef915f935f516020610f2e5f395f51905f52558484525f516020610ece5f395f51905f52825260408420818154019055604051908152a3005b634e487b7160e01b5f52601160045260245ffd5b63ec442f0560e01b5f525f60045260245ffd5b346100f4575f3660031901126100f457602060ff5f5416604051908152f35b346100f45760603660031901126100f457610524610c0c565b61052c610c22565b6044359061053983610ce8565b335f9081526020919091526040902054925f19841061055d575b6101999350610d91565b8284106105c8576001600160a01b038116156105b55733156105a2576101999361058682610ce8565b60018060a01b0333165f526020528360405f2091039055610553565b634a1406b160e11b5f525f60045260245ffd5b63e602df0560e01b5f525f60045260245ffd5b8284637dc7a0d960e11b5f523360045260245260445260645ffd5b346100f4575f3660031901126100f45760205f516020610f2e5f395f51905f5254604051908152f35b346100f45760603660031901126100f45760043567ffffffffffffffff81116100f45761063d903690600401610c5a565b60243567ffffffffffffffff81116100f45761065d903690600401610c5a565b60443560ff81168091036100f4575f516020610f4e5f395f51905f52549060ff8260401c16159167ffffffffffffffff811680159081610a9e575b6001149081610a94575b159081610a8b575b50610a7c5767ffffffffffffffff1981166001175f516020610f4e5f395f51905f525582610a50575b506106dc610e82565b6106e4610e82565b835167ffffffffffffffff811161093c5761070c5f516020610eae5f395f51905f5254610cb0565b601f81116109d6575b50602094601f821160011461095b579481929394955f92610950575b50508160011b915f199060031b1c1916175f516020610eae5f395f51905f52555b825167ffffffffffffffff811161093c5761077a5f516020610eee5f395f51905f5254610cb0565b601f81116108c2575b506020601f821160011461084757819293945f9261083c575b50508160011b915f199060031b1c1916175f516020610eee5f395f51905f52555b6107c5610e82565b6107cd610e82565b6107d633610d20565b60ff195f5416175f556107e557005b68ff0000000000000000195f516020610f4e5f395f51905f5254165f516020610f4e5f395f51905f52557fc7f505b2f371ae2175ee4913f4499e1f2633a7b5936321eed1cdaeb6115181d2602060405160018152a1005b01519050848061079c565b601f198216905f516020610eee5f395f51905f525f52805f20915f5b8181106108aa57509583600195969710610892575b505050811b015f516020610eee5f395f51905f52556107bd565b01515f1960f88460031b161c19169055848080610878565b9192602060018192868b015181550194019201610863565b81811115610783575f516020610eee5f395f51905f525f52601f820160051c7f46a2803e59a4de4e7a4c574b1243f25977ac4c77d5a1a4a609b5394cebb4a2aa60208410610934575b81601f9101920160051c03905f5b828110610927575050610783565b5f82820155600101610919565b5f915061090b565b634e487b7160e01b5f52604160045260245ffd5b015190508580610731565b601f198216955f516020610eae5f395f51905f525f52805f20915f5b8881106109be575083600195969798106109a6575b505050811b015f516020610eae5f395f51905f5255610752565b01515f1960f88460031b161c1916905585808061098c565b91926020600181928685015181550194019201610977565b81811115610715575f516020610eae5f395f51905f525f52601f820160051c7f2ae08a8e29253f69ac5d979a101956ab8f8d9d7ded63fa7a83b16fc47648eab060208410610a48575b81601f9101920160051c03905f5b828110610a3b575050610715565b5f82820155600101610a2d565b5f9150610a1f565b68ffffffffffffffffff191668010000000000000001175f516020610f4e5f395f51905f5255846106d3565b63f92ee8a960e01b5f5260045ffd5b905015866106aa565b303b1591506106a2565b849150610698565b346100f45760403660031901126100f457610abf610c0c565b6024359033156105b5576001600160a01b03169081156105a257610ae233610ce8565b825f526020528060405f20556040519081527f8c5be1e5ebec7d5bd14f71427d1e84f3dd0314c0f7b2291e5b200ac8c7c3b92560203392a3602060405160018152f35b346100f4575f3660031901126100f4576040515f5f516020610eae5f395f51905f5254610b5181610cb0565b80845290600181169081156102725750600114610b7857610204836101f881850382610c38565b5f516020610eae5f395f51905f525f9081527f2ae08a8e29253f69ac5d979a101956ab8f8d9d7ded63fa7a83b16fc47648eab0939250905b808210610bc8575090915081016020016101f86101e8565b919260018160209254838588010152019101909291610bb0565b602060409281835280519182918282860152018484015e5f828201840152601f01601f1916010190565b600435906001600160a01b03821682036100f457565b602435906001600160a01b03821682036100f457565b90601f8019910116810190811067ffffffffffffffff82111761093c57604052565b81601f820112156100f45780359067ffffffffffffffff821161093c5760405192610c8f601f8401601f191660200185610c38565b828452602083830101116100f457815f926020809301838601378301015290565b90600182811c92168015610cde575b6020831014610cca57565b634e487b7160e01b5f52602260045260245ffd5b91607f1691610cbf565b6001600160a01b03165f9081527f52c63247e1f47db19d5ce0460030c497f067ca4cebf71ba98eeadabe20bace016020526040902090565b6001600160a01b03168015610d7e575f516020610f0e5f395f51905f5280546001600160a01b0319811683179091556001600160a01b03167f8be0079c531659141344cd1fd0a4f28419497f9722a3daafe3b4186f6b6457e05f80a3565b631e4fbdf760e01b5f525f60045260245ffd5b6001600160a01b0316908115610408576001600160a01b03169182156104d957815f525f516020610ece5f395f51905f5260205260405f2054818110610e3657817fddf252ad1be2c89b69c2b068fc378daa952ba7f163c4a11628f55a4df523b3ef92602092855f525f516020610ece5f395f51905f5284520360405f2055845f525f516020610ece5f395f51905f52825260405f20818154019055604051908152a3565b8263391434e360e21b5f5260045260245260445260645ffd5b5f516020610f0e5f395f51905f52546001600160a01b03163303610e6f57565b63118cdaa760e01b5f523360045260245ffd5b60ff5f516020610f4e5f395f51905f525460401c1615610e9e57565b631afcd79f60e31b5f5260045ffdfe52c63247e1f47db19d5ce0460030c497f067ca4cebf71ba98eeadabe20bace0352c63247e1f47db19d5ce0460030c497f067ca4cebf71ba98eeadabe20bace0052c63247e1f47db19d5ce0460030c497f067ca4cebf71ba98eeadabe20bace049016d09d72d40fdae2fd8ceac6b6234c7706214fd39c1cd1e609a0528c19930052c63247e1f47db19d5ce0460030c497f067ca4cebf71ba98eeadabe20bace02f0c57e16840df040f15088dc2f81fe391c3923bec73e23a9662efc9c229c6a00a26469706673582212204d8cf014e1c2c21dcdcc75d85e292bc01d2001d0231677c596c75d23a5396aaf64736f6c63430008210033f0c57e16840df040f15088dc2f81fe391c3923bec73e23a9662efc9c229c6a00","linkReferences":{}},"methodIdentifiers":{"allowance(address,address)":"dd62ed3e","approve(address,uint256)":"095ea7b3","balanceOf(address)":"70a08231","burn(uint256)":"42966c68","decimals()":"313ce567","initialize(string,string,uint8)":"1624f6c6","marketAddr()":"cefa74cc","mint(address,uint256)":"40c10f19","name()":"06fdde03","owner()":"8da5cb5b","renounceOwnership()":"715018a6","symbol()":"95d89b41","totalSupply()":"18160ddd","transfer(address,uint256)":"a9059cbb","transferFrom(address,address,uint256)":"23b872dd","transferOwnership(address)":"f2fde38b"},"id":39}