{"abi":[{"type":"function","name":"CONFIGURATOR_ROLE","inputs":[],"outputs":[{"name":"","type":"bytes32","internalType":"bytes32"}],"stateMutability":"view"},{"type":"function","name":"DEFAULT_ADMIN_ROLE","inputs":[],"outputs":[{"name":"","type":"bytes32","internalType":"bytes32"}],"stateMutability":"view"},{"type":"function","name":"MARKET_ROLE","inputs":[],"outputs":[{"name":"","type":"bytes32","internalType":"bytes32"}],"stateMutability":"view"},{"type":"function","name":"ORACLE_ROLE","inputs":[],"outputs":[{"name":"","type":"bytes32","internalType":"bytes32"}],"stateMutability":"view"},{"type":"function","name":"PAUSER_ROLE","inputs":[],"outputs":[{"name":"","type":"bytes32","internalType":"bytes32"}],"stateMutability":"view"},{"type":"function","name":"UPGRADE_INTERFACE_VERSION","inputs":[],"outputs":[{"name":"","type":"string","internalType":"string"}],"stateMutability":"view"},{"type":"function","name":"VAULT_ROLE","inputs":[],"outputs":[{"name":"","type":"bytes32","internalType":"bytes32"}],"stateMutability":"view"},{"type":"function","name":"acceptOwnership","inputs":[{"name":"entity","type":"address","internalType":"contract IOwnable"}],"outputs":[],"stateMutability":"nonpayable"},{"type":"function","name":"acceptPendingOracle","inputs":[{"name":"aggregator","type":"address","internalType":"contract IOracle"},{"name":"asset","type":"address","internalType":"address"}],"outputs":[],"stateMutability":"nonpayable"},{"type":"function","name":"createMarket","inputs":[{"name":"factory","type":"address","internalType":"contract ITermMaxFactory"},{"name":"gtKey","type":"bytes32","internalType":"bytes32"},{"name":"deployParams","type":"tuple","internalType":"struct MarketInitialParams","components":[{"name":"collateral","type":"address","internalType":"address"},{"name":"debtToken","type":"address","internalType":"contract IERC20Metadata"},{"name":"admin","type":"address","internalType":"address"},{"name":"gtImplementation","type":"address","internalType":"address"},{"name":"marketConfig","type":"tuple","internalType":"struct MarketConfig","components":[{"name":"treasurer","type":"address","internalType":"address"},{"name":"maturity","type":"uint64","internalType":"uint64"},{"name":"feeConfig","type":"tuple","internalType":"struct FeeConfig","components":[{"name":"lendTakerFeeRatio","type":"uint32","internalType":"uint32"},{"name":"lendMakerFeeRatio","type":"uint32","internalType":"uint32"},{"name":"borrowTakerFeeRatio","type":"uint32","internalType":"uint32"},{"name":"borrowMakerFeeRatio","type":"uint32","internalType":"uint32"},{"name":"mintGtFeeRatio","type":"uint32","internalType":"uint32"},{"name":"mintGtFeeRef","type":"uint32","internalType":"uint32"}]}]},{"name":"loanConfig","type":"tuple","internalType":"struct LoanConfig","components":[{"name":"oracle","type":"address","internalType":"contract IOracle"},{"name":"liquidationLtv","type":"uint32","internalType":"uint32"},{"name":"maxLtv","type":"uint32","internalType":"uint32"},{"name":"liquidatable","type":"bool","internalType":"bool"}]},{"name":"gtInitalParams","type":"bytes","internalType":"bytes"},{"name":"tokenName","type":"string","internalType":"string"},{"name":"tokenSymbol","type":"string","internalType":"string"}]},{"name":"salt","type":"uint256","internalType":"uint256"}],"outputs":[{"name":"market","type":"address","internalType":"address"}],"stateMutability":"nonpayable"},{"type":"function","name":"getRoleAdmin","inputs":[{"name":"role","type":"bytes32","internalType":"bytes32"}],"outputs":[{"name":"","type":"bytes32","internalType":"bytes32"}],"stateMutability":"view"},{"type":"function","name":"grantRole","inputs":[{"name":"role","type":"bytes32","internalType":"bytes32"},{"name":"account","type":"address","internalType":"address"}],"outputs":[],"stateMutability":"nonpayable"},{"type":"function","name":"hasRole","inputs":[{"name":"role","type":"bytes32","internalType":"bytes32"},{"name":"account","type":"address","internalType":"address"}],"outputs":[{"name":"","type":"bool","internalType":"bool"}],"stateMutability":"view"},{"type":"function","name":"initialize","inputs":[{"name":"admin","type":"address","internalType":"address"}],"outputs":[],"stateMutability":"nonpayable"},{"type":"function","name":"proxiableUUID","inputs":[],"outputs":[{"name":"","type":"bytes32","internalType":"bytes32"}],"stateMutability":"view"},{"type":"function","name":"renounceRole","inputs":[{"name":"role","type":"bytes32","internalType":"bytes32"},{"name":"callerConfirmation","type":"address","internalType":"address"}],"outputs":[],"stateMutability":"nonpayable"},{"type":"function","name":"revokeRole","inputs":[{"name":"role","type":"bytes32","internalType":"bytes32"},{"name":"account","type":"address","internalType":"address"}],"outputs":[],"stateMutability":"nonpayable"},{"type":"function","name":"revokeVaultPendingGuardian","inputs":[{"name":"vault","type":"address","internalType":"contract ITermMaxVault"}],"outputs":[],"stateMutability":"nonpayable"},{"type":"function","name":"revokeVaultPendingMarket","inputs":[{"name":"vault","type":"address","internalType":"contract ITermMaxVault"},{"name":"market","type":"address","internalType":"address"}],"outputs":[],"stateMutability":"nonpayable"},{"type":"function","name":"revokeVaultPendingTimelock","inputs":[{"name":"vault","type":"address","internalType":"contract ITermMaxVault"}],"outputs":[],"stateMutability":"nonpayable"},{"type":"function","name":"setAdapterWhitelist","inputs":[{"name":"router","type":"address","internalType":"contract ITermMaxRouter"},{"name":"adapter","type":"address","internalType":"address"},{"name":"isWhitelist","type":"bool","internalType":"bool"}],"outputs":[],"stateMutability":"nonpayable"},{"type":"function","name":"setCuratorForVault","inputs":[{"name":"vault","type":"address","internalType":"contract ITermMaxVault"},{"name":"newCurator","type":"address","internalType":"address"}],"outputs":[],"stateMutability":"nonpayable"},{"type":"function","name":"setGtImplement","inputs":[{"name":"factory","type":"address","internalType":"contract ITermMaxFactory"},{"name":"gtImplementName","type":"string","internalType":"string"},{"name":"gtImplement","type":"address","internalType":"address"}],"outputs":[],"stateMutability":"nonpayable"},{"type":"function","name":"setIsAllocatorForVault","inputs":[{"name":"vault","type":"address","internalType":"contract ITermMaxVault"},{"name":"allocator","type":"address","internalType":"address"},{"name":"isAllocator","type":"bool","internalType":"bool"}],"outputs":[],"stateMutability":"nonpayable"},{"type":"function","name":"setSwitch","inputs":[{"name":"entity","type":"address","internalType":"contract IPausable"},{"name":"state","type":"bool","internalType":"bool"}],"outputs":[],"stateMutability":"nonpayable"},{"type":"function","name":"submitPendingOracle","inputs":[{"name":"aggregator","type":"address","internalType":"contract IOracle"},{"name":"asset","type":"address","internalType":"address"},{"name":"oracle","type":"tuple","internalType":"struct IOracle.Oracle","components":[{"name":"aggregator","type":"address","internalType":"contract AggregatorV3Interface"},{"name":"backupAggregator","type":"address","internalType":"contract AggregatorV3Interface"},{"name":"heartbeat","type":"uint32","internalType":"uint32"}]}],"outputs":[],"stateMutability":"nonpayable"},{"type":"function","name":"submitVaultGuardian","inputs":[{"name":"vault","type":"address","internalType":"contract ITermMaxVault"},{"name":"newGuardian","type":"address","internalType":"address"}],"outputs":[],"stateMutability":"nonpayable"},{"type":"function","name":"supportsInterface","inputs":[{"name":"interfaceId","type":"bytes4","internalType":"bytes4"}],"outputs":[{"name":"","type":"bool","internalType":"bool"}],"stateMutability":"view"},{"type":"function","name":"transferOwnership","inputs":[{"name":"entity","type":"address","internalType":"contract IOwnable"},{"name":"to","type":"address","internalType":"address"}],"outputs":[],"stateMutability":"nonpayable"},{"type":"function","name":"updateGtConfig","inputs":[{"name":"market","type":"address","internalType":"contract ITermMaxMarket"},{"name":"configData","type":"bytes","internalType":"bytes"}],"outputs":[],"stateMutability":"nonpayable"},{"type":"function","name":"updateMarketConfig","inputs":[{"name":"market","type":"address","internalType":"contract ITermMaxMarket"},{"name":"newConfig","type":"tuple","internalType":"struct MarketConfig","components":[{"name":"treasurer","type":"address","internalType":"address"},{"name":"maturity","type":"uint64","internalType":"uint64"},{"name":"feeConfig","type":"tuple","internalType":"struct FeeConfig","components":[{"name":"lendTakerFeeRatio","type":"uint32","internalType":"uint32"},{"name":"lendMakerFeeRatio","type":"uint32","internalType":"uint32"},{"name":"borrowTakerFeeRatio","type":"uint32","internalType":"uint32"},{"name":"borrowMakerFeeRatio","type":"uint32","internalType":"uint32"},{"name":"mintGtFeeRatio","type":"uint32","internalType":"uint32"},{"name":"mintGtFeeRef","type":"uint32","internalType":"uint32"}]}]}],"outputs":[],"stateMutability":"nonpayable"},{"type":"function","name":"updateOrderFeeRate","inputs":[{"name":"market","type":"address","internalType":"contract ITermMaxMarket"},{"name":"order","type":"address","internalType":"contract ITermMaxOrder"},{"name":"feeConfig","type":"tuple","internalType":"struct FeeConfig","components":[{"name":"lendTakerFeeRatio","type":"uint32","internalType":"uint32"},{"name":"lendMakerFeeRatio","type":"uint32","internalType":"uint32"},{"name":"borrowTakerFeeRatio","type":"uint32","internalType":"uint32"},{"name":"borrowMakerFeeRatio","type":"uint32","internalType":"uint32"},{"name":"mintGtFeeRatio","type":"uint32","internalType":"uint32"},{"name":"mintGtFeeRef","type":"uint32","internalType":"uint32"}]}],"outputs":[],"stateMutability":"nonpayable"},{"type":"function","name":"upgradeSubContract","inputs":[{"name":"proxy","type":"address","internalType":"contract UUPSUpgradeable"},{"name":"newImplementation","type":"address","internalType":"address"},{"name":"data","type":"bytes","internalType":"bytes"}],"outputs":[],"stateMutability":"nonpayable"},{"type":"function","name":"upgradeToAndCall","inputs":[{"name":"newImplementation","type":"address","internalType":"address"},{"name":"data","type":"bytes","internalType":"bytes"}],"outputs":[],"stateMutability":"payable"},{"type":"event","name":"Initialized","inputs":[{"name":"version","type":"uint64","indexed":false,"internalType":"uint64"}],"anonymous":false},{"type":"event","name":"RoleAdminChanged","inputs":[{"name":"role","type":"bytes32","indexed":true,"internalType":"bytes32"},{"name":"previousAdminRole","type":"bytes32","indexed":true,"internalType":"bytes32"},{"name":"newAdminRole","type":"bytes32","indexed":true,"internalType":"bytes32"}],"anonymous":false},{"type":"event","name":"RoleGranted","inputs":[{"name":"role","type":"bytes32","indexed":true,"internalType":"bytes32"},{"name":"account","type":"address","indexed":true,"internalType":"address"},{"name":"sender","type":"address","indexed":true,"internalType":"address"}],"anonymous":false},{"type":"event","name":"RoleRevoked","inputs":[{"name":"role","type":"bytes32","indexed":true,"internalType":"bytes32"},{"name":"account","type":"address","indexed":true,"internalType":"address"},{"name":"sender","type":"address","indexed":true,"internalType":"address"}],"anonymous":false},{"type":"event","name":"Upgraded","inputs":[{"name":"implementation","type":"address","indexed":true,"internalType":"address"}],"anonymous":false},{"type":"error","name":"AccessControlBadConfirmation","inputs":[]},{"type":"error","name":"AccessControlUnauthorizedAccount","inputs":[{"name":"account","type":"address","internalType":"address"},{"name":"neededRole","type":"bytes32","internalType":"bytes32"}]},{"type":"error","name":"AddressEmptyCode","inputs":[{"name":"target","type":"address","internalType":"address"}]},{"type":"error","name":"CannotRevokeDefaultAdminRole","inputs":[]},{"type":"error","name":"ERC1967InvalidImplementation","inputs":[{"name":"implementation","type":"address","internalType":"address"}]},{"type":"error","name":"ERC1967NonPayable","inputs":[]},{"type":"error","name":"FailedCall","inputs":[]},{"type":"error","name":"InvalidInitialization","inputs":[]},{"type":"error","name":"NotInitializing","inputs":[]},{"type":"error","name":"UUPSUnauthorizedCallContext","inputs":[]},{"type":"error","name":"UUPSUnsupportedProxiableUUID","inputs":[{"name":"slot","type":"bytes32","internalType":"bytes32"}]}],"bytecode":{"object":"0x60a0806040523460295730608052611dfc908161002e8239608051818181610fa701526110920152f35b5f80fdfe6080806040526004361015610012575f80fd5b5f905f3560e01c90816301ffc9a7146116a85750806307e2cea51461166e5780630e35f5ff146115dc5780630f1e44f31461156257806313182df71461146d578063198506f3146113f8578063248a9ca3146113b857806327e87808146113225780632f2ff15d146112d757806336568abe1461129a5780633e27ec9b1461125f5780634f1ef2861461105357806351710e4514610ffb57806352d1902d14610f945780635506191314610f3c57806358b0216614610ee4578063647e8c9d14610dc45780636d43542114610d4f578063848cfc2614610cda57806391d1485414610c84578063941edd0614610af457806398c4f1ac14610ab9578063a217fddf14610a9d578063ad3cb1cc14610a50578063ae2d8f6014610997578063b6b07b8e14610916578063be2fa49f14610885578063c4d66de814610733578063d240ef4b146106ba578063d547741f14610645578063d853015e1461060a578063dc496c2014610311578063e63ab1e9146102d65763f777d7a814610194575f80fd5b3461025c57604036600319011261025c576004356001600160a01b038116919082900361025c576024359182151583036102d2577f65d7a28e3265b37a6474929f336521b332c1681b933f6cb9f3376673440d862a82525f516020611d875f395f51905f5260209081526040808420335f908152925290205460ff161561029b5781925f1461026d57803b1561026a57818091600460405180948193631fa5d41d60e11b83525af1801561025f5761024b57505080f35b8161025591611760565b61025c5780f35b80fd5b6040513d84823e3d90fd5b50fd5b803b1561026a57818091600460405180948193638456cb5960e01b83525af1801561025f5761024b57505080f35b63e2517d3f60e01b8252336004527f65d7a28e3265b37a6474929f336521b332c1681b933f6cb9f3376673440d862a602452604482fd5b5080fd5b503461025c578060031936011261025c5760206040517f65d7a28e3265b37a6474929f336521b332c1681b933f6cb9f3376673440d862a8152f35b503461025c57608036600319011261025c5761032b6116fb565b6044356001600160401b0381116106065780600401610260600319833603011261060257610357611a39565b604051639ac2b52360e01b8152602480356004830152606090820152926001600160a01b036103858361173d565b16606485015260248301356001600160a01b038116908190036105fe5760848501526001600160a01b036103bb6044850161173d565b1660a48501526001600160a01b036103d56064850161173d565b1660c48501526001600160a01b036103ef6084850161173d565b1660e485015260a48301356001600160401b0381168091036105fe5761010485015263ffffffff61042260c485016117a8565b1661012485015263ffffffff61043a60e485016117a8565b1661014485015263ffffffff61045361010485016117a8565b1661016485015263ffffffff61046c61012485016117a8565b1661018485015263ffffffff61048561014485016117a8565b166101a485015263ffffffff61049e61016485016117a8565b166101c48501526001600160a01b036104ba610184850161173d565b166101e485015263ffffffff6104d36101a485016117a8565b1661020485015263ffffffff6104ec6101c485016117a8565b166102248501526101e4830135928584151580950361025c578561058181959361056e839560209961024486015261024461056661054561053161020487018561184c565b6102606102648b01526102c48a019161187d565b61055361022487018561184c565b898303606319016102848b01529061187d565b93019061184c565b848303606319016102a48601529061187d565b606435604483015203926001600160a01b03165af190811561025f5782916105b8575b6040516001600160a01b0383168152602090f35b90506020813d6020116105f6575b816105d360209383611760565b810103126102d257516001600160a01b03811681036102d257602091505f6105a4565b3d91506105c6565b8580fd5b8380fd5b8280fd5b503461025c578060031936011261025c5760206040517f3b49a237fe2d18fa4d9642b8a0e065923cceb71b797783b619a030a61d848bf08152f35b503461025c57604036600319011261025c57600435610662611711565b9061068d610688825f525f516020611d875f395f51905f52602052600160405f20015490565b611aa8565b336001600160a01b038316146106ab57906106a791611c41565b5080f35b63334bd91960e11b8352600483fd5b503461025c57604036600319011261025c57806106d56116fb565b6106dd611711565b906106e661189d565b6001600160a01b031690813b1561072f57604051639d6b4a4560e01b81526001600160a01b0390911660048201529082908290602490829084905af1801561025f5761024b5750f35b5050fd5b503461025c57602036600319011261025c5761074d6116fb565b5f516020611da75f395f51905f52549060ff8260401c1615916001600160401b0381168015908161087d575b6001149081610873575b15908161086a575b5061085b5767ffffffffffffffff1981166001175f516020611da75f395f51905f52556107cf91908361082f575b506107c2611cdd565b6107ca611cdd565b611aee565b506107d75780f35b68ff0000000000000000195f516020611da75f395f51905f5254165f516020611da75f395f51905f52557fc7f505b2f371ae2175ee4913f4499e1f2633a7b5936321eed1cdaeb6115181d2602060405160018152a180f35b68ffffffffffffffffff191668010000000000000001175f516020611da75f395f51905f52555f6107b9565b63f92ee8a960e01b8452600484fd5b9050155f61078b565b303b159150610783565b849150610779565b503461025c57604036600319011261025c57806108a06116fb565b6024356001600160401b03811161072f576108bf90369060040161180a565b906108c86119ca565b6001600160a01b0316803b1561072f5760405163347d568f60e21b8152602060048201529183918391829084908290610905906024830190611828565b03925af1801561025f5761024b5750f35b503461025c57606036600319011261025c57806004356001600160a01b0381169081900361026a57610946611711565b61094e611751565b610956611a39565b823b1561099257604051632f20734560e01b81526001600160a01b03909216600483015215156024820152908290829081838160448101610905565b505050fd5b503461025c57606036600319011261025c57806109b26116fb565b6024356001600160401b03811161072f573660238201121561072f576109e29036906024816004013591016117d4565b6109ea611727565b916109f3611a39565b6001600160a01b031690813b15610992578391610a2f918360405180968195829463f05afa5d60e01b8452604060048501526044840190611828565b6001600160a01b03909116602483015203925af1801561025f5761024b5750f35b503461025c578060031936011261025c5750610a99604051610a73604082611760565b60058152640352e302e360dc1b6020820152604051918291602083526020830190611828565b0390f35b503461025c578060031936011261025c57602090604051908152f35b503461025c578060031936011261025c5760206040517f31e0210044b4f6757ce6aa31f9c6e8d4896d24a755014887391a926c5224d9598152f35b503461025c5761010036600319011261025c57610b0f6116fb565b6024356001600160a01b0381169291908390036102d25760c03660431901126102d2576040519060c08201938285106001600160401b03861117610c7057839460405260443563ffffffff81168103610c6c5783526064359163ffffffff83168303610c6c5760208401928352610b84611795565b906040850191825260a43563ffffffff81168103610c68576060860190815260c4359063ffffffff82168203610c64576080870191825260e4359263ffffffff84168403610c605760a08801938452610bdb6119ca565b6001600160a01b031693843b15610c6057889660405198899763358aa0eb60e01b895260048901525163ffffffff1660248801525163ffffffff1660448701525163ffffffff1660648601525163ffffffff1660848501525163ffffffff1660a48401525163ffffffff1660c483015281835a9260e493f1801561025f5761024b5750f35b8880fd5b8780fd5b8680fd5b8480fd5b634e487b7160e01b84526041600452602484fd5b503461025c57604036600319011261025c576040610ca0611711565b9160043581525f516020611d875f395f51905f52602052209060018060a01b03165f52602052602060ff60405f2054166040519015158152f35b503461025c57604036600319011261025c5780610cf56116fb565b610cfd611711565b90610d0661189d565b6001600160a01b031690813b1561072f5760405163e34c721b60e01b81526001600160a01b0390911660048201529082908290602490829084905af1801561025f5761024b5750f35b503461025c57604036600319011261025c5780610d6a6116fb565b610d72611711565b90610d7b61197b565b6001600160a01b031690813b1561072f5760405163f2fde38b60e01b81526001600160a01b0390911660048201529082908290602490829084905af1801561025f5761024b5750f35b503461025c5761012036600319011261025c5780610de06116fb565b61010036602319011261026a57610df56119ca565b6001600160a01b0316803b1561026a57604051631892944160e21b8152906024356001600160a01b038116908190036109925760048301526044356001600160401b03811680910361099257602483015260643563ffffffff811680910361099257604483015260843563ffffffff811680910361099257606483015260a43563ffffffff811680910361099257608483015260c43563ffffffff81168091036109925760a483015260e43563ffffffff81168091036109925760c4830152610104359063ffffffff82168092036109925761010483858193819560e48401525af1801561025f5761024b5750f35b503461025c57602036600319011261025c5780610eff6116fb565b610f0761189d565b6001600160a01b0316803b1561026a5781809160046040518094819363c9649aa960e01b83525af1801561025f5761024b5750f35b503461025c57602036600319011261025c5780610f576116fb565b610f5f61189d565b6001600160a01b0316803b1561026a578180916004604051809481936307b329df60e21b83525af1801561025f5761024b5750f35b503461025c578060031936011261025c577f00000000000000000000000000000000000000000000000000000000000000006001600160a01b03163003610fec5760206040515f516020611d675f395f51905f528152f35b63703e46dd60e11b8152600490fd5b503461025c57602036600319011261025c57806110166116fb565b61101e61197b565b6001600160a01b0316803b1561026a578180916004604051809481936379ba509760e01b83525af1801561025f5761024b5750f35b50604036600319011261025c576110686116fb565b906024356001600160401b0381116102d25761108890369060040161180a565b6001600160a01b037f00000000000000000000000000000000000000000000000000000000000000001630811490811561123d575b5061122e576110ca61197b565b6040516352d1902d60e01b8152926001600160a01b0381169190602085600481865afa809585966111fa575b5061110f57634c9c8ce360e01b84526004839052602484fd5b9091845f516020611d675f395f51905f5281036111e85750813b156111d6575f516020611d675f395f51905f5280546001600160a01b031916821790557fbc7cd75a20ee27fd9adebab32041f755214dbc6bffa90cc0225b39da2e5c2d3b8480a281518390156111bc57808360206106a795519101845af43d156111b4573d91611198836117b9565b926111a66040519485611760565b83523d85602085013e611d08565b606091611d08565b505050346111c75780f35b63b398979f60e01b8152600490fd5b634c9c8ce360e01b8452600452602483fd5b632a87526960e21b8552600452602484fd5b9095506020813d602011611226575b8161121660209383611760565b81010312610c6c5751945f6110f6565b3d9150611209565b63703e46dd60e11b8252600482fd5b5f516020611d675f395f51905f52546001600160a01b0316141590505f6110bd565b503461025c578060031936011261025c5760206040517f395f08be531c0d7403cba7c5ffd2b57329184452bcebcd6a48299ebbbf39db6f8152f35b503461025c57604036600319011261025c576004356112b7611711565b9080156112c857906106a791611c41565b63248752a960e11b8352600483fd5b503461025c57604036600319011261025c576106a76004356112f7611711565b9061131d610688825f525f516020611d875f395f51905f52602052600160405f20015490565b611b9d565b503461025c57606036600319011261025c57806004356001600160a01b0381169081900361026a57611352611711565b6044356001600160401b0381116109925761137190369060040161180a565b61137961197b565b823b15610992576109059284928360405180968195829463278f794360e11b845260018060a01b03166004840152604060248401526044830190611828565b503461025c57602036600319011261025c5760206113f06004355f525f516020611d875f395f51905f52602052600160405f20015490565b604051908152f35b503461025c57604036600319011261025c57806114136116fb565b61141b611711565b9061142461190c565b6001600160a01b031690813b1561072f5760405163102e79af60e21b81526001600160a01b0390911660048201529082908290602490829084905af1801561025f5761024b5750f35b503461025c5760a036600319011261025c576114876116fb565b90611490611711565b60603660431901126102d2576040519260608401938085106001600160401b03861117610c705783946040526114c4611727565b8152606435926001600160a01b0384168403610c6c57602082019384526114e9611795565b92604083019384526114f961190c565b6001600160a01b031690813b156105fe5760405163a0b4310960e01b81526001600160a01b03918216600482015292518116602484015293519093166044820152905163ffffffff1660648201529082908290608490829084905af1801561025f5761024b5750f35b503461025c57606036600319011261025c578061157d6116fb565b611585611711565b61158d611751565b9161159661189d565b6001600160a01b031691823b15610992576040516358c9542560e11b81526001600160a01b03909216600483015215156024820152908290829081838160448101610905565b503461166a57604036600319011261166a576115f66116fb565b6115fe611711565b9061160761189d565b6001600160a01b031690813b1561166a5760405163e90956cf60e01b81526001600160a01b039091166004820152905f908290602490829084905af1801561165f57611651575080f35b61165d91505f90611760565b005b6040513d5f823e3d90fd5b5f80fd5b3461166a575f36600319011261166a5760206040517f68e79a7bf1e0bc45d0a330c573bc367f9cf464fd326078812f301165fbda4ef18152f35b3461166a57602036600319011261166a576004359063ffffffff60e01b821680920361166a57602091637965db0b60e01b81149081156116ea575b5015158152f35b6301ffc9a760e01b149050836116e3565b600435906001600160a01b038216820361166a57565b602435906001600160a01b038216820361166a57565b604435906001600160a01b038216820361166a57565b35906001600160a01b038216820361166a57565b60443590811515820361166a57565b90601f801991011681019081106001600160401b0382111761178157604052565b634e487b7160e01b5f52604160045260245ffd5b6084359063ffffffff8216820361166a57565b359063ffffffff8216820361166a57565b6001600160401b03811161178157601f01601f191660200190565b9291926117e0826117b9565b916117ee6040519384611760565b82948184528183011161166a578281602093845f960137010152565b9080601f8301121561166a57816020611825933591016117d4565b90565b805180835260209291819084018484015e5f828201840152601f01601f1916010190565b9035601e198236030181121561166a5701602081359101916001600160401b03821161166a57813603831361166a57565b908060209392818452848401375f828201840152601f01601f1916010190565b335f9081527fa082ef6cf2c9f28dc83f4bda2c569305fa34bed6cff50d6bbc1bd98560ec0ebe602052604090205460ff16156118d557565b63e2517d3f60e01b5f52336004527f31e0210044b4f6757ce6aa31f9c6e8d4896d24a755014887391a926c5224d95960245260445ffd5b335f9081527f0b45fb0a7d123af421db170fce034e3ce3a70e5f1150428004face1400c458f2602052604090205460ff161561194457565b63e2517d3f60e01b5f52336004527f68e79a7bf1e0bc45d0a330c573bc367f9cf464fd326078812f301165fbda4ef160245260445ffd5b335f9081527fb7db2dd08fcb62d0c9e08c51941cae53c267786a0b75803fb7960902fc8ef97d602052604090205460ff16156119b357565b63e2517d3f60e01b5f52336004525f60245260445ffd5b335f9081527f4cb196788d36e873f40a57836610aa3788d78f92213caf5b14cbef3debc67d88602052604090205460ff1615611a0257565b63e2517d3f60e01b5f52336004527f3b49a237fe2d18fa4d9642b8a0e065923cceb71b797783b619a030a61d848bf060245260445ffd5b335f9081527f39d1149e996200895cc6fe4e96a7f3ec55437d11db08dc08355f549a525399b4602052604090205460ff1615611a7157565b63e2517d3f60e01b5f52336004527f395f08be531c0d7403cba7c5ffd2b57329184452bcebcd6a48299ebbbf39db6f60245260445ffd5b5f8181525f516020611d875f395f51905f526020908152604080832033845290915290205460ff1615611ad85750565b63e2517d3f60e01b5f523360045260245260445ffd5b6001600160a01b0381165f9081527fb7db2dd08fcb62d0c9e08c51941cae53c267786a0b75803fb7960902fc8ef97d602052604090205460ff16611b98576001600160a01b03165f8181527fb7db2dd08fcb62d0c9e08c51941cae53c267786a0b75803fb7960902fc8ef97d60205260408120805460ff191660011790553391907f2f8788117e7eff1d82e926ec794901d17c78024a50270940304540a733656f0d8180a4600190565b505f90565b5f8181525f516020611d875f395f51905f52602090815260408083206001600160a01b038616845290915290205460ff16611c3b575f8181525f516020611d875f395f51905f52602090815260408083206001600160a01b0395909516808452949091528120805460ff19166001179055339291907f2f8788117e7eff1d82e926ec794901d17c78024a50270940304540a733656f0d9080a4600190565b50505f90565b5f8181525f516020611d875f395f51905f52602090815260408083206001600160a01b038616845290915290205460ff1615611c3b575f8181525f516020611d875f395f51905f52602090815260408083206001600160a01b0395909516808452949091528120805460ff19169055339291907ff6391f5c32d9c69d2a47ea670b442974b53935d1edc7fd64eb21e047a839171b9080a4600190565b60ff5f516020611da75f395f51905f525460401c1615611cf957565b631afcd79f60e31b5f5260045ffd5b90611d2c5750805115611d1d57805190602001fd5b63d6bda27560e01b5f5260045ffd5b81511580611d5d575b611d3d575090565b639996b31560e01b5f9081526001600160a01b0391909116600452602490fd5b50803b15611d3556fe360894a13ba1a3210667c828492db98dca3e2076cc3735a920a3ca505d382bbc02dd7bc7dec4dceedda775e58dd541e08a116c6c53815c0bd028192f7b626800f0c57e16840df040f15088dc2f81fe391c3923bec73e23a9662efc9c229c6a00a26469706673582212201be66260d1630d8e2dc139354eb66e02fd050e0d255b023dd8075cfae2476cdc64736f6c63430008210033","linkReferences":{}},"methodIdentifiers":{"CONFIGURATOR_ROLE()":"d853015e","DEFAULT_ADMIN_ROLE()":"a217fddf","MARKET_ROLE()":"3e27ec9b","ORACLE_ROLE()":"07e2cea5","PAUSER_ROLE()":"e63ab1e9","UPGRADE_INTERFACE_VERSION()":"ad3cb1cc","VAULT_ROLE()":"98c4f1ac","acceptOwnership(address)":"51710e45","acceptPendingOracle(address,address)":"198506f3","createMarket(address,bytes32,(address,address,address,address,(address,uint64,(uint32,uint32,uint32,uint32,uint32,uint32)),(address,uint32,uint32,bool),bytes,string,string),uint256)":"dc496c20","getRoleAdmin(bytes32)":"248a9ca3","grantRole(bytes32,address)":"2f2ff15d","hasRole(bytes32,address)":"91d14854","initialize(address)":"c4d66de8","proxiableUUID()":"52d1902d","renounceRole(bytes32,address)":"36568abe","revokeRole(bytes32,address)":"d547741f","revokeVaultPendingGuardian(address)":"55061913","revokeVaultPendingMarket(address,address)":"848cfc26","revokeVaultPendingTimelock(address)":"58b02166","setAdapterWhitelist(address,address,bool)":"b6b07b8e","setCuratorForVault(address,address)":"0e35f5ff","setGtImplement(address,string,address)":"ae2d8f60","setIsAllocatorForVault(address,address,bool)":"0f1e44f3","setSwitch(address,bool)":"f777d7a8","submitPendingOracle(address,address,(address,address,uint32))":"13182df7","submitVaultGuardian(address,address)":"d240ef4b","supportsInterface(bytes4)":"01ffc9a7","transferOwnership(address,address)":"6d435421","updateGtConfig(address,bytes)":"be2fa49f","updateMarketConfig(address,(address,uint64,(uint32,uint32,uint32,uint32,uint32,uint32)))":"647e8c9d","updateOrderFeeRate(address,address,(uint32,uint32,uint32,uint32,uint32,uint32))":"941edd06","upgradeSubContract(address,address,bytes)":"27e87808","upgradeToAndCall(address,bytes)":"4f1ef286"},"id":4}