{"abi":[{"type":"function","name":"UPGRADE_INTERFACE_VERSION","inputs":[],"outputs":[{"name":"","type":"string","internalType":"string"}],"stateMutability":"view"},{"type":"function","name":"acceptOwnership","inputs":[],"outputs":[],"stateMutability":"nonpayable"},{"type":"function","name":"adapterWhitelist","inputs":[{"name":"","type":"address","internalType":"address"}],"outputs":[{"name":"","type":"bool","internalType":"bool"}],"stateMutability":"view"},{"type":"function","name":"borrowTokenFromCollateral","inputs":[{"name":"recipient","type":"address","internalType":"address"},{"name":"market","type":"address","internalType":"contract ITermMaxMarket"},{"name":"collInAmt","type":"uint256","internalType":"uint256"},{"name":"maxDebtAmt","type":"uint128","internalType":"uint128"},{"name":"swapFtPath","type":"tuple","internalType":"struct SwapPath","components":[{"name":"inputAmount","type":"uint256","internalType":"uint256"},{"name":"recipient","type":"address","internalType":"address"},{"name":"useBalanceOnchain","type":"bool","internalType":"bool"},{"name":"units","type":"tuple[]","internalType":"struct SwapUnit[]","components":[{"name":"adapter","type":"address","internalType":"address"},{"name":"tokenIn","type":"address","internalType":"address"},{"name":"tokenOut","type":"address","internalType":"address"},{"name":"swapData","type":"bytes","internalType":"bytes"}]}]}],"outputs":[{"name":"","type":"uint256","internalType":"uint256"}],"stateMutability":"nonpayable"},{"type":"function","name":"borrowTokenFromCollateralAndXt","inputs":[{"name":"recipient","type":"address","internalType":"address"},{"name":"market","type":"address","internalType":"contract ITermMaxMarket"},{"name":"collInAmt","type":"uint256","internalType":"uint256"},{"name":"borrowAmt","type":"uint256","internalType":"uint256"},{"name":"isV1","type":"bool","internalType":"bool"}],"outputs":[{"name":"","type":"uint256","internalType":"uint256"}],"stateMutability":"nonpayable"},{"type":"function","name":"executeOperation","inputs":[{"name":"","type":"address","internalType":"address"},{"name":"","type":"address","internalType":"contract IERC20"},{"name":"","type":"uint256","internalType":"uint256"},{"name":"data","type":"bytes","internalType":"bytes"}],"outputs":[{"name":"collateralData","type":"bytes","internalType":"bytes"}],"stateMutability":"nonpayable"},{"type":"function","name":"executeOperation","inputs":[{"name":"repayToken","type":"address","internalType":"contract IERC20"},{"name":"repayAmt","type":"uint128","internalType":"uint128"},{"name":"","type":"address","internalType":"address"},{"name":"removedCollateralData","type":"bytes","internalType":"bytes"},{"name":"callbackData","type":"bytes","internalType":"bytes"}],"outputs":[],"stateMutability":"nonpayable"},{"type":"function","name":"flashRepayFromColl","inputs":[{"name":"recipient","type":"address","internalType":"address"},{"name":"market","type":"address","internalType":"contract ITermMaxMarket"},{"name":"gtId","type":"uint256","internalType":"uint256"},{"name":"byDebtToken","type":"bool","internalType":"bool"},{"name":"expectedOutput","type":"uint256","internalType":"uint256"},{"name":"callbackData","type":"bytes","internalType":"bytes"}],"outputs":[{"name":"netTokenOut","type":"uint256","internalType":"uint256"}],"stateMutability":"nonpayable"},{"type":"function","name":"flashRepayToGetCollateral","inputs":[{"name":"recipient","type":"address","internalType":"address"},{"name":"market","type":"address","internalType":"contract ITermMaxMarket"},{"name":"gtId","type":"uint256","internalType":"uint256"},{"name":"expectedOutput","type":"uint256","internalType":"uint256"},{"name":"callbackData","type":"bytes","internalType":"bytes"}],"outputs":[{"name":"netTokenOut","type":"uint256","internalType":"uint256"}],"stateMutability":"nonpayable"},{"type":"function","name":"getVersion","inputs":[],"outputs":[{"name":"","type":"string","internalType":"string"}],"stateMutability":"pure"},{"type":"function","name":"initialize","inputs":[{"name":"admin","type":"address","internalType":"address"},{"name":"whitelistManager_","type":"address","internalType":"address"}],"outputs":[],"stateMutability":"nonpayable"},{"type":"function","name":"initializeV2","inputs":[{"name":"whitelistManager_","type":"address","internalType":"address"}],"outputs":[],"stateMutability":"nonpayable"},{"type":"function","name":"leverage","inputs":[{"name":"recipient","type":"address","internalType":"address"},{"name":"market","type":"address","internalType":"contract ITermMaxMarket"},{"name":"maxLtv","type":"uint128","internalType":"uint128"},{"name":"isV1","type":"bool","internalType":"bool"},{"name":"inputPaths","type":"tuple[]","internalType":"struct SwapPath[]","components":[{"name":"inputAmount","type":"uint256","internalType":"uint256"},{"name":"recipient","type":"address","internalType":"address"},{"name":"useBalanceOnchain","type":"bool","internalType":"bool"},{"name":"units","type":"tuple[]","internalType":"struct SwapUnit[]","components":[{"name":"adapter","type":"address","internalType":"address"},{"name":"tokenIn","type":"address","internalType":"address"},{"name":"tokenOut","type":"address","internalType":"address"},{"name":"swapData","type":"bytes","internalType":"bytes"}]}]},{"name":"swapXtPath","type":"tuple","internalType":"struct SwapPath","components":[{"name":"inputAmount","type":"uint256","internalType":"uint256"},{"name":"recipient","type":"address","internalType":"address"},{"name":"useBalanceOnchain","type":"bool","internalType":"bool"},{"name":"units","type":"tuple[]","internalType":"struct SwapUnit[]","components":[{"name":"adapter","type":"address","internalType":"address"},{"name":"tokenIn","type":"address","internalType":"address"},{"name":"tokenOut","type":"address","internalType":"address"},{"name":"swapData","type":"bytes","internalType":"bytes"}]}]},{"name":"swapCollateralPath","type":"tuple","internalType":"struct SwapPath","components":[{"name":"inputAmount","type":"uint256","internalType":"uint256"},{"name":"recipient","type":"address","internalType":"address"},{"name":"useBalanceOnchain","type":"bool","internalType":"bool"},{"name":"units","type":"tuple[]","internalType":"struct SwapUnit[]","components":[{"name":"adapter","type":"address","internalType":"address"},{"name":"tokenIn","type":"address","internalType":"address"},{"name":"tokenOut","type":"address","internalType":"address"},{"name":"swapData","type":"bytes","internalType":"bytes"}]}]}],"outputs":[{"name":"gtId","type":"uint256","internalType":"uint256"},{"name":"netXtOut","type":"uint256","internalType":"uint256"}],"stateMutability":"nonpayable"},{"type":"function","name":"onERC721Received","inputs":[{"name":"","type":"address","internalType":"address"},{"name":"","type":"address","internalType":"address"},{"name":"","type":"uint256","internalType":"uint256"},{"name":"","type":"bytes","internalType":"bytes"}],"outputs":[{"name":"","type":"bytes4","internalType":"bytes4"}],"stateMutability":"pure"},{"type":"function","name":"owner","inputs":[],"outputs":[{"name":"","type":"address","internalType":"address"}],"stateMutability":"view"},{"type":"function","name":"pause","inputs":[],"outputs":[],"stateMutability":"nonpayable"},{"type":"function","name":"paused","inputs":[],"outputs":[{"name":"","type":"bool","internalType":"bool"}],"stateMutability":"view"},{"type":"function","name":"pendingOwner","inputs":[],"outputs":[{"name":"","type":"address","internalType":"address"}],"stateMutability":"view"},{"type":"function","name":"proxiableUUID","inputs":[],"outputs":[{"name":"","type":"bytes32","internalType":"bytes32"}],"stateMutability":"view"},{"type":"function","name":"renounceOwnership","inputs":[],"outputs":[],"stateMutability":"nonpayable"},{"type":"function","name":"rolloverGt","inputs":[{"name":"gtToken","type":"address","internalType":"contract IGearingToken"},{"name":"gtId","type":"uint256","internalType":"uint256"},{"name":"additionalAsset","type":"address","internalType":"contract IERC20"},{"name":"additionalAmt","type":"uint256","internalType":"uint256"},{"name":"rolloverData","type":"bytes","internalType":"bytes"}],"outputs":[{"name":"newGtId","type":"uint256","internalType":"uint256"}],"stateMutability":"nonpayable"},{"type":"function","name":"setWhitelistManager","inputs":[{"name":"whitelistManager_","type":"address","internalType":"address"}],"outputs":[],"stateMutability":"nonpayable"},{"type":"function","name":"swapAndRepay","inputs":[{"name":"gt","type":"address","internalType":"contract IGearingToken"},{"name":"gtId","type":"uint256","internalType":"uint256"},{"name":"repayAmt","type":"uint128","internalType":"uint128"},{"name":"byDebtToken","type":"bool","internalType":"bool"},{"name":"paths","type":"tuple[]","internalType":"struct SwapPath[]","components":[{"name":"inputAmount","type":"uint256","internalType":"uint256"},{"name":"recipient","type":"address","internalType":"address"},{"name":"useBalanceOnchain","type":"bool","internalType":"bool"},{"name":"units","type":"tuple[]","internalType":"struct SwapUnit[]","components":[{"name":"adapter","type":"address","internalType":"address"},{"name":"tokenIn","type":"address","internalType":"address"},{"name":"tokenOut","type":"address","internalType":"address"},{"name":"swapData","type":"bytes","internalType":"bytes"}]}]}],"outputs":[{"name":"netOutOrIns","type":"uint256[]","internalType":"uint256[]"}],"stateMutability":"nonpayable"},{"type":"function","name":"swapTokens","inputs":[{"name":"paths","type":"tuple[]","internalType":"struct SwapPath[]","components":[{"name":"inputAmount","type":"uint256","internalType":"uint256"},{"name":"recipient","type":"address","internalType":"address"},{"name":"useBalanceOnchain","type":"bool","internalType":"bool"},{"name":"units","type":"tuple[]","internalType":"struct SwapUnit[]","components":[{"name":"adapter","type":"address","internalType":"address"},{"name":"tokenIn","type":"address","internalType":"address"},{"name":"tokenOut","type":"address","internalType":"address"},{"name":"swapData","type":"bytes","internalType":"bytes"}]}]}],"outputs":[{"name":"","type":"uint256[]","internalType":"uint256[]"}],"stateMutability":"nonpayable"},{"type":"function","name":"transferOwnership","inputs":[{"name":"newOwner","type":"address","internalType":"address"}],"outputs":[],"stateMutability":"nonpayable"},{"type":"function","name":"unpause","inputs":[],"outputs":[],"stateMutability":"nonpayable"},{"type":"function","name":"upgradeToAndCall","inputs":[{"name":"newImplementation","type":"address","internalType":"address"},{"name":"data","type":"bytes","internalType":"bytes"}],"outputs":[],"stateMutability":"payable"},{"type":"event","name":"Borrow","inputs":[{"name":"market","type":"address","indexed":true,"internalType":"contract ITermMaxMarket"},{"name":"gtId","type":"uint256","indexed":true,"internalType":"uint256"},{"name":"caller","type":"address","indexed":false,"internalType":"address"},{"name":"recipient","type":"address","indexed":false,"internalType":"address"},{"name":"collInAmt","type":"uint256","indexed":false,"internalType":"uint256"},{"name":"actualDebtAmt","type":"uint128","indexed":false,"internalType":"uint128"},{"name":"borrowAmt","type":"uint128","indexed":false,"internalType":"uint128"}],"anonymous":false},{"type":"event","name":"CreateOrderAndDeposit","inputs":[{"name":"market","type":"address","indexed":true,"internalType":"contract ITermMaxMarket"},{"name":"order","type":"address","indexed":true,"internalType":"contract ITermMaxOrder"},{"name":"maker","type":"address","indexed":false,"internalType":"address"},{"name":"debtTokenToDeposit","type":"uint256","indexed":false,"internalType":"uint256"},{"name":"ftToDeposit","type":"uint128","indexed":false,"internalType":"uint128"},{"name":"xtToDeposit","type":"uint128","indexed":false,"internalType":"uint128"},{"name":"curveCuts","type":"tuple","indexed":false,"internalType":"struct CurveCuts","components":[{"name":"lendCurveCuts","type":"tuple[]","internalType":"struct CurveCut[]","components":[{"name":"xtReserve","type":"uint256","internalType":"uint256"},{"name":"liqSquare","type":"uint256","internalType":"uint256"},{"name":"offset","type":"int256","internalType":"int256"}]},{"name":"borrowCurveCuts","type":"tuple[]","internalType":"struct CurveCut[]","components":[{"name":"xtReserve","type":"uint256","internalType":"uint256"},{"name":"liqSquare","type":"uint256","internalType":"uint256"},{"name":"offset","type":"int256","internalType":"int256"}]}]}],"anonymous":false},{"type":"event","name":"FlashRepay","inputs":[{"name":"gt","type":"address","indexed":true,"internalType":"address"},{"name":"gtId","type":"uint256","indexed":true,"internalType":"uint256"},{"name":"netTokenOut","type":"uint256","indexed":false,"internalType":"uint256"}],"anonymous":false},{"type":"event","name":"Initialized","inputs":[{"name":"version","type":"uint64","indexed":false,"internalType":"uint64"}],"anonymous":false},{"type":"event","name":"IssueGt","inputs":[{"name":"market","type":"address","indexed":true,"internalType":"contract ITermMaxMarket"},{"name":"gtId","type":"uint256","indexed":true,"internalType":"uint256"},{"name":"caller","type":"address","indexed":false,"internalType":"address"},{"name":"recipient","type":"address","indexed":false,"internalType":"address"},{"name":"debtTokenAmtIn","type":"uint128","indexed":false,"internalType":"uint128"},{"name":"xtAmtIn","type":"uint128","indexed":false,"internalType":"uint128"},{"name":"ltv","type":"uint128","indexed":false,"internalType":"uint128"},{"name":"collData","type":"bytes","indexed":false,"internalType":"bytes"}],"anonymous":false},{"type":"event","name":"OwnershipTransferStarted","inputs":[{"name":"previousOwner","type":"address","indexed":true,"internalType":"address"},{"name":"newOwner","type":"address","indexed":true,"internalType":"address"}],"anonymous":false},{"type":"event","name":"OwnershipTransferred","inputs":[{"name":"previousOwner","type":"address","indexed":true,"internalType":"address"},{"name":"newOwner","type":"address","indexed":true,"internalType":"address"}],"anonymous":false},{"type":"event","name":"Paused","inputs":[{"name":"account","type":"address","indexed":false,"internalType":"address"}],"anonymous":false},{"type":"event","name":"RedeemAndSwap","inputs":[{"name":"market","type":"address","indexed":true,"internalType":"contract ITermMaxMarket"},{"name":"ftAmount","type":"uint256","indexed":false,"internalType":"uint256"},{"name":"caller","type":"address","indexed":false,"internalType":"address"},{"name":"recipient","type":"address","indexed":false,"internalType":"address"},{"name":"actualTokenOut","type":"uint256","indexed":false,"internalType":"uint256"}],"anonymous":false},{"type":"event","name":"RepayByTokenThroughFt","inputs":[{"name":"market","type":"address","indexed":true,"internalType":"contract ITermMaxMarket"},{"name":"gtId","type":"uint256","indexed":true,"internalType":"uint256"},{"name":"caller","type":"address","indexed":false,"internalType":"address"},{"name":"recipient","type":"address","indexed":false,"internalType":"address"},{"name":"repayAmt","type":"uint256","indexed":false,"internalType":"uint256"},{"name":"returnAmt","type":"uint256","indexed":false,"internalType":"uint256"}],"anonymous":false},{"type":"event","name":"RolloverGt","inputs":[{"name":"gt","type":"address","indexed":true,"internalType":"address"},{"name":"gtId","type":"uint256","indexed":true,"internalType":"uint256"},{"name":"newGtId","type":"uint256","indexed":true,"internalType":"uint256"},{"name":"additionalAsset","type":"address","indexed":false,"internalType":"address"},{"name":"additionalAmt","type":"uint256","indexed":false,"internalType":"uint256"}],"anonymous":false},{"type":"event","name":"SellTokens","inputs":[{"name":"market","type":"address","indexed":true,"internalType":"contract ITermMaxMarket"},{"name":"caller","type":"address","indexed":false,"internalType":"address"},{"name":"recipient","type":"address","indexed":false,"internalType":"address"},{"name":"ftInAmt","type":"uint128","indexed":false,"internalType":"uint128"},{"name":"xtInAmt","type":"uint128","indexed":false,"internalType":"uint128"},{"name":"orders","type":"address[]","indexed":false,"internalType":"contract ITermMaxOrder[]"},{"name":"amtsToSellTokens","type":"uint128[]","indexed":false,"internalType":"uint128[]"},{"name":"actualTokenOut","type":"uint256","indexed":false,"internalType":"uint256"}],"anonymous":false},{"type":"event","name":"SwapAndRepay","inputs":[{"name":"gt","type":"address","indexed":true,"internalType":"address"},{"name":"gtId","type":"uint256","indexed":true,"internalType":"uint256"},{"name":"repayAmt","type":"uint256","indexed":false,"internalType":"uint256"},{"name":"remainingRepayToken","type":"uint256","indexed":false,"internalType":"uint256"}],"anonymous":false},{"type":"event","name":"SwapExactTokenToToken","inputs":[{"name":"tokenIn","type":"address","indexed":true,"internalType":"contract IERC20"},{"name":"tokenOut","type":"address","indexed":true,"internalType":"contract IERC20"},{"name":"caller","type":"address","indexed":false,"internalType":"address"},{"name":"recipient","type":"address","indexed":false,"internalType":"address"},{"name":"orders","type":"address[]","indexed":false,"internalType":"contract ITermMaxOrder[]"},{"name":"tradingAmts","type":"uint128[]","indexed":false,"internalType":"uint128[]"},{"name":"actualTokenOut","type":"uint256","indexed":false,"internalType":"uint256"}],"anonymous":false},{"type":"event","name":"SwapTokenToExactToken","inputs":[{"name":"tokenIn","type":"address","indexed":true,"internalType":"contract IERC20"},{"name":"tokenOut","type":"address","indexed":true,"internalType":"contract IERC20"},{"name":"caller","type":"address","indexed":false,"internalType":"address"},{"name":"recipient","type":"address","indexed":false,"internalType":"address"},{"name":"orders","type":"address[]","indexed":false,"internalType":"contract ITermMaxOrder[]"},{"name":"tradingAmts","type":"uint128[]","indexed":false,"internalType":"uint128[]"},{"name":"actualTokenIn","type":"uint256","indexed":false,"internalType":"uint256"}],"anonymous":false},{"type":"event","name":"Unpaused","inputs":[{"name":"account","type":"address","indexed":false,"internalType":"address"}],"anonymous":false},{"type":"event","name":"UpdateMarketWhiteList","inputs":[{"name":"market","type":"address","indexed":false,"internalType":"address"},{"name":"isWhitelist","type":"bool","indexed":false,"internalType":"bool"}],"anonymous":false},{"type":"event","name":"UpdateSwapAdapterWhiteList","inputs":[{"name":"adapter","type":"address","indexed":false,"internalType":"address"},{"name":"isWhitelist","type":"bool","indexed":false,"internalType":"bool"}],"anonymous":false},{"type":"event","name":"Upgraded","inputs":[{"name":"implementation","type":"address","indexed":true,"internalType":"address"}],"anonymous":false},{"type":"event","name":"WhitelistManagerUpdated","inputs":[{"name":"whitelistManager","type":"address","indexed":false,"internalType":"address"}],"anonymous":false},{"type":"error","name":"AdapterNotWhitelisted","inputs":[{"name":"adapter","type":"address","internalType":"address"}]},{"type":"error","name":"AddressEmptyCode","inputs":[{"name":"target","type":"address","internalType":"address"}]},{"type":"error","name":"ApproveTokenFailWhenSwap","inputs":[{"name":"token","type":"address","internalType":"address"},{"name":"revertData","type":"bytes","internalType":"bytes"}]},{"type":"error","name":"CallbackAddressNotMatch","inputs":[]},{"type":"error","name":"ERC1967InvalidImplementation","inputs":[{"name":"implementation","type":"address","internalType":"address"}]},{"type":"error","name":"ERC1967NonPayable","inputs":[]},{"type":"error","name":"EnforcedPause","inputs":[]},{"type":"error","name":"ExpectedPause","inputs":[]},{"type":"error","name":"FailedCall","inputs":[]},{"type":"error","name":"GtNotOwnedBySender","inputs":[]},{"type":"error","name":"GtNotWhitelisted","inputs":[{"name":"gt","type":"address","internalType":"address"}]},{"type":"error","name":"InsufficientTokenIn","inputs":[{"name":"token","type":"address","internalType":"address"},{"name":"expectedTokenIn","type":"uint256","internalType":"uint256"},{"name":"actualTokenIn","type":"uint256","internalType":"uint256"}]},{"type":"error","name":"InsufficientTokenOut","inputs":[{"name":"token","type":"address","internalType":"address"},{"name":"expectedTokenOut","type":"uint256","internalType":"uint256"},{"name":"actualTokenOut","type":"uint256","internalType":"uint256"}]},{"type":"error","name":"InvalidInitialization","inputs":[]},{"type":"error","name":"LtvBiggerThanExpected","inputs":[{"name":"expectedLtv","type":"uint128","internalType":"uint128"},{"name":"actualLtv","type":"uint128","internalType":"uint128"}]},{"type":"error","name":"MarketNotWhitelisted","inputs":[{"name":"market","type":"address","internalType":"address"}]},{"type":"error","name":"NotInitializing","inputs":[]},{"type":"error","name":"OrdersAndAmtsLengthNotMatch","inputs":[]},{"type":"error","name":"OwnableInvalidOwner","inputs":[{"name":"owner","type":"address","internalType":"address"}]},{"type":"error","name":"OwnableUnauthorizedAccount","inputs":[{"name":"account","type":"address","internalType":"address"}]},{"type":"error","name":"ReentrancyGuardReentrantCall","inputs":[]},{"type":"error","name":"SafeCastOverflowedUintDowncast","inputs":[{"name":"bits","type":"uint8","internalType":"uint8"},{"name":"value","type":"uint256","internalType":"uint256"}]},{"type":"error","name":"SafeERC20FailedOperation","inputs":[{"name":"token","type":"address","internalType":"address"}]},{"type":"error","name":"SwapFailed","inputs":[{"name":"adapter","type":"address","internalType":"address"},{"name":"revertData","type":"bytes","internalType":"bytes"}]},{"type":"error","name":"SwapPathsIsEmpty","inputs":[]},{"type":"error","name":"SwapUnitsIsEmpty","inputs":[]},{"type":"error","name":"UUPSUnauthorizedCallContext","inputs":[]},{"type":"error","name":"UUPSUnsupportedProxiableUUID","inputs":[{"name":"slot","type":"bytes32","internalType":"bytes32"}]}],"bytecode":{"object":"0x60a0806040523460295730608052615529908161002e823960805181818161371101526137a40152f35b5f80fdfe60806040526004361015610011575f80fd5b5f5f3560e01c80630d8e6e2c146145735780630f9c48da1461421f578063150b7a02146141c957806329b6eca9146140d05780632e3e3ef2146140925780633f4ba83a1461401257806341a4940914613fed578063485cc95514613e2b5780634a8f69be1461394e5780634f1ef2861461376557806352d1902d146136fe5780635c975abb146136cf5780636a209b4e1461338a578063715018a61461330b57806379ba5097146132bb5780638456cb59146132485780638da5cb5b1461321357806399a54a5a14612ef7578063a3b2baf614612e59578063ad3cb1cc14612e11578063c471f59b14612c51578063e30c397814612c1c578063e49d66d214612530578063e818cc6d146121c8578063ef8b496814610965578063f2fde38b146108df5763f9f2b62e14610143575f80fd5b346104d95760a03660031901126104d95761015c6145da565b906101656145f0565b60843592606435926044359285151586036108db57610182614bef565b61018a614c27565b604051634eb1c24560e11b81526001600160a01b039190911695909160a0836004818a5afa80156108ce578190829183958492610896575b506040516323b872dd60e01b60208201526001600160a01b039283169691831693909216916102129061020c816101fe8c3033602485016149f3565b03601f19810183528261467a565b8761537d565b604051636eb1769f60e11b81523060048201526001600160a01b0391909116602482018190529590602081604481855afa9081156107be578591610864575b508881018091116107c95760405163095ea7b360e01b60208281019182526001600160a01b038a166024840152604483019390935290919086906102a284606481015b03601f19810186528561467a565b83519082865af185513d82610848575b50501561080f575b5050604051633f5ffaf560e01b81526020816004818d5afa9081156107575784916107dd575b506305f5e1008902908982046305f5e100148a1517156107c9576305f5e10003906305f5e10082116107c95761031e9161031991614bd1565b614fc0565b978895604061035b8c82518c60208201526020815261033d848261467a565b8884519e8f9485938492637a0ee4f960e11b845230600485016149c6565b03925af19081156107be57859a869261078a575b50803b1561078657858b61039c928b83604051809681958294632142170760e11b845230600485016149f3565b03925af1801561077b57908691610762575b50506001600160801b0316908180821091180218936103ef6040516323b872dd60e01b60208201526103e9816101fe893033602485016149f3565b8361537d565b6104e7575b5050863b156104d957604051632770a7eb60e21b81526001600160a01b0385166004820152602481018390528181604481838c5af180156104dc576104c4575b602087808a7fdc3efdf28701077a23ef0beb0f3260ca639658ce2676bbc9d83030fac6ce56128a8a6104a88b6104698c614fc0565b604080513381526001600160a01b0390951660208601528401949094526001600160801b039081166060840152909216608082015290819060a0820190565b0390a360015f5160206154945f395f51905f5255604051908152f35b6104cf82809261467a565b6104d95780610434565b80fd5b6040513d84823e3d90fd5b604051636eb1769f60e11b8152306004820152602481018a9052602081604481855afa908115610757578491610725575b508481018091116107115760405163095ea7b360e01b60208281019182526001600160a01b038d1660248401526044830193909352909190859061055f8460648101610294565b83519082865af184513d826106f5575b5050156106bc575b5050604051636eb1769f60e11b815230600482015260248101899052602081604481855afa9081156106b157839161067b575b508381018091116106675760405163095ea7b360e01b60208281019182526001600160a01b038c166024840152604483019390935290919084906105f18460648101610294565b83519082865af183513d8261064b575b50506103f4576106449161063f60405163095ea7b360e01b60208201528b60248201528560448201526044815261063960648261467a565b8261537d565b61537d565b5f806103f4565b90915061065f5750813b15155b5f80610601565b600114610658565b634e487b7160e01b83526011600452602483fd5b90506020813d6020116106a9575b816106966020938361467a565b810103126106a557515f6105aa565b5f80fd5b3d9150610689565b6040513d85823e3d90fd5b6106ee9161063f60405163095ea7b360e01b60208201528c60248201528660448201526044815261063960648261467a565b5f80610577565b9091506107095750813b15155b5f8061056f565b600114610702565b634e487b7160e01b84526011600452602484fd5b90506020813d60201161074f575b816107406020938361467a565b810103126106a557515f610518565b3d9150610733565b6040513d86823e3d90fd5b8161076c9161467a565b61077757845f6103ae565b8480fd5b6040513d88823e3d90fd5b8580fd5b909a506107af915060403d6040116107b7575b6107a7818361467a565b8101906149ac565b90995f61036f565b503d61079d565b6040513d87823e3d90fd5b634e487b7160e01b85526011600452602485fd5b90506020813d602011610807575b816107f86020938361467a565b810103126106a557515f6102e0565b3d91506107eb565b6108419161063f60405163095ea7b360e01b60208201528960248201528760448201526044815261063960648261467a565b5f806102ba565b90915061085c5750813b15155b5f806102b2565b600114610855565b90506020813d60201161088e575b8161087f6020938361467a565b810103126106a557515f610251565b3d9150610872565b925050506108bd91935060a03d60a0116108c7575b6108b5818361467a565b810190614943565b509094925f6101c2565b503d6108ab565b50604051903d90823e3d90fd5b5080fd5b50346104d95760203660031901126104d9576108f96145da565b610901614cb8565b5f5160206154d45f395f51905f5280546001600160a01b0319166001600160a01b039283169081179091555f5160206154345f395f51905f52549091167f38d16b8cac22d99fc7c124b9cd0de2d3fa1faef420bfe791d8c362d765e227008380a380f35b50346104d95760a03660031901126104d95761097f6145da565b90602435916001600160801b0383168093036108db5761099d614606565b506064356001600160401b0381116115e2576109bd9036906004016146b6565b506084356001600160401b0381116115e2576109dd9036906004016146b6565b9260015c8360015d6001600160a01b031633036121b9578351840193604081860312611275576020810151946004861015610777576040820151906001600160401b03821161078657610a37926020918201920101614a36565b9380610bb457509091928051810190602081830312610777576020810151906001600160401b038211610786576020610a789281610a869501920101615277565b606081519101519030614d54565b505b604051636eb1769f60e11b8152306004820152336024820152906001600160a01b03831690602083604481855afa9283156107be578593610b80575b5082018092116107115760405163095ea7b360e01b602082810191825233602484015260448301949094529092908590610b0b85606481015b03601f19810187528661467a565b84519082875af1903d85519083610b61575b50505015610b29578280f35b610b5b9161063f60405163095ea7b360e01b60208201523360248201528560448201526044815261063960648261467a565b5f808280f35b91925090610b7657503b15155b5f8080610b1d565b6001915014610b6e565b9092506020813d602011610bac575b81610b9c6020938361467a565b810103126106a55751915f610ac4565b3d9150610b8f565b60025c908460025d600181036112795750508351840160a0856020830192031261127557610be46020860161492f565b60408601516001600160a01b03811692919083900361078657610c0960608801614998565b9160808801516001600160401b0381116110dd57816020610c2c928b0101615277565b9760a0810151906001600160401b03821161127157610c4f929101602001615277565b966060810151805161125e575b5050604051634eb1c24560e11b81529660a088600481875afa918215611253578788998994611225575b506040516370a0823160e01b8152306004820152996001600160a01b0394851696919094169360208b6024818a5afa9a8b1561121a578a9b6111e6575b50604051633f5ffaf560e01b8152602081600481865afa9081156111db578b916111a9575b508451906305f5e1008202918083046305f5e1001490151715611158576305f5e10003906305f5e100821161115857610d249161031991614bd1565b604051636eb1769f60e11b81523060048201526001600160a01b0390921660248301819052979091602081604481855afa90811561119e578c9161116c575b508c810180911161115857926040928c9d926102946020610e059d9e9f8d610db8829b9a8a519586918683019463095ea7b360e01b86526024840160209093929193604081019460018060a01b031681520152565b83519082865af188513d8261113c575b505015611103575b5050835192602084015260208352610de8848461467a565b858451809c81958294637a0ee4f960e11b845230600485016149c6565b03925af19687156104dc5782976110e1575b50853b156108db57604051632142170760e11b815290829082908190610e4c908b906001600160a01b031630600485016149f3565b0381838a5af180156104dc576110c8575b5050610e70815160608301519030614d54565b9051818111610f1b575b5050506060602492604051938480926350ef5c3560e01b82528760048301525afa91821561077b578692610edc575b506001600160801b039182169116808211610ec7575050835d610a88565b6370d1969b60e01b8652600452602452604484fd5b6001600160801b03919250610f09829160603d606011610f14575b610f01818361467a565b810190614ba4565b509050929150610ea9565b503d610ef7565b90610f2591614a15565b90604051636eb1769f60e11b8152306004820152846024820152602081604481855afa9081156110bd57899161108b575b508281018091116110775760405163095ea7b360e01b60208281019182526001600160a01b038816602484015260448301939093528a94610fc49490939092918690610fa58460648101610294565b83519082865af185513d8261105b575b505015611022575b5050614fc0565b833b156108db576001600160801b0360405191636f965f9f60e11b8352866004840152166024820152816044820152818160648183885af180156104dc5761100d575b80610e7a565b816110179161467a565b61078657855f611007565b6110549161063f60405163095ea7b360e01b60208201528960248201528760448201526044815261063960648261467a565b5f80610fbd565b90915061106f5750813b15155b5f80610fb5565b600114611068565b634e487b7160e01b89526011600452602489fd5b90506020813d6020116110b5575b816110a66020938361467a565b810103126106a557515f610f56565b3d9150611099565b6040513d8b823e3d90fd5b816110d29161467a565b6110dd57875f610e5d565b8780fd5b6110fb91975060403d6040116107b7576107a7818361467a565b50955f610e17565b6111359161063f8d88519063095ea7b360e01b602083015260248201528a60448201526044815261063960648261467a565b5f80610dd0565b9091506111505750813b15155b5f80610dc8565b600114611149565b634e487b7160e01b8c52601160045260248cfd5b90506020813d602011611196575b816111876020938361467a565b810103126106a557515f610d63565b3d915061117a565b6040513d8e823e3d90fd5b90506020813d6020116111d3575b816111c46020938361467a565b810103126106a557515f610ce8565b3d91506111b7565b6040513d8d823e3d90fd5b909a506020813d602011611212575b816112026020938361467a565b810103126106a55751995f610cc3565b3d91506111f5565b6040513d8c823e3d90fd5b9193505061124391985060a03d60a0116108c7576108b5818361467a565b509992909391509298925f610c86565b6040513d89823e3d90fd5b611269915130614d54565b505f80610c5c565b8880fd5b8380fd5b909490600281036119d357508051810190808203906101a08212610786576112a36020820161492f565b604082015190976001600160a01b0382169390918490036110dd5760608301519460808401519161ffff831683036119cf5761010090607f190112611271576040519361010085018581106001600160401b038211176119bb5760405260a08101516001600160a01b03811681036119b757855261132360c0820161492f565b946020810195865261133760e0830161492f565b60408201908152610100830151926060830193845261012081015194608084019586526113676101408301615269565b9160a085019283526101608101519060c086019182526101808101519260e087019384526101a0820151906001600160401b0382116119b1576113b1926020918201920101615277565b99516001600160a01b03169485611911575b505050505050505060018060a01b038716906040516370a0823160e01b8152306004820152602081602481865afa90811561121a578a916118dd575b5061140c60609189614a15565b9401805151909a90156116e0576040516370a0823160e01b815230600482015290602090829060249082906001600160a01b03165afa801561121a578a906116ac575b61145d91508b519030614d54565b995180515f198101908111611664576001600160a01b039160409161148191614b83565b510151604051636eb1769f60e11b8152306004820152602481018890529b911660208c604481845afa9b8c156111db578b9c611678575b50818c01809c116116645760405163095ea7b360e01b60208281019182526001600160a01b038a166024840152604483019e909e529b9c9a9b999a8d9a8b906115048460648101610294565b83519082865af18a513d82611648575b50501561160a575b50863b156112715760405163617ba03760e01b81526001600160a01b03918216600482015260248101929092528416604482015261ffff821660648201528781608481838a5af19081156115ff5788916115ea575b50505b843b156115e657869460a49361ffff8793604051998a98899763a415bcad60e01b895260048901526024880152604487015216606485015260018060a01b031660848401525af180156104dc576115cd575b5050610a88565b816115d79161467a565b6115e257825f6115c6565b8280fd5b8680fd5b816115f49161467a565b6115e657865f611571565b6040513d8a823e3d90fd5b6116429061063960405163095ea7b360e01b60208201528a60248201528c60448201526044815261163c60648261467a565b8461537d565b5f61151c565b90915061165c5750813b15155b5f80611514565b600114611655565b634e487b7160e01b8b52601160045260248bfd5b909b506020813d6020116116a4575b816116946020938361467a565b810103126106a557519a5f6114b8565b3d9150611687565b506020813d6020116116d8575b816116c66020938361467a565b810103126106a55761145d905161144f565b3d91506116b9565b6040516370a0823160e01b81523060048201529a506001600160a01b03811660208c602481845afa9182156111db578b926118a8575b604051636eb1769f60e11b8152306004820152602481018990529c5060208d604481855afa9c8d1561119e578c9d611874575b50828d01809d116111585760405163095ea7b360e01b60208281019182526001600160a01b038b166024840152604483019f909f529c9d9b9c9a9b8e9b8c906117958460648101610294565b83519082865af18b513d82611858575b50501561181f575b5050863b156112715760405163617ba03760e01b81526001600160a01b03918216600482015260248101929092528416604482015261ffff821660648201528781608481838a5af19081156115ff57889161180a575b5050611574565b816118149161467a565b6115e657865f611803565b6118519161063f60405163095ea7b360e01b60208201528b60248201528d60448201526044815261063960648261467a565b5f806117ad565b90915061186c5750823b15155b5f806117a5565b600114611865565b909c506020813d6020116118a0575b816118906020938361467a565b810103126106a557519b5f611749565b3d9150611883565b915060208c3d6020116118d5575b816118c36020938361467a565b810103126106a55760249b5191611716565b3d91506118b6565b90506020813d602011611909575b816118f86020938361467a565b810103126106a5575161140c6113ff565b3d91506118eb565b519351955196519251905191516001600160a01b0396871696909416939260ff90911690843b156119ad57928f9695939260e4959288946040519a8b998a9863016a5aab60e31b8a5260048a0152602489015260448801526064870152608486015260a485015260c48401525af180156110bd57908991611998575b8080808080806113c3565b816119a29161467a565b6110dd57875f61198d565b8f80fd5b50508f80fd5b8a80fd5b634e487b7160e01b8b52604160045260248bfd5b8980fd5b600390859693949550146119e8575050610a88565b80518101908082039261018084126115e657611a066020830161492f565b60408301516001600160a01b03811693908490036112715760608101519460a0605f198801126119cf5760405191611a3d83614630565b611a496080820161492f565b8352611a5760a0820161492f565b60208401908152611a6a60c08301614b97565b9860408501998a5260e083015190606086019182526060610100850151916080880192835260ff1901126121b55760405191606083018381106001600160401b038211176121a0576040528e96959493929190611aca6101208601615269565b835261014085015194602084019586526101608101519660408501978852610180820151906001600160401b0382116119b757602001910160200190611b0f91615277565b9c6040519c8d632c3c915760e01b8152600401528c808d5a9260249160a094fa9c8d156110bd57899d612119575b5084516001600160a01b0316612087575b50506040516370a0823160e01b81523060048201529650602095508694506024935084925050506001600160a01b038c165afa9081156110bd578991612053575b50611b9c60609188614a15565b950180515190919015611e57576040516370a0823160e01b815230600482015290602090829060249082906001600160a01b03165afa80156110bd578990611e23575b611bed915082519030614d54565b905180515f198101908111611ddd576001600160a01b0391604091611c1191614b83565b51015116604051636eb1769f60e11b8152306004820152846024820152602081604481855afa90811561121a578a91611df1575b50828101809111611ddd5760405163095ea7b360e01b60208281019182526001600160a01b038816602484015260448301939093528b9695949392908790611c908460648101610294565b83519082865af186513d82611dc1575b505015611d88575b5050823b15611275578382611cd392604051938492839263238d657960e01b84528a6004850161531d565b038183875af1801561075757611d6c575b5092611d0d92610124926040955b86516350d8cd4b60e01b8152978896879560048701906152de565b60a485015260c484018390526001600160a01b031660e4840152306101048401525af1801561075757611d41575b806115c6565b604090813d8311611d65575b611d57818361467a565b810103126115e2575f611d3b565b503d611d4d565b92611d7b81809693949561467a565b611275579291905f611ce4565b611dba9161063f60405163095ea7b360e01b60208201528760248201528860448201526044815261063960648261467a565b5f80611ca8565b909150611dd55750813b15155b5f80611ca0565b600114611dce565b634e487b7160e01b8a52601160045260248afd5b90506020813d602011611e1b575b81611e0c6020938361467a565b810103126106a557515f611c45565b3d9150611dff565b506020813d602011611e4f575b81611e3d6020938361467a565b810103126106a557611bed9051611bdf565b3d9150611e30565b6040516370a0823160e01b815230600482015291506001600160a01b038116602083602481845afa92831561121a578a9361201f575b50604051636eb1769f60e11b81523060048201526024810186905290602082604481845afa9182156111db578b92611feb575b508382018092116116645760405163095ea7b360e01b60208281019182526001600160a01b038916602484015260448301949094528c9796959493919291908890611f0e8560648101610afd565b84519082875af1903d88519083611fcc575b50505015611f93575b5050823b15611275578382611f5492604051938492839263238d657960e01b84528a6004850161531d565b038183875af1801561075757611f77575b5092611d0d9261012492604095611cf2565b92611f8681809693949561467a565b611275579291905f611f65565b611fc59161063f60405163095ea7b360e01b60208201528760248201528860448201526044815261063960648261467a565b5f80611f29565b91925090611fe157503b15155b5f8080611f20565b6001915014611fd9565b9091506020813d602011612017575b816120076020938361467a565b810103126106a55751905f611ec0565b3d9150611ffa565b9092506020813d60201161204b575b8161203b6020938361467a565b810103126106a55751915f611e8d565b3d915061202e565b90506020813d60201161207f575b8161206e6020938361467a565b810103126106a55751611b9c611b8f565b3d9150612061565b8b3b1561127157604051638069218f60e01b815297516001600160a01b0390811660048a01529451909416602488015292511515604487015291516064860152905160848501525160ff1660a48401525160c48301525160e482015281816101048183895af180156104dc57612104575b80808080808080611b4e565b8161210e9161467a565b6110dd57875f6120f8565b909c5060a0813d60a011612198575b8161213560a0938361467a565b810103126112715760806040519161214c83614630565b6121558161492f565b83526121636020820161492f565b60208401526121746040820161492f565b60408401526121856060820161492f565b6060840152015160808201529b5f611b3d565b3d9150612128565b50634e487b7160e01b8f52604160045260248ffd5b8d80fd5b63531fe5d360e11b8352600483fd5b50346104d95760a03660031901126104d9576121e26145da565b6024356121ed6146fc565b6121f5614712565b936084356001600160401b0381116108db57612215903690600401614878565b9361221e614bef565b612226614c27565b845115801561251a575b61250b5761223d856150f7565b9460606122568161224d84614b62565b51015192614b62565b510151515f198101908111610711576001600160801b03916001600160a01b03916040916122849190614b83565b510151169160018060a01b0316931695604051636eb1769f60e11b8152306004820152846024820152602081604481865afa9081156107575784916124d9575b508781018091116107115760405163095ea7b360e01b60208281019182526001600160a01b03881660248401526044830193909352909190859061230b8460648101610294565b83519082875af184513d826124bd575b50501561247f575b50833b156115e25760405190636f965f9f60e11b825285600483015287602483015215156044820152828160648183885af180156106b15790839161246a575b50506040516370a0823160e01b8152306004820152602081602481855afa92831561245e5792612428575b506123e795826040927f8a94678e6e1f4777d9033068292e1d3013d11f2376ee1543b412ca14fbb327fa946123eb575b5082519182526020820152a360015f5160206154945f395f51905f5255604051918291826148f6565b0390f35b835163a9059cbb60e01b6020820152336024820152604481018390526124229161063f82606481015b03601f19810184528361467a565b5f6123be565b9091506020813d602011612456575b816124446020938361467a565b810103126106a55751906123e761238e565b3d9150612437565b604051903d90823e3d90fd5b816124749161467a565b6108db57815f612363565b6124b7906103e960405163095ea7b360e01b6020820152876024820152866044820152604481526124b160648261467a565b8561537d565b5f612323565b9091506124d15750823b15155b5f8061231b565b6001146124ca565b90506020813d602011612503575b816124f46020938361467a565b810103126106a557515f6122c4565b3d91506124e7565b6307af3a6560e21b8252600482fd5b50606061252686614b62565b5101515115612230565b50346104d95760e03660031901126104d95761254a6145da565b906125536145f0565b9061255c6146fc565b91612565614712565b936084356001600160401b03811161127557612585903690600401614878565b9360a4356001600160401b038111610777576125a5903690600401614738565b9560c4356001600160401b038111610786576125c5903690600401614738565b966125ce614bef565b6125d6614c27565b85948060015d604051634eb1c24560e11b81526001600160a01b039190911697909160a0836004818c5afa80156115ff5790602494939291898a948b92612beb575b506001600160a01b03169260209190612630906150f7565b506040516370a0823160e01b815230600482015296879182906001600160a01b03165afa9485156110bd578995612bb7575b506060810151908151612ba2575b50506040516370a0823160e01b815230600482015291602083602481855afa9283156110bd578993612b6d575b5060609060018060a01b03169a015192604051938460608101918d602083015260408083015280518093526080820192602060808260051b8501019201938d905b828210612b06575050506126fb925003601f19810186528561467a565b15612a6257604051636eb1769f60e11b8152306004820152602481018a905290602082604481845afa9182156110bd578992612a2e575b508282018092116110775760405163095ea7b360e01b60208281019182526001600160a01b038d16602484015260448301949094526127d29593946127b69390928d929091908d908890829061279586606481015b03601f19810188528761467a565b85519082865af181513d82612a12575b5050156129d8575b50505050614fc0565b604051639ea1c1c960e01b8152938492839289600485016149c6565b0381898b5af190811561077b5786916129a6575b50945b6040516341a4eb5f60e11b8152600481018790529281846024818c5afa9384156104dc57829461293e575b506060602496979899604051978880926350ef5c3560e01b82528c60048301525afa9586156104dc57829661290f575b506001600160801b0395861695168086116128f857505092604096926128d87f6cc7689f3960393f975bc636577345ee34fd6fd0b516b15c923e7885e518b0989361288f8997614fc0565b936001600160801b036128a18a614fc0565b818d5197889733895260018060a01b03166020890152168d870152166060850152608084015260c060a084015260c08301906145b6565b0390a360015f5160206154945f395f51905f525582519182526020820152f35b6370d1969b60e01b82526004526024859052604490fd5b6001600160801b03919650612933829160603d606011610f1457610f01818361467a565b509050969150612844565b9893503d80838b3e612950818b61467a565b8901986060818b03126115e2576129668161492f565b5061297360208201614998565b506040810151906001600160401b0382116112755760249798999a60609261299b9201614a36565b949998979650612814565b90506020813d6020116129d0575b816129c16020938361467a565b810103126106a557515f6127e6565b3d91506129b4565b612a099361063f916040519163095ea7b360e01b8b840152602483015260448201526044815261063960648261467a565b8a5f808c6127ad565b909150612a265750813b15155b5f806127a5565b600114612a1f565b9091506020813d602011612a5a575b81612a4a6020938361467a565b810103126106a55751905f612732565b3d9150612a3d565b506001600160801b03612a76602092614fc0565b604051634fa05f1d60e01b81523060048201526001600160a01b038816602482015291166044820152608060648201529182908190612ab99060848301906145b6565b0381898b5af190811561077b578691612ad4575b50946127e9565b90506020813d602011612afe575b81612aef6020938361467a565b810103126106a557515f612acd565b3d9150612ae2565b91935091602080612b5d600193607f198d8203018652608060608a51878060a01b038151168452878060a01b03868201511686850152878060a01b03604082015116604085015201519181606082015201906145b6565b96019201920188939194926126de565b9092506020813d602011612b9a575b81612b896020938361467a565b810103126106a5575191606061269d565b3d9150612b7c565b612baf9298505130614d54565b955f80612670565b9094506020813d602011612be3575b81612bd36020938361467a565b810103126106a55751935f612662565b3d9150612bc6565b612630955060209250612c0d915060a03d60a0116108c7576108b5818361467a565b97929193505091959250612618565b50346104d957806003193601126104d9575f5160206154d45f395f51905f52546040516001600160a01b039091168152602090f35b50346104d95760a03660031901126104d957612c6b6145da565b602435612c76614606565b90606435926084356001600160401b03811161078657612c9a9036906004016146b6565b90612ca3614bef565b612cab614c27565b8060015d85805d3360025d84612de5575b6001600160a01b031690813b1561078657604051635c46a7ef60e11b815233600482015230602482015260448101849052608060648201525f60848201528690818160a48183885af180156104dc57612dd0575b50823b156104d957612d4b916040518093819263078ad17360e31b8352876004840152600160248401526060604484015260648301906145b6565b038183865af1801561077b57612dbb575b50604080516001600160a01b0394909416845260208085019590955293945c9384937f052fa76c055abbc7414453965ce61eeb739538b20c9a951cd306a2c4ff0f15349190a460015f5160206154945f395f51905f5255604051908152f35b612dc686809261467a565b610777575f612d5c565b81612dda9161467a565b61078657855f612d10565b6040516323b872dd60e01b6020820152612e0c906124b1816101fe893033602485016149f3565b612cbc565b50346104d957806003193601126104d9576123e7604051612e3360408261467a565b60058152640352e302e360dc1b60208201526040519182916020835260208301906145b6565b50346104d95760203660031901126104d9576004356001600160401b0381116108db57612e8a903690600401614878565b90612e93614bef565b612e9b614c27565b8151158015612ee1575b612ed2576123e7612eb5836150f7565b60015f5160206154945f395f51905f5255604051918291826148f6565b6307af3a6560e21b8152600490fd5b506060612eed83614b62565b5101515115612ea5565b50346104d95760803660031901126104d957612f116145da565b50612f1a6145f0565b506064356001600160401b0381116108db57612f3a9036906004016146b6565b60015c8260015d6001600160a01b0316330361320457805181016040828203126115e257612f6a6020830161492f565b916040810151916001600160401b03831161077757612f90926020809201920101614a7c565b6001600160a01b039182169160249060209081612fac85614b62565b51015116604051928380926370a0823160e01b82523060048301525afa801561075757829085906131ce575b612fe3925030614d54565b5080515f198101919082116107115790612ffc91614b83565b518051613011906001600160a01b031661505c565b60409081015190516370a0823160e01b815230600482015291906001600160a01b0316602083602481845afa92831561075757849361319a575b50604051636eb1769f60e11b81523060048201526024810183905290602082604481845afa9182156107be578592613166575b508382018092116107c95760405163095ea7b360e01b60208281019182526001600160a01b038616602484015260448301949094526123e79691939082906130c98660648101612787565b85519082865af181513d8261314a575b50501561310f575b8585604051906020820152602081526130fb60408261467a565b6040519182916020835260208301906145b6565b6131419361063f916040519163095ea7b360e01b6020840152602483015260448201526044815261063960648261467a565b5f8080806130e1565b90915061315e5750813b15155b5f806130d9565b600114613157565b9091506020813d602011613192575b816131826020938361467a565b810103126106a55751905f61307e565b3d9150613175565b9092506020813d6020116131c6575b816131b66020938361467a565b810103126106a55751915f61304b565b3d91506131a9565b50506020813d6020116131fc575b816131e96020938361467a565b810103126106a55781612fe39151612fd8565b3d91506131dc565b63531fe5d360e11b8252600482fd5b50346104d957806003193601126104d9575f5160206154345f395f51905f52546040516001600160a01b039091168152602090f35b50346104d957806003193601126104d957613261614cb8565b613269614c27565b600160ff195f5160206154745f395f51905f525416175f5160206154745f395f51905f52557f62e78cea01bee320cd4e420270b5ea74000d11b0c9f74754ebdbfc544b05a2586020604051338152a180f35b50346104d957806003193601126104d9575f5160206154d45f395f51905f5254336001600160a01b03909116036132f8576132f533614ff1565b80f35b63118cdaa760e01b815233600452602490fd5b50346104d957806003193601126104d957613324614cb8565b5f5160206154d45f395f51905f5280546001600160a01b03199081169091555f5160206154345f395f51905f528054918216905581906001600160a01b03167f8be0079c531659141344cd1fd0a4f28419497f9722a3daafe3b4186f6b6457e08280a380f35b50346104d95760c03660031901126104d9576133a46145da565b906133ad6145f0565b91604435906133ba614712565b906084359360a435956001600160401b0387116108db5760a06133e260049836908a016146b6565b916133eb614bef565b6133f3614c27565b604051634eb1c24560e11b815298899182905f196001861b01165afa9687156104dc57829083986136a5575b508060015d6001600160a01b031693843b156115e257604051635c46a7ef60e11b815233600482015230602482015260448101879052608060648201525f6084820152838160a481838a5af1801561075757908491613690575b5050843b156115e25760405163078ad17360e31b8152918391839182916134a591908a60048501614c4e565b038183885af180156104dc5790829161367b575b50506040516370a0823160e01b81523060048201526001600160a01b0387169690956020876024818b5afa9687156106b1578397613647575b5080871061362b575060405163a9059cbb60e01b60208201526001600160a01b0384166024820152604481018790528290613534906103e981606481016101fe565b613580575b60208686867f718101be478d80581813738eaca3531ec04da93d42c1e08991964b956f135f2c84604051858152a360015f5160206154945f395f51905f5255604051908152f35b6020602497604051988980926370a0823160e01b82523060048301525afa91821561245e57916135f6575b6020965081156135395760405163a9059cbb60e01b888201526001600160a01b03909316602484015260448301919091526135ee919061063f8260648101612414565b5f8080613539565b90506020863d602011613623575b816136116020938361467a565b810103126106a55760209551906135ab565b3d9150613604565b6319aae4c960e11b835260048890526024526044869052606482fd5b9096506020813d602011613673575b816136636020938361467a565b810103126106a55751955f6134f2565b3d9150613656565b816136859161467a565b6104d957805f6134b9565b8161369a9161467a565b6115e257825f613479565b90506136c191975060a03d60a0116108c7576108b5818361467a565b92509892509750965f61341f565b50346104d957806003193601126104d957602060ff5f5160206154745f395f51905f5254166040519015158152f35b50346104d957806003193601126104d9577f00000000000000000000000000000000000000000000000000000000000000006001600160a01b031630036137565760206040515f5160206154545f395f51905f528152f35b63703e46dd60e11b8152600490fd5b5060403660031901126104d95761377a6145da565b906024356001600160401b0381116108db5761379a9036906004016146b6565b6001600160a01b037f00000000000000000000000000000000000000000000000000000000000000001630811490811561392c575b5061391d576137dc614cb8565b6040516352d1902d60e01b8152926001600160a01b0381169190602085600481865afa809585966138e9575b5061382157634c9c8ce360e01b84526004839052602484fd5b9091845f5160206154545f395f51905f5281036138d75750813b156138c5575f5160206154545f395f51905f5280546001600160a01b031916821790557fbc7cd75a20ee27fd9adebab32041f755214dbc6bffa90cc0225b39da2e5c2d3b8480a281518390156138ab57808360206138a795519101845af46138a1614d25565b916153d5565b5080f35b505050346138b65780f35b63b398979f60e01b8152600490fd5b634c9c8ce360e01b8452600452602483fd5b632a87526960e21b8552600452602484fd5b9095506020813d602011613915575b816139056020938361467a565b810103126107775751945f613808565b3d91506138f8565b63703e46dd60e11b8252600482fd5b5f5160206154545f395f51905f52546001600160a01b0316141590505f6137cf565b50346104d95760a03660031901126104d9576139686145da565b6139706145f0565b9060443590606435936001600160801b03851685036104d9576084356001600160401b0381116108db576139a8903690600401614738565b936139b1614bef565b6139b9614c27565b604051634eb1c24560e11b81526001600160a01b039190911694909160a083600481895afa9283156108ce578182918395613e02575b506040516323b872dd60e01b60208201526001600160a01b03918216959091169190613a28906103e9816101fe8b3033602485016149f3565b604051636eb1769f60e11b81523060048201526001600160a01b0391909116602482018190529190602081604481855afa908115610757578491613dd0575b50878101809111610711576040805163095ea7b360e01b60208281019182526001600160a01b038716602484015260448301949094529a9b613b049b9294909390928790613ab88460648101610294565b83519082865af186513d82613db4575b505015613d7c575b505081519088602083015260208252613ae9838361467a565b8251637a0ee4f960e11b8152998a92839230600485016149c6565b0381858c5af19384156104dc5782978395613d55575b50813b156115e257604051632142170760e11b8152838180613b418c8b30600485016149f3565b038183875af1801561075757908491613d40575b5050613b87613b80606060018060a01b036020880151169601516001600160801b0388168097614d54565b8095614a15565b9081613bc3575b602089808c7fdc3efdf28701077a23ef0beb0f3260ca639658ce2676bbc9d83030fac6ce56128c8c6104a88d6104698e614fc0565b604051636eb1769f60e11b815230600482015260248101849052602081604481855afa9081156107be578591613d0e575b508281018091116107c95760405163095ea7b360e01b60208281019182526001600160a01b03871660248401526044830193909352613c5d949392908790613c3f8460648101610294565b83519082865af186513d82613cf2575b505015613cc0575050614fc0565b90803b156115e2576001600160801b03916064898580946040519687958694636f965f9f60e11b865260048601521660248401528160448401525af180156104dc57613cab575b8080613b8e565b613cb682809261467a565b6104d95780613ca4565b6110549161063f60405163095ea7b360e01b60208201528760248201528860448201526044815261063960648261467a565b909150613d065750813b15155b5f80613c4f565b600114613cff565b90506020813d602011613d38575b81613d296020938361467a565b810103126106a557515f613bf4565b3d9150613d1c565b81613d4a9161467a565b6115e257825f613b55565b909450613d7291975060403d6040116107b7576107a7818361467a565b969096935f613b1a565b613dad9161063f855163095ea7b360e01b60208201528760248201528860448201526044815261063960648261467a565b5f80613ad0565b909150613dc85750813b15155b5f80613ac8565b600114613dc1565b90506020813d602011613dfa575b81613deb6020938361467a565b810103126106a557515f613a67565b3d9150613dde565b915050613e1f91935060a03d60a0116108c7576108b5818361467a565b5094929091505f6139ef565b50346104d95760403660031901126104d957613e456145da565b613e4d6145f0565b5f5160206154b45f395f51905f52549160ff8360401c1615926001600160401b03811680159081613fe5575b6001149081613fdb575b159081613fd2575b50613fc35767ffffffffffffffff1981166001175f5160206154b45f395f51905f525583613f97575b50613ebd615352565b60015f5160206154945f395f51905f5255613ed6615352565b613ede615352565b60ff195f5160206154745f395f51905f5254165f5160206154745f395f51905f5255613f08615352565b6001600160a01b03811615613f835790613f24613f2992614ff1565b614c6c565b613f305780f35b60ff60401b195f5160206154b45f395f51905f5254165f5160206154b45f395f51905f52557fc7f505b2f371ae2175ee4913f4499e1f2633a7b5936321eed1cdaeb6115181d2602060405160018152a180f35b631e4fbdf760e01b84526004849052602484fd5b68ffffffffffffffffff191668010000000000000001175f5160206154b45f395f51905f52555f613eb4565b63f92ee8a960e01b8552600485fd5b9050155f613e8b565b303b159150613e83565b859150613e79565b50346104d95760203660031901126104d9576132f561400a6145da565b613f24614cb8565b50346104d957806003193601126104d95761402b614cb8565b5f5160206154745f395f51905f525460ff8116156140835760ff19165f5160206154745f395f51905f52557f5db9ee0a495bf2e6ff9c91a7834c1ba4fdd244a5e8aa4e537bd38aeae4b073aa6020604051338152a180f35b638dfc202b60e01b8252600482fd5b50346104d95760203660031901126104d95760209060ff906040906001600160a01b036140bd6145da565b1681528084522054166040519015158152f35b50346104d95760203660031901126104d9576140ea6145da565b5f5160206154b45f395f51905f525460ff8160401c1680156141b5575b6141a65768ffffffffffffffffff191668010000000000000002175f5160206154b45f395f51905f52556141539061413d615352565b60015f5160206154945f395f51905f5255614c6c565b60ff60401b195f5160206154b45f395f51905f5254165f5160206154b45f395f51905f52557fc7f505b2f371ae2175ee4913f4499e1f2633a7b5936321eed1cdaeb6115181d2602060405160028152a180f35b63f92ee8a960e01b8352600483fd5b5060026001600160401b0382161015614107565b50346104d95760803660031901126104d9576141e36145da565b506141ec6145f0565b506064356001600160401b0381116108db5761420c9036906004016146b6565b50604051630a85bd0160e11b8152602090f35b50346106a55760a03660031901126106a5576142396145da565b6142416145f0565b6044359060643592608435946001600160401b0386116106a55760a061426c600497369089016146b6565b93614275614bef565b61427d614c27565b604051634eb1c24560e11b815297889182905f196001861b01165afa958615614540575f5f915f9861454b575b508060015d6001600160a01b031693843b156106a557604051635c46a7ef60e11b815233600482015230602482015260448101879052608060648201525f608482018190528160a481838a5af180156145405761452b575b50843b156115e25760405163078ad17360e31b8152600481018790526001602482015260606044820152908390829081906143419060648301906145b6565b038183895af180156106b157908391614516575b50506040516370a0823160e01b8152306004820152956001600160a01b039190911690602087602481855afa9687156106b15783976144e2575b508087106144c7575060405163a9059cbb60e01b60208201526001600160a01b0384166024820152604481018790526143cf9161063f8260648101612414565b6040516370a0823160e01b8152306004820152956020876024816001600160a01b0385165afa91821561245e5791614492575b6020965081614451575b5050507f718101be478d80581813738eaca3531ec04da93d42c1e08991964b956f135f2c84604051858152a360015f5160206154945f395f51905f5255604051908152f35b60405163a9059cbb60e01b888201526001600160a01b039093166024840152604483019190915261448a919061063f8260648101612414565b5f808061440c565b90506020863d6020116144bf575b816144ad6020938361467a565b810103126106a5576020955190614402565b3d91506144a0565b6064935086916319aae4c960e11b8452600452602452604452fd5b9096506020813d60201161450e575b816144fe6020938361467a565b810103126106a55751955f61438f565b3d91506144f1565b816145209161467a565b6108db57815f614355565b6145389193505f9061467a565b5f915f614302565b6040513d5f823e3d90fd5b91505061456891965060a03d60a0116108c7576108b5818361467a565b98935091505f6142aa565b346106a5575f3660031901126106a5576123e760405161459460408261467a565b60058152640322e302e360dc1b60208201526040519182916020835260208301905b805180835260209291819084018484015e5f828201840152601f01601f1916010190565b600435906001600160a01b03821682036106a557565b602435906001600160a01b03821682036106a557565b604435906001600160a01b03821682036106a557565b35906001600160a01b03821682036106a557565b60a081019081106001600160401b0382111761464b57604052565b634e487b7160e01b5f52604160045260245ffd5b608081019081106001600160401b0382111761464b57604052565b90601f801991011681019081106001600160401b0382111761464b57604052565b6001600160401b03811161464b57601f01601f191660200190565b81601f820112156106a5578035906146cd8261469b565b926146db604051948561467a565b828452602083830101116106a557815f926020809301838601378301015290565b604435906001600160801b03821682036106a557565b6064359081151582036106a557565b6001600160401b03811161464b5760051b60200190565b91906080838203126106a5576040516147508161465f565b8093803582526147626020820161461c565b6020830152604081013580151581036106a55760408301526060810135906001600160401b0382116106a557019180601f840112156106a5578235926147a784614721565b936147b5604051958661467a565b80855260208086019160051b830101918383116106a55760208101915b8383106147e457505050505060600152565b82356001600160401b0381116106a5578201906080828703601f1901126106a557604051906148128261465f565b61481e6020840161461c565b825261482c6040840161461c565b602083015261483d6060840161461c565b60408301526080830135916001600160401b0383116106a557614868886020809695819601016146b6565b60608201528152019201916147d2565b9080601f830112156106a557813561488f81614721565b9261489d604051948561467a565b81845260208085019260051b820101918383116106a55760208201905b8382106148c957505050505090565b81356001600160401b0381116106a5576020916148eb87848094880101614738565b8152019101906148ba565b60206040818301928281528451809452019201905f5b8181106149195750505090565b825184526020938401939092019160010161490c565b51906001600160a01b03821682036106a557565b908160a09103126106a5576149578161492f565b916149646020830161492f565b60408301519092906001600160a01b03811681036106a55791614995608061498e6060850161492f565b930161492f565b90565b51906001600160801b03821682036106a557565b91908260409103126106a557614995602083519301614998565b6001600160801b03614995949360609360018060a01b0316835216602082015281604082015201906145b6565b6001600160a01b03918216815291166020820152604081019190915260600190565b91908203918211614a2257565b634e487b7160e01b5f52601160045260245ffd5b81601f820112156106a557805190614a4d8261469b565b92614a5b604051948561467a565b828452602083830101116106a557815f9260208093018386015e8301015290565b9080601f830112156106a557815191614a9483614721565b92614aa2604051948561467a565b80845260208085019160051b830101918383116106a55760208101915b838310614ace57505050505090565b82516001600160401b0381116106a5578201906080828703601f1901126106a55760405190614afc8261465f565b614b086020840161492f565b8252614b166040840161492f565b6020830152614b276060840161492f565b60408301526080830151916001600160401b0383116106a557614b5288602080969581960101614a36565b6060820152815201920191614abf565b805115614b6f5760200190565b634e487b7160e01b5f52603260045260245ffd5b8051821015614b6f5760209160051b010190565b519081151582036106a557565b908160609103126106a557614bb881614b97565b916149956040614bca60208501614998565b9301614998565b8115614bdb570490565b634e487b7160e01b5f52601260045260245ffd5b60025f5160206154945f395f51905f525414614c185760025f5160206154945f395f51905f5255565b633ee5aeb560e01b5f5260045ffd5b60ff5f5160206154745f395f51905f525416614c3f57565b63d93c066560e01b5f5260045ffd5b614995939260609282521515602082015281604082015201906145b6565b600180546001600160a01b0319166001600160a01b0390921691821790556040519081527f7e87735940c58f6d585801d983593d361283c473b943a73bd9f72576c9f1466490602090a1565b5f5160206154345f395f51905f52546001600160a01b03163303614cd857565b63118cdaa760e01b5f523360045260245ffd5b6001600160a01b03918216815291811660208301529091166040820152606081019190915260a060808201819052614995929101906145b6565b3d15614d4f573d90614d368261469b565b91614d44604051938461467a565b82523d5f602084013e565b606090565b90929192835115614fb1575f905b8451821015614fab576001600160a01b036020614d7f8488614b83565b510151166001600160a01b036040614d978589614b83565b5101511614614fa2576001600160a01b03614db28387614b83565b51511615614f4a57614dd76001600160a01b03614dcf8488614b83565b51511661505c565b84515f198101908111614a22575f9182918403614ee157614e526001600160a01b036020614e05878b614b83565b510151166101fe6001600160a01b036040614e20898d614b83565b51015116936060614e31898d614b83565b5101519060405195869463da14526360e01b60208701528b60248701614ceb565b6001600160a01b03614e648589614b83565b515116602082519201905af4614e78614d25565b9015614e9f57602081519181808201938492010103126106a55760019051915b0190614d62565b6001600160a01b03614eb18387614b83565b515116614edd604051928392630de816ad60e31b845260048401526040602484015260448301906145b6565b0390fd5b614f456001600160a01b036020614ef8878b614b83565b510151166101fe6001600160a01b036040614f13898d614b83565b51015116936060614f24898d614b83565b5101519060405195869463da14526360e01b60208701523060248701614ceb565b614e52565b90600190614f9d6001600160a01b036020614f65848a614b83565b51015160405163a9059cbb60e01b60208201526001600160a01b038816602482015260448101879052911661063f8260648101612414565b614e98565b90600190614e98565b93505050565b639f6de0d560e01b5f5260045ffd5b6001600160801b038111614fda576001600160801b031690565b6306dfcc6560e41b5f52608060045260245260445ffd5b5f5160206154d45f395f51905f5280546001600160a01b03199081169091555f5160206154345f395f51905f5280549182166001600160a01b0393841690811790915591167f8be0079c531659141344cd1fd0a4f28419497f9722a3daafe3b4186f6b6457e05f80a3565b600154604051632a3cb9c960e11b81526001600160a01b03928316600482018190525f602483015292909160209183916044918391165afa908115614540575f916150bd575b50156150ab5750565b63616d132960e01b5f5260045260245ffd5b90506020813d6020116150ef575b816150d86020938361467a565b810103126106a5576150e990614b97565b5f6150a2565b3d91506150cb565b9081519161510483614721565b92615112604051948561467a565b808452615121601f1991614721565b013660208501375f5b81518110156152655761513d8183614b83565b516040810151909190156151f65760246060830192602060018060a01b03816151668751614b62565b51015116604051938480926370a0823160e01b82523060048301525afa918215614540575f926151c0575b506020015192516001936151ae92906001600160a01b0316614d54565b6151b88287614b83565b525b0161512a565b9150926020823d82116151ee575b816151db6020938361467a565b810103126106a557905190926001615191565b3d91506151ce565b6152558260606001940161523f612414868060a01b0360206152188551614b62565b5101511661063f85516040519384916323b872dd60e01b60208401523033602485016149f3565b848060a01b036020830151169151905191614d54565b61525f8287614b83565b526151ba565b5050565b519060ff821682036106a557565b91906080838203126106a557604051906152908261465f565b8193805183526152a26020820161492f565b60208401526152b360408201614b97565b60408401526060810151916001600160401b0383116106a5576060926152d99201614a7c565b910152565b80516001600160a01b03908116835260208083015182169084015260408083015182169084015260608083015190911690830152608090810151910152565b9161532c8361012095936152de565b60a08301526001600160a01b031660c082015261010060e082018190525f908201520190565b60ff5f5160206154b45f395f51905f525460401c161561536e57565b631afcd79f60e31b5f5260045ffd5b905f602091828151910182855af115614540575f513d6153cc57506001600160a01b0381163b155b6153ac5750565b635274afe760e01b5f9081526001600160a01b0391909116600452602490fd5b600114156153a5565b906153f957508051156153ea57805190602001fd5b63d6bda27560e01b5f5260045ffd5b8151158061542a575b61540a575090565b639996b31560e01b5f9081526001600160a01b0391909116600452602490fd5b50803b1561540256fe9016d09d72d40fdae2fd8ceac6b6234c7706214fd39c1cd1e609a0528c199300360894a13ba1a3210667c828492db98dca3e2076cc3735a920a3ca505d382bbccd5ed15c6e187e77e9aee88184c21f4f2182ab5827cb3b7e07fbedcd63f033009b779b17422d0df92223018b32b4d1fa46e071723d6817e2486d003becc55f00f0c57e16840df040f15088dc2f81fe391c3923bec73e23a9662efc9c229c6a00237e158222e3e6968b72b9db0d8043aacf074ad9f650f0d1606b4d82ee432c00a26469706673582212206fa842da8d46970af770e6ed4502ac6388045d6e92901f7acfac576d0520051a64736f6c63430008210033","linkReferences":{}},"methodIdentifiers":{"UPGRADE_INTERFACE_VERSION()":"ad3cb1cc","acceptOwnership()":"79ba5097","adapterWhitelist(address)":"2e3e3ef2","borrowTokenFromCollateral(address,address,uint256,uint128,(uint256,address,bool,(address,address,address,bytes)[]))":"4a8f69be","borrowTokenFromCollateralAndXt(address,address,uint256,uint256,bool)":"f9f2b62e","executeOperation(address,address,uint256,bytes)":"99a54a5a","executeOperation(address,uint128,address,bytes,bytes)":"ef8b4968","flashRepayFromColl(address,address,uint256,bool,uint256,bytes)":"6a209b4e","flashRepayToGetCollateral(address,address,uint256,uint256,bytes)":"0f9c48da","getVersion()":"0d8e6e2c","initialize(address,address)":"485cc955","initializeV2(address)":"29b6eca9","leverage(address,address,uint128,bool,(uint256,address,bool,(address,address,address,bytes)[])[],(uint256,address,bool,(address,address,address,bytes)[]),(uint256,address,bool,(address,address,address,bytes)[]))":"e49d66d2","onERC721Received(address,address,uint256,bytes)":"150b7a02","owner()":"8da5cb5b","pause()":"8456cb59","paused()":"5c975abb","pendingOwner()":"e30c3978","proxiableUUID()":"52d1902d","renounceOwnership()":"715018a6","rolloverGt(address,uint256,address,uint256,bytes)":"c471f59b","setWhitelistManager(address)":"41a49409","swapAndRepay(address,uint256,uint128,bool,(uint256,address,bool,(address,address,address,bytes)[])[])":"e818cc6d","swapTokens((uint256,address,bool,(address,address,address,bytes)[])[])":"a3b2baf6","transferOwnership(address)":"f2fde38b","unpause()":"3f4ba83a","upgradeToAndCall(address,bytes)":"4f1ef286"},"id":76}