{"abi":[{"type":"constructor","inputs":[],"stateMutability":"nonpayable"},{"type":"function","name":"addLiquidity","inputs":[{"name":"asset","type":"address","internalType":"contract IERC20"},{"name":"amount","type":"uint256","internalType":"uint256"}],"outputs":[],"stateMutability":"nonpayable"},{"type":"function","name":"apr","inputs":[],"outputs":[{"name":"lendApr_","type":"uint256","internalType":"uint256"},{"name":"borrowApr_","type":"uint256","internalType":"uint256"}],"stateMutability":"view"},{"type":"function","name":"borrowToken","inputs":[{"name":"recipient","type":"address","internalType":"address"},{"name":"amount","type":"uint256","internalType":"uint256"}],"outputs":[],"stateMutability":"nonpayable"},{"type":"function","name":"getRealReserves","inputs":[],"outputs":[{"name":"ftReserve","type":"uint256","internalType":"uint256"},{"name":"xtReserve","type":"uint256","internalType":"uint256"}],"stateMutability":"view"},{"type":"function","name":"initialize","inputs":[{"name":"params","type":"tuple","internalType":"struct OrderInitialParams","components":[{"name":"maker","type":"address","internalType":"address"},{"name":"ft","type":"address","internalType":"contract IERC20"},{"name":"xt","type":"address","internalType":"contract IERC20"},{"name":"debtToken","type":"address","internalType":"contract IERC20"},{"name":"gt","type":"address","internalType":"contract IGearingToken"},{"name":"virtualXtReserve","type":"uint256","internalType":"uint256"},{"name":"pool","type":"address","internalType":"contract IERC4626"},{"name":"maturity","type":"uint64","internalType":"uint64"},{"name":"orderConfig","type":"tuple","internalType":"struct OrderConfig","components":[{"name":"curveCuts","type":"tuple","internalType":"struct CurveCuts","components":[{"name":"lendCurveCuts","type":"tuple[]","internalType":"struct CurveCut[]","components":[{"name":"xtReserve","type":"uint256","internalType":"uint256"},{"name":"liqSquare","type":"uint256","internalType":"uint256"},{"name":"offset","type":"int256","internalType":"int256"}]},{"name":"borrowCurveCuts","type":"tuple[]","internalType":"struct CurveCut[]","components":[{"name":"xtReserve","type":"uint256","internalType":"uint256"},{"name":"liqSquare","type":"uint256","internalType":"uint256"},{"name":"offset","type":"int256","internalType":"int256"}]}]},{"name":"gtId","type":"uint256","internalType":"uint256"},{"name":"maxXtReserve","type":"uint256","internalType":"uint256"},{"name":"swapTrigger","type":"address","internalType":"contract ISwapCallback"},{"name":"feeConfig","type":"tuple","internalType":"struct FeeConfig","components":[{"name":"lendTakerFeeRatio","type":"uint32","internalType":"uint32"},{"name":"lendMakerFeeRatio","type":"uint32","internalType":"uint32"},{"name":"borrowTakerFeeRatio","type":"uint32","internalType":"uint32"},{"name":"borrowMakerFeeRatio","type":"uint32","internalType":"uint32"},{"name":"mintGtFeeRatio","type":"uint32","internalType":"uint32"},{"name":"mintGtFeeRef","type":"uint32","internalType":"uint32"}]}]}]}],"outputs":[],"stateMutability":"nonpayable"},{"type":"function","name":"initialize","inputs":[{"name":"maker_","type":"address","internalType":"address"},{"name":"tokens","type":"address[3]","internalType":"contract IERC20[3]"},{"name":"gt_","type":"address","internalType":"contract IGearingToken"},{"name":"maxXtReserve_","type":"uint256","internalType":"uint256"},{"name":"swapTrigger","type":"address","internalType":"contract ISwapCallback"},{"name":"curveCuts_","type":"tuple","internalType":"struct CurveCuts","components":[{"name":"lendCurveCuts","type":"tuple[]","internalType":"struct CurveCut[]","components":[{"name":"xtReserve","type":"uint256","internalType":"uint256"},{"name":"liqSquare","type":"uint256","internalType":"uint256"},{"name":"offset","type":"int256","internalType":"int256"}]},{"name":"borrowCurveCuts","type":"tuple[]","internalType":"struct CurveCut[]","components":[{"name":"xtReserve","type":"uint256","internalType":"uint256"},{"name":"liqSquare","type":"uint256","internalType":"uint256"},{"name":"offset","type":"int256","internalType":"int256"}]}]},{"name":"marketConfig","type":"tuple","internalType":"struct MarketConfig","components":[{"name":"treasurer","type":"address","internalType":"address"},{"name":"maturity","type":"uint64","internalType":"uint64"},{"name":"feeConfig","type":"tuple","internalType":"struct FeeConfig","components":[{"name":"lendTakerFeeRatio","type":"uint32","internalType":"uint32"},{"name":"lendMakerFeeRatio","type":"uint32","internalType":"uint32"},{"name":"borrowTakerFeeRatio","type":"uint32","internalType":"uint32"},{"name":"borrowMakerFeeRatio","type":"uint32","internalType":"uint32"},{"name":"mintGtFeeRatio","type":"uint32","internalType":"uint32"},{"name":"mintGtFeeRef","type":"uint32","internalType":"uint32"}]}]}],"outputs":[],"stateMutability":"nonpayable"},{"type":"function","name":"maker","inputs":[],"outputs":[{"name":"","type":"address","internalType":"address"}],"stateMutability":"view"},{"type":"function","name":"market","inputs":[],"outputs":[{"name":"","type":"address","internalType":"contract ITermMaxMarket"}],"stateMutability":"view"},{"type":"function","name":"orderConfig","inputs":[],"outputs":[{"name":"","type":"tuple","internalType":"struct OrderConfig","components":[{"name":"curveCuts","type":"tuple","internalType":"struct CurveCuts","components":[{"name":"lendCurveCuts","type":"tuple[]","internalType":"struct CurveCut[]","components":[{"name":"xtReserve","type":"uint256","internalType":"uint256"},{"name":"liqSquare","type":"uint256","internalType":"uint256"},{"name":"offset","type":"int256","internalType":"int256"}]},{"name":"borrowCurveCuts","type":"tuple[]","internalType":"struct CurveCut[]","components":[{"name":"xtReserve","type":"uint256","internalType":"uint256"},{"name":"liqSquare","type":"uint256","internalType":"uint256"},{"name":"offset","type":"int256","internalType":"int256"}]}]},{"name":"gtId","type":"uint256","internalType":"uint256"},{"name":"maxXtReserve","type":"uint256","internalType":"uint256"},{"name":"swapTrigger","type":"address","internalType":"contract ISwapCallback"},{"name":"feeConfig","type":"tuple","internalType":"struct FeeConfig","components":[{"name":"lendTakerFeeRatio","type":"uint32","internalType":"uint32"},{"name":"lendMakerFeeRatio","type":"uint32","internalType":"uint32"},{"name":"borrowTakerFeeRatio","type":"uint32","internalType":"uint32"},{"name":"borrowMakerFeeRatio","type":"uint32","internalType":"uint32"},{"name":"mintGtFeeRatio","type":"uint32","internalType":"uint32"},{"name":"mintGtFeeRef","type":"uint32","internalType":"uint32"}]}]}],"stateMutability":"view"},{"type":"function","name":"owner","inputs":[],"outputs":[{"name":"","type":"address","internalType":"address"}],"stateMutability":"view"},{"type":"function","name":"pause","inputs":[],"outputs":[],"stateMutability":"nonpayable"},{"type":"function","name":"paused","inputs":[],"outputs":[{"name":"","type":"bool","internalType":"bool"}],"stateMutability":"view"},{"type":"function","name":"pool","inputs":[],"outputs":[{"name":"","type":"address","internalType":"contract IERC4626"}],"stateMutability":"view"},{"type":"function","name":"redeemAll","inputs":[{"name":"recipient","type":"address","internalType":"address"}],"outputs":[{"name":"badDebt","type":"uint256","internalType":"uint256"},{"name":"deliveryData","type":"bytes","internalType":"bytes"}],"stateMutability":"nonpayable"},{"type":"function","name":"removeLiquidity","inputs":[{"name":"","type":"address","internalType":"contract IERC20"},{"name":"amount","type":"uint256","internalType":"uint256"},{"name":"recipient","type":"address","internalType":"address"}],"outputs":[],"stateMutability":"nonpayable"},{"type":"function","name":"renounceOwnership","inputs":[],"outputs":[],"stateMutability":"nonpayable"},{"type":"function","name":"setCurveAndPrice","inputs":[{"name":"originalVirtualXtReserve","type":"uint256","internalType":"uint256"},{"name":"virtualXtReserve_","type":"uint256","internalType":"uint256"},{"name":"maxXtReserve_","type":"uint256","internalType":"uint256"},{"name":"newCurveCuts","type":"tuple","internalType":"struct CurveCuts","components":[{"name":"lendCurveCuts","type":"tuple[]","internalType":"struct CurveCut[]","components":[{"name":"xtReserve","type":"uint256","internalType":"uint256"},{"name":"liqSquare","type":"uint256","internalType":"uint256"},{"name":"offset","type":"int256","internalType":"int256"}]},{"name":"borrowCurveCuts","type":"tuple[]","internalType":"struct CurveCut[]","components":[{"name":"xtReserve","type":"uint256","internalType":"uint256"},{"name":"liqSquare","type":"uint256","internalType":"uint256"},{"name":"offset","type":"int256","internalType":"int256"}]}]}],"outputs":[],"stateMutability":"nonpayable"},{"type":"function","name":"setGeneralConfig","inputs":[{"name":"gtId","type":"uint256","internalType":"uint256"},{"name":"swapTrigger","type":"address","internalType":"contract ISwapCallback"}],"outputs":[],"stateMutability":"nonpayable"},{"type":"function","name":"setPool","inputs":[{"name":"newPool","type":"address","internalType":"contract IERC4626"}],"outputs":[],"stateMutability":"nonpayable"},{"type":"function","name":"swapExactTokenToToken","inputs":[{"name":"tokenIn","type":"address","internalType":"contract IERC20"},{"name":"tokenOut","type":"address","internalType":"contract IERC20"},{"name":"recipient","type":"address","internalType":"address"},{"name":"tokenAmtIn","type":"uint128","internalType":"uint128"},{"name":"minTokenOut","type":"uint128","internalType":"uint128"},{"name":"","type":"uint256","internalType":"uint256"}],"outputs":[{"name":"netTokenOut","type":"uint256","internalType":"uint256"}],"stateMutability":"nonpayable"},{"type":"function","name":"swapTokenToExactToken","inputs":[{"name":"tokenIn","type":"address","internalType":"contract IERC20"},{"name":"tokenOut","type":"address","internalType":"contract IERC20"},{"name":"recipient","type":"address","internalType":"address"},{"name":"tokenAmtOut","type":"uint128","internalType":"uint128"},{"name":"maxTokenIn","type":"uint128","internalType":"uint128"},{"name":"","type":"uint256","internalType":"uint256"}],"outputs":[{"name":"netTokenIn","type":"uint256","internalType":"uint256"}],"stateMutability":"nonpayable"},{"type":"function","name":"tokenReserves","inputs":[],"outputs":[{"name":"","type":"uint256","internalType":"uint256"},{"name":"","type":"uint256","internalType":"uint256"}],"stateMutability":"view"},{"type":"function","name":"transferOwnership","inputs":[{"name":"newOwner","type":"address","internalType":"address"}],"outputs":[],"stateMutability":"nonpayable"},{"type":"function","name":"unpause","inputs":[],"outputs":[],"stateMutability":"nonpayable"},{"type":"function","name":"updateFeeConfig","inputs":[{"name":"newFeeConfig","type":"tuple","internalType":"struct FeeConfig","components":[{"name":"lendTakerFeeRatio","type":"uint32","internalType":"uint32"},{"name":"lendMakerFeeRatio","type":"uint32","internalType":"uint32"},{"name":"borrowTakerFeeRatio","type":"uint32","internalType":"uint32"},{"name":"borrowMakerFeeRatio","type":"uint32","internalType":"uint32"},{"name":"mintGtFeeRatio","type":"uint32","internalType":"uint32"},{"name":"mintGtFeeRef","type":"uint32","internalType":"uint32"}]}],"outputs":[],"stateMutability":"nonpayable"},{"type":"function","name":"updateOrder","inputs":[{"name":"newOrderConfig","type":"tuple","internalType":"struct OrderConfig","components":[{"name":"curveCuts","type":"tuple","internalType":"struct CurveCuts","components":[{"name":"lendCurveCuts","type":"tuple[]","internalType":"struct CurveCut[]","components":[{"name":"xtReserve","type":"uint256","internalType":"uint256"},{"name":"liqSquare","type":"uint256","internalType":"uint256"},{"name":"offset","type":"int256","internalType":"int256"}]},{"name":"borrowCurveCuts","type":"tuple[]","internalType":"struct CurveCut[]","components":[{"name":"xtReserve","type":"uint256","internalType":"uint256"},{"name":"liqSquare","type":"uint256","internalType":"uint256"},{"name":"offset","type":"int256","internalType":"int256"}]}]},{"name":"gtId","type":"uint256","internalType":"uint256"},{"name":"maxXtReserve","type":"uint256","internalType":"uint256"},{"name":"swapTrigger","type":"address","internalType":"contract ISwapCallback"},{"name":"feeConfig","type":"tuple","internalType":"struct FeeConfig","components":[{"name":"lendTakerFeeRatio","type":"uint32","internalType":"uint32"},{"name":"lendMakerFeeRatio","type":"uint32","internalType":"uint32"},{"name":"borrowTakerFeeRatio","type":"uint32","internalType":"uint32"},{"name":"borrowMakerFeeRatio","type":"uint32","internalType":"uint32"},{"name":"mintGtFeeRatio","type":"uint32","internalType":"uint32"},{"name":"mintGtFeeRef","type":"uint32","internalType":"uint32"}]}]},{"name":"ftChangeAmt","type":"int256","internalType":"int256"},{"name":"xtChangeAmt","type":"int256","internalType":"int256"}],"outputs":[],"stateMutability":"nonpayable"},{"type":"function","name":"virtualXtReserve","inputs":[],"outputs":[{"name":"","type":"uint256","internalType":"uint256"}],"stateMutability":"view"},{"type":"function","name":"withdrawAllAssetsBeforeMaturity","inputs":[{"name":"recipient","type":"address","internalType":"address"}],"outputs":[{"name":"shares","type":"uint256","internalType":"uint256"},{"name":"ftAmount","type":"uint256","internalType":"uint256"},{"name":"xtAmount","type":"uint256","internalType":"uint256"}],"stateMutability":"nonpayable"},{"type":"function","name":"withdrawAssets","inputs":[{"name":"token","type":"address","internalType":"contract IERC20"},{"name":"recipient","type":"address","internalType":"address"},{"name":"amount","type":"uint256","internalType":"uint256"}],"outputs":[],"stateMutability":"nonpayable"},{"type":"event","name":"Initialized","inputs":[{"name":"version","type":"uint64","indexed":false,"internalType":"uint64"}],"anonymous":false},{"type":"event","name":"MakerOwnershipTransferred","inputs":[{"name":"oldMaker","type":"address","indexed":false,"internalType":"address"},{"name":"newMaker","type":"address","indexed":false,"internalType":"address"}],"anonymous":false},{"type":"event","name":"OrderInitialized","inputs":[{"name":"market","type":"address","indexed":true,"internalType":"contract ITermMaxMarket"},{"name":"maker","type":"address","indexed":true,"internalType":"address"},{"name":"maxXtReserve","type":"uint256","indexed":false,"internalType":"uint256"},{"name":"swapTrigger","type":"address","indexed":false,"internalType":"contract ISwapCallback"},{"name":"curveCuts","type":"tuple","indexed":false,"internalType":"struct CurveCuts","components":[{"name":"lendCurveCuts","type":"tuple[]","internalType":"struct CurveCut[]","components":[{"name":"xtReserve","type":"uint256","internalType":"uint256"},{"name":"liqSquare","type":"uint256","internalType":"uint256"},{"name":"offset","type":"int256","internalType":"int256"}]},{"name":"borrowCurveCuts","type":"tuple[]","internalType":"struct CurveCut[]","components":[{"name":"xtReserve","type":"uint256","internalType":"uint256"},{"name":"liqSquare","type":"uint256","internalType":"uint256"},{"name":"offset","type":"int256","internalType":"int256"}]}]}],"anonymous":false},{"type":"event","name":"OrderInitialized","inputs":[{"name":"maker","type":"address","indexed":true,"internalType":"address"},{"name":"market","type":"address","indexed":true,"internalType":"address"}],"anonymous":false},{"type":"event","name":"OwnershipTransferred","inputs":[{"name":"previousOwner","type":"address","indexed":true,"internalType":"address"},{"name":"newOwner","type":"address","indexed":true,"internalType":"address"}],"anonymous":false},{"type":"event","name":"Paused","inputs":[{"name":"account","type":"address","indexed":false,"internalType":"address"}],"anonymous":false},{"type":"event","name":"Redeemed","inputs":[{"name":"recipient","type":"address","indexed":true,"internalType":"address"},{"name":"debtTokenAmount","type":"uint256","indexed":false,"internalType":"uint256"},{"name":"badDebt","type":"uint256","indexed":false,"internalType":"uint256"},{"name":"deliveryData","type":"bytes","indexed":false,"internalType":"bytes"}],"anonymous":false},{"type":"event","name":"RedeemedAllBeforeMaturity","inputs":[{"name":"recipient","type":"address","indexed":true,"internalType":"address"},{"name":"debtTokenAmount","type":"uint256","indexed":false,"internalType":"uint256"},{"name":"ftAmount","type":"uint256","indexed":false,"internalType":"uint256"},{"name":"xtAmount","type":"uint256","indexed":false,"internalType":"uint256"}],"anonymous":false},{"type":"event","name":"SwapExactTokenToToken","inputs":[{"name":"tokenIn","type":"address","indexed":true,"internalType":"contract IERC20"},{"name":"tokenOut","type":"address","indexed":true,"internalType":"contract IERC20"},{"name":"caller","type":"address","indexed":false,"internalType":"address"},{"name":"recipient","type":"address","indexed":false,"internalType":"address"},{"name":"tokenAmtIn","type":"uint128","indexed":false,"internalType":"uint128"},{"name":"netTokenOut","type":"uint128","indexed":false,"internalType":"uint128"},{"name":"feeAmt","type":"uint128","indexed":false,"internalType":"uint128"}],"anonymous":false},{"type":"event","name":"SwapTokenToExactToken","inputs":[{"name":"tokenIn","type":"address","indexed":true,"internalType":"contract IERC20"},{"name":"tokenOut","type":"address","indexed":true,"internalType":"contract IERC20"},{"name":"caller","type":"address","indexed":false,"internalType":"address"},{"name":"recipient","type":"address","indexed":false,"internalType":"address"},{"name":"tokenAmtOut","type":"uint128","indexed":false,"internalType":"uint128"},{"name":"netTokenIn","type":"uint128","indexed":false,"internalType":"uint128"},{"name":"feeAmt","type":"uint128","indexed":false,"internalType":"uint128"}],"anonymous":false},{"type":"event","name":"Unpaused","inputs":[{"name":"account","type":"address","indexed":false,"internalType":"address"}],"anonymous":false},{"type":"event","name":"UpdateFeeConfig","inputs":[{"name":"feeConfig","type":"tuple","indexed":false,"internalType":"struct FeeConfig","components":[{"name":"lendTakerFeeRatio","type":"uint32","internalType":"uint32"},{"name":"lendMakerFeeRatio","type":"uint32","internalType":"uint32"},{"name":"borrowTakerFeeRatio","type":"uint32","internalType":"uint32"},{"name":"borrowMakerFeeRatio","type":"uint32","internalType":"uint32"},{"name":"mintGtFeeRatio","type":"uint32","internalType":"uint32"},{"name":"mintGtFeeRef","type":"uint32","internalType":"uint32"}]}],"anonymous":false},{"type":"event","name":"UpdateOrder","inputs":[{"name":"curveCuts","type":"tuple","indexed":false,"internalType":"struct CurveCuts","components":[{"name":"lendCurveCuts","type":"tuple[]","internalType":"struct CurveCut[]","components":[{"name":"xtReserve","type":"uint256","internalType":"uint256"},{"name":"liqSquare","type":"uint256","internalType":"uint256"},{"name":"offset","type":"int256","internalType":"int256"}]},{"name":"borrowCurveCuts","type":"tuple[]","internalType":"struct CurveCut[]","components":[{"name":"xtReserve","type":"uint256","internalType":"uint256"},{"name":"liqSquare","type":"uint256","internalType":"uint256"},{"name":"offset","type":"int256","internalType":"int256"}]}]},{"name":"ftChangeAmt","type":"int256","indexed":false,"internalType":"int256"},{"name":"xtChangeAmt","type":"int256","indexed":false,"internalType":"int256"},{"name":"gtId","type":"uint256","indexed":false,"internalType":"uint256"},{"name":"maxXtReserve","type":"uint256","indexed":false,"internalType":"uint256"},{"name":"swapTrigger","type":"address","indexed":false,"internalType":"contract ISwapCallback"}],"anonymous":false},{"type":"event","name":"WithdrawAssets","inputs":[{"name":"token","type":"address","indexed":true,"internalType":"contract IERC20"},{"name":"caller","type":"address","indexed":true,"internalType":"address"},{"name":"recipient","type":"address","indexed":true,"internalType":"address"},{"name":"amount","type":"uint256","indexed":false,"internalType":"uint256"}],"anonymous":false},{"type":"error","name":"BorrowIsNotAllowed","inputs":[]},{"type":"error","name":"CanNotRedeemBeforeFinalLiquidationDeadline","inputs":[{"name":"liquidationDeadline","type":"uint256","internalType":"uint256"}]},{"type":"error","name":"CanNotTransferUintMax","inputs":[]},{"type":"error","name":"CantNotIssueFtWithoutGt","inputs":[]},{"type":"error","name":"CantNotSwapToken","inputs":[{"name":"tokenIn","type":"address","internalType":"contract IERC20"},{"name":"tokenOut","type":"address","internalType":"contract IERC20"}]},{"type":"error","name":"CantSwapSameToken","inputs":[]},{"type":"error","name":"DeadlineExpired","inputs":[]},{"type":"error","name":"EnforcedPause","inputs":[]},{"type":"error","name":"EvacuationIsActived","inputs":[]},{"type":"error","name":"EvacuationIsNotActived","inputs":[]},{"type":"error","name":"ExpectedPause","inputs":[]},{"type":"error","name":"GtNotApproved","inputs":[{"name":"gtId","type":"uint256","internalType":"uint256"}]},{"type":"error","name":"InvalidCurveCuts","inputs":[]},{"type":"error","name":"InvalidInitialization","inputs":[]},{"type":"error","name":"LendIsNotAllowed","inputs":[]},{"type":"error","name":"NotEnoughFtOrXtToWithdraw","inputs":[]},{"type":"error","name":"NotInitializing","inputs":[]},{"type":"error","name":"OnlyMarket","inputs":[]},{"type":"error","name":"OwnableInvalidOwner","inputs":[{"name":"owner","type":"address","internalType":"address"}]},{"type":"error","name":"OwnableUnauthorizedAccount","inputs":[{"name":"account","type":"address","internalType":"address"}]},{"type":"error","name":"ReentrancyGuardReentrantCall","inputs":[]},{"type":"error","name":"SafeCastOverflowedIntToUint","inputs":[{"name":"value","type":"int256","internalType":"int256"}]},{"type":"error","name":"SafeCastOverflowedUintDowncast","inputs":[{"name":"bits","type":"uint8","internalType":"uint8"},{"name":"value","type":"uint256","internalType":"uint256"}]},{"type":"error","name":"SafeCastOverflowedUintToInt","inputs":[{"name":"value","type":"uint256","internalType":"uint256"}]},{"type":"error","name":"SafeERC20FailedOperation","inputs":[{"name":"token","type":"address","internalType":"address"}]},{"type":"error","name":"TermIsNotOpen","inputs":[]},{"type":"error","name":"UnexpectedAmount","inputs":[{"name":"expectedAmt","type":"uint256","internalType":"uint256"},{"name":"actualAmt","type":"uint256","internalType":"uint256"}]},{"type":"error","name":"XtReserveTooHigh","inputs":[]}],"bytecode":{"object":"0x6080806040523460aa575f5160206137715f395f51905f525460ff8160401c16609b576002600160401b03196001600160401b038216016049575b6040516136c290816100af8239f35b6001600160401b0319166001600160401b039081175f5160206137715f395f51905f525581527fc7f505b2f371ae2175ee4913f4499e1f2633a7b5936321eed1cdaeb6115181d290602090a15f80603a565b63f92ee8a960e01b5f5260045ffd5b5f80fdfe6080806040526004361015610012575f80fd5b5f905f3560e01c90816307e470f31461299b5750806316f0115b146129815780633f4ba83a146129035780634437152a146128ea57806347fdbc8e146128505780634aba348f146123a15780634bad95101461229757806350655d8c1461226e578063556eb40f14611e8d5780635668870014611df157806357ded9c914611be257806359fbf526146117675780635a91b39c146117285780635c975abb146116f9578063604df3f3146116df578063715018a6146116765780637bd58ea91461157357806380f556051461154c5780638456cb59146114d95780638da5cb5b146114a4578063ab0a2c361461146f578063b53f9bff146112e0578063be399be514610fe0578063be4319b914610e64578063d5501b0b14610e43578063f119bef314610c9a578063f13de924146106df578063f2fde38b146106b25763f4c6787e1461015d575f80fd5b346106af5761016b36612c87565b5091610175613473565b61017d6134ab565b6001600160401b03600b5460a01c164210156106a0576001600160a01b03848116949086169384861461069157600354889190829081906001600160a01b0316888114808061067d575b1561058a57505050506101f36101ee6001600160801b036101e884896130ad565b166134d2565b612ee5565b6102056001600160801b0383166134d2565b905b6009546001600160a01b03169081610416575b5050506001600160801b0381169761023489303384613230565b60035489906001600160a01b03168814610386575b50506003546001600160a01b0316871491506103049050575b906102e86020976102a08594846001600160801b037f48054139172b057097b1c514c1e58472e50cc4e9f779f0447d95c62b30403df89816916131a7565b6102a9886134f5565b604080513381526001600160a01b0390951660208601526001600160801b039586169085015284166060840152909216608082015290819060a0820190565b0390a360015f51602061364d5f395f51905f5255604051908152f35b86546001600160a01b0316803b1561038257604051633dae446f60e21b8152306004820181905260248201526001600160801b03851660448201529088908290606490829084905af180156103775761035e575b50610262565b610369888092612a73565b610373575f610358565b8680fd5b6040513d8a823e3d90fd5b8780fd5b835461039d926001600160a01b03909116906132a4565b81546001600160a01b0316803b15610412576040516340c10f1960e01b81523060048201526001600160801b0392909216602483015282908290604490829084905af18015610407576103f2575b8088610249565b816103fc91612a73565b61037357865f6103eb565b6040513d84823e3d90fd5b8280fd5b6001546040516370a0823160e01b81523060048201529290602090849060249082906001600160a01b03165afa92831561057f578693610548575b506002546040516370a0823160e01b815230600482015290602090829060249082906001600160a01b03165afa90811561053d578791610504575b50813b1561037357604051636d1f912560e11b815260048101949094526024840152604483019190915260648201929092529083908290608490829084905af19081156104f95783916104e0575b8061021a565b816104ea91612a73565b6104f557815f6104da565b5080fd5b6040513d85823e3d90fd5b9650506020863d602011610535575b8161052060209383612a73565b81010312610531578c95515f61048c565b5f80fd5b3d9150610513565b6040513d89823e3d90fd5b955091506020853d602011610577575b8161056560209383612a73565b81010312610531578b9451915f610451565b3d9150610558565b6040513d88823e3d90fd5b80610669575b156105c9575050506105aa6001600160801b0382166134d2565b6105c26101ee6001600160801b036101e8858a6130ad565b905b610207565b6001546001600160a01b0316891480610660575b1561060f575050506105fa6001600160801b036101e887846130ad565b6105c26101ee6001600160801b0388166134d2565b6002546001600160a01b031689149081610656575b50156105c45750506106416101ee6001600160801b0387166134d2565b6105c26001600160801b036101e888856130ad565b905089145f610624565b50808a146105dd565b506002546001600160a01b03168a14610590565b506001546001600160a01b03168b146101c7565b63062bc18360e51b8852600488fd5b630cf6cf4760e01b8652600486fd5b80fd5b50346106af5760203660031901126106af576106dc6106cf6129b3565b6106d7613158565b6130e7565b80f35b50346106af576102003660031901126106af576106fa6129b3565b9036604312156106af576040519161071183612a58565b8236608411610412576024905b60848210610c825750506084356001600160a01b03811693908490036104125760a43560c4356001600160a01b03811690819003610c7e5760e4356001600160401b038111610c7a57610775903690600401612b36565b9161010036610103190112610c7a576040519661079188612a58565b610104356001600160a01b038116810361038257885261012435946001600160401b0386168603610382576020890195865260c03661014319011261038257604051986107dd8a612a3d565b6101443563ffffffff81168103610c76578a526101643563ffffffff81168103610c765760208b01526101843563ffffffff81168103610c765760408b01526101a43563ffffffff81168103610c765760608b01526101c43563ffffffff81168103610c765760808b01526101e43563ffffffff81168103610c76579060409160a08c0152019889525f51602061366d5f395f51905f52549660ff8860401c1615976001600160401b03811680159081610c6e575b6001149081610c64575b159081610c5b575b50610c4c5767ffffffffffffffff1981166001175f51602061366d5f395f51905f525588610c20575b506108d6613526565b6108de613526565b6108e7816130e7565b6108ef613526565b6108f7613526565b60015f51602061364d5f395f51905f5255610910613526565b610918613526565b60ff195f51602061362d5f395f51905f5254165f51602061362d5f395f51905f5255336001600160601b0360a01b8a541617895560018060a01b031695866001600160601b0360a01b600b541617600b558551602081519161097983612e07565b0160058b525f5160206135cd5f395f51905f528b915b838310610bf6575050505060208601519960208b519b6109ae8d612e76565b60068c525f51602061360d5f395f51905f529c918c91015b828210610bca575050507f5b98838f82c5c1c4450b26a178139efd0d7de9255ccf83ba4d2ccec8023ead80969798999a505163ffffffff81511690600a549167ffffffff00000000602083015160201b169263ffffffff60401b604084015160401b1663ffffffff60601b606085015160601b169263ffffffff60801b608086015160801b169460a063ffffffff811b91015160a01b169563ffffffff60a01b199363ffffffff60801b199263ffffffff60601b19916001600160601b031916171617161716171717600a5583600855846001600160601b0360a01b600954161760095551600b54906001600160401b0360a01b9060a01b16906001600160401b0360a01b191617600b5560018060a01b038151166001600160601b0360a01b600154161760015560018060a01b036020820151166001600160601b0360a01b6002541617600255604060018060a01b03910151166001600160601b0360a01b60035416176003556001600160601b0360a01b6004541617600455610b6d60018060a01b038854169460405193849384526020840152606060408401526060830190612d6c565b0390a3610b775780f35b60ff60401b195f51602061366d5f395f51905f5254165f51602061366d5f395f51905f52557fc7f505b2f371ae2175ee4913f4499e1f2633a7b5936321eed1cdaeb6115181d2602060405160018152a180f35b600360208f926001936002604083518051845585810151888501550151910155019e019101909c6109c6565b6003602082604060019451805187558381015186880155015160028601550192019201919061098f565b68ffffffffffffffffff191668010000000000000001175f51602061366d5f395f51905f52555f6108cd565b63f92ee8a960e01b8a5260048afd5b9050155f6108a4565b303b15915061089c565b8a9150610892565b8980fd5b8580fd5b8480fd5b60208091610c8f846129c9565b81520191019061071e565b50346106af5760203660031901126106af57610cb46129b3565b90610cbd613473565b610cc5613158565b6001546002546040516370a0823160e01b81523060048201526001600160a01b0391821692909116602082602481845afa918215610df3578492610e0f575b50818581610dfe575b50506040516370a0823160e01b8152306004820152949050602085602481865afa928315610df3578493610dbe575b60609550838281610dad575b5050507fb5bc2699e393dc5e7873095d3f997a8c077efdb0897378be06169578bde28298856040519286845284602085015285604085015260018060a01b031692a260015f51602061364d5f395f51905f525560405192835260208301526040820152f35b610db6926131a7565b5f8382610d48565b92506020853d602011610deb575b81610dd960209383612a73565b81010312610531576060945192610d3c565b3d9150610dcc565b6040513d86823e3d90fd5b610e07926131a7565b5f8185610d0d565b9091506020813d602011610e3b575b81610e2b60209383612a73565b810103126105315751905f610d04565b3d9150610e1e565b50346106af57806003193601126106af576040908151908082526020820152f35b50346106af57806003193601126106af57610fb590604051610e8581612a22565b604051610e91816129f3565b60608152606060208201528152816020820152816040820152816060820152608060405191610ebf83612a3d565b83835283602084015283604084015283606084015283828401528360a0840152015260405190610eee82612a22565b50604051610efb816129f3565b610f056005612feb565b8152610f116006612feb565b6020820152815260075460208201908152610fdc6008546040840190815260018060a01b03600954166060850190815260405191610f4e83612a3d565b63ffffffff600a548181168552818160201c166020860152818160401c166040860152818160601c166060860152818160801c16608086015260a01c1660a08401526080860192835260405196879660208852516101406020890152610160880190612d6c565b94516040870152516060860152516001600160a01b031660808501525160a0840190612d99565b0390f35b50346106af5760203660031901126106af57602481610ffd6129b3565b611005613473565b61100d613158565b6001546040516370a0823160e01b81523060048201529360209185919082906001600160a01b03165afa9283156104075782936112a9575b508154604051633def417960e11b8152600481018590526001600160a01b0392831660248201819052909390929091849160449183918591165af1928315610df357849285946111fc575b508261109b916130cd565b91600554856005558061119e575b5060065494806006558561113f575b90817f2f1ead687f88051b385d58986748ace72880f298dec383297d6d895d00a2deb6925080600755806008558060095580600a5550604051908152836020820152606060408201528061110f6060820187612cfd565b0390a260015f51602061364d5f395f51905f5255610fdc6040519283928352604060208401526040830190612cfd565b8560030295600387040361118a57600681525f51602061360d5f395f51905f5295815b8181106111705750506110b8565b808360026003938b01828155826001820155015501611162565b634e487b7160e01b81526011600452602490fd5b806003029060038204036111e857600586525f5160206135cd5f395f51905f52865b8281106111ce5750506110a9565b8088600260039385018281558260018201550155016111c0565b634e487b7160e01b86526011600452602486fd5b925092503d8085843e61120f8184612a73565b820191604081840312610c7e578051906020810151906001600160401b03821161037357019083601f83011215610c7a578151916001600160401b0383116112955786906040519561126b6020601f19601f8801160188612a73565b848752602085830101116104f5578361109b9460208093018389015e860101528093949150611090565b634e487b7160e01b87526041600452602487fd5b915091506020813d6020116112d8575b816112c660209383612a73565b8101031261053157829051915f611045565b3d91506112b9565b50346106af5760c03660031901126106af576040516112fe81612a3d565b60043563ffffffff8116810361041257815260243563ffffffff8116810361041257602082019081526044359063ffffffff8216820361146b57604083019182526064359063ffffffff82168203610c7e57606084019182526084359063ffffffff82168203610c7a576080850191825260a4359263ffffffff841684036103735760a0860193845286546001600160a01b0316330361145c579185939160c0959363ffffffff7f380e4a7367ce93b474e0a521c489bd5f6b992d0880e49e9de71cce9741e66c3598511663ffffffff60401b67ffffffff00000000600a54945160201b16965160401b169163ffffffff60601b905160601b169363ffffffff60801b905160801b169463ffffffff60a01b905160a01b169563ffffffff60a01b199363ffffffff60801b199263ffffffff60601b19916001600160601b031916171617161716171717600a556114586040518092612d99565ba180f35b639e0125a960e01b8752600487fd5b8380fd5b50346106af5760803660031901126106af576064356001600160401b0381116104f5576114a0903690600401612b36565b5080f35b50346106af57806003193601126106af575f5160206135ed5f395f51905f52546040516001600160a01b039091168152602090f35b50346106af57806003193601126106af576114f2613158565b6114fa6134ab565b600160ff195f51602061362d5f395f51905f525416175f51602061362d5f395f51905f52557f62e78cea01bee320cd4e420270b5ea74000d11b0c9f74754ebdbfc544b05a2586020604051338152a180f35b50346106af57806003193601126106af57546040516001600160a01b039091168152602090f35b50346106af5760603660031901126106af5761158d6129b3565b6115956129dd565b604435906115a1613158565b6003546001600160a01b0384811694918491849116860361166857505084548591506001600160a01b0316803b156104f557604051633dae446f60e21b81523060048201526001600160a01b0384166024820152604481018590529082908290606490829084905af1801561040757611653575b50505b6040519182526001600160a01b03169133917f9bdcd4ac2980b31e1432dec749a61e528e22be62f85d228386ce6a3fb4c3ed7290602090a480f35b8161165d91612a73565b61146b57835f611615565b611671926131a7565b611618565b50346106af57806003193601126106af5761168f613158565b5f5160206135ed5f395f51905f5280546001600160a01b0319811690915581906001600160a01b03167f8be0079c531659141344cd1fd0a4f28419497f9722a3daafe3b4186f6b6457e08280a380f35b50346106af5760403660031901126106af576114a06129dd565b50346106af57806003193601126106af57602060ff5f51602061362d5f395f51905f5254166040519015158152f35b50346106af5760403660031901126106af576117426129b3565b5061174b613473565b611753613158565b60015f51602061364d5f395f51905f525580f35b50346106af5761177636612c87565b5092611783949294613473565b61178b6134ab565b6001600160401b03600b5460a01c164210156106a0576001600160a01b038181169490841693848614610691576003548890819081906001600160a01b03168881148080611bce575b15611adb57505050506117f56101ee6001600160801b036101e888876130ad565b6118076001600160801b0387166134d2565b905b6009546001600160a01b03169081611987575b505050506001600160801b03841661183681303385613230565b6003546001600160a01b0316861461190c575b50506003546001600160a01b0316851461189d575b6102e86020976102a07fafc472950ba0847ac0541a7d71ad9977d695e4dba0cc223dba88d5fa8609732a95946001600160801b038a9516998a916131a7565b86546001600160a01b0316803b1561038257604051633dae446f60e21b8152306004820181905260248201526001600160801b03831660448201529088908290606490829084905af18015610377576118f7575b5061185e565b611902888092612a73565b610373575f6118f1565b8854611923926001600160a01b03909116906132a4565b865487906001600160a01b0316803b156104f5576040516340c10f1960e01b81523060048201526001600160801b03861660248201529082908290604490829084905af180156104075715611849578161197c91612a73565b61037357865f611849565b6001546040516370a0823160e01b81523060048201529290602090849060249082906001600160a01b03165afa928315611ad0578593611a99575b506002546040516370a0823160e01b815230600482015290602090829060249082906001600160a01b03165afa90811561057f578691611a64575b50813b15610c7a57604051636d1f912560e11b815260048101949094526024840152604483019190915260648201929092529082908290608490829084905af1801561040757611a4f575b808061181c565b81611a5991612a73565b61038257875f611a48565b9550506020853d602011611a91575b81611a8060209383612a73565b81010312610531578c94515f6119fd565b3d9150611a73565b945091506020843d602011611ac8575b81611ab660209383612a73565b81010312610531578b9351915f6119c2565b3d9150611aa9565b6040513d87823e3d90fd5b80611bba575b15611b1a57505050611afb6001600160801b0386166134d2565b611b136101ee6001600160801b036101e889886130ad565b905b611809565b6001546001600160a01b0316891480611bb1575b15611b6057505050611b4b6001600160801b036101e885886130ad565b611b136101ee6001600160801b0386166134d2565b6002546001600160a01b031689149081611ba7575b5015611b15575050611b926101ee6001600160801b0385166134d2565b611b136001600160801b036101e886896130ad565b905089145f611b75565b50808a14611b2e565b506002546001600160a01b03168a14611ae1565b506001546001600160a01b03168b146117d4565b50346106af57806003193601126106af57611c0c6001600160401b03600b5460a01c1642906130cd565b62015180810190818111611ddd576201517f01908111611d60576002546040516370a0823160e01b8152306004820152620151809092049290602090839060249082906001600160a01b03165afa918215611dd0578192611d9c575b5060405191611c76836129f3565b611c7e612ef5565b8352611cb081611ca9611c8f612f70565b9560208101968752611ca2838251613404565b905161307b565b518661342a565b9091506305f5e1008102908082046305f5e1001481151715611d885764087f91cd00029080820461016d1490151715611d7457611cfd86611cf8611d109594611d099461308f565b612de0565b94611ca2838251613404565b518561342a565b9150916305f5e1008202918083046305f5e1001481151715611d605764087f91cd00029180830461016d149015171561118a575092611cf8611d549260409561308f565b82519182526020820152f35b634e487b7160e01b82526011600452602482fd5b634e487b7160e01b84526011600452602484fd5b634e487b7160e01b85526011600452602485fd5b9091506020813d602011611dc8575b81611db860209383612a73565b810103126105315751905f611c68565b3d9150611dab565b50604051903d90823e3d90fd5b634e487b7160e01b83526011600452602483fd5b50346106af5760403660031901126106af5780611e0c6129b3565b611e316024358092611e2082303384613230565b84546001600160a01b0316906132a4565b81546001600160a01b0316803b15611e89576040516340c10f1960e01b8152306004820152602481019290925282908290604490829084905af1801561040757611e785750f35b81611e8291612a73565b6106af5780f35b5050fd5b50346106af5760603660031901126106af576004356001600160401b0381116104f557611ebe903690600401612ba6565b906024359160443590611ecf613158565b8051604051602081019060208252611efc81611eee6040820186612d6c565b03601f198101835282612a73565b519020604051611f0b816129f3565b611f13612ef5565b8152611f1d612f70565b6020820152604051611f3f81611eee6020820194602086526040830190612d6c565b51902003612087575b50908361200892847f6fb23a79fb0a4eb8dbc4a1bbc16f49acbfb52513c853daf0d1caaf7b86c9c93d9596135f1461205e57600154611f9d906001600160a01b0316611f938461318b565b9030903390613230565b8583131561202857600254611fbe906001600160a01b0316611f938561318b565b60408101518060085560208201518060075560018060a01b0360608401511692836001600160601b0360a01b6009541617600955519460405196879660c0885260c0880190612d6c565b94602087015260408601526060850152608084015260a08301520390a180f35b85831215611fbe57600254612059906001600160a01b031661205161204c86612ee5565b61318b565b9033906131a7565b611fbe565b85821215611f9d57600154612082906001600160a01b031661205161204c85612ee5565b611f9d565b91908251805161224a575b5060015b835180518210156120f857816120ab9161307b565b515184515f198301908382116120e457906120c59161307b565b515110156120d557600101612096565b632fb66ac560e11b8552600485fd5b634e487b7160e01b88526011600452602488fd5b5050939190602082019283518051612235575b5060015b8451805182101561217157816121249161307b565b515185515f1983019083821161215d579061213e9161307b565b5151101561214e5760010161210f565b632fb66ac560e11b8652600486fd5b634e487b7160e01b89526011600452602489fd5b5050929093949151602081519161218783612e07565b01600587525f5160206135cd5f395f51905f5287915b83831061220b57505050505160208151916121b783612e76565b6006875286915f51602061360d5f395f51905f5291015b8383106121e15750505093929193611f48565b600360208260406001945180518755838101518688015501516002860155019201920191906121ce565b6003602082604060019451805187558381015186880155015160028601550192019201919061219d565b61223e9061305a565b51516120d5575f61210b565b6122539061305a565b515161225f575f612092565b632fb66ac560e11b8452600484fd5b50346106af57806003193601126106af57600b546040516001600160a01b039091168152602090f35b50346106af57806003193601126106af576001546040516370a0823160e01b81523060048201529190602090839060249082906001600160a01b03165afa90811561236057809161236c575b6002546040516370a0823160e01b81523060048201529350602090849060249082906001600160a01b03165afa908115612360579061232d575b6040809350519182526020820152f35b506020823d602011612358575b8161234760209383612a73565b81010312610531576040915161231d565b3d915061233a565b604051903d90823e3d90fd5b90506020823d602011612399575b8161238760209383612a73565b810103126105315760249151906122e3565b3d915061237a565b50346106af5760203660031901126106af576004356001600160401b0381116104f55761012060031982360301126104f55760405161012081018181106001600160401b0382111761283c576040526123fc826004016129c9565b815261240a602483016129c9565b6020820190815261241d604484016129c9565b60408301908152612430606485016129c9565b60608401908152612443608486016129c9565b916080850192835260a486013560a086015261246160c487016129c9565b60c086015260e4860135956001600160401b03871687036103825760e08601968752610104810135906001600160401b0382116128385760046124a79236920101612ba6565b9361010086019485525f51602061366d5f395f51905f52549660ff8860401c1615976001600160401b03811680159081612830575b6001149081612826575b15908161281d575b50610c4c5767ffffffffffffffff1981166001175f51602061366d5f395f51905f5255886127f1575b50865161252f906001600160a01b03166106d7613526565b612537613526565b60015f51602061364d5f395f51905f5255612550613526565b5f51602061362d5f395f51905f52805460ff1916905588546001600160a01b031990811633178a559051600b805467ffffffffffffffff60a01b191660a09290921b67ffffffffffffffff60a01b1691909117905590516001805483166001600160a01b03928316179055915160028054831691841691909117905591516003805484169183169190911790559151600480549092169216919091179055518051805180519060209061260283612e07565b01600587525f5160206135cd5f395f51905f5287915b8383106127c7575050505060200151602081519161263583612e76565b6006875286915f51602061360d5f395f51905f5291015b83831061279d57505050602080830151600755604080840151600855606080850151600980546001600160a01b0319166001600160a01b039283161790556080958601518051600a8054838801518488015185880151868d015160a0978801516001600160c01b031990951663ffffffff979097169690961792909a1b67ffffffff00000000169190911790881b63ffffffff60401b16179790951b63ffffffff60601b1696909617971b63ffffffff60801b16969096179190951b63ffffffff60a01b161790915592519251939233921690507f5d5233c9f661df85e3b99502226cee2a749189baf89e7eefbe7745ffca7d4a768580a361274c575080f35b60207fc7f505b2f371ae2175ee4913f4499e1f2633a7b5936321eed1cdaeb6115181d29160ff60401b195f51602061366d5f395f51905f5254165f51602061366d5f395f51905f525560018152a180f35b6003602082604060019451805187558381015186880155015160028601550192019201919061264c565b60036020826040600194518051875583810151868801550151600286015501920192019190612618565b68ffffffffffffffffff191668010000000000000001175f51602061366d5f395f51905f52555f612517565b9050155f6124ee565b303b1591506124e6565b8a91506124dc565b8880fd5b634e487b7160e01b84526041600452602484fd5b50346105315760603660031901126105315761286a6129b3565b506044356001600160a01b0381168103610531575f546001600160a01b0316803b1561053157604051632770a7eb60e21b81526001600160a01b0392909216600483015260248035908301525f908290604490829084905af180156128df576128d1575080f35b6128dd91505f90612a73565b005b6040513d5f823e3d90fd5b34610531576020366003190112610531576128dd6129b3565b34610531575f3660031901126105315761291b613158565b5f51602061362d5f395f51905f525460ff8116156129725760ff19165f51602061362d5f395f51905f52557f5db9ee0a495bf2e6ff9c91a7834c1ba4fdd244a5e8aa4e537bd38aeae4b073aa6020604051338152a1005b638dfc202b60e01b5f5260045ffd5b34610531575f3660031901126105315760206040515f8152f35b34610531575f36600319011261053157805f60209252f35b600435906001600160a01b038216820361053157565b35906001600160a01b038216820361053157565b602435906001600160a01b038216820361053157565b604081019081106001600160401b03821117612a0e57604052565b634e487b7160e01b5f52604160045260245ffd5b60a081019081106001600160401b03821117612a0e57604052565b60c081019081106001600160401b03821117612a0e57604052565b606081019081106001600160401b03821117612a0e57604052565b90601f801991011681019081106001600160401b03821117612a0e57604052565b6001600160401b038111612a0e5760051b60200190565b81601f8201121561053157803590612ac282612a94565b92612ad06040519485612a73565b8284526020606081860194028301019181831161053157602001925b828410612afa575050505090565b606084830312610531576020606091604051612b1581612a58565b86358152828701358382015260408701356040820152815201930192612aec565b91906040838203126105315760405190612b4f826129f3565b819380356001600160401b0381116105315782612b6d918301612aab565b83526020810135916001600160401b03831161053157602092612b909201612aab565b910152565b359063ffffffff8216820361053157565b808203929161014084126105315760405190612bc182612a22565b819483356001600160401b0381116105315760c092612be1918601612b36565b83526020840135602084015260408401356040840152612c03606085016129c9565b6060840152607f19011261053157608090612c7e61012060405194612c2786612a3d565b612c32858201612b95565b8652612c4060a08201612b95565b6020870152612c5160c08201612b95565b6040870152612c6260e08201612b95565b6060870152612c746101008201612b95565b8587015201612b95565b60a08401520152565b60c0906003190112610531576004356001600160a01b038116810361053157906024356001600160a01b038116810361053157906044356001600160a01b038116810361053157906064356001600160801b038116810361053157906084356001600160801b0381168103610531579060a43590565b805180835260209291819084018484015e5f828201840152601f01601f1916010190565b90602080835192838152019201905f5b818110612d3e5750505090565b9091926020606060019260408751805183528481015185840152015160408201520194019101919091612d31565b612d96916020612d858351604084526040840190612d21565b920151906020818403910152612d21565b90565b63ffffffff60a08092828151168552826020820151166020860152826040820151166040860152826060820151166060860152826080820151166080860152015116910152565b81810292918115918404141715612df357565b634e487b7160e01b5f52601160045260245ffd5b600160401b8111612a0e576005549080600555818110612e25575050565b81600302916003830403612df35780600302906003820403612df35760055f528060205f20019103905f5b828110612e5c57505050565b805f60026003938501828155826001820155015501612e50565b600160401b8111612a0e576006549080600655818110612e94575050565b81600302916003830403612df35780600302906003820403612df35760065f528060205f20019103905f5b828110612ecb57505050565b805f60026003938501828155826001820155015501612ebf565b600160ff1b8114612df3575f0390565b60055490612f0282612a94565b91612f106040519384612a73565b80835260055f9081525f5160206135cd5f395f51905f52602085015b838310612f395750505050565b60036020600192604051612f4c81612a58565b85548152848601548382015260028601546040820152815201920192019190612f2c565b60065490612f7d82612a94565b91612f8b6040519384612a73565b80835260065f9081525f51602061360d5f395f51905f52602085015b838310612fb45750505050565b60036020600192604051612fc781612a58565b85548152848601548382015260028601546040820152815201920192019190612fa7565b908154612ff781612a94565b926130056040519485612a73565b81845260208401905f5260205f205f915b8383106130235750505050565b6003602060019260405161303681612a58565b85548152848601548382015260028601546040820152815201920192019190613016565b8051156130675760200190565b634e487b7160e01b5f52603260045260245ffd5b80518210156130675760209160051b010190565b8115613099570490565b634e487b7160e01b5f52601260045260245ffd5b906001600160801b03809116911603906001600160801b038211612df357565b91908203918211612df357565b91908201809211612df357565b6001600160a01b03168015613145575f5160206135ed5f395f51905f5280546001600160a01b0319811683179091556001600160a01b03167f8be0079c531659141344cd1fd0a4f28419497f9722a3daafe3b4186f6b6457e05f80a3565b631e4fbdf760e01b5f525f60045260245ffd5b5f5160206135ed5f395f51905f52546001600160a01b0316330361317857565b63118cdaa760e01b5f523360045260245ffd5b5f81126131955790565b635467221960e11b5f5260045260245ffd5b9091905f198214613221576001600160a01b03831630148015613219575b6132145760405163a9059cbb60e01b60208201526001600160a01b0390931660248401526044830191909152613212919061320d82606481015b03601f198101845283612a73565b613574565b565b505050565b5081156131c5565b630d550c3b60e11b5f5260045ffd5b90925f198114613221576001600160a01b0384811690841614801561329c575b613296576040516323b872dd60e01b60208201526001600160a01b03948516602482015292909316604483015260648201929092526132129161320d82608481016131ff565b50505050565b508015613250565b821580156133f2575b61321457604051636eb1769f60e11b81523060048201526001600160a01b03838116602483018190529490831691602081604481865afa9081156128df575f916133be575b5061333a946133486133076020945f946130da565b60405163095ea7b360e01b8682019081526001600160a01b03909416602482015260448101919091529687906064820190565b03601f198101885287612a73565b85519082865af1903d5f51908361339f575b5050501561336757505050565b61320d613212936040519063095ea7b360e01b602083015260248201525f604482015260448152613399606482612a73565b82613574565b919250906133b457503b15155b5f808061335a565b60019150146133ac565b90506020813d6020116133ea575b816133d960209383612a73565b81010312610531575161333a6132f2565b3d91506133cc565b506001600160a01b03821630146132ad565b919082515b8015613425575f190161341c818561307b565b51518210613409575b925050565b61343b909391936020850151612de0565b6305f5e10090818102918183041490151715612df35761346c64087f91cd00612d9692049360408596015190613551565b809361308f565b60025f51602061364d5f395f51905f52541461349c5760025f51602061364d5f395f51905f5255565b633ee5aeb560e01b5f5260045ffd5b60ff5f51602061362d5f395f51905f5254166134c357565b63d93c066560e01b5f5260045ffd5b6001600160ff1b0381116134e35790565b63123baf0360e11b5f5260045260245ffd5b6001600160801b03811161350f576001600160801b031690565b6306dfcc6560e41b5f52608060045260245260445ffd5b60ff5f51602061366d5f395f51905f525460401c161561354257565b631afcd79f60e31b5f5260045ffd5b5f82126135625790612d96916130da565b61356e612d9692612ee5565b906130cd565b905f602091828151910182855af1156128df575f513d6135c357506001600160a01b0381163b155b6135a35750565b635274afe760e01b5f9081526001600160a01b0391909116600452602490fd5b6001141561359c56fe036b6384b5eca791c62761152d0c79bb0604c104a5fb6f4eb0703f3154bb3db09016d09d72d40fdae2fd8ceac6b6234c7706214fd39c1cd1e609a0528c199300f652222313e28459528d920b65115c16c04f3efc82aaedc97be59f3f377c0d3fcd5ed15c6e187e77e9aee88184c21f4f2182ab5827cb3b7e07fbedcd63f033009b779b17422d0df92223018b32b4d1fa46e071723d6817e2486d003becc55f00f0c57e16840df040f15088dc2f81fe391c3923bec73e23a9662efc9c229c6a00a26469706673582212206be80eca975da9a37bfa7c27ac33ec392f7b286975defdefa88aef13f39eeda964736f6c63430008210033f0c57e16840df040f15088dc2f81fe391c3923bec73e23a9662efc9c229c6a00","linkReferences":{}},"methodIdentifiers":{"addLiquidity(address,uint256)":"56688700","apr()":"57ded9c9","borrowToken(address,uint256)":"5a91b39c","getRealReserves()":"d5501b0b","initialize((address,address,address,address,address,uint256,address,uint64,(((uint256,uint256,int256)[],(uint256,uint256,int256)[]),uint256,uint256,address,(uint32,uint32,uint32,uint32,uint32,uint32))))":"4aba348f","initialize(address,address[3],address,uint256,address,((uint256,uint256,int256)[],(uint256,uint256,int256)[]),(address,uint64,(uint32,uint32,uint32,uint32,uint32,uint32)))":"f13de924","maker()":"50655d8c","market()":"80f55605","orderConfig()":"be4319b9","owner()":"8da5cb5b","pause()":"8456cb59","paused()":"5c975abb","pool()":"16f0115b","redeemAll(address)":"be399be5","removeLiquidity(address,uint256,address)":"47fdbc8e","renounceOwnership()":"715018a6","setCurveAndPrice(uint256,uint256,uint256,((uint256,uint256,int256)[],(uint256,uint256,int256)[]))":"ab0a2c36","setGeneralConfig(uint256,address)":"604df3f3","setPool(address)":"4437152a","swapExactTokenToToken(address,address,address,uint128,uint128,uint256)":"59fbf526","swapTokenToExactToken(address,address,address,uint128,uint128,uint256)":"f4c6787e","tokenReserves()":"4bad9510","transferOwnership(address)":"f2fde38b","unpause()":"3f4ba83a","updateFeeConfig((uint32,uint32,uint32,uint32,uint32,uint32))":"b53f9bff","updateOrder((((uint256,uint256,int256)[],(uint256,uint256,int256)[]),uint256,uint256,address,(uint32,uint32,uint32,uint32,uint32,uint32)),int256,int256)":"556eb40f","virtualXtReserve()":"07e470f3","withdrawAllAssetsBeforeMaturity(address)":"f119bef3","withdrawAssets(address,address,uint256)":"7bd58ea9"},"id":79}