{"abi":[{"type":"constructor","inputs":[{"name":"ORDER_MANAGER_SINGLETON_","type":"address","internalType":"address"}],"stateMutability":"nonpayable"},{"type":"function","name":"ORDER_MANAGER_SINGLETON","inputs":[],"outputs":[{"name":"","type":"address","internalType":"address"}],"stateMutability":"view"},{"type":"function","name":"acceptGuardian","inputs":[],"outputs":[],"stateMutability":"nonpayable"},{"type":"function","name":"acceptMarket","inputs":[{"name":"market","type":"address","internalType":"address"}],"outputs":[],"stateMutability":"nonpayable"},{"type":"function","name":"acceptOwnership","inputs":[],"outputs":[],"stateMutability":"nonpayable"},{"type":"function","name":"acceptPendingMinApy","inputs":[],"outputs":[],"stateMutability":"nonpayable"},{"type":"function","name":"acceptPerformanceFeeRate","inputs":[],"outputs":[],"stateMutability":"nonpayable"},{"type":"function","name":"acceptPool","inputs":[],"outputs":[],"stateMutability":"nonpayable"},{"type":"function","name":"acceptTimelock","inputs":[],"outputs":[],"stateMutability":"nonpayable"},{"type":"function","name":"accretingPrincipal","inputs":[],"outputs":[{"name":"","type":"uint256","internalType":"uint256"}],"stateMutability":"view"},{"type":"function","name":"afterSwap","inputs":[{"name":"ftReserve","type":"uint256","internalType":"uint256"},{"name":"xtReserve","type":"uint256","internalType":"uint256"},{"name":"deltaFt","type":"int256","internalType":"int256"},{"name":"deltaXt","type":"int256","internalType":"int256"}],"outputs":[],"stateMutability":"nonpayable"},{"type":"function","name":"allowance","inputs":[{"name":"owner","type":"address","internalType":"address"},{"name":"spender","type":"address","internalType":"address"}],"outputs":[{"name":"","type":"uint256","internalType":"uint256"}],"stateMutability":"view"},{"type":"function","name":"annualizedInterest","inputs":[],"outputs":[{"name":"","type":"uint256","internalType":"uint256"}],"stateMutability":"view"},{"type":"function","name":"approve","inputs":[{"name":"spender","type":"address","internalType":"address"},{"name":"value","type":"uint256","internalType":"uint256"}],"outputs":[{"name":"","type":"bool","internalType":"bool"}],"stateMutability":"nonpayable"},{"type":"function","name":"apr","inputs":[],"outputs":[{"name":"","type":"uint256","internalType":"uint256"}],"stateMutability":"view"},{"type":"function","name":"apy","inputs":[],"outputs":[{"name":"","type":"uint256","internalType":"uint256"}],"stateMutability":"view"},{"type":"function","name":"asset","inputs":[],"outputs":[{"name":"","type":"address","internalType":"address"}],"stateMutability":"view"},{"type":"function","name":"badDebtMapping","inputs":[{"name":"collateral","type":"address","internalType":"address"}],"outputs":[{"name":"","type":"uint256","internalType":"uint256"}],"stateMutability":"view"},{"type":"function","name":"balanceOf","inputs":[{"name":"account","type":"address","internalType":"address"}],"outputs":[{"name":"","type":"uint256","internalType":"uint256"}],"stateMutability":"view"},{"type":"function","name":"convertToAssets","inputs":[{"name":"shares","type":"uint256","internalType":"uint256"}],"outputs":[{"name":"","type":"uint256","internalType":"uint256"}],"stateMutability":"view"},{"type":"function","name":"convertToShares","inputs":[{"name":"assets","type":"uint256","internalType":"uint256"}],"outputs":[{"name":"","type":"uint256","internalType":"uint256"}],"stateMutability":"view"},{"type":"function","name":"createOrder","inputs":[{"name":"market","type":"address","internalType":"contract ITermMaxMarketV2"},{"name":"params","type":"tuple","internalType":"struct OrderV2ConfigurationParams","components":[{"name":"originalVirtualXtReserve","type":"uint256","internalType":"uint256"},{"name":"virtualXtReserve","type":"uint256","internalType":"uint256"},{"name":"maxXtReserve","type":"uint256","internalType":"uint256"},{"name":"curveCuts","type":"tuple","internalType":"struct CurveCuts","components":[{"name":"lendCurveCuts","type":"tuple[]","internalType":"struct CurveCut[]","components":[{"name":"xtReserve","type":"uint256","internalType":"uint256"},{"name":"liqSquare","type":"uint256","internalType":"uint256"},{"name":"offset","type":"int256","internalType":"int256"}]},{"name":"borrowCurveCuts","type":"tuple[]","internalType":"struct CurveCut[]","components":[{"name":"xtReserve","type":"uint256","internalType":"uint256"},{"name":"liqSquare","type":"uint256","internalType":"uint256"},{"name":"offset","type":"int256","internalType":"int256"}]}]}]}],"outputs":[{"name":"order","type":"address","internalType":"contract ITermMaxOrderV2"}],"stateMutability":"nonpayable"},{"type":"function","name":"curator","inputs":[],"outputs":[{"name":"","type":"address","internalType":"address"}],"stateMutability":"view"},{"type":"function","name":"dealBadDebt","inputs":[{"name":"collateral","type":"address","internalType":"address"},{"name":"badDebtAmt","type":"uint256","internalType":"uint256"},{"name":"recipient","type":"address","internalType":"address"},{"name":"owner","type":"address","internalType":"address"}],"outputs":[{"name":"shares","type":"uint256","internalType":"uint256"},{"name":"collateralOut","type":"uint256","internalType":"uint256"}],"stateMutability":"nonpayable"},{"type":"function","name":"decimals","inputs":[],"outputs":[{"name":"","type":"uint8","internalType":"uint8"}],"stateMutability":"view"},{"type":"function","name":"deposit","inputs":[{"name":"assets","type":"uint256","internalType":"uint256"},{"name":"receiver","type":"address","internalType":"address"}],"outputs":[{"name":"","type":"uint256","internalType":"uint256"}],"stateMutability":"nonpayable"},{"type":"function","name":"getVersion","inputs":[],"outputs":[{"name":"","type":"string","internalType":"string"}],"stateMutability":"pure"},{"type":"function","name":"guardian","inputs":[],"outputs":[{"name":"","type":"address","internalType":"address"}],"stateMutability":"view"},{"type":"function","name":"initialize","inputs":[{"name":"","type":"tuple","internalType":"struct VaultInitialParams","components":[{"name":"admin","type":"address","internalType":"address"},{"name":"curator","type":"address","internalType":"address"},{"name":"timelock","type":"uint256","internalType":"uint256"},{"name":"asset","type":"address","internalType":"contract IERC20"},{"name":"maxCapacity","type":"uint256","internalType":"uint256"},{"name":"name","type":"string","internalType":"string"},{"name":"symbol","type":"string","internalType":"string"},{"name":"performanceFeeRate","type":"uint64","internalType":"uint64"}]}],"outputs":[],"stateMutability":"nonpayable"},{"type":"function","name":"initialize","inputs":[{"name":"params","type":"tuple","internalType":"struct VaultInitialParamsV2","components":[{"name":"admin","type":"address","internalType":"address"},{"name":"curator","type":"address","internalType":"address"},{"name":"guardian","type":"address","internalType":"address"},{"name":"timelock","type":"uint256","internalType":"uint256"},{"name":"asset","type":"address","internalType":"contract IERC20"},{"name":"pool","type":"address","internalType":"contract IERC4626"},{"name":"maxCapacity","type":"uint256","internalType":"uint256"},{"name":"name","type":"string","internalType":"string"},{"name":"symbol","type":"string","internalType":"string"},{"name":"performanceFeeRate","type":"uint64","internalType":"uint64"},{"name":"minApy","type":"uint64","internalType":"uint64"}]}],"outputs":[],"stateMutability":"nonpayable"},{"type":"function","name":"marketWhitelist","inputs":[{"name":"market","type":"address","internalType":"address"}],"outputs":[{"name":"","type":"bool","internalType":"bool"}],"stateMutability":"view"},{"type":"function","name":"maxDeposit","inputs":[{"name":"","type":"address","internalType":"address"}],"outputs":[{"name":"","type":"uint256","internalType":"uint256"}],"stateMutability":"view"},{"type":"function","name":"maxMint","inputs":[{"name":"","type":"address","internalType":"address"}],"outputs":[{"name":"","type":"uint256","internalType":"uint256"}],"stateMutability":"view"},{"type":"function","name":"maxRedeem","inputs":[{"name":"owner","type":"address","internalType":"address"}],"outputs":[{"name":"","type":"uint256","internalType":"uint256"}],"stateMutability":"view"},{"type":"function","name":"maxWithdraw","inputs":[{"name":"owner","type":"address","internalType":"address"}],"outputs":[{"name":"","type":"uint256","internalType":"uint256"}],"stateMutability":"view"},{"type":"function","name":"minApy","inputs":[],"outputs":[{"name":"","type":"uint64","internalType":"uint64"}],"stateMutability":"view"},{"type":"function","name":"mint","inputs":[{"name":"shares","type":"uint256","internalType":"uint256"},{"name":"receiver","type":"address","internalType":"address"}],"outputs":[{"name":"","type":"uint256","internalType":"uint256"}],"stateMutability":"nonpayable"},{"type":"function","name":"name","inputs":[],"outputs":[{"name":"","type":"string","internalType":"string"}],"stateMutability":"view"},{"type":"function","name":"orderMaturity","inputs":[{"name":"order","type":"address","internalType":"address"}],"outputs":[{"name":"","type":"uint256","internalType":"uint256"}],"stateMutability":"view"},{"type":"function","name":"owner","inputs":[],"outputs":[{"name":"","type":"address","internalType":"address"}],"stateMutability":"view"},{"type":"function","name":"pause","inputs":[],"outputs":[],"stateMutability":"nonpayable"},{"type":"function","name":"paused","inputs":[],"outputs":[{"name":"","type":"bool","internalType":"bool"}],"stateMutability":"view"},{"type":"function","name":"pendingGuardian","inputs":[],"outputs":[{"name":"","type":"tuple","internalType":"struct PendingAddress","components":[{"name":"value","type":"address","internalType":"address"},{"name":"validAt","type":"uint64","internalType":"uint64"}]}],"stateMutability":"view"},{"type":"function","name":"pendingMarkets","inputs":[{"name":"market","type":"address","internalType":"address"}],"outputs":[{"name":"","type":"tuple","internalType":"struct PendingUint192","components":[{"name":"value","type":"uint192","internalType":"uint192"},{"name":"validAt","type":"uint64","internalType":"uint64"}]}],"stateMutability":"view"},{"type":"function","name":"pendingMinApy","inputs":[],"outputs":[{"name":"","type":"tuple","internalType":"struct PendingUint192","components":[{"name":"value","type":"uint192","internalType":"uint192"},{"name":"validAt","type":"uint64","internalType":"uint64"}]}],"stateMutability":"view"},{"type":"function","name":"pendingOwner","inputs":[],"outputs":[{"name":"","type":"address","internalType":"address"}],"stateMutability":"view"},{"type":"function","name":"pendingPerformanceFeeRate","inputs":[],"outputs":[{"name":"","type":"tuple","internalType":"struct PendingUint192","components":[{"name":"value","type":"uint192","internalType":"uint192"},{"name":"validAt","type":"uint64","internalType":"uint64"}]}],"stateMutability":"view"},{"type":"function","name":"pendingPool","inputs":[],"outputs":[{"name":"","type":"tuple","internalType":"struct PendingAddress","components":[{"name":"value","type":"address","internalType":"address"},{"name":"validAt","type":"uint64","internalType":"uint64"}]}],"stateMutability":"view"},{"type":"function","name":"pendingTimelock","inputs":[],"outputs":[{"name":"","type":"tuple","internalType":"struct PendingUint192","components":[{"name":"value","type":"uint192","internalType":"uint192"},{"name":"validAt","type":"uint64","internalType":"uint64"}]}],"stateMutability":"view"},{"type":"function","name":"performanceFee","inputs":[],"outputs":[{"name":"","type":"uint256","internalType":"uint256"}],"stateMutability":"view"},{"type":"function","name":"performanceFeeRate","inputs":[],"outputs":[{"name":"","type":"uint64","internalType":"uint64"}],"stateMutability":"view"},{"type":"function","name":"pool","inputs":[],"outputs":[{"name":"","type":"address","internalType":"contract IERC4626"}],"stateMutability":"view"},{"type":"function","name":"previewDeposit","inputs":[{"name":"assets","type":"uint256","internalType":"uint256"}],"outputs":[{"name":"","type":"uint256","internalType":"uint256"}],"stateMutability":"view"},{"type":"function","name":"previewMint","inputs":[{"name":"shares","type":"uint256","internalType":"uint256"}],"outputs":[{"name":"","type":"uint256","internalType":"uint256"}],"stateMutability":"view"},{"type":"function","name":"previewRedeem","inputs":[{"name":"shares","type":"uint256","internalType":"uint256"}],"outputs":[{"name":"","type":"uint256","internalType":"uint256"}],"stateMutability":"view"},{"type":"function","name":"previewWithdraw","inputs":[{"name":"assets","type":"uint256","internalType":"uint256"}],"outputs":[{"name":"","type":"uint256","internalType":"uint256"}],"stateMutability":"view"},{"type":"function","name":"redeem","inputs":[{"name":"shares","type":"uint256","internalType":"uint256"},{"name":"receiver","type":"address","internalType":"address"},{"name":"owner","type":"address","internalType":"address"}],"outputs":[{"name":"","type":"uint256","internalType":"uint256"}],"stateMutability":"nonpayable"},{"type":"function","name":"redeemOrder","inputs":[{"name":"order","type":"address","internalType":"contract ITermMaxOrderV2"}],"outputs":[{"name":"badDebt","type":"uint256","internalType":"uint256"},{"name":"deliveryCollateral","type":"uint256","internalType":"uint256"}],"stateMutability":"nonpayable"},{"type":"function","name":"removeLiquidityFromOrders","inputs":[{"name":"orders","type":"address[]","internalType":"address[]"},{"name":"removedLiquidities","type":"uint256[]","internalType":"uint256[]"}],"outputs":[],"stateMutability":"nonpayable"},{"type":"function","name":"renounceOwnership","inputs":[],"outputs":[],"stateMutability":"nonpayable"},{"type":"function","name":"revokePendingGuardian","inputs":[],"outputs":[],"stateMutability":"nonpayable"},{"type":"function","name":"revokePendingMarket","inputs":[{"name":"market","type":"address","internalType":"address"}],"outputs":[],"stateMutability":"nonpayable"},{"type":"function","name":"revokePendingMinApy","inputs":[],"outputs":[],"stateMutability":"nonpayable"},{"type":"function","name":"revokePendingPerformanceFeeRate","inputs":[],"outputs":[],"stateMutability":"nonpayable"},{"type":"function","name":"revokePendingPool","inputs":[],"outputs":[],"stateMutability":"nonpayable"},{"type":"function","name":"revokePendingTimelock","inputs":[],"outputs":[],"stateMutability":"nonpayable"},{"type":"function","name":"setCapacity","inputs":[{"name":"newCapacity","type":"uint256","internalType":"uint256"}],"outputs":[],"stateMutability":"nonpayable"},{"type":"function","name":"setCurator","inputs":[{"name":"newCurator","type":"address","internalType":"address"}],"outputs":[],"stateMutability":"nonpayable"},{"type":"function","name":"submitGuardian","inputs":[{"name":"newGuardian","type":"address","internalType":"address"}],"outputs":[],"stateMutability":"nonpayable"},{"type":"function","name":"submitMarket","inputs":[{"name":"market","type":"address","internalType":"address"},{"name":"isWhitelisted","type":"bool","internalType":"bool"}],"outputs":[],"stateMutability":"nonpayable"},{"type":"function","name":"submitPendingMinApy","inputs":[{"name":"newMinApy","type":"uint64","internalType":"uint64"}],"outputs":[],"stateMutability":"nonpayable"},{"type":"function","name":"submitPendingPool","inputs":[{"name":"pool_","type":"address","internalType":"address"}],"outputs":[],"stateMutability":"nonpayable"},{"type":"function","name":"submitPerformanceFeeRate","inputs":[{"name":"newPerformanceFeeRate","type":"uint184","internalType":"uint184"}],"outputs":[],"stateMutability":"nonpayable"},{"type":"function","name":"submitTimelock","inputs":[{"name":"newTimelock","type":"uint256","internalType":"uint256"}],"outputs":[],"stateMutability":"nonpayable"},{"type":"function","name":"supplyQueue","inputs":[{"name":"","type":"uint256","internalType":"uint256"}],"outputs":[{"name":"","type":"address","internalType":"address"}],"stateMutability":"view"},{"type":"function","name":"supplyQueueLength","inputs":[],"outputs":[{"name":"","type":"uint256","internalType":"uint256"}],"stateMutability":"view"},{"type":"function","name":"symbol","inputs":[],"outputs":[{"name":"","type":"string","internalType":"string"}],"stateMutability":"view"},{"type":"function","name":"timelock","inputs":[],"outputs":[{"name":"","type":"uint256","internalType":"uint256"}],"stateMutability":"view"},{"type":"function","name":"totalAssets","inputs":[],"outputs":[{"name":"","type":"uint256","internalType":"uint256"}],"stateMutability":"view"},{"type":"function","name":"totalFt","inputs":[],"outputs":[{"name":"","type":"uint256","internalType":"uint256"}],"stateMutability":"view"},{"type":"function","name":"totalSupply","inputs":[],"outputs":[{"name":"","type":"uint256","internalType":"uint256"}],"stateMutability":"view"},{"type":"function","name":"transfer","inputs":[{"name":"to","type":"address","internalType":"address"},{"name":"value","type":"uint256","internalType":"uint256"}],"outputs":[{"name":"","type":"bool","internalType":"bool"}],"stateMutability":"nonpayable"},{"type":"function","name":"transferFrom","inputs":[{"name":"from","type":"address","internalType":"address"},{"name":"to","type":"address","internalType":"address"},{"name":"value","type":"uint256","internalType":"uint256"}],"outputs":[{"name":"","type":"bool","internalType":"bool"}],"stateMutability":"nonpayable"},{"type":"function","name":"transferOwnership","inputs":[{"name":"newOwner","type":"address","internalType":"address"}],"outputs":[],"stateMutability":"nonpayable"},{"type":"function","name":"unpause","inputs":[],"outputs":[],"stateMutability":"nonpayable"},{"type":"function","name":"updateOrdersConfiguration","inputs":[{"name":"orders","type":"address[]","internalType":"address[]"},{"name":"orderConfigs","type":"tuple[]","internalType":"struct OrderV2ConfigurationParams[]","components":[{"name":"originalVirtualXtReserve","type":"uint256","internalType":"uint256"},{"name":"virtualXtReserve","type":"uint256","internalType":"uint256"},{"name":"maxXtReserve","type":"uint256","internalType":"uint256"},{"name":"curveCuts","type":"tuple","internalType":"struct CurveCuts","components":[{"name":"lendCurveCuts","type":"tuple[]","internalType":"struct CurveCut[]","components":[{"name":"xtReserve","type":"uint256","internalType":"uint256"},{"name":"liqSquare","type":"uint256","internalType":"uint256"},{"name":"offset","type":"int256","internalType":"int256"}]},{"name":"borrowCurveCuts","type":"tuple[]","internalType":"struct CurveCut[]","components":[{"name":"xtReserve","type":"uint256","internalType":"uint256"},{"name":"liqSquare","type":"uint256","internalType":"uint256"},{"name":"offset","type":"int256","internalType":"int256"}]}]}]}],"outputs":[],"stateMutability":"nonpayable"},{"type":"function","name":"withdraw","inputs":[{"name":"assets","type":"uint256","internalType":"uint256"},{"name":"receiver","type":"address","internalType":"address"},{"name":"owner","type":"address","internalType":"address"}],"outputs":[{"name":"","type":"uint256","internalType":"uint256"}],"stateMutability":"nonpayable"},{"type":"function","name":"withdrawFts","inputs":[{"name":"order","type":"address","internalType":"address"},{"name":"amount","type":"uint256","internalType":"uint256"},{"name":"recipient","type":"address","internalType":"address"},{"name":"owner","type":"address","internalType":"address"}],"outputs":[{"name":"shares","type":"uint256","internalType":"uint256"}],"stateMutability":"nonpayable"},{"type":"function","name":"withdrawPerformanceFee","inputs":[{"name":"recipient","type":"address","internalType":"address"},{"name":"amount","type":"uint256","internalType":"uint256"}],"outputs":[],"stateMutability":"nonpayable"},{"type":"function","name":"withdrawQueue","inputs":[{"name":"","type":"uint256","internalType":"uint256"}],"outputs":[{"name":"","type":"address","internalType":"address"}],"stateMutability":"view"},{"type":"function","name":"withdrawQueueLength","inputs":[],"outputs":[{"name":"","type":"uint256","internalType":"uint256"}],"stateMutability":"view"},{"type":"event","name":"Approval","inputs":[{"name":"owner","type":"address","indexed":true,"internalType":"address"},{"name":"spender","type":"address","indexed":true,"internalType":"address"},{"name":"value","type":"uint256","indexed":false,"internalType":"uint256"}],"anonymous":false},{"type":"event","name":"DealBadDebt","inputs":[{"name":"caller","type":"address","indexed":true,"internalType":"address"},{"name":"recipient","type":"address","indexed":true,"internalType":"address"},{"name":"collateral","type":"address","indexed":true,"internalType":"address"},{"name":"badDebt","type":"uint256","indexed":false,"internalType":"uint256"},{"name":"shares","type":"uint256","indexed":false,"internalType":"uint256"},{"name":"collateralOut","type":"uint256","indexed":false,"internalType":"uint256"}],"anonymous":false},{"type":"event","name":"Deposit","inputs":[{"name":"sender","type":"address","indexed":true,"internalType":"address"},{"name":"owner","type":"address","indexed":true,"internalType":"address"},{"name":"assets","type":"uint256","indexed":false,"internalType":"uint256"},{"name":"shares","type":"uint256","indexed":false,"internalType":"uint256"}],"anonymous":false},{"type":"event","name":"Initialized","inputs":[{"name":"version","type":"uint64","indexed":false,"internalType":"uint64"}],"anonymous":false},{"type":"event","name":"OwnershipTransferStarted","inputs":[{"name":"previousOwner","type":"address","indexed":true,"internalType":"address"},{"name":"newOwner","type":"address","indexed":true,"internalType":"address"}],"anonymous":false},{"type":"event","name":"OwnershipTransferred","inputs":[{"name":"previousOwner","type":"address","indexed":true,"internalType":"address"},{"name":"newOwner","type":"address","indexed":true,"internalType":"address"}],"anonymous":false},{"type":"event","name":"Paused","inputs":[{"name":"account","type":"address","indexed":false,"internalType":"address"}],"anonymous":false},{"type":"event","name":"RevokePendingGuardian","inputs":[{"name":"caller","type":"address","indexed":true,"internalType":"address"}],"anonymous":false},{"type":"event","name":"RevokePendingMarket","inputs":[{"name":"caller","type":"address","indexed":true,"internalType":"address"},{"name":"market","type":"address","indexed":true,"internalType":"address"}],"anonymous":false},{"type":"event","name":"RevokePendingMinApy","inputs":[{"name":"caller","type":"address","indexed":true,"internalType":"address"}],"anonymous":false},{"type":"event","name":"RevokePendingPerformanceFeeRate","inputs":[{"name":"caller","type":"address","indexed":true,"internalType":"address"}],"anonymous":false},{"type":"event","name":"RevokePendingPool","inputs":[{"name":"caller","type":"address","indexed":true,"internalType":"address"}],"anonymous":false},{"type":"event","name":"RevokePendingTimelock","inputs":[{"name":"caller","type":"address","indexed":true,"internalType":"address"}],"anonymous":false},{"type":"event","name":"SetCapacity","inputs":[{"name":"caller","type":"address","indexed":true,"internalType":"address"},{"name":"newCapacity","type":"uint256","indexed":false,"internalType":"uint256"}],"anonymous":false},{"type":"event","name":"SetCurator","inputs":[{"name":"newCurator","type":"address","indexed":false,"internalType":"address"}],"anonymous":false},{"type":"event","name":"SetGuardian","inputs":[{"name":"caller","type":"address","indexed":true,"internalType":"address"},{"name":"newGuardian","type":"address","indexed":false,"internalType":"address"}],"anonymous":false},{"type":"event","name":"SetMarketWhitelist","inputs":[{"name":"caller","type":"address","indexed":true,"internalType":"address"},{"name":"market","type":"address","indexed":true,"internalType":"address"},{"name":"isWhitelisted","type":"bool","indexed":false,"internalType":"bool"}],"anonymous":false},{"type":"event","name":"SetMinApy","inputs":[{"name":"caller","type":"address","indexed":true,"internalType":"address"},{"name":"newMinApy","type":"uint64","indexed":false,"internalType":"uint64"}],"anonymous":false},{"type":"event","name":"SetPerformanceFeeRate","inputs":[{"name":"caller","type":"address","indexed":true,"internalType":"address"},{"name":"newPerformanceFeeRate","type":"uint256","indexed":false,"internalType":"uint256"}],"anonymous":false},{"type":"event","name":"SetPool","inputs":[{"name":"caller","type":"address","indexed":true,"internalType":"address"},{"name":"pool","type":"address","indexed":true,"internalType":"address"}],"anonymous":false},{"type":"event","name":"SetTimelock","inputs":[{"name":"caller","type":"address","indexed":true,"internalType":"address"},{"name":"newTimelock","type":"uint256","indexed":false,"internalType":"uint256"}],"anonymous":false},{"type":"event","name":"SubmitGuardian","inputs":[{"name":"newGuardian","type":"address","indexed":false,"internalType":"address"},{"name":"validAt","type":"uint64","indexed":false,"internalType":"uint64"}],"anonymous":false},{"type":"event","name":"SubmitMarketToWhitelist","inputs":[{"name":"market","type":"address","indexed":true,"internalType":"address"},{"name":"validAt","type":"uint64","indexed":false,"internalType":"uint64"}],"anonymous":false},{"type":"event","name":"SubmitMinApy","inputs":[{"name":"newMinApy","type":"uint64","indexed":false,"internalType":"uint64"},{"name":"validAt","type":"uint64","indexed":false,"internalType":"uint64"}],"anonymous":false},{"type":"event","name":"SubmitPendingPool","inputs":[{"name":"pool","type":"address","indexed":true,"internalType":"address"},{"name":"validAt","type":"uint64","indexed":false,"internalType":"uint64"}],"anonymous":false},{"type":"event","name":"SubmitPerformanceFeeRate","inputs":[{"name":"newPerformanceFeeRate","type":"uint256","indexed":false,"internalType":"uint256"},{"name":"validAt","type":"uint64","indexed":false,"internalType":"uint64"}],"anonymous":false},{"type":"event","name":"SubmitTimelock","inputs":[{"name":"newTimelock","type":"uint256","indexed":false,"internalType":"uint256"},{"name":"validAt","type":"uint64","indexed":false,"internalType":"uint64"}],"anonymous":false},{"type":"event","name":"Transfer","inputs":[{"name":"from","type":"address","indexed":true,"internalType":"address"},{"name":"to","type":"address","indexed":true,"internalType":"address"},{"name":"value","type":"uint256","indexed":false,"internalType":"uint256"}],"anonymous":false},{"type":"event","name":"Unpaused","inputs":[{"name":"account","type":"address","indexed":false,"internalType":"address"}],"anonymous":false},{"type":"event","name":"Withdraw","inputs":[{"name":"sender","type":"address","indexed":true,"internalType":"address"},{"name":"receiver","type":"address","indexed":true,"internalType":"address"},{"name":"owner","type":"address","indexed":true,"internalType":"address"},{"name":"assets","type":"uint256","indexed":false,"internalType":"uint256"},{"name":"shares","type":"uint256","indexed":false,"internalType":"uint256"}],"anonymous":false},{"type":"event","name":"WithdrawFts","inputs":[{"name":"caller","type":"address","indexed":true,"internalType":"address"},{"name":"recipient","type":"address","indexed":true,"internalType":"address"},{"name":"order","type":"address","indexed":true,"internalType":"address"},{"name":"amount","type":"uint256","indexed":false,"internalType":"uint256"},{"name":"shares","type":"uint256","indexed":false,"internalType":"uint256"}],"anonymous":false},{"type":"error","name":"AboveMaxTimelock","inputs":[]},{"type":"error","name":"AlreadyPending","inputs":[]},{"type":"error","name":"AlreadySet","inputs":[]},{"type":"error","name":"BelowMinTimelock","inputs":[]},{"type":"error","name":"CanNotTransferUintMax","inputs":[]},{"type":"error","name":"CollateralIsAsset","inputs":[]},{"type":"error","name":"ERC20InsufficientAllowance","inputs":[{"name":"spender","type":"address","internalType":"address"},{"name":"allowance","type":"uint256","internalType":"uint256"},{"name":"needed","type":"uint256","internalType":"uint256"}]},{"type":"error","name":"ERC20InsufficientBalance","inputs":[{"name":"sender","type":"address","internalType":"address"},{"name":"balance","type":"uint256","internalType":"uint256"},{"name":"needed","type":"uint256","internalType":"uint256"}]},{"type":"error","name":"ERC20InvalidApprover","inputs":[{"name":"approver","type":"address","internalType":"address"}]},{"type":"error","name":"ERC20InvalidReceiver","inputs":[{"name":"receiver","type":"address","internalType":"address"}]},{"type":"error","name":"ERC20InvalidSender","inputs":[{"name":"sender","type":"address","internalType":"address"}]},{"type":"error","name":"ERC20InvalidSpender","inputs":[{"name":"spender","type":"address","internalType":"address"}]},{"type":"error","name":"ERC4626ExceededMaxDeposit","inputs":[{"name":"receiver","type":"address","internalType":"address"},{"name":"assets","type":"uint256","internalType":"uint256"},{"name":"max","type":"uint256","internalType":"uint256"}]},{"type":"error","name":"ERC4626ExceededMaxMint","inputs":[{"name":"receiver","type":"address","internalType":"address"},{"name":"shares","type":"uint256","internalType":"uint256"},{"name":"max","type":"uint256","internalType":"uint256"}]},{"type":"error","name":"ERC4626ExceededMaxRedeem","inputs":[{"name":"owner","type":"address","internalType":"address"},{"name":"shares","type":"uint256","internalType":"uint256"},{"name":"max","type":"uint256","internalType":"uint256"}]},{"type":"error","name":"ERC4626ExceededMaxWithdraw","inputs":[{"name":"owner","type":"address","internalType":"address"},{"name":"assets","type":"uint256","internalType":"uint256"},{"name":"max","type":"uint256","internalType":"uint256"}]},{"type":"error","name":"EnforcedPause","inputs":[]},{"type":"error","name":"ExpectedPause","inputs":[]},{"type":"error","name":"InvalidActionId","inputs":[]},{"type":"error","name":"InvalidInitialization","inputs":[]},{"type":"error","name":"NoPendingValue","inputs":[]},{"type":"error","name":"NotCuratorRole","inputs":[]},{"type":"error","name":"NotGuardianRole","inputs":[]},{"type":"error","name":"NotInitializing","inputs":[]},{"type":"error","name":"OwnableInvalidOwner","inputs":[{"name":"owner","type":"address","internalType":"address"}]},{"type":"error","name":"OwnableUnauthorizedAccount","inputs":[{"name":"account","type":"address","internalType":"address"}]},{"type":"error","name":"PerformanceFeeRateExceeded","inputs":[]},{"type":"error","name":"ReentrancyGuardReentrantCall","inputs":[]},{"type":"error","name":"ReentrantCall","inputs":[]},{"type":"error","name":"ReentrantCallBetweenActions","inputs":[{"name":"actionId","type":"uint256","internalType":"uint256"},{"name":"oldActionId","type":"uint256","internalType":"uint256"}]},{"type":"error","name":"SafeCastOverflowedUintDowncast","inputs":[{"name":"bits","type":"uint8","internalType":"uint8"},{"name":"value","type":"uint256","internalType":"uint256"}]},{"type":"error","name":"SafeERC20FailedOperation","inputs":[{"name":"token","type":"address","internalType":"address"}]},{"type":"error","name":"SupplyQueueNoLongerSupported","inputs":[]},{"type":"error","name":"TimelockNotElapsed","inputs":[]},{"type":"error","name":"UseApyInsteadOfApr","inputs":[]},{"type":"error","name":"UseVaultInitialParamsV2","inputs":[]},{"type":"error","name":"WithdrawalQueueNoLongerSupported","inputs":[]}],"bytecode":{"object":"0x60a03461010957601f6152e738819003918201601f19168301916001600160401b0383118484101761010d5780849260209460405283398101031261010957516001600160a01b0381168103610109576080525f5160206152c75f395f51905f525460ff8160401c166100fa576002600160401b03196001600160401b038216016100a4575b6040516151a590816101228239608051818181610b840152613e630152f35b6001600160401b0319166001600160401b039081175f5160206152c75f395f51905f52556040519081527fc7f505b2f371ae2175ee4913f4499e1f2633a7b5936321eed1cdaeb6115181d290602090a15f610085565b63f92ee8a960e01b5f5260045ffd5b5f80fd5b634e487b7160e01b5f52604160045260245ffdfe60806040526004361015610011575f80fd5b5f3560e01c806301e1d114146105a557806306fdde03146105a057806307a2d13a14610523578063095ea7b31461059b5780630a28a477146105965780630d8e6e2c146105915780630edc3c641461058c5780630f4f0c32146105875780630ffbfda4146105825780631124f92c1461057d578063163c8c771461057857806316f0115b1461057357806318160ddd1461056e5780631908a2ee146105695780631ecca77c1461056457806323b872dd1461055f57806324524a961461055a578063313ce5671461055557806333f91ebb1461055057806338d52e0f1461054b5780633bcfc4b8146105465780633f38db41146105415780633f4ba83a1461053c578063402d267d146105375780634514223114610532578063452a93201461052d578063460bf7e1146105285780634cdad5061461052357806357ded9c91461051e578063594d16f7146105195780635c975abb14610514578063618f96941461050f57806362518ddf1461050a57806363f043831461050557806369c42125146105005780636e553f65146104fb57806370a082311461042e578063715018a6146104f65780637207fbb4146104f15780637224a512146104ec578063762c31ba146104e757806377e1731b146104e257806379ba5097146104dd5780637cc4d9a1146104d857806380a58a5e146104d35780638456cb59146104ce57806386c058ed146104c957806387788782146104c457806389716a25146104bf5780638a2c7b39146104ba5780638da5cb5b146104b557806391915ef8146104b057806393bd007b146104ab57806394bf804d146104a657806394e854f2146104a157806395d89b411461049c578063988a64c4146104975780639a110973146104925780639d6b4a451461048d5780639d8b21e914610488578063a17b313014610483578063a5f31d611461047e578063a7ebda9714610479578063a9059cbb14610474578063a9133f5e1461046f578063ac33207f1461046a578063af9840e514610465578063b0a4709d14610460578063b3d7f6b91461045b578063b460af9414610456578063ba08765214610451578063c63d75b61461044c578063c6e6f59214610406578063c9649aa914610447578063cb3cab6714610442578063ce96cb771461043d578063d209643a14610438578063d33219b414610433578063d905777e1461042e578063da3f224a14610429578063dd62ed3e14610424578063e30c39781461041f578063e34c721b1461041a578063e5c6c88d14610415578063e66f53b714610410578063e90956cf1461040b578063ef8b30f714610406578063f2fde38b14610401578063f6b6a7a4146103fc5763f7d18521146103f7575f80fd5b613247565b6131a6565b61311e565b612d50565b6130db565b6130b3565b61308d565b612ff6565b612fc2565b612f82565b612f09565b611602565b612eec565b612e85565b612e5e565b612de2565b612d6e565b612d2a565b612bc0565b612a33565b6129ec565b61298b565b61291f565b6128e4565b61287d565b612853565b612741565b612703565b6126e4565b6125c4565b6124eb565b612444565b612369565b6122ac565b612186565b612020565b611f4f565b611ef0565b611ebc565b611e87565b611d80565b611d53565b611cdf565b611c3c565b611bc8565b611b61565b611b15565b611a31565b61193a565b611868565b6116df565b611629565b611407565b6113e1565b61136d565b61134d565b611312565b6112e4565b6105a5565b6112c5565b6106f1565b61123f565b611218565b611137565b611111565b611061565b610ffa565b610fe0565b610fac565b610f8d565b610f50565b610f27565b610edc565b610e59565b610e19565b610df0565b610dc8565b610d6f565b610bd9565b610bb3565b610b6f565b610aa6565b61080b565b6107ed565b610735565b6105ff565b346105d1575f3660031901126105d1576020662386f26fc100006105c7613b79565b5004604051908152f35b5f80fd5b602060409281835280519182918282860152018484015e5f828201840152601f01601f1916010190565b346105d1575f3660031901126105d1576040515f5f5160206150105f395f51905f525461062b8161329e565b80845290600181169081156106cd5750600114610663575b61065f83610653818503826108b4565b604051918291826105d5565b0390f35b5f5160206150105f395f51905f525f9081527f2ae08a8e29253f69ac5d979a101956ab8f8d9d7ded63fa7a83b16fc47648eab0939250905b8082106106b357509091508101602001610653610643565b91926001816020925483858801015201910190929161069b565b60ff191660208086019190915291151560051b840190910191506106539050610643565b346105d15760203660031901126105d157602061070f600435613cd0565b604051908152f35b6001600160a01b038116036105d157565b359061073382610717565b565b346105d15760403660031901126105d15760043561075281610717565b60243533156107da576001600160a01b0382169182156107c75761078f829161077a336134a8565b9060018060a01b03165f5260205260405f2090565b556040519081527f8c5be1e5ebec7d5bd14f71427d1e84f3dd0314c0f7b2291e5b200ac8c7c3b92560203392a3602060405160018152f35b634a1406b160e11b5f525f60045260245ffd5b63e602df0560e01b5f525f60045260245ffd5b346105d15760203660031901126105d157602061070f600435613d57565b346105d1575f3660031901126105d15761065f60405161082c6040826108b4565b60058152640322e302e360dc1b6020820152604051918291826105d5565b634e487b7160e01b5f52604160045260245ffd5b606081019081106001600160401b0382111761087957604052565b61084a565b608081019081106001600160401b0382111761087957604052565b604081019081106001600160401b0382111761087957604052565b90601f801991011681019081106001600160401b0382111761087957604052565b60405190610733610100836108b4565b60405190610733610160836108b4565b6001600160401b0381116108795760051b60200190565b9080601f830112156105d1578135610923816108f5565b9261093160405194856108b4565b81845260208085019260051b8201019283116105d157602001905b8282106109595750505090565b60208091833561096881610717565b81520191019061094c565b81601f820112156105d15780359061098a826108f5565b9261099860405194856108b4565b828452602060608186019402830101918183116105d157602001925b8284106109c2575050505090565b6060848303126105d15760206060916040516109dd8161085e565b863581528287013583820152604087013560408201528152019301926109b4565b91906080838203126105d15760405190610a178261087e565b81938035835260208101356020840152604081013560408401526060810135906001600160401b0382116105d15701916040838303126105d15760405192610a5e84610899565b80356001600160401b0381116105d15783610a7a918301610973565b84526020810135926001600160401b0384116105d157606093610a9d9201610973565b60208401520152565b346105d15760403660031901126105d1576004356001600160401b0381116105d157610ad690369060040161090c565b6024356001600160401b0381116105d157366023820112156105d157806004013591610b01836108f5565b91610b0f60405193846108b4565b8383526024602084019460051b820101903682116105d15760248101945b828610610b4057610b3e85856132d6565b005b85356001600160401b0381116105d157602091610b648392602436918701016109fe565b815201950194610b2d565b346105d1575f3660031901126105d1576040517f00000000000000000000000000000000000000000000000000000000000000006001600160a01b03168152602090f35b346105d1575f3660031901126105d15760206001600160401b0360145416604051908152f35b346105d15760403660031901126105d157600435610bf681610717565b6024358015801582036105d1576001546001600160a01b031633141580610d4e575b610d3f576001600160a01b0383165f9081526002602052604081205490919060ff1680610d38575b610d29576001600160a01b0384165f9081526003602052604090205460c01c610d1a5715610cee5750610c739082614f8d565b5f5b610c7b57005b7f24c5ea3dd9a5ba11b8a603674e63d62accaa480c1b05d18de5861f3894868d79610ce9610cc3610cbc8460018060a01b03165f52600360205260405f2090565b5460c01c90565b6040516001600160401b0390911681526001600160a01b03909316929081906020820190565b0390a2005b6001600160a01b0383165f908152600360205260409020600954610c759350610d169161423a565b1590565b6324d9026760e11b5f5260045ffd5b63a741a04560e01b5f5260045ffd5b5082610c40565b6332a2673b60e21b5f5260045ffd5b505f5160206150505f395f51905f52546001600160a01b0316331415610c18565b346105d1575f3660031901126105d1576007548060c01c8015610db9574210610daa576001600160401b03610da49116613e9d565b5f600755005b63333bd2cb60e11b5f5260045ffd5b63e5f408a560e01b5f5260045ffd5b346105d1575f3660031901126105d157600f546040516001600160a01b039091168152602090f35b346105d1575f3660031901126105d15760205f5160206150705f395f51905f5254604051908152f35b346105d15760203660031901126105d157600435610e3681610717565b60018060a01b03165f526002602052602060ff60405f2054166040519015158152f35b346105d1575f3660031901126105d1575f546001600160a01b031633141580610ebb575b610eac575f600655337fc40a085ccfa20f5fd518ade5c3a77a7ecbdfbb4c75efcdca6146a8e3c841d6635f80a2005b637cf97e4d60e11b5f5260045ffd5b505f5160206150505f395f51905f52546001600160a01b0316331415610e7d565b346105d15760603660031901126105d157610f1c600435610efc81610717565b602435610f0881610717565b60443591610f17833383613ef9565b613f77565b602060405160018152f35b346105d1575f3660031901126105d15760206001600160401b0360145460801c16604051908152f35b346105d1575f3660031901126105d15760ff5f5160206150d05f395f51905f525460a01c1660ff8111610f8857602090604051908152f35b61327b565b346105d1575f3660031901126105d15763207972c960e01b5f5260045ffd5b346105d1575f3660031901126105d1575f5160206150d05f395f51905f52546040516001600160a01b039091168152602090f35b346105d1575f3660031901126105d157602061070f613538565b346105d1575f3660031901126105d157611012613573565b5061065f60405161102281610899565b6005546001600160c01b03811680835260c09190911c60209283019081526040805192835290516001600160401b031692820192909252918291820190565b346105d1575f3660031901126105d1576001546001600160a01b0316331415806110f0575b610d3f575f5160206150f05f395f51905f525460ff8116156110e15760ff19165f5160206150f05f395f51905f52557f5db9ee0a495bf2e6ff9c91a7834c1ba4fdd244a5e8aa4e537bd38aeae4b073aa6020604051338152a1005b638dfc202b60e01b5f5260045ffd5b505f5160206150505f395f51905f52546001600160a01b0316331415611086565b346105d15760203660031901126105d15761112d600435610717565b602061070f61358b565b346105d15760203660031901126105d15760043561115481610717565b6001546001600160a01b0316331415806111f7575b610d3f57600f546001600160a01b038281169291168214610d295760085460a01c6001600160401b0316610d1a576009546111a391614041565b7f8bdad4b09e0168e2b64d8340297b3f8224ddb6cbdc855e6fff7e7624c6d8339d610ce96111dd6008546001600160401b039060a01c1690565b6040516001600160401b0390911681529081906020820190565b505f5160206150505f395f51905f52546001600160a01b0316331415611169565b346105d1575f3660031901126105d1575f546040516001600160a01b039091168152602090f35b346105d15760203660031901126105d15760043561125c81610717565b611264613573565b5060018060a01b03165f52600360205261065f60405f206040519061128882610899565b546001600160c01b03811680835260c09190911c60209283019081526040805192835290516001600160401b031692820192909252918291820190565b346105d1575f3660031901126105d157634e2d04b360e01b5f5260045ffd5b346105d1575f3660031901126105d157602060ff5f5160206150f05f395f51905f5254166040519015158152f35b346105d15760203660031901126105d15760043561132f81610717565b60018060a01b03165f526010602052602060405f2054604051908152f35b346105d15760203660031901126105d15763207972c960e01b5f5260045ffd5b346105d1575f3660031901126105d1575f546001600160a01b0316331415806113c0575b610eac575f600855337fa2364ce3a039aaebd156a368d9ee05971530a28068e2304d9a5c0d0269ef002e5f80a2005b505f5160206150505f395f51905f52546001600160a01b0316331415611391565b346105d1575f3660031901126105d1576020662386f26fc10000600b5404604051908152f35b346105d15760403660031901126105d15760043560243561142781610717565b61142f61358b565b8083116115e0575061144082613d9b565b90611449613dde565b5f5160206150905f395f51905f525c92831515806115c9575b6115a55761065f93505f5160206150b05f395f51905f525f5160206150905f395f51905f525d611490614378565b5f5160206150d05f395f51905f52546114b7908290309033906001600160a01b0316614b8c565b61152e816115296114ed6114e16114e15f5160206150d05f395f51905f525460018060a01b031690565b6001600160a01b031690565b6040516349cc4ebd60e11b60208201526001600160a01b039091166024820152604481019290925281606481015b03601f1981018352826108b4565b613e58565b506115398383614c10565b60408051918252602082018490526001600160a01b039092169133917fdcbc1c05240f31ff3ad067ef1ee35ce4997762752e3a095284754544f4c709d791819081015b0390a361159560015f5160206151105f395f51905f5255565b6040519081529081906020820190565b8363beb4ce0760e01b5f525f5160206150b05f395f51905f5260045260245260445ffd5b505f5160206150b05f395f51905f52841415611462565b9190633c8097d960e11b5f5260018060a01b031660045260245260445260645ffd5b346105d15760203660031901126105d157602061070f60043561162481610717565b6135e0565b346105d1575f3660031901126105d1576116416140e3565b5f5160206151505f395f51905f5280546001600160a01b03199081169091555f5160206150505f395f51905f52805491821690555f906001600160a01b03167f8be0079c531659141344cd1fd0a4f28419497f9722a3daafe3b4186f6b6457e08280a3005b60809060031901126105d1576004356116be81610717565b90602435906044356116cf81610717565b906064356116dc81610717565b90565b346105d1576116ed366116a6565b9192906116f8613dde565b5f5160206150d05f395f51905f525461171b906114e1906001600160a01b031681565b6001600160a01b038316929083146118595761173685613d57565b93611740816135e0565b8086116118355750856115296117b59361176c886117a69560018060a01b03811633036118255761416e565b604051635394eb4360e11b60208201526001600160a01b03808816602483015290911660448201526064810192909252816084810161151b565b60208082518301019101613619565b60408051958652602086018590528501819052936001600160a01b03919091169033907faf2e30fae2dfd1a90059cf53415e90c4ee9d151c1b1861df8f8a5963069c47f490606090a461181460015f5160206151105f395f51905f5255565b604080519182526020820192909252f35b611830823383613ef9565b61416e565b632e52afbb60e21b5f526001600160a01b038416600452602486905260445260645ffd5b634049e74560e11b5f5260045ffd5b346105d15760203660031901126105d1576004356001546001600160a01b031633141580611919575b610d3f5760095490818114610d295760045460c01c610d1a576118b381614207565b818111156118c557610b3e9150614310565b7f6ed11f5df0bdefbbb4873e90566a9cfafbb8305c164922c173437f3c45f90a35916118fa906001600160b81b038316614265565b6004546040805192835260c09190911c6020830152819081015b0390a1005b505f5160206150505f395f51905f52546001600160a01b0316331415611891565b346105d1575f3660031901126105d157611952613573565b5061065f60405161196281610899565b6006546001600160a01b03811680835260a09190911c6001600160401b03908116602093840190815260408051938452905190911692820192909252918291820190565b6001600160401b03811161087957601f01601f191660200190565b81601f820112156105d1578035906119d8826119a6565b926119e660405194856108b4565b828452602083830101116105d157815f926020809301838601378301015290565b600435906001600160401b03821682036105d157565b35906001600160401b03821682036105d157565b346105d15760203660031901126105d1576004356001600160401b0381116105d15761010060031982360301126105d157611a6a6108d5565b90611a7781600401610728565b8252611a8560248201610728565b602083015260448101356040830152611aa060648201610728565b60608301526084810135608083015260a48101356001600160401b0381116105d157611ad290600436918401016119c1565b60a083015260c48101356001600160401b0381116105d157611b0b91611b0060e492600436918401016119c1565b60c085015201611a1d565b60e0820152613687565b346105d1575f3660031901126105d1575f5160206151505f395f51905f5254336001600160a01b0390911603611b4e57610b3e33614103565b63118cdaa760e01b5f523360045260245ffd5b346105d1575f3660031901126105d157611b79613573565b5061065f604051611b8981610899565b6004546001600160c01b03811680835260c09190911c60209283019081526040805192835290516001600160401b031692820192909252918291820190565b346105d1575f3660031901126105d1575f546001600160a01b031633141580611c1b575b610eac575f600555337fb7cc052ba5dd4e2c200f771e69c6c4dddd930567bd8bea00e527944967c57db85f80a2005b505f5160206150505f395f51905f52546001600160a01b0316331415611bec565b346105d1575f3660031901126105d1576001546001600160a01b031633141580611cbe575b610d3f57611c6d614378565b600160ff195f5160206150f05f395f51905f525416175f5160206150f05f395f51905f52557f62e78cea01bee320cd4e420270b5ea74000d11b0c9f74754ebdbfc544b05a2586020604051338152a1005b505f5160206150505f395f51905f52546001600160a01b0316331415611c61565b346105d1575f3660031901126105d1575f546001600160a01b031633141580611d32575b610eac575f600755337f6e2daa1b3bca5239ed02028dbe091b3e5d41ae2702e4394b0a28cee04bd59fb25f80a2005b505f5160206150505f395f51905f52546001600160a01b0316331415611d03565b346105d1575f3660031901126105d1576020611d6d613b79565b9050662386f26fc1000060405191048152f35b346105d15760203660031901126105d157611d99611a07565b6001546001600160a01b031633141580611e66575b610d3f57601454611dd29060801c6001600160401b03165b6001600160401b031690565b906001600160401b03811691808314610d29576001600160401b03611df960075460c01c90565b16610d1a57821115611e0f57610b3e9150613e9d565b611e3d7f4cedca5aa9a1cac41bbc05fef13c4ddccee26353a3de3d7615435bdf3f92ad63926009549061429e565b60075460c01c604080516001600160401b03938416815292909116602083015281908101611914565b505f5160206150505f395f51905f52546001600160a01b0316331415611dae565b346105d1575f3660031901126105d1576004548060c01c8015610db9574210610daa57610b3e906001600160c01b0316614310565b346105d1575f3660031901126105d1575f5160206150505f395f51905f52546040516001600160a01b039091168152602090f35b346105d15760203660031901126105d15760043560018060a01b036001541633141580611f2e575b610d3f57600a548114610d2957610b3e90614346565b505f5160206150505f395f51905f52546001600160a01b0316331415611f18565b346105d15760403660031901126105d157600435611f6c81610717565b60243590611f78613dde565b611f80614378565b6001546001600160a01b031633141580611fff575b610d3f575f5160206150d05f395f51905f5254604051632cfc68f160e11b60208201526001600160a01b039182166024820152911660448201526064810191909152611fe890611529816084810161151b565b50610b3e60015f5160206151105f395f51905f5255565b505f5160206150505f395f51905f52546001600160a01b0316331415611f95565b346105d15760403660031901126105d15760043560243561204081610717565b612048613b07565b808311612164575061205982613d13565b90612062613dde565b5f5160206150905f395f51905f525c928315158061214d575b6115a55761065f93505f5160206150b05f395f51905f525f5160206150905f395f51905f525d6120a9614378565b5f5160206150d05f395f51905f52546120d0908490309033906001600160a01b0316614b8c565b6120fa836115296114ed6114e16114e15f5160206150d05f395f51905f525460018060a01b031690565b506121058183614c10565b6040805184815260208101929092526001600160a01b039092169133917fdcbc1c05240f31ff3ad067ef1ee35ce4997762752e3a095284754544f4c709d7918190810161157c565b505f5160206150b05f395f51905f5284141561207b565b919063284ff66760e01b5f5260018060a01b031660045260245260445260645ffd5b346105d157612194366116a6565b9261219d613dde565b6121a683613d57565b926121b0856135e0565b808511612288575061065f946122189085906001600160a01b0381163303612278575b60405163371a022d60e21b60208201526001600160a01b038087166024830152604482018690528716606482015261221290611529816084810161151b565b5061416e565b60408051918252602082018590526001600160a01b03928316939092169133917f53239297447654f3a1c8342314051bc2fe9134b7bbe4a390eade008bb5eca1f291819081015b0390a461159560015f5160206151105f395f51905f5255565b612283823383613ef9565b6121d3565b632e52afbb60e21b5f526001600160a01b038616600452602485905260445260645ffd5b346105d1575f3660031901126105d1576040515f5f5160206150305f395f51905f52546122d88161329e565b80845290600181169081156106cd57506001146122ff5761065f83610653818503826108b4565b5f5160206150305f395f51905f525f9081527f46a2803e59a4de4e7a4c574b1243f25977ac4c77d5a1a4a609b5394cebb4a2aa939250905b80821061234f57509091508101602001610653610643565b919260018160209254838588010152019101909291612337565b346105d15760203660031901126105d15760043561238681610717565b61238e613dde565b6001546001600160a01b031633141580612423575b610d3f576123fd61240c916123b6614378565b5f5160206150d05f395f51905f5254604051630c91124760e01b60208201526001600160a01b039182166024820152911660448083019190915281526115296064826108b4565b6020808251830101910161371c565b9061181460015f5160206151105f395f51905f5255565b505f5160206150505f395f51905f52546001600160a01b03163314156123a3565b346105d15760403660031901126105d1576004356001600160401b0381116105d15761247490369060040161090c565b6024356001600160401b0381116105d157366023820112156105d15780600401359161249f836108f5565b916124ad60405193846108b4565b8383526024602084019460051b820101903682116105d157602401935b8185106124db57610b3e8484613732565b84358152602094850194016124ca565b346105d15760203660031901126105d15760043561250881610717565b6125106140e3565b5f546001600160a01b03166001600160a01b0381166001600160a01b03831614610d295760065460a01c6001600160401b0316610d1a576001600160a01b031661255d57610b3e9061439f565b7f14279aa98f18dee77127cf315bcced708f417d07da24929c2f6460b481d0c13e9061258b60095482614092565b60065460a01c6001600160401b0316604080516001600160a01b0390931683526001600160401b03909116602083015281908101611914565b346105d15760203660031901126105d1576004356001600160401b0381116105d15761016060031982360301126105d1576125fd6108e5565b61260982600401610728565b815261261760248301610728565b602082015261262860448301610728565b60408201526064820135606082015261264360848301610728565b608082015261265460a48301610728565b60a082015260c482013560c082015260e48201356001600160401b0381116105d15761268690600436918501016119c1565b60e0820152610104820135916001600160401b0383116105d1576101446126d9916126ba610b3e95600436918401016119c1565b6101008501526126cd6101248201611a1d565b61012085015201611a1d565b61014082015261380c565b346105d1575f3660031901126105d15763580b4feb60e11b5f5260045ffd5b346105d1575f3660031901126105d1576006546001600160401b038160a01c168015610db9574210610daa57610b3e906001600160a01b031661439f565b346105d15760403660031901126105d15760043561275e81610717565b6024356001600160401b0381116105d15761277d9036906004016109fe565b612785613dde565b6001546001600160a01b031633141580612832575b610d3f576115296127e4926127ad614378565b6040805163a7ebda9760e01b60208201526001600160a01b039092166024830152604482015291829061151b906064830190613452565b6020818051810103126105d157602061065f91015161280281610717565b61281860015f5160206151105f395f51905f5255565b6040516001600160a01b0390911681529081906020820190565b505f5160206150505f395f51905f52546001600160a01b031633141561279a565b346105d15760403660031901126105d157610f1c60043561287381610717565b6024359033613f77565b346105d15760203660031901126105d1576004356001600160b81b03811681036105d1576001546001600160a01b0316331415806128c3575b610d3f57610b3e90613a11565b505f5160206150505f395f51905f52546001600160a01b03163314156128b6565b346105d15760203660031901126105d15760043561290181610717565b60018060a01b03165f526011602052602060405f2054604051908152f35b346105d1575f3660031901126105d157612937613573565b5061065f60405161294781610899565b6008546001600160a01b03811680835260a09190911c6001600160401b03908116602093840190815260408051938452905190911692820192909252918291820190565b346105d1575f3660031901126105d1576129a3613dde565b6008546001600160401b038160a01c168015610db9574210610daa576129d9906129cb614378565b6001600160a01b0316614894565b60015f5160206151105f395f51905f5255005b346105d15760203660031901126105d157602061070f600435613d13565b60609060031901126105d15760043590602435612a2681610717565b906044356116dc81610717565b346105d157612a4136612a0a565b612a4a81613b2d565b808411612b9e5750612a5b83613d57565b91612a64613dde565b5f5160206150905f395f51905f525c9384151580612b87575b612b635761065f94505f516020614ff05f395f51905f525f5160206150905f395f51905f525d6001600160a01b03831692612b0c90859033869003612b53575b5f5160206150d05f395f51905f5254604051637bd58ea960e01b60208201526001600160a01b03918216602482015290861660448201526064810185905261221290611529816084810161151b565b60408051918252602082018590526001600160a01b039092169133917ffbde797d201c681b91056529119e0b02407c7bb96a4a2c75c01fc9667232c8db918190810161225f565b612b5e823383613ef9565b612abd565b8463beb4ce0760e01b5f525f516020614ff05f395f51905f5260045260245260445ffd5b505f516020614ff05f395f51905f52851415612a7d565b8382633fa733bb60e21b5f5260018060a01b031660045260245260445260645ffd5b346105d157612bce36612a0a565b612bd7816135e0565b808411612d085750612be883613cd0565b91612bf1613dde565b5f5160206150905f395f51905f525c9384151580612cf1575b612b635761065f94505f516020614ff05f395f51905f525f5160206150905f395f51905f525d6001600160a01b03831692612c9990829033869003612ce1575b5f5160206150d05f395f51905f5254604051637bd58ea960e01b60208201526001600160a01b03918216602482015290861660448201526064810188905261221290611529816084810161151b565b6040805185815260208101929092526001600160a01b039092169133917ffbde797d201c681b91056529119e0b02407c7bb96a4a2c75c01fc9667232c8db918190810161225f565b612cec823383613ef9565b612c4a565b505f516020614ff05f395f51905f52851415612c0a565b8382632e52afbb60e21b5f5260018060a01b031660045260245260445260645ffd5b346105d15760203660031901126105d157612d46600435610717565b602061070f613b07565b346105d15760203660031901126105d157602061070f600435613d9b565b346105d1575f3660031901126105d1575f546001600160a01b031633141580612dc1575b610eac575f600455337f921828337692c347c634c5d2aacbc7b756014674bd236f3cc2058d8e284a951b5f80a2005b505f5160206150505f395f51905f52546001600160a01b0316331415612d92565b346105d1575f3660031901126105d1576005548060c01c8015610db9574210610daa57612e2090612e1b906001600160c01b0316614ab8565b6147d0565b5f6005556001600160401b03601454166040519081527f20affe2401825617c69366f8c3a3493d9822d1021d0b3023c4e77ea5b3d0fbc560203392a2005b346105d15760203660031901126105d157602061070f600435612e8081610717565b613b2d565b346105d1575f3660031901126105d157612e9d613573565b5061065f604051612ead81610899565b6007546001600160c01b03811680835260c09190911c60209283019081526040805192835290516001600160401b031692820192909252918291820190565b346105d1575f3660031901126105d1576020600954604051908152f35b346105d15760803660031901126105d157610b3e600435606435604435602435612f31614378565b60018060a01b035f5160206150d05f395f51905f5254169360405194637f98f3c560e01b6020870152602486015260448501526064840152608483015260a482015260a4815261152960c4826108b4565b346105d15760403660031901126105d1576020612fb9600435612fa481610717565b61077a60243591612fb483610717565b6134a8565b54604051908152f35b346105d1575f3660031901126105d1575f5160206151505f395f51905f52546040516001600160a01b039091168152602090f35b346105d15760203660031901126105d15760043561301381610717565b5f546001600160a01b03163314158061306c575b610eac576001600160a01b03165f81815260036020526040812081905533907f10d2cd24a2375b12d91635518e47506f9aebfe8af364c6109b93ac41e8b0b86f9080a3005b505f5160206150505f395f51905f52546001600160a01b0316331415613027565b346105d1575f3660031901126105d1576020662386f26fc10000600e5404604051908152f35b346105d1575f3660031901126105d1576001546040516001600160a01b039091168152602090f35b346105d15760203660031901126105d1576004356130f881610717565b6131006140e3565b6001546001600160a01b03828116911614610d2957610b3e9061483d565b346105d15760203660031901126105d15760043561313b81610717565b6131436140e3565b5f5160206151505f395f51905f5280546001600160a01b0319166001600160a01b039283169081179091555f5160206150505f395f51905f52549091167f38d16b8cac22d99fc7c124b9cd0de2d3fa1faef420bfe791d8c362d765e227005f80a3005b346105d15760203660031901126105d1576004356131c381610717565b6001600160a01b0381165f9081526003602052604090205460c01c8015610db9574210610daa5760018060a01b0316805f52600260205260405f20600160ff1982541617905580604051600181527f7276f1d77fbb1794919362294fb870305193d894417c47c88716aa858f4272d360203392a35f90815260036020526040812055005b346105d15760203660031901126105d15763580b4feb60e11b5f5260045ffd5b634e487b7160e01b5f52601260045260245ffd5b634e487b7160e01b5f52601160045260245ffd5b8115613299570490565b613267565b90600182811c921680156132cc575b60208310146132b857565b634e487b7160e01b5f52602260045260245ffd5b91607f16916132ad565b906132df613dde565b6001546001600160a01b0316331415806133aa575b610d3f5761331d604051926303b70f1960e21b60208501526040602485015260648401906133cb565b602319838203016044840152815180825260208201916020808360051b8301019401925f915b83831061337d57505050505090611529816133669303601f1981018352826108b4565b5061073360015f5160206151105f395f51905f5255565b909192939460208061339b600193601f198682030187528951613452565b97019301930191939290613343565b505f5160206150505f395f51905f52546001600160a01b03163314156132f4565b90602080835192838152019201905f5b8181106133e85750505090565b82516001600160a01b03168452602093840193909201916001016133db565b90602080835192838152019201905f5b8181106134245750505090565b9091926020606060019260408751805183528481015185840152015160408201520194019101919091613417565b9060606116dc9280518352602081015160208401526040810151604084015201519060806060820152602061349383516040608085015260c0840190613407565b9201519060a0607f1982850301910152613407565b6001600160a01b03165f9081527f52c63247e1f47db19d5ce0460030c497f067ca4cebf71ba98eeadabe20bace016020526040902090565b6001600160a01b03165f9081527f52c63247e1f47db19d5ce0460030c497f067ca4cebf71ba98eeadabe20bace006020526040902090565b91908203918211610f8857565b81810292918115918404141715610f8857565b600c54801561356e57600e546001600160401b03601454166305f5e100036305f5e1008111610f885761356a91613525565b0490565b505f90565b6040519061358082610899565b5f6020838281520152565b60ff5f5160206150f05f395f51905f5254166135dc57662386f26fc100006135b1613b79565b5004600a548091101561356e57662386f26fc100006135ce613b79565b50048103908111610f885790565b5f90565b6001600160a01b03165f9081527f52c63247e1f47db19d5ce0460030c497f067ca4cebf71ba98eeadabe20bace00602052604090205490565b908160209103126105d1575190565b60016001600160401b03195f5160206151305f395f51905f525416175f5160206151305f395f51905f5255565b6801000000000000000060ff60401b195f5160206151305f395f51905f525416175f5160206151305f395f51905f5255565b505f5160206151305f395f51905f52546001600160401b0360ff8260401c1615911680159081613714575b600114908161370a575b159081613701575b506136f2576136d1613628565b6136e5575b63d197f44b60e01b5f5260045ffd5b6136ed613655565b6136d6565b63f92ee8a960e01b5f5260045ffd5b9050155f6136c4565b303b1591506136bc565b8291506136b2565b91908260409103126105d1576020825192015190565b9061373b613dde565b6001546001600160a01b0316331415806137eb575b610d3f575f5160206150d05f395f51905f5254604051633ba18ad960e21b60208201526001600160a01b03909116602482015260606044820152916137999060848401906133cb565b602319838203016064840152602080835192838152019201905f5b8181106137d55750505090611529816133669303601f1981018352826108b4565b82518452602093840193909201916001016137b4565b505f5160206150505f395f51905f52546001600160a01b0316331415613750565b5f5160206151305f395f51905f5254906001600160401b0361383d604084901c60ff1615936001600160401b031690565b16801590816138f8575b60011490816138ee575b1590816138e5575b506136f257613874908261386b613628565b6138d857613900565b61387a57565b6138a460ff60401b195f5160206151305f395f51905f5254165f5160206151305f395f51905f5255565b604051600181527fc7f505b2f371ae2175ee4913f4499e1f2633a7b5936321eed1cdaeb6115181d29080602081015b0390a1565b6138e0613655565b613900565b9050155f613859565b303b159150613851565b839150613847565b613a0c6114e160a06107339361392060e0820151610100830151906143eb565b8051613934906001600160a01b03166146f2565b608081015161394b906001600160a01b0316614725565b613953614781565b61395b614789565b61398f612e1b610120830161398261397d611dc683516001600160401b031690565b6147b5565b516001600160401b031690565b6139a6606082016139a08151614207565b51614310565b6139c36139be6101408301516001600160401b031690565b613e9d565b60408101516139da906001600160a01b031661439f565b6139e760c0820151614346565b60208101516139fe906001600160a01b031661483d565b01516001600160a01b031690565b614894565b613a26611dc66014546001600160401b031690565b6001600160b81b03821690808214610d29576001600160401b03613a4c60055460c01c90565b16610d1a57613a5a826147b5565b811015613aa857612e1b613a6d91614ab8565b6040516001600160b81b0391909116815233907f20affe2401825617c69366f8c3a3493d9822d1021d0b3023c4e77ea5b3d0fbc590602090a2565b507f7424f23ff556b5fe97d2f5a4b22548445b948e612029151105b441519f1bfb9990613ad7600954826142d7565b60055460c01c604080516001600160b81b0390931683526001600160401b039091166020830152819081016138d3565b60ff5f5160206150f05f395f51905f5254166135dc576116dc613b2861358b565b613d9b565b6001600160a01b03165f9081527f52c63247e1f47db19d5ce0460030c497f067ca4cebf71ba98eeadabe20bace0060205260409020546116dc90613cd0565b91908201809211610f8857565b613b8242614ab8565b601454613b9a9060401c6001600160401b0316611dc6565b918215613cc3575f805260126020529091613bdd7f7e7fa33969761a458e04f477e039a608702b4f924981d6653935a8319a08ad7b5b546001600160401b031690565b92600e5491600c54906001600160401b03600d549316935b6001600160401b038716918286101580613cba575b15613c7d5791613c70613bd0613c6a84613c63613c4b613c30613c76988f9a8990614ae9565b959097996001600160401b03165f52601260205260405f2090565b9c6001600160401b03165f52601360205260405f2090565b5490613518565b96613b6c565b93613b6c565b9192613bf5565b915092949391956001600160401b0316613c9657505050565b613cb793959492613cb192613caa92614ae9565b9092613b6c565b92613b6c565b91565b50821515613c0a565b915050600c5490600d5490565b662386f26fc10000613ce0613b79565b50049060018201809211610f88575f5160206150705f395f51905f525460018101809111610f88576116dc925f92614b2e565b662386f26fc10000613d23613b79565b50049060018201809211610f88575f5160206150705f395f51905f525460018101809111610f88576116dc92600192614b2e565b5f5160206150705f395f51905f52549060018201809211610f8857662386f26fc10000613d82613b79565b500460018101809111610f88576116dc92600192614b2e565b5f5160206150705f395f51905f52549060018201809211610f8857662386f26fc10000613dc6613b79565b500460018101809111610f88576116dc925f92614b2e565b60025f5160206151105f395f51905f525414613e075760025f5160206151105f395f51905f5255565b633ee5aeb560e01b5f5260045ffd5b60015f5160206151105f395f51905f5255565b3d15613e53573d90613e3a826119a6565b91613e4860405193846108b4565b82523d5f602084013e565b606090565b5f80916020815191017f00000000000000000000000000000000000000000000000000000000000000005af4613e8c613e29565b9015613e955790565b602081519101fd5b6014546001600160401b0360801b8260801b16906001600160401b0360801b1916176014556001600160401b03604051911681527f0cdc8c1df674ca6c4f86f6d47b02a15083c5d3bf098ea38f02c2762bad0afad260203392a2565b9190613f088161077a856134a8565b545f198110613f18575b50505050565b828110613f56576001600160a01b038416156107da576001600160a01b038216156107c757613f4c9261077a9103936134a8565b555f808080613f12565b90637dc7a0d960e11b5f5260018060a01b031660045260245260445260645ffd5b916001600160a01b03831691821561402e576001600160a01b03811693841561401b57613fa3816134e0565b54838110613ff65791613fe491613fde857fddf252ad1be2c89b69c2b068fc378daa952ba7f163c4a11628f55a4df523b3ef969503916134e0565b556134e0565b805482019055604051908152602090a3565b63391434e360e21b5f526001600160a01b03909116600452602452604482905260645ffd5b63ec442f0560e01b5f525f60045260245ffd5b634b637e8f60e11b5f525f60045260245ffd5b60018060a01b03166001600160601b0360a01b60085416176008554201804211610f88576008805467ffffffffffffffff60a01b191660a09290921b67ffffffffffffffff60a01b16919091179055565b60018060a01b03166001600160601b0360a01b60065416176006554201804211610f88576006805467ffffffffffffffff60a01b191660a09290921b67ffffffffffffffff60a01b16919091179055565b5f5160206150505f395f51905f52546001600160a01b03163303611b4e57565b5f5160206151505f395f51905f5280546001600160a01b03199081169091555f5160206150505f395f51905f5280549182166001600160a01b0393841690811790915591167f8be0079c531659141344cd1fd0a4f28419497f9722a3daafe3b4186f6b6457e05f80a3565b6001600160a01b0381169190821561402e57614189816134e0565b548281106141e457917fddf252ad1be2c89b69c2b068fc378daa952ba7f163c4a11628f55a4df523b3ef916141c2825f969503916134e0565b555f5160206150705f395f51905f5280548290039055604051908152602090a3565b63391434e360e21b5f526001600160a01b0390911660045260245260445260645ffd5b62127500811161422b57620151801161421c57565b631a1593df60e11b5f5260045ffd5b6346fedb5760e01b5f5260045ffd5b906001600160401b0360c01b82541682554201804211610f885760c01b6001600160c01b0319169055565b60018060b81b031690816001600160401b0360c01b60045416176004554201804211610f885760c01b6001600160c01b03191617600455565b60018060b81b031690816001600160401b0360c01b60075416176007554201804211610f885760c01b6001600160c01b03191617600755565b60018060b81b031690816001600160401b0360c01b60055416176005554201804211610f885760c01b6001600160c01b03191617600555565b806009556040519081527fd28e9b90ee9b37c5936ff84392d71f29ff18117d7e76bcee60615262a90a3f7560203392a25f600455565b80600a556040519081527f51fa58fd85e72d533eb3933ef4dd0bb83a9614f46e076ffa025b0dcbb8dff31560203392a2565b60ff5f5160206150f05f395f51905f52541661439057565b63d93c066560e01b5f5260045ffd5b60018060a01b0316806001600160601b0360a01b5f5416175f556040519081527fcb11cc8aade2f5a556749d1b2380d108a16fac3431e6a5d5ce12ef9de0bd76e360203392a25f600655565b6143f3614c89565b8051906001600160401b038211610879576144248261441f5f5160206150105f395f51905f525461329e565b614516565b602090601f83116001146144775791806144589261073395945f9261446c575b50508160011b915f199060031b1c19161790565b5f5160206150105f395f51905f52556145df565b015190505f80614444565b5f5160206150105f395f51905f525f52601f19831691907f2ae08a8e29253f69ac5d979a101956ab8f8d9d7ded63fa7a83b16fc47648eab0925f5b8181106144fe5750916001939185610733979694106144e6575b505050811b015f5160206150105f395f51905f52556145df565b01515f1960f88460031b161c191690555f80806144cc565b929360206001819287860151815501950193016144b2565b90601f8211614523575050565b80821161452e575050565b5f5160206150105f395f51905f525f5260205f206020601f830160051c9210614579575b81601f9101920160051c03905f5b82811061456c57505050565b5f82820155600101614560565b5f9150614552565b919091601f8311614592575b505050565b81831161459e57505050565b5f5260205f206020601f830160051c92106145d7575b81601f9101920160051c03905f5b8281101561458d575f828201556001016145c2565b5f91506145b4565b9081516001600160401b0381116108795761461e8161460b5f5160206150305f395f51905f525461329e565b5f5160206150305f395f51905f52614581565b602092601f821160011461465e5761464d929382915f9261446c5750508160011b915f199060031b1c19161790565b5f5160206150305f395f51905f5255565b5f5160206150305f395f51905f525f52601f198216937f46a2803e59a4de4e7a4c574b1243f25977ac4c77d5a1a4a609b5394cebb4a2aa915f5b8681106146da57508360019596106146c2575b505050811b015f5160206150305f395f51905f5255565b01515f1960f88460031b161c191690555f80806146ab565b91926020600181928685015181550194019201614698565b6146fa614c89565b6001600160a01b038116156147125761073390614103565b631e4fbdf760e01b5f525f60045260245ffd5b61472d614c89565b61473681614cb4565b901561477857905b5f5160206150d05f395f51905f5280546001600160a81b03191660a09390931b60ff60a01b16929092176001600160a01b03909116179055565b5060129061473e565b613e16614c89565b614791614c89565b60ff195f5160206150f05f395f51905f5254165f5160206150f05f395f51905f5255565b6302faf080106147c157565b63062f00d560e51b5f5260045ffd5b6001600160401b03906147fb6040516345fe329f60e01b6020820152600481526115296024826108b4565b5016806001600160401b031960145416176014556040519081527f20affe2401825617c69366f8c3a3493d9822d1021d0b3023c4e77ea5b3d0fbc560203392a2565b600180546001600160a01b0319166001600160a01b0390921691821790556040519081527fbd0a63c12948fbc9194a5839019f99c9d71db924e5c70018265bc778b8f1a50690602090a1565b6040513d5f823e3d90fd5b600f546001600160a01b031680614a08575b506001600160a01b0381169081614902575b50600f80546001600160a01b0319166001600160a01b038316179055337f390ace337562623e4cf938891cfa7e80b7b2e6ff395963aba93e537ce67e842c5f80a36107335f600855565b5f5160206150d05f395f51905f5254614925906114e1906001600160a01b031681565b6040516370a0823160e01b81523060048201526020816024816001600160a01b0386165afa9081156149e4575f916149e9575b5080614966575b50506148b8565b6149768161499d94602094614d31565b604051636e553f6560e01b8152600481019190915230602482015291829081906044820190565b03815f865af180156149e4576149b5575b808061495f565b6149d69060203d6020116149dd575b6149ce81836108b4565b810190613619565b505f6149ae565b503d6149c4565b614889565b614a02915060203d6020116149dd576149ce81836108b4565b5f614958565b6040516370a0823160e01b8152306004820152602081602481855afa9081156149e4575f92602092614a6d928591614a9b575b50604051635d043b2960e11b815260048101919091523060248201819052604482015293849283919082906064820190565b03925af180156149e457156148a657614a949060203d6020116149dd576149ce81836108b4565b505f6148a6565b614ab29150843d86116149dd576149ce81836108b4565b5f614a3b565b6001600160401b038111614ad2576001600160401b031690565b6306dfcc6560e41b5f52604060045260245260445ffd5b810391908211610f88576301e1338091614b0291613525565b04906305f5e100614b1e6001600160401b036014541684613525565b0491828103908111610f88579190565b9190614b3b828285614dc8565b936004811015614b78576001809116149283614b63575b50505015158101809111610f885790565b909180935015613299570915155f8080614b52565b634e487b7160e01b5f52602160045260245ffd5b90925f198114614c01576001600160a01b03848116908416148015614bf9575b613f12576040516323b872dd60e01b60208201526001600160a01b03948516602482015292909316604483015260648083019390935291815261073391614bf46084836108b4565b614e6a565b508015614bac565b630d550c3b60e11b5f5260045ffd5b6001600160a01b0381169190821561401b575f5160206150705f395f51905f525490828201809211610f88575f92614c7a6020927fddf252ad1be2c89b69c2b068fc378daa952ba7f163c4a11628f55a4df523b3ef945f5160206150705f395f51905f52556134e0565b818154019055604051908152a3565b60ff5f5160206151305f395f51905f525460401c1615614ca557565b631afcd79f60e31b5f5260045ffd5b5f8091604051602081019063313ce56760e01b825260048152614cd86024826108b4565b51916001600160a01b03165afa614ced613e29565b9080614d25575b614d00575b505f905f90565b80602080614d1393518301019101613619565b60ff8111614cf9579060ff6001921690565b50602081511015614cf4565b919081158015614db6575b61458d57604051636eb1769f60e11b81523060048201526001600160a01b0382811660248301529092906020908490604490829088165afa9283156149e4575f93614d95575b508201809211610f885761073392614ec2565b614daf91935060203d6020116149dd576149ce81836108b4565b915f614d82565b506001600160a01b0381163014614d3c565b91818302915f1981850993838086109503948086039514614e4d5784831115614e405790829109815f0382168092046002816003021880820260020302808202600203028082026002030280820260020302808202600203028091026002030293600183805f03040190848311900302920304170290565b6011600384150218614e5a565b5050906116dc925061328f565b634e487b715f526020526024601cfd5b905f602091828151910182855af115614889575f513d614eb957506001600160a01b0381163b155b614e995750565b635274afe760e01b5f9081526001600160a01b0391909116600452602490fd5b60011415614e92565b60405163095ea7b360e01b60208281019182526001600160a01b0385166024840152604480840196909652948252929390925f90614f016064866108b4565b84519082855af15f51903d81614f61575b501590505b614f2057505050565b60405163095ea7b360e01b60208201526001600160a01b0390931660248401525f604484015261073392614bf490614f5b816064810161151b565b82614e6a565b15159050614f815750614f176001600160a01b0382163b15155b5f614f12565b6001614f179114614f7b565b60018060a01b03168091815f52600260205260405f2060ff1981541660ff8315151617905560405190151581527f7276f1d77fbb1794919362294fb870305193d894417c47c88716aa858f4272d360203392a35f5260036020525f604081205556fefcb0c32c4f653382a412cb0caa6a29f9e46d74bae452ca200c67f1e5e638930052c63247e1f47db19d5ce0460030c497f067ca4cebf71ba98eeadabe20bace0352c63247e1f47db19d5ce0460030c497f067ca4cebf71ba98eeadabe20bace049016d09d72d40fdae2fd8ceac6b6234c7706214fd39c1cd1e609a0528c19930052c63247e1f47db19d5ce0460030c497f067ca4cebf71ba98eeadabe20bace0255d65f3b5821c66716708cd5119fc8b654f479bd23b96d0911cee852419047001d9ff85e70b948f53a2cc45fa6f42c020b2a8eec3349351855dea946b06357000773e532dfede91f04b12a73d3d2acd361424f41f76b4fb79f090161e36b4e00cd5ed15c6e187e77e9aee88184c21f4f2182ab5827cb3b7e07fbedcd63f033009b779b17422d0df92223018b32b4d1fa46e071723d6817e2486d003becc55f00f0c57e16840df040f15088dc2f81fe391c3923bec73e23a9662efc9c229c6a00237e158222e3e6968b72b9db0d8043aacf074ad9f650f0d1606b4d82ee432c00a26469706673582212204dadfb3a5c39bd8c0030958db22460d8b41039ede23013f9a1bc2dd597d6bec464736f6c63430008210033f0c57e16840df040f15088dc2f81fe391c3923bec73e23a9662efc9c229c6a00","linkReferences":{}},"methodIdentifiers":{"ORDER_MANAGER_SINGLETON()":"0f4f0c32","acceptGuardian()":"a5f31d61","acceptMarket(address)":"f6b6a7a4","acceptOwnership()":"79ba5097","acceptPendingMinApy()":"163c8c77","acceptPerformanceFeeRate()":"cb3cab67","acceptPool()":"b0a4709d","acceptTimelock()":"8a2c7b39","accretingPrincipal()":"594d16f7","afterSwap(uint256,uint256,int256,int256)":"da3f224a","allowance(address,address)":"dd62ed3e","annualizedInterest()":"e5c6c88d","approve(address,uint256)":"095ea7b3","apr()":"57ded9c9","apy()":"3bcfc4b8","asset()":"38d52e0f","badDebtMapping(address)":"618f9694","balanceOf(address)":"70a08231","convertToAssets(uint256)":"07a2d13a","convertToShares(uint256)":"c6e6f592","createOrder(address,(uint256,uint256,uint256,((uint256,uint256,int256)[],(uint256,uint256,int256)[])))":"a7ebda97","curator()":"e66f53b7","dealBadDebt(address,uint256,address,address)":"7207fbb4","decimals()":"313ce567","deposit(uint256,address)":"6e553f65","getVersion()":"0d8e6e2c","guardian()":"452a9320","initialize((address,address,address,uint256,address,address,uint256,string,string,uint64,uint64))":"9d8b21e9","initialize((address,address,uint256,address,uint256,string,string,uint64))":"77e1731b","marketWhitelist(address)":"1908a2ee","maxDeposit(address)":"402d267d","maxMint(address)":"c63d75b6","maxRedeem(address)":"d905777e","maxWithdraw(address)":"ce96cb77","minApy()":"24524a96","mint(uint256,address)":"94bf804d","name()":"06fdde03","orderMaturity(address)":"ac33207f","owner()":"8da5cb5b","pause()":"8456cb59","paused()":"5c975abb","pendingGuardian()":"762c31ba","pendingMarkets(address)":"460bf7e1","pendingMinApy()":"d209643a","pendingOwner()":"e30c3978","pendingPerformanceFeeRate()":"3f38db41","pendingPool()":"af9840e5","pendingTimelock()":"7cc4d9a1","performanceFee()":"87788782","performanceFeeRate()":"0ffbfda4","pool()":"16f0115b","previewDeposit(uint256)":"ef8b30f7","previewMint(uint256)":"b3d7f6b9","previewRedeem(uint256)":"4cdad506","previewWithdraw(uint256)":"0a28a477","redeem(uint256,address,address)":"ba087652","redeemOrder(address)":"988a64c4","removeLiquidityFromOrders(address[],uint256[])":"9a110973","renounceOwnership()":"715018a6","revokePendingGuardian()":"1ecca77c","revokePendingMarket(address)":"e34c721b","revokePendingMinApy()":"86c058ed","revokePendingPerformanceFeeRate()":"80a58a5e","revokePendingPool()":"63f04383","revokePendingTimelock()":"c9649aa9","setCapacity(uint256)":"91915ef8","setCurator(address)":"e90956cf","submitGuardian(address)":"9d6b4a45","submitMarket(address,bool)":"1124f92c","submitPendingMinApy(uint64)":"89716a25","submitPendingPool(address)":"45142231","submitPerformanceFeeRate(uint184)":"a9133f5e","submitTimelock(uint256)":"7224a512","supplyQueue(uint256)":"f7d18521","supplyQueueLength()":"a17b3130","symbol()":"95d89b41","timelock()":"d33219b4","totalAssets()":"01e1d114","totalFt()":"69c42125","totalSupply()":"18160ddd","transfer(address,uint256)":"a9059cbb","transferFrom(address,address,uint256)":"23b872dd","transferOwnership(address)":"f2fde38b","unpause()":"3f4ba83a","updateOrdersConfiguration(address[],(uint256,uint256,uint256,((uint256,uint256,int256)[],(uint256,uint256,int256)[]))[])":"0edc3c64","withdraw(uint256,address,address)":"b460af94","withdrawFts(address,uint256,address,address)":"94e854f2","withdrawPerformanceFee(address,uint256)":"93bd007b","withdrawQueue(uint256)":"62518ddf","withdrawQueueLength()":"33f91ebb"},"id":89}