{"abi":[{"type":"constructor","inputs":[{"name":"_owner","type":"address","internalType":"address"},{"name":"timeLock","type":"uint256","internalType":"uint256"}],"stateMutability":"nonpayable"},{"type":"function","name":"acceptOwnership","inputs":[],"outputs":[],"stateMutability":"nonpayable"},{"type":"function","name":"acceptPendingOracle","inputs":[{"name":"asset","type":"address","internalType":"address"}],"outputs":[],"stateMutability":"nonpayable"},{"type":"function","name":"getPrice","inputs":[{"name":"asset","type":"address","internalType":"address"}],"outputs":[{"name":"","type":"uint256","internalType":"uint256"},{"name":"","type":"uint8","internalType":"uint8"}],"stateMutability":"view"},{"type":"function","name":"getVersion","inputs":[],"outputs":[{"name":"","type":"string","internalType":"string"}],"stateMutability":"pure"},{"type":"function","name":"oracles","inputs":[{"name":"","type":"address","internalType":"address"}],"outputs":[{"name":"aggregator","type":"address","internalType":"contract AggregatorV3Interface"},{"name":"backupAggregator","type":"address","internalType":"contract AggregatorV3Interface"},{"name":"maxPrice","type":"int256","internalType":"int256"},{"name":"minPrice","type":"int256","internalType":"int256"},{"name":"heartbeat","type":"uint32","internalType":"uint32"},{"name":"backupHeartbeat","type":"uint32","internalType":"uint32"}],"stateMutability":"view"},{"type":"function","name":"owner","inputs":[],"outputs":[{"name":"","type":"address","internalType":"address"}],"stateMutability":"view"},{"type":"function","name":"pendingOracles","inputs":[{"name":"","type":"address","internalType":"address"}],"outputs":[{"name":"oracle","type":"tuple","internalType":"struct IOracleV2.Oracle","components":[{"name":"aggregator","type":"address","internalType":"contract AggregatorV3Interface"},{"name":"backupAggregator","type":"address","internalType":"contract AggregatorV3Interface"},{"name":"maxPrice","type":"int256","internalType":"int256"},{"name":"minPrice","type":"int256","internalType":"int256"},{"name":"heartbeat","type":"uint32","internalType":"uint32"},{"name":"backupHeartbeat","type":"uint32","internalType":"uint32"}]},{"name":"validAt","type":"uint64","internalType":"uint64"}],"stateMutability":"view"},{"type":"function","name":"pendingOwner","inputs":[],"outputs":[{"name":"","type":"address","internalType":"address"}],"stateMutability":"view"},{"type":"function","name":"renounceOwnership","inputs":[],"outputs":[],"stateMutability":"nonpayable"},{"type":"function","name":"revokePendingOracle","inputs":[{"name":"asset","type":"address","internalType":"address"}],"outputs":[],"stateMutability":"nonpayable"},{"type":"function","name":"submitPendingOracle","inputs":[{"name":"asset","type":"address","internalType":"address"},{"name":"oracle","type":"tuple","internalType":"struct IOracleV2.Oracle","components":[{"name":"aggregator","type":"address","internalType":"contract AggregatorV3Interface"},{"name":"backupAggregator","type":"address","internalType":"contract AggregatorV3Interface"},{"name":"maxPrice","type":"int256","internalType":"int256"},{"name":"minPrice","type":"int256","internalType":"int256"},{"name":"heartbeat","type":"uint32","internalType":"uint32"},{"name":"backupHeartbeat","type":"uint32","internalType":"uint32"}]}],"outputs":[],"stateMutability":"nonpayable"},{"type":"function","name":"transferOwnership","inputs":[{"name":"newOwner","type":"address","internalType":"address"}],"outputs":[],"stateMutability":"nonpayable"},{"type":"event","name":"OwnershipTransferStarted","inputs":[{"name":"previousOwner","type":"address","indexed":true,"internalType":"address"},{"name":"newOwner","type":"address","indexed":true,"internalType":"address"}],"anonymous":false},{"type":"event","name":"OwnershipTransferred","inputs":[{"name":"previousOwner","type":"address","indexed":true,"internalType":"address"},{"name":"newOwner","type":"address","indexed":true,"internalType":"address"}],"anonymous":false},{"type":"event","name":"RevokePendingOracle","inputs":[{"name":"asset","type":"address","indexed":true,"internalType":"address"}],"anonymous":false},{"type":"event","name":"SubmitPendingOracle","inputs":[{"name":"asset","type":"address","indexed":true,"internalType":"address"},{"name":"aggregator","type":"address","indexed":true,"internalType":"contract AggregatorV3Interface"},{"name":"backupAggregator","type":"address","indexed":true,"internalType":"contract AggregatorV3Interface"},{"name":"maxPrice","type":"int256","indexed":false,"internalType":"int256"},{"name":"minPrice","type":"int256","indexed":false,"internalType":"int256"},{"name":"heartbeat","type":"uint32","indexed":false,"internalType":"uint32"},{"name":"backupHeartbeat","type":"uint32","indexed":false,"internalType":"uint32"},{"name":"validAt","type":"uint64","indexed":false,"internalType":"uint64"}],"anonymous":false},{"type":"event","name":"UpdateOracle","inputs":[{"name":"asset","type":"address","indexed":true,"internalType":"address"},{"name":"aggregator","type":"address","indexed":true,"internalType":"contract AggregatorV3Interface"},{"name":"backupAggregator","type":"address","indexed":true,"internalType":"contract AggregatorV3Interface"},{"name":"maxPrice","type":"int256","indexed":false,"internalType":"int256"},{"name":"minPrice","type":"int256","indexed":false,"internalType":"int256"},{"name":"heartbeat","type":"uint32","indexed":false,"internalType":"uint32"},{"name":"backupHeartbeat","type":"uint32","indexed":false,"internalType":"uint32"}],"anonymous":false},{"type":"error","name":"InvalidAssetOrOracle","inputs":[]},{"type":"error","name":"NoPendingValue","inputs":[]},{"type":"error","name":"OracleIsNotWorking","inputs":[{"name":"asset","type":"address","internalType":"address"}]},{"type":"error","name":"OwnableInvalidOwner","inputs":[{"name":"owner","type":"address","internalType":"address"}]},{"type":"error","name":"OwnableUnauthorizedAccount","inputs":[{"name":"account","type":"address","internalType":"address"}]},{"type":"error","name":"TimelockNotElapsed","inputs":[]}],"bytecode":{"object":"0x60a0346100d757601f610fb238819003918201601f19168301916001600160401b038311848410176100db5780849260409485528339810103126100d75780516001600160a01b03811691908290036100d7576020015181156100c457600180546001600160a01b03199081169091555f80549182168417815560405193916001600160a01b0316907f8be0079c531659141344cd1fd0a4f28419497f9722a3daafe3b4186f6b6457e09080a3608052610ec290816100f0823960805181610a730152f35b631e4fbdf760e01b5f525f60045260245ffd5b5f80fd5b634e487b7160e01b5f52604160045260245ffdfe6080806040526004361015610012575f80fd5b5f3560e01c9081630d8e6e2c146105c15750806319f595891461051f57806340b9e6bc1461044a57806341976e0914610416578063715018a6146103b357806379ba50971461032e5780637a3634a9146102825780638da5cb5b1461025b57806398efa279146101be578063addd509914610139578063e30c3978146101115763f2fde38b146100a0575f80fd5b3461010d57602036600319011261010d576100b961061b565b6100c1610d42565b60018060a01b0316806001600160601b0360a01b600154161760015560018060a01b035f54167f38d16b8cac22d99fc7c124b9cd0de2d3fa1faef420bfe791d8c362d765e227005f80a3005b5f80fd5b3461010d575f36600319011261010d576001546040516001600160a01b039091168152602090f35b3461010d57602036600319011261010d576001600160a01b0361015a61061b565b165f52600260205260c060405f2063ffffffff60018060a01b038254169160018060a01b036001820154169060028101546004600383015492015492604051958652602086015260408501526060840152818116608084015260201c1660a0820152f35b3461010d57602036600319011261010d576001600160a01b036101df61061b565b165f52600360205260e060405f2067ffffffffffffffff60056102018361069f565b9201541663ffffffff60a060405193600180831b038151168552600180831b036020820151166020860152604081015160408601526060810151606086015282608082015116608086015201511660a083015260c0820152f35b3461010d575f36600319011261010d575f546040516001600160a01b039091168152602090f35b3461010d5760e036600319011261010d5761029b61061b565b60c036602319011261010d576040516102b381610661565b6024356001600160a01b038116810361010d5781526044356001600160a01b038116810361010d5760208201526064356040820152608435606082015260a43563ffffffff8116810361010d57608082015260c4359163ffffffff8316830361010d5761032c9260a0830152610327610d42565b6109ca565b005b3461010d575f36600319011261010d57600154336001600160a01b03909116036103a057600180546001600160a01b03199081169091555f805433928116831782556001600160a01b0316907f8be0079c531659141344cd1fd0a4f28419497f9722a3daafe3b4186f6b6457e09080a3005b63118cdaa760e01b5f523360045260245ffd5b3461010d575f36600319011261010d576103cb610d42565b600180546001600160a01b03199081169091555f80549182168155906001600160a01b03167f8be0079c531659141344cd1fd0a4f28419497f9722a3daafe3b4186f6b6457e08280a3005b3461010d57602036600319011261010d57604060ff61043b61043661061b565b610780565b83519182529091166020820152f35b3461010d57602036600319011261010d5761046361061b565b6001600160a01b0381165f8181526003602052604090206005015490919067ffffffffffffffff161561051057815f52600360205267ffffffffffffffff600560405f200154164210610501576104ce90825f5260036020526104c860405f2061069f565b90610d55565b5f5260036020525f6005604082206104fd8160045f918281558260018201558260028201558260038201550155565b0155005b63333bd2cb60e11b5f5260045ffd5b63e5f408a560e01b5f5260045ffd5b3461010d57602036600319011261010d5761053861061b565b610540610d42565b6001600160a01b03165f8181526003602052604090206005015467ffffffffffffffff161561051057805f5260036020525f6005604082206105998160045f918281558260018201558260028201558260038201550155565b01557fdd57585963a156fef3b0e5cefd9f863861b2ba7de76e2ad31c7bed65d741c4465f80a2005b3461010d575f36600319011261010d576105da81610631565b6005815260406020820191640322e302e360dc1b83528151928391602083525180918160208501528484015e5f828201840152601f01601f19168101030190f35b600435906001600160a01b038216820361010d57565b6040810190811067ffffffffffffffff82111761064d57604052565b634e487b7160e01b5f52604160045260245ffd5b60c0810190811067ffffffffffffffff82111761064d57604052565b90601f8019910116810190811067ffffffffffffffff82111761064d57604052565b906040516106ac81610661565b60a063ffffffff60048395600180851b038154168552600180851b03600182015416602086015260028101546040860152600381015460608601520154818116608085015260201c16910152565b519069ffffffffffffffffffff8216820361010d57565b908160a091031261010d57610725816106fa565b916020820151916040810151916107436080606084015193016106fa565b90565b9190820180921161075357565b634e487b7160e01b5f52601160045260245ffd5b9081602091031261010d575160ff8116810361010d5790565b60018060a01b031690815f52600260205261079d60405f2061069f565b80516001600160a01b0316156109bb578051604051633fabe5a360e21b81529060a090829060049082906001600160a01b03165afa80156108e3575f915f91610995575b5063ffffffff608084015116908115918215610981575b505061093a575b506020810180516001600160a01b03169182610829575b84631035448560e01b5f5260045260245ffd5b60a060049360405194858092633fabe5a360e21b82525afa80156108e3575f935f91610902575b5063ffffffff60a0830151169081159182156108ee575b505015610816576108789083610e31565b6108825780610816565b5160405163313ce56760e01b81529350602090849060049082906001600160a01b03165afa9283156108e3575f936108b957509190565b61074391935060203d6020116108dc575b6108d4818361067d565b810190610767565b503d6108ca565b6040513d5f823e3d90fd5b6108f89250610746565b4211155f80610867565b905061092791935060a03d60a011610933575b61091f818361067d565b810190610711565b5094925050925f610850565b503d610915565b6109448282610e31565b156107ff57905160405163313ce56760e01b81529350602090849060049082906001600160a01b03165afa9283156108e3575f936108b957509190565b61098b9250610746565b4211155f806107f8565b90506109b0915060a03d60a0116109335761091f818361067d565b50925050905f6107e1565b6337d5b61360e21b5f5260045ffd5b81516001600160a01b03161580610d2d575b610cb6576001600160a01b0381169081158015610ca4575b6109bb57815f526002602052610a0c60405f2061069f565b805184516001600160a01b039081169116149081610c84575b50610c7757506020820180519091906001600160a01b0316610bb4575b7f8cdf80b2c359c37d4d77cf0ca2595c0712c7badb739b354aa4a65f56973885f960a067ffffffffffffffff610a987f000000000000000000000000000000000000000000000000000000000000000042610746565b1694604051610aa681610631565b81815267ffffffffffffffff60056020830192898452875f52600360205260405f209051600180881b03600180891b03825116166001600160601b03881b835416178255600180881b0360208201511660018301906001808a1b03166001600160601b03891b8254161790556040810151600283015560608101516003830155600482019063ffffffff60808201511667ffffffff0000000089845493015160201b1691861916171790550191511667ffffffffffffffff19825416179055600180831b0381511694600180841b039051169560408201519160608101519063ffffffff858160808401511692015116916040519485526020850152604084015260608301526080820152a4565b825160405163313ce56760e01b815290602090829060049082906001600160a01b03165afa9081156108e3575f91610c58575b50825160405163313ce56760e01b815290602090829060049082906001600160a01b03165afa9081156108e35760ff9182915f91610c39575b501691160315610a42576337d5b61360e21b5f5260045ffd5b610c52915060203d6020116108dc576108d4818361067d565b5f610c20565b610c71915060203d6020116108dc576108d4818361067d565b5f610be7565b610c82929150610d55565b565b602090810151908501516001600160a01b0390811691161490505f610a25565b5082516001600160a01b0316156109f4565b5f9150819060018060a01b03168082526002602052610cef6040832060045f918281558260018201558260028201558260038201550155565b7f62cda6087be2fcd5ecd9299726a6386ae700e0062d54a87ce4918070937f17806080604051848152846020820152846040820152846060820152a4565b5060208201516001600160a01b0316156109dc565b5f546001600160a01b031633036103a057565b6001600160a01b039081165f81815260026020818152604092839020865181549087166001600160a01b03199182168117835588840151600184018054919099169216821790975587850151938201849055606080890151600384018190556080808b01516004909501805460a0909c015167ffffffff0000000081891b1663ffffffff97881667ffffffffffffffff19909e168e1717909155885197885295870191909152958501989098529116958201959095527f62cda6087be2fcd5ecd9299726a6386ae700e0062d54a87ce4918070937f17809190a4565b905f821215610e405750505f90565b60408101518015159081610e82575b5015610e5b5750505f90565b606001518015159182610e78575b5050610e7457600190565b5f90565b1290505f80610e69565b905082135f610e4f56fea2646970667358221220089fcadf83c5b5610b2cfd93ec38d2977ea5ab43cc8d7c3308ac48bef5fdb30664736f6c63430008210033","linkReferences":{}},"methodIdentifiers":{"acceptOwnership()":"79ba5097","acceptPendingOracle(address)":"40b9e6bc","getPrice(address)":"41976e09","getVersion()":"0d8e6e2c","oracles(address)":"addd5099","owner()":"8da5cb5b","pendingOracles(address)":"98efa279","pendingOwner()":"e30c3978","renounceOwnership()":"715018a6","revokePendingOracle(address)":"19f59589","submitPendingOracle(address,(address,address,int256,int256,uint32,uint32))":"7a3634a9","transferOwnership(address)":"f2fde38b"},"id":73}