{"abi":[{"type":"constructor","inputs":[{"name":"TERMMAX_VAULT_IMPLEMENTATION_","type":"address","internalType":"address"}],"stateMutability":"nonpayable"},{"type":"function","name":"TERMMAX_VAULT_IMPLEMENTATION","inputs":[],"outputs":[{"name":"","type":"address","internalType":"address"}],"stateMutability":"view"},{"type":"function","name":"createVault","inputs":[{"name":"initialParams","type":"tuple","internalType":"struct VaultInitialParams","components":[{"name":"admin","type":"address","internalType":"address"},{"name":"curator","type":"address","internalType":"address"},{"name":"timelock","type":"uint256","internalType":"uint256"},{"name":"asset","type":"address","internalType":"contract IERC20"},{"name":"maxCapacity","type":"uint256","internalType":"uint256"},{"name":"name","type":"string","internalType":"string"},{"name":"symbol","type":"string","internalType":"string"},{"name":"performanceFeeRate","type":"uint64","internalType":"uint64"}]},{"name":"salt","type":"uint256","internalType":"uint256"}],"outputs":[{"name":"vault","type":"address","internalType":"address"}],"stateMutability":"nonpayable"},{"type":"function","name":"predictVaultAddress","inputs":[{"name":"deployer","type":"address","internalType":"address"},{"name":"asset","type":"address","internalType":"address"},{"name":"name","type":"string","internalType":"string"},{"name":"symbol","type":"string","internalType":"string"},{"name":"salt","type":"uint256","internalType":"uint256"}],"outputs":[{"name":"vault","type":"address","internalType":"address"}],"stateMutability":"view"},{"type":"event","name":"CreateMarket","inputs":[{"name":"market","type":"address","indexed":true,"internalType":"address"},{"name":"collateral","type":"address","indexed":true,"internalType":"address"},{"name":"debtToken","type":"address","indexed":true,"internalType":"contract IERC20"}],"anonymous":false},{"type":"event","name":"CreateVault","inputs":[{"name":"vault","type":"address","indexed":true,"internalType":"address"},{"name":"creator","type":"address","indexed":true,"internalType":"address"},{"name":"initialParams","type":"tuple","indexed":true,"internalType":"struct VaultInitialParams","components":[{"name":"admin","type":"address","internalType":"address"},{"name":"curator","type":"address","internalType":"address"},{"name":"timelock","type":"uint256","internalType":"uint256"},{"name":"asset","type":"address","internalType":"contract IERC20"},{"name":"maxCapacity","type":"uint256","internalType":"uint256"},{"name":"name","type":"string","internalType":"string"},{"name":"symbol","type":"string","internalType":"string"},{"name":"performanceFeeRate","type":"uint64","internalType":"uint64"}]}],"anonymous":false},{"type":"event","name":"SetGtImplement","inputs":[{"name":"key","type":"bytes32","indexed":false,"internalType":"bytes32"},{"name":"gtImplement","type":"address","indexed":false,"internalType":"address"}],"anonymous":false},{"type":"error","name":"CantNotFindGtImplementation","inputs":[]},{"type":"error","name":"FailedDeployment","inputs":[]},{"type":"error","name":"InsufficientBalance","inputs":[{"name":"balance","type":"uint256","internalType":"uint256"},{"name":"needed","type":"uint256","internalType":"uint256"}]},{"type":"error","name":"InvalidImplementation","inputs":[]}],"bytecode":{"object":"0x60a03461008c57601f61071a38819003918201601f19168301916001600160401b038311848410176100905780849260209460405283398101031261008c57516001600160a01b03811680820361008c571561007d5760805260405161067590816100a582396080518181816050015281816101b3015261052c0152f35b63340aafcd60e11b5f5260045ffd5b5f80fd5b634e487b7160e01b5f52604160045260245ffdfe60806040526004361015610011575f80fd5b5f5f3560e01c80636aec18e7146104475780637e790995146100825763c65b512d1461003b575f80fd5b3461007f578060031936011261007f576040517f00000000000000000000000000000000000000000000000000000000000000006001600160a01b03168152602090f35b80fd5b5034610420576040366003190112610420576004359067ffffffffffffffff82116104205761010060031983360301126104205760405191610100830183811067ffffffffffffffff821117610433576040526100e18160040161058f565b83526100ef6024820161058f565b60208401908152604482013560408501908152936064830135926001600160a01b0384168403610420576060820193845260808201906084810135825260a481013567ffffffffffffffff81116104205761015090600436918401016105c5565b60a0840190815260c482013567ffffffffffffffff81116104205761017b90600436918501016105c5565b9260e460c086019385855201359367ffffffffffffffff851685036104205760e086019485526e5af43d82803e903d91602b57fd5bf37f00000000000000000000000000000000000000000000000000000000000000009161020e61023660018060a01b038c5116926102208851916040519485936020850197338952604086015260a0606086015260c085019061061b565b838103601f190160808501529061061b565b60243560a083015203601f1981018352826105a3565b51902091763d602d80600a3d3981f3363d3d373d3d3d363d7300000062ffffff8260881c16175f5260781b1760205260018060a01b0390603760095ff51696871561042457873b15610420576040516377e1731b60e01b81526020600482015286516001600160a01b0390811660248301528851811660448301528b5160648301528251166084820152825160a4820152835161010060c4830152909a905f908c908190610300906102ed9061012484019061061b565b89518382036023190160e485015261061b565b67ffffffffffffffff8a51166101048301520381838d5af19a8b156104155760209b6103e1575b506040805197516001600160a01b03908116895298518916888d015290519087015251909516606085015293516080840152925180519293879385939267ffffffffffffffff9260a0929091879190819083018886015e8a848289010152601f8019910116860191518051918291018484015e89838284010152601f8019910116010191511681520301902060405192827f8d49b14f2b628cc0c1a7ad5e098155260cd1881003c9d3107c728be96f706b33339280a48152f35b8b9796959288929b509460a09467ffffffffffffffff966104035f86956105a3565b5f9d9450949798995094509450610327565b6040513d5f823e3d90fd5b5f80fd5b63b06ebf3d60e01b5f5260045ffd5b634e487b7160e01b5f52604160045260245ffd5b346104205760a0366003190112610420576004356001600160a01b03811690819003610420576024356001600160a01b03811691908290036104205760443567ffffffffffffffff8111610420576104a39036906004016105c5565b60643567ffffffffffffffff8111610420576020936104f16104cc6105079336906004016105c5565b61020e604051958694898601988952604086015260a0606086015260c085019061061b565b60843560a083015203601f1981018352826105a3565b519020604051903060388301526f5af43d82803e903d91602b57fd5bf3ff60248301527f00000000000000000000000000000000000000000000000000000000000000006014830152733d602d80600a3d3981f3363d3d373d3d3d363d73825260588201526037600c82012060788201526055604360018060a01b0392012016604051908152f35b35906001600160a01b038216820361042057565b90601f8019910116810190811067ffffffffffffffff82111761043357604052565b81601f820112156104205780359067ffffffffffffffff821161043357604051926105fa601f8401601f1916602001856105a3565b8284526020838301011161042057815f926020809301838601378301015290565b805180835260209291819084018484015e5f828201840152601f01601f191601019056fea2646970667358221220a13da59f9b4473aa0ce745eaa40773e4cb8e1578e9e55a2bcc96f82a969b6ab464736f6c63430008210033","linkReferences":{}},"methodIdentifiers":{"TERMMAX_VAULT_IMPLEMENTATION()":"c65b512d","createVault((address,address,uint256,address,uint256,string,string,uint64),uint256)":"7e790995","predictVaultAddress(address,address,string,string,uint256)":"6aec18e7"},"id":19}