{"abi":[{"type":"constructor","inputs":[{"name":"MINTABLE_ERC20_IMPLEMENT_","type":"address","internalType":"address"},{"name":"TERMMAX_ORDER_IMPLEMENT_","type":"address","internalType":"address"}],"stateMutability":"nonpayable"},{"type":"function","name":"acceptOwnership","inputs":[],"outputs":[],"stateMutability":"nonpayable"},{"type":"function","name":"burn","inputs":[{"name":"recipient","type":"address","internalType":"address"},{"name":"debtTokenAmt","type":"uint256","internalType":"uint256"}],"outputs":[],"stateMutability":"nonpayable"},{"type":"function","name":"burn","inputs":[{"name":"owner","type":"address","internalType":"address"},{"name":"recipient","type":"address","internalType":"address"},{"name":"debtTokenAmt","type":"uint256","internalType":"uint256"}],"outputs":[],"stateMutability":"nonpayable"},{"type":"function","name":"config","inputs":[],"outputs":[{"name":"","type":"tuple","internalType":"struct MarketConfig","components":[{"name":"treasurer","type":"address","internalType":"address"},{"name":"maturity","type":"uint64","internalType":"uint64"},{"name":"feeConfig","type":"tuple","internalType":"struct FeeConfig","components":[{"name":"lendTakerFeeRatio","type":"uint32","internalType":"uint32"},{"name":"lendMakerFeeRatio","type":"uint32","internalType":"uint32"},{"name":"borrowTakerFeeRatio","type":"uint32","internalType":"uint32"},{"name":"borrowMakerFeeRatio","type":"uint32","internalType":"uint32"},{"name":"mintGtFeeRatio","type":"uint32","internalType":"uint32"},{"name":"mintGtFeeRef","type":"uint32","internalType":"uint32"}]}]}],"stateMutability":"view"},{"type":"function","name":"createOrder","inputs":[{"name":"params","type":"tuple","internalType":"struct OrderInitialParams","components":[{"name":"maker","type":"address","internalType":"address"},{"name":"ft","type":"address","internalType":"contract IERC20"},{"name":"xt","type":"address","internalType":"contract IERC20"},{"name":"debtToken","type":"address","internalType":"contract IERC20"},{"name":"gt","type":"address","internalType":"contract IGearingToken"},{"name":"virtualXtReserve","type":"uint256","internalType":"uint256"},{"name":"pool","type":"address","internalType":"contract IERC4626"},{"name":"maturity","type":"uint64","internalType":"uint64"},{"name":"orderConfig","type":"tuple","internalType":"struct OrderConfig","components":[{"name":"curveCuts","type":"tuple","internalType":"struct CurveCuts","components":[{"name":"lendCurveCuts","type":"tuple[]","internalType":"struct CurveCut[]","components":[{"name":"xtReserve","type":"uint256","internalType":"uint256"},{"name":"liqSquare","type":"uint256","internalType":"uint256"},{"name":"offset","type":"int256","internalType":"int256"}]},{"name":"borrowCurveCuts","type":"tuple[]","internalType":"struct CurveCut[]","components":[{"name":"xtReserve","type":"uint256","internalType":"uint256"},{"name":"liqSquare","type":"uint256","internalType":"uint256"},{"name":"offset","type":"int256","internalType":"int256"}]}]},{"name":"gtId","type":"uint256","internalType":"uint256"},{"name":"maxXtReserve","type":"uint256","internalType":"uint256"},{"name":"swapTrigger","type":"address","internalType":"contract ISwapCallback"},{"name":"feeConfig","type":"tuple","internalType":"struct FeeConfig","components":[{"name":"lendTakerFeeRatio","type":"uint32","internalType":"uint32"},{"name":"lendMakerFeeRatio","type":"uint32","internalType":"uint32"},{"name":"borrowTakerFeeRatio","type":"uint32","internalType":"uint32"},{"name":"borrowMakerFeeRatio","type":"uint32","internalType":"uint32"},{"name":"mintGtFeeRatio","type":"uint32","internalType":"uint32"},{"name":"mintGtFeeRef","type":"uint32","internalType":"uint32"}]}]}]},{"name":"salt","type":"uint256","internalType":"uint256"}],"outputs":[{"name":"order","type":"address","internalType":"contract ITermMaxOrder"}],"stateMutability":"nonpayable"},{"type":"function","name":"createOrder","inputs":[{"name":"params","type":"tuple","internalType":"struct OrderInitialParams","components":[{"name":"maker","type":"address","internalType":"address"},{"name":"ft","type":"address","internalType":"contract IERC20"},{"name":"xt","type":"address","internalType":"contract IERC20"},{"name":"debtToken","type":"address","internalType":"contract IERC20"},{"name":"gt","type":"address","internalType":"contract IGearingToken"},{"name":"virtualXtReserve","type":"uint256","internalType":"uint256"},{"name":"pool","type":"address","internalType":"contract IERC4626"},{"name":"maturity","type":"uint64","internalType":"uint64"},{"name":"orderConfig","type":"tuple","internalType":"struct OrderConfig","components":[{"name":"curveCuts","type":"tuple","internalType":"struct CurveCuts","components":[{"name":"lendCurveCuts","type":"tuple[]","internalType":"struct CurveCut[]","components":[{"name":"xtReserve","type":"uint256","internalType":"uint256"},{"name":"liqSquare","type":"uint256","internalType":"uint256"},{"name":"offset","type":"int256","internalType":"int256"}]},{"name":"borrowCurveCuts","type":"tuple[]","internalType":"struct CurveCut[]","components":[{"name":"xtReserve","type":"uint256","internalType":"uint256"},{"name":"liqSquare","type":"uint256","internalType":"uint256"},{"name":"offset","type":"int256","internalType":"int256"}]}]},{"name":"gtId","type":"uint256","internalType":"uint256"},{"name":"maxXtReserve","type":"uint256","internalType":"uint256"},{"name":"swapTrigger","type":"address","internalType":"contract ISwapCallback"},{"name":"feeConfig","type":"tuple","internalType":"struct FeeConfig","components":[{"name":"lendTakerFeeRatio","type":"uint32","internalType":"uint32"},{"name":"lendMakerFeeRatio","type":"uint32","internalType":"uint32"},{"name":"borrowTakerFeeRatio","type":"uint32","internalType":"uint32"},{"name":"borrowMakerFeeRatio","type":"uint32","internalType":"uint32"},{"name":"mintGtFeeRatio","type":"uint32","internalType":"uint32"},{"name":"mintGtFeeRef","type":"uint32","internalType":"uint32"}]}]}]}],"outputs":[{"name":"","type":"address","internalType":"contract ITermMaxOrder"}],"stateMutability":"nonpayable"},{"type":"function","name":"createOrder","inputs":[{"name":"maker","type":"address","internalType":"address"},{"name":"maxXtReserve","type":"uint256","internalType":"uint256"},{"name":"swapTrigger","type":"address","internalType":"contract ISwapCallback"},{"name":"curveCuts","type":"tuple","internalType":"struct CurveCuts","components":[{"name":"lendCurveCuts","type":"tuple[]","internalType":"struct CurveCut[]","components":[{"name":"xtReserve","type":"uint256","internalType":"uint256"},{"name":"liqSquare","type":"uint256","internalType":"uint256"},{"name":"offset","type":"int256","internalType":"int256"}]},{"name":"borrowCurveCuts","type":"tuple[]","internalType":"struct CurveCut[]","components":[{"name":"xtReserve","type":"uint256","internalType":"uint256"},{"name":"liqSquare","type":"uint256","internalType":"uint256"},{"name":"offset","type":"int256","internalType":"int256"}]}]}],"outputs":[{"name":"","type":"address","internalType":"contract ITermMaxOrder"}],"stateMutability":"nonpayable"},{"type":"function","name":"getVersion","inputs":[],"outputs":[{"name":"","type":"string","internalType":"string"}],"stateMutability":"pure"},{"type":"function","name":"initialize","inputs":[{"name":"params","type":"tuple","internalType":"struct MarketInitialParams","components":[{"name":"collateral","type":"address","internalType":"address"},{"name":"debtToken","type":"address","internalType":"contract IERC20Metadata"},{"name":"admin","type":"address","internalType":"address"},{"name":"gtImplementation","type":"address","internalType":"address"},{"name":"marketConfig","type":"tuple","internalType":"struct MarketConfig","components":[{"name":"treasurer","type":"address","internalType":"address"},{"name":"maturity","type":"uint64","internalType":"uint64"},{"name":"feeConfig","type":"tuple","internalType":"struct FeeConfig","components":[{"name":"lendTakerFeeRatio","type":"uint32","internalType":"uint32"},{"name":"lendMakerFeeRatio","type":"uint32","internalType":"uint32"},{"name":"borrowTakerFeeRatio","type":"uint32","internalType":"uint32"},{"name":"borrowMakerFeeRatio","type":"uint32","internalType":"uint32"},{"name":"mintGtFeeRatio","type":"uint32","internalType":"uint32"},{"name":"mintGtFeeRef","type":"uint32","internalType":"uint32"}]}]},{"name":"loanConfig","type":"tuple","internalType":"struct LoanConfig","components":[{"name":"oracle","type":"address","internalType":"contract IOracle"},{"name":"liquidationLtv","type":"uint32","internalType":"uint32"},{"name":"maxLtv","type":"uint32","internalType":"uint32"},{"name":"liquidatable","type":"bool","internalType":"bool"}]},{"name":"gtInitalParams","type":"bytes","internalType":"bytes"},{"name":"tokenName","type":"string","internalType":"string"},{"name":"tokenSymbol","type":"string","internalType":"string"}]}],"outputs":[],"stateMutability":"nonpayable"},{"type":"function","name":"issueFt","inputs":[{"name":"recipient","type":"address","internalType":"address"},{"name":"debt","type":"uint128","internalType":"uint128"},{"name":"collateralData","type":"bytes","internalType":"bytes"}],"outputs":[{"name":"gtId","type":"uint256","internalType":"uint256"},{"name":"ftOutAmt","type":"uint128","internalType":"uint128"}],"stateMutability":"nonpayable"},{"type":"function","name":"issueFtByExistedGt","inputs":[{"name":"recipient","type":"address","internalType":"address"},{"name":"debt","type":"uint128","internalType":"uint128"},{"name":"gtId","type":"uint256","internalType":"uint256"}],"outputs":[{"name":"ftOutAmt","type":"uint128","internalType":"uint128"}],"stateMutability":"nonpayable"},{"type":"function","name":"leverageByXt","inputs":[{"name":"xtOwner","type":"address","internalType":"address"},{"name":"recipient","type":"address","internalType":"address"},{"name":"xtAmt","type":"uint128","internalType":"uint128"},{"name":"callbackData","type":"bytes","internalType":"bytes"}],"outputs":[{"name":"gtId","type":"uint256","internalType":"uint256"}],"stateMutability":"nonpayable"},{"type":"function","name":"leverageByXt","inputs":[{"name":"recipient","type":"address","internalType":"address"},{"name":"xtAmt","type":"uint128","internalType":"uint128"},{"name":"callbackData","type":"bytes","internalType":"bytes"}],"outputs":[{"name":"gtId","type":"uint256","internalType":"uint256"}],"stateMutability":"nonpayable"},{"type":"function","name":"mint","inputs":[{"name":"recipient","type":"address","internalType":"address"},{"name":"debtTokenAmt","type":"uint256","internalType":"uint256"}],"outputs":[],"stateMutability":"nonpayable"},{"type":"function","name":"mintGtFeeRatio","inputs":[],"outputs":[{"name":"","type":"uint256","internalType":"uint256"}],"stateMutability":"view"},{"type":"function","name":"name","inputs":[],"outputs":[{"name":"","type":"string","internalType":"string"}],"stateMutability":"view"},{"type":"function","name":"owner","inputs":[],"outputs":[{"name":"","type":"address","internalType":"address"}],"stateMutability":"view"},{"type":"function","name":"pendingOwner","inputs":[],"outputs":[{"name":"","type":"address","internalType":"address"}],"stateMutability":"view"},{"type":"function","name":"predictOrderAddress","inputs":[{"name":"params","type":"tuple","internalType":"struct OrderInitialParams","components":[{"name":"maker","type":"address","internalType":"address"},{"name":"ft","type":"address","internalType":"contract IERC20"},{"name":"xt","type":"address","internalType":"contract IERC20"},{"name":"debtToken","type":"address","internalType":"contract IERC20"},{"name":"gt","type":"address","internalType":"contract IGearingToken"},{"name":"virtualXtReserve","type":"uint256","internalType":"uint256"},{"name":"pool","type":"address","internalType":"contract IERC4626"},{"name":"maturity","type":"uint64","internalType":"uint64"},{"name":"orderConfig","type":"tuple","internalType":"struct OrderConfig","components":[{"name":"curveCuts","type":"tuple","internalType":"struct CurveCuts","components":[{"name":"lendCurveCuts","type":"tuple[]","internalType":"struct CurveCut[]","components":[{"name":"xtReserve","type":"uint256","internalType":"uint256"},{"name":"liqSquare","type":"uint256","internalType":"uint256"},{"name":"offset","type":"int256","internalType":"int256"}]},{"name":"borrowCurveCuts","type":"tuple[]","internalType":"struct CurveCut[]","components":[{"name":"xtReserve","type":"uint256","internalType":"uint256"},{"name":"liqSquare","type":"uint256","internalType":"uint256"},{"name":"offset","type":"int256","internalType":"int256"}]}]},{"name":"gtId","type":"uint256","internalType":"uint256"},{"name":"maxXtReserve","type":"uint256","internalType":"uint256"},{"name":"swapTrigger","type":"address","internalType":"contract ISwapCallback"},{"name":"feeConfig","type":"tuple","internalType":"struct FeeConfig","components":[{"name":"lendTakerFeeRatio","type":"uint32","internalType":"uint32"},{"name":"lendMakerFeeRatio","type":"uint32","internalType":"uint32"},{"name":"borrowTakerFeeRatio","type":"uint32","internalType":"uint32"},{"name":"borrowMakerFeeRatio","type":"uint32","internalType":"uint32"},{"name":"mintGtFeeRatio","type":"uint32","internalType":"uint32"},{"name":"mintGtFeeRef","type":"uint32","internalType":"uint32"}]}]}]},{"name":"salt","type":"uint256","internalType":"uint256"}],"outputs":[{"name":"orderAddress","type":"address","internalType":"address"}],"stateMutability":"view"},{"type":"function","name":"previewRedeem","inputs":[{"name":"ftAmount","type":"uint256","internalType":"uint256"}],"outputs":[{"name":"debtTokenAmt","type":"uint256","internalType":"uint256"},{"name":"deliveryData","type":"bytes","internalType":"bytes"}],"stateMutability":"view"},{"type":"function","name":"redeem","inputs":[{"name":"ftOwner","type":"address","internalType":"address"},{"name":"recipient","type":"address","internalType":"address"},{"name":"ftAmount","type":"uint256","internalType":"uint256"}],"outputs":[{"name":"","type":"uint256","internalType":"uint256"},{"name":"","type":"bytes","internalType":"bytes"}],"stateMutability":"nonpayable"},{"type":"function","name":"redeem","inputs":[{"name":"ftAmount","type":"uint256","internalType":"uint256"},{"name":"recipient","type":"address","internalType":"address"}],"outputs":[{"name":"","type":"uint256","internalType":"uint256"},{"name":"","type":"bytes","internalType":"bytes"}],"stateMutability":"nonpayable"},{"type":"function","name":"renounceOwnership","inputs":[],"outputs":[],"stateMutability":"nonpayable"},{"type":"function","name":"tokens","inputs":[],"outputs":[{"name":"","type":"address","internalType":"contract IMintableERC20"},{"name":"","type":"address","internalType":"contract IMintableERC20"},{"name":"","type":"address","internalType":"contract IGearingToken"},{"name":"","type":"address","internalType":"address"},{"name":"","type":"address","internalType":"contract IERC20"}],"stateMutability":"view"},{"type":"function","name":"transferOwnership","inputs":[{"name":"newOwner","type":"address","internalType":"address"}],"outputs":[],"stateMutability":"nonpayable"},{"type":"function","name":"updateGtConfig","inputs":[{"name":"configData","type":"bytes","internalType":"bytes"}],"outputs":[],"stateMutability":"nonpayable"},{"type":"function","name":"updateMarketConfig","inputs":[{"name":"newConfig","type":"tuple","internalType":"struct MarketConfig","components":[{"name":"treasurer","type":"address","internalType":"address"},{"name":"maturity","type":"uint64","internalType":"uint64"},{"name":"feeConfig","type":"tuple","internalType":"struct FeeConfig","components":[{"name":"lendTakerFeeRatio","type":"uint32","internalType":"uint32"},{"name":"lendMakerFeeRatio","type":"uint32","internalType":"uint32"},{"name":"borrowTakerFeeRatio","type":"uint32","internalType":"uint32"},{"name":"borrowMakerFeeRatio","type":"uint32","internalType":"uint32"},{"name":"mintGtFeeRatio","type":"uint32","internalType":"uint32"},{"name":"mintGtFeeRef","type":"uint32","internalType":"uint32"}]}]}],"outputs":[],"stateMutability":"nonpayable"},{"type":"function","name":"updateOrderFeeRate","inputs":[{"name":"order","type":"address","internalType":"contract ITermMaxOrder"},{"name":"newFeeConfig","type":"tuple","internalType":"struct FeeConfig","components":[{"name":"lendTakerFeeRatio","type":"uint32","internalType":"uint32"},{"name":"lendMakerFeeRatio","type":"uint32","internalType":"uint32"},{"name":"borrowTakerFeeRatio","type":"uint32","internalType":"uint32"},{"name":"borrowMakerFeeRatio","type":"uint32","internalType":"uint32"},{"name":"mintGtFeeRatio","type":"uint32","internalType":"uint32"},{"name":"mintGtFeeRef","type":"uint32","internalType":"uint32"}]}],"outputs":[],"stateMutability":"nonpayable"},{"type":"event","name":"Burn","inputs":[{"name":"caller","type":"address","indexed":true,"internalType":"address"},{"name":"receiver","type":"address","indexed":true,"internalType":"address"},{"name":"amount","type":"uint256","indexed":false,"internalType":"uint256"}],"anonymous":false},{"type":"event","name":"CreateOrder","inputs":[{"name":"maker","type":"address","indexed":true,"internalType":"address"},{"name":"order","type":"address","indexed":true,"internalType":"contract ITermMaxOrder"}],"anonymous":false},{"type":"event","name":"Initialized","inputs":[{"name":"version","type":"uint64","indexed":false,"internalType":"uint64"}],"anonymous":false},{"type":"event","name":"IssueFt","inputs":[{"name":"caller","type":"address","indexed":true,"internalType":"address"},{"name":"recipient","type":"address","indexed":true,"internalType":"address"},{"name":"gtId","type":"uint256","indexed":true,"internalType":"uint256"},{"name":"debtAmt","type":"uint128","indexed":false,"internalType":"uint128"},{"name":"ftAmt","type":"uint128","indexed":false,"internalType":"uint128"},{"name":"fee","type":"uint128","indexed":false,"internalType":"uint128"},{"name":"collateralData","type":"bytes","indexed":false,"internalType":"bytes"}],"anonymous":false},{"type":"event","name":"IssueFtByExistedGt","inputs":[{"name":"caller","type":"address","indexed":true,"internalType":"address"},{"name":"recipient","type":"address","indexed":true,"internalType":"address"},{"name":"gtId","type":"uint256","indexed":true,"internalType":"uint256"},{"name":"debtAmt","type":"uint128","indexed":false,"internalType":"uint128"},{"name":"ftAmt","type":"uint128","indexed":false,"internalType":"uint128"},{"name":"issueFee","type":"uint128","indexed":false,"internalType":"uint128"}],"anonymous":false},{"type":"event","name":"LeverageByXt","inputs":[{"name":"loanReceiver","type":"address","indexed":true,"internalType":"address"},{"name":"gtReceiver","type":"address","indexed":true,"internalType":"address"},{"name":"gtId","type":"uint256","indexed":true,"internalType":"uint256"},{"name":"debtAmt","type":"uint128","indexed":false,"internalType":"uint128"},{"name":"xtAmt","type":"uint256","indexed":false,"internalType":"uint256"},{"name":"fee","type":"uint128","indexed":false,"internalType":"uint128"},{"name":"collateralData","type":"bytes","indexed":false,"internalType":"bytes"}],"anonymous":false},{"type":"event","name":"MarketInitialized","inputs":[{"name":"collateral","type":"address","indexed":true,"internalType":"address"},{"name":"underlying","type":"address","indexed":true,"internalType":"contract IERC20"},{"name":"maturity","type":"uint64","indexed":false,"internalType":"uint64"},{"name":"ft","type":"address","indexed":false,"internalType":"contract IMintableERC20"},{"name":"xt","type":"address","indexed":false,"internalType":"contract IMintableERC20"},{"name":"gt","type":"address","indexed":false,"internalType":"contract IGearingToken"}],"anonymous":false},{"type":"event","name":"Mint","inputs":[{"name":"caller","type":"address","indexed":true,"internalType":"address"},{"name":"receiver","type":"address","indexed":true,"internalType":"address"},{"name":"amount","type":"uint256","indexed":false,"internalType":"uint256"}],"anonymous":false},{"type":"event","name":"OwnershipTransferStarted","inputs":[{"name":"previousOwner","type":"address","indexed":true,"internalType":"address"},{"name":"newOwner","type":"address","indexed":true,"internalType":"address"}],"anonymous":false},{"type":"event","name":"OwnershipTransferred","inputs":[{"name":"previousOwner","type":"address","indexed":true,"internalType":"address"},{"name":"newOwner","type":"address","indexed":true,"internalType":"address"}],"anonymous":false},{"type":"event","name":"Redeem","inputs":[{"name":"caller","type":"address","indexed":true,"internalType":"address"},{"name":"recipient","type":"address","indexed":true,"internalType":"address"},{"name":"proportion","type":"uint128","indexed":false,"internalType":"uint128"},{"name":"underlyingAmt","type":"uint128","indexed":false,"internalType":"uint128"},{"name":"deliveryData","type":"bytes","indexed":false,"internalType":"bytes"}],"anonymous":false},{"type":"event","name":"UpdateMarketConfig","inputs":[{"name":"config","type":"tuple","indexed":false,"internalType":"struct MarketConfig","components":[{"name":"treasurer","type":"address","internalType":"address"},{"name":"maturity","type":"uint64","internalType":"uint64"},{"name":"feeConfig","type":"tuple","internalType":"struct FeeConfig","components":[{"name":"lendTakerFeeRatio","type":"uint32","internalType":"uint32"},{"name":"lendMakerFeeRatio","type":"uint32","internalType":"uint32"},{"name":"borrowTakerFeeRatio","type":"uint32","internalType":"uint32"},{"name":"borrowMakerFeeRatio","type":"uint32","internalType":"uint32"},{"name":"mintGtFeeRatio","type":"uint32","internalType":"uint32"},{"name":"mintGtFeeRef","type":"uint32","internalType":"uint32"}]}]}],"anonymous":false},{"type":"error","name":"CanNotRedeemBeforeFinalLiquidationDeadline","inputs":[{"name":"liquidationDeadline","type":"uint256","internalType":"uint256"}]},{"type":"error","name":"CollateralCanNotEqualUnderlyinng","inputs":[]},{"type":"error","name":"FailedDeployment","inputs":[]},{"type":"error","name":"FeeTooHigh","inputs":[]},{"type":"error","name":"InsufficientBalance","inputs":[{"name":"balance","type":"uint256","internalType":"uint256"},{"name":"needed","type":"uint256","internalType":"uint256"}]},{"type":"error","name":"InvalidInitialization","inputs":[]},{"type":"error","name":"InvalidMaturity","inputs":[]},{"type":"error","name":"NotInitializing","inputs":[]},{"type":"error","name":"OwnableInvalidOwner","inputs":[{"name":"owner","type":"address","internalType":"address"}]},{"type":"error","name":"OwnableUnauthorizedAccount","inputs":[{"name":"account","type":"address","internalType":"address"}]},{"type":"error","name":"ReentrancyGuardReentrantCall","inputs":[]},{"type":"error","name":"SafeCastOverflowedUintDowncast","inputs":[{"name":"bits","type":"uint8","internalType":"uint8"},{"name":"value","type":"uint256","internalType":"uint256"}]},{"type":"error","name":"SafeERC20FailedOperation","inputs":[{"name":"token","type":"address","internalType":"address"}]},{"type":"error","name":"TermIsNotOpen","inputs":[]}],"bytecode":{"object":"0x60c03461012757601f613c8738819003918201601f19168301916001600160401b0383118484101761012b57808492604094855283398101031261012757610052602061004b8361013f565b920161013f565b9060805260a0525f516020613c675f395f51905f525460ff8160401c16610118576002600160401b03196001600160401b038216016100c2575b604051613b139081610154823960805181610a67015260a0518181816111900152818161133d0152818161172d0152611f1f0152f35b6001600160401b0319166001600160401b039081175f516020613c675f395f51905f52556040519081527fc7f505b2f371ae2175ee4913f4499e1f2633a7b5936321eed1cdaeb6115181d290602090a15f61008c565b63f92ee8a960e01b5f5260045ffd5b5f80fd5b634e487b7160e01b5f52604160045260245ffd5b51906001600160a01b03821682036101275756fe6080806040526004361015610012575f80fd5b5f905f3560e01c90816306fdde0314612035575080630d8e6e2c14611fee5780630e6dfcd514611fcd57806313560a9014611eaa578063358aa0eb14611d8b57806339a380ed14611b825780633f5ffaf514611b6757806340c10f19146119c45780634cdad506146117d75780634fa05f1d1461175157806352f919a9146116cb578063624a5104146114df578063715018a61461146057806379502c551461141657806379ba5097146113c65780637bde82f214611371578063887bb989146112285780638da5cb5b146111f35780638ff16793146110fd578063910a105c146106a75780639d63848a146106505780639dc29fac146105fb5780639ea1c1c914610593578063d1f55a3c146104f2578063e30c3978146104bd578063f2fde38b14610437578063f41dc9f2146101b35763f6b911bc14610152575f80fd5b346101b05761016036612269565b9061016c9392936129a8565b6001600160401b03835460a01c164210156101a15761018d929333906137f2565b60015f516020613a7e5f395f51905f525580f35b630cf6cf4760e01b8352600483fd5b80fd5b50346101b0576101c236612755565b90926101cc6129a8565b6001600160401b03855460a01c164210156104285760018060a01b036006541660405194630d60240d60e21b865233600487015260018060a01b038316968760248801526020876001600160801b038816948560448301526080606483015281848161023c608482018c8a6133aa565b03925af196871561041b5781976103e3575b506102576128e3565b9561027161026c6102666127f0565b8661316c565b613955565b600454975190976001600160a01b039081169116813b156103df57886102b0928592836040518096819582946340c10f1960e01b845260048401613066565b03925af180156103d457889184916103b7575b50506102ce91613089565b9360018060a01b036004541690813b156103b35785610306928492836040518096819582946340c10f1960e01b845260048401613066565b03925af180156103a857610393575b5050604096928694926103737f4df3b19e819480e8ca2aff222a35ef1641eedcaf2f0fe5e7bfe9ca499548df80936001600160801b03808c51958695865216998a6020860152168b84015260806060840152339560808401916133aa565b0390a460015f516020613a7e5f395f51905f525582519182526020820152f35b61039e8280926121e4565b6101b05780610315565b6040513d84823e3d90fd5b8280fd5b819250906103c4916121e4565b6103d05786825f6102c3565b5080fd5b6040513d85823e3d90fd5b8380fd5b9096506020813d602011610413575b816103ff602093836121e4565b8101031261040f5751955f61024e565b5f80fd5b3d91506103f2565b50604051903d90823e3d90fd5b630cf6cf4760e01b8552600485fd5b50346101b05760203660031901126101b057610451612229565b610459612f69565b5f516020613abe5f395f51905f5280546001600160a01b0319166001600160a01b039283169081179091555f516020613a5e5f395f51905f52549091167f38d16b8cac22d99fc7c124b9cd0de2d3fa1faef420bfe791d8c362d765e227008380a380f35b50346101b057806003193601126101b0575f516020613abe5f395f51905f52546040516001600160a01b039091168152602090f35b50346101b05760203660031901126101b057806004356001600160401b03811161059057610524903690600401612711565b61052c612f69565b6006546001600160a01b0316803b1561058e57604051634663566760e11b815260206004820152918391839182908490829061056c906024830190612205565b03925af180156103a85761057d5750f35b81610587916121e4565b6101b05780f35b505b50fd5b50346101b0576105a236612755565b936105ae9391936129a8565b6001600160401b03815460a01c164210156105ec5760206105d38686868633336133ca565b60015f516020613a7e5f395f51905f5255604051908152f35b630cf6cf4760e01b8152600490fd5b50346101b05760403660031901126101b057610615612229565b61061d6129a8565b6001600160401b03825460a01c164210156106415761018d906024359033336137f2565b630cf6cf4760e01b8252600482fd5b50346101b057806003193601126101b057600454600554600654600254600354604080516001600160a01b03968716815294861660208601529285169284019290925283166060830152909116608082015260a090f35b50346101b05760203660031901126101b0576004356001600160401b0381116103d0578036036102606003198201126103b3576040516106e681612177565b6106f283600401612255565b81526024830135906001600160a01b0382168203610fe6576020810191825261071d60448501612255565b926040820193845261073160648601612255565b606083019081526101006083198301126110f95760806040519261075484612148565b61076060848901612255565b845261076e60a489016122bd565b60208501526107803660c48a0161246e565b60408501528482019384526101831901126110f95760405191608083018381106001600160401b038211176110e5576040526101848701356001600160a01b03811681036110e15783526107d76101a488016123c6565b60208401526107e96101c488016123c6565b60408401526101e487013580151581036110e157606084015260a084019283526102048701356001600160401b0381116110e15761082d90600436918a0101612711565b9060c085019182526102248801356001600160401b038111610fcd5761085990600436918b0101612711565b9760e08601988952610244810135906001600160401b0382116110dd5760046108859236920101612711565b9161010086019283525f516020613a9e5f395f51905f52549760ff8960401c1615986001600160401b038116801590816110d5575b60011490816110cb575b1590816110c2575b506110b35767ffffffffffffffff1981166001175f516020613a9e5f395f51905f525589611087575b50516001600160a01b0316610908613986565b801561107357610917906136b4565b61091f613986565b60015f516020613a7e5f395f51905f5255855187516001600160a01b03908116911614611064578151602081016001600160401b0381511642101561105557908b93929160408201916109728351612f9c565b8a51600380546001600160a01b03199081166001600160a01b03938416179091558b5160028054831691841691909117905591515f8054909316908216179091559051855467ffffffffffffffff60a01b191660a091821b67ffffffffffffffff60a01b1617865591518051600180546020808501516040808701516060808901516080808b01519a8d01516001600160c01b031990981663ffffffff9a909a16999099179490951b67ffffffff000000001693909317911b63ffffffff60401b161791901b63ffffffff60601b16179390921b63ffffffff60801b1692909217931b63ffffffff60a01b16929092179091557f00000000000000000000000000000000000000000000000000000000000000009690610a91886139b1565b16966001600160a01b0390610aa5906139b1565b96519616956001600160a01b0390610abe9082166139b1565b16946004602060018060a01b038c51166040519283809263313ce56760e01b82525afa908115610fea578691611019575b50610b048d610afc61371f565b9051906137b5565b610b17610b0f61371f565b8451906137b5565b908a3b15610fc957828b610b45938a809460405196879586948593630b127b6360e11b855260048501613740565b03925af190811561100e578791610ff5575b5050610b658d610afc613773565b610b70610b0f613773565b893b15610fc9578791610b976040519485938493630b127b6360e11b855260048501613740565b0381838c5af1908115610fea578691610fd1575b5050610bc5610bbc8d610afc613794565b91610afc613794565b89518b519551805160209091015194516040516001600160a01b0398891698949692851694909391926001600160401b03169116610c02846121c9565b83526020830197885260408301968c8852606084019485526080840191825260a0840192835251938a3b15610fcd578997604051998a98899863093ce73f60e21b8a5260048a0161018090526101848a01610c5c91612205565b8981036003190160248b0152610c7191612205565b95516001600160a01b0390811660448a01529051811660648901529051811660848801529051811660a487015290516001600160401b031660c48601529051805190911660e4850152602081015163ffffffff90811661010486015260408201511661012485015260600151151561014484015282810360031901610164840152610cfb91612205565b038183875af180156103a857610fb4575b50506001600160601b0360a01b60065416176006556001600160601b0360a01b60055416176005556001600160601b0360a01b6004541617600455610d7d604094855190610d5a87836121e4565b600f82526e2a32b936b6b0bc1026b0b935b2ba1d60891b602083015251906137b5565b8051906001600160401b038211610fa0578190610d9b600754612110565b601f8111610f28575b50602090601f8311600114610ea6578892610e9b575b50508160011b915f199060031b1c1916176007555b5190518454600454600554600654875160a09490941c6001600160401b031684526001600160a01b039283166020850152908216838801528116606083015291821692909116907f923c07a7269eb05c7b48c4002081d856ef37b3cbc4c2bae12d7493178477e30690608090a3610e44575080f35b60207fc7f505b2f371ae2175ee4913f4499e1f2633a7b5936321eed1cdaeb6115181d29168ff0000000000000000195f516020613a9e5f395f51905f5254165f516020613a9e5f395f51905f52555160018152a180f35b015190505f80610dba565b600789527fa66cc928b5edb82af9bd49922954155ab7b0942694bea4ce44661d9a8736c6889250601f198416895b818110610f105750908460019594939210610ef8575b505050811b01600755610dcf565b01515f1960f88460031b161c191690555f8080610eea565b92936020600181928786015181550195019301610ed4565b82811115610da45790915060078852601f830160051c9060208410610f98575b9080601f8594930160051c0390895b828110610f65575050610da4565b8082017fa66cc928b5edb82af9bd49922954155ab7b0942694bea4ce44661d9a8736c688018b9055859450600101610f57565b889150610f48565b634e487b7160e01b87526041600452602487fd5b81610fbe916121e4565b610fc957875f610d0c565b8780fd5b8980fd5b81610fdb916121e4565b610fe657845f610bab565b8480fd5b6040513d88823e3d90fd5b81610fff916121e4565b61100a57855f610b57565b8580fd5b6040513d89823e3d90fd5b90506020813d60201161104d575b81611034602093836121e4565b8101031261100a575160ff8116810361100a575f610aef565b3d9150611027565b6318f4d05960e31b8c5260048cfd5b6329da690f60e11b8a5260048afd5b631e4fbdf760e01b8b5260048b905260248bfd5b68ffffffffffffffffff191668010000000000000001175f516020613a9e5f395f51905f52555f6108f5565b63f92ee8a960e01b8c5260048cfd5b9050155f6108cc565b303b1591506108c4565b8b91506108ba565b8a80fd5b8880fd5b634e487b7160e01b89526041600452602489fd5b8680fd5b50346101b057602061110e36612617565b815160c083015161010090930151606090810151604080516001600160a01b03948516888201908152968516602088015293909116908501523090840152608083019190915261116b8160a084015b03601f1981018352826121e4565b519020604051903060388301526f5af43d82803e903d91602b57fd5bf3ff60248301527f00000000000000000000000000000000000000000000000000000000000000006014830152733d602d80600a3d3981f3363d3d373d3d3d363d73825260588201526037600c82012060788201526055604360018060a01b0392012016604051908152f35b50346101b057806003193601126101b0575f516020613a5e5f395f51905f52546040516001600160a01b039091168152602090f35b50346101b05760803660031901126101b057611242612229565b906044356001600160a01b03811691908290036101b0576064356001600160401b0381116103d057611278903690600401612367565b6001600160401b03825460a01c16421015610641576020936040519361129d85612177565b83855283868601528360408601528360608601528360808601528360a08601528360c08601528360e0860152610100850191604051906112dc82612193565b6040516112e8816121ae565b6060815260608982015282528588830152604082019186835286606082015261130f612978565b6080820152845260018060a01b03168652602435905260608251015251525061136960018060a01b036113617f00000000000000000000000000000000000000000000000000000000000000006139b1565b168092612d82565b604051908152f35b50346101b05760403660031901126101b0576113a161138e61223f565b6113966129a8565b6004359033336129e0565b9060015f516020613a7e5f395f51905f52556113c2604051928392836122a3565b0390f35b50346101b057806003193601126101b0575f516020613abe5f395f51905f5254336001600160a01b039091160361140357611400336136b4565b80f35b63118cdaa760e01b815233600452602490fd5b50346101b057806003193601126101b0576040519061143482612148565b80825260208201526040611446612978565b9101526113c26114546128e3565b604051918291826126bc565b50346101b057806003193601126101b057611479612f69565b5f516020613abe5f395f51905f5280546001600160a01b03199081169091555f516020613a5e5f395f51905f528054918216905581906001600160a01b03167f8be0079c531659141344cd1fd0a4f28419497f9722a3daafe3b4186f6b6457e08280a380f35b50346101b0576101003660031901126101b0576114fa612f69565b61150b611506366123d7565b612f9c565b6115136128e3565b61151b612962565b81516001600160a01b03908116911603611649575b6116437f5329c6d8ae2f6a70281fd58d811d748cccbdc4249757649cb845a782dd6070b49161155e366123d7565b604082810182905282515f80546001600160a01b0319166001600160a01b0392909216919091179055602080840151875467ffffffffffffffff60a01b191660a091821b67ffffffffffffffff60a01b1617885583516001805484870151868801516060808a01516080808c01519b8901516001600160c01b031990961663ffffffff98909816979097179390981b67ffffffff00000000169290921790881b63ffffffff60401b161795901b63ffffffff60601b16949094179590911b63ffffffff60801b169490941791901b63ffffffff60a01b161790915551918291826126bc565b0390a180f35b6001600160a01b03611659612962565b16815260065482906001600160a01b0316611672612962565b813b156103b35760405163671d642960e01b81526001600160a01b0390911660048201529082908290602490829084905af180156103a8576116b6575b5050611530565b816116c0916121e4565b6103d057815f6116af565b50346101b05760203660031901126101b0576004356001600160401b0381116103d0576116fc9036906004016124e3565b6117046129a8565b6001600160401b03825460a01c1642101561064157602091506105d36001600160a01b036113617f00000000000000000000000000000000000000000000000000000000000000006139b1565b50346101b05760803660031901126101b05761176b612229565b9061177461223f565b604435906001600160801b03821682036103b3576064356001600160401b0381116103df576117a7903690600401612648565b9490936117b26129a8565b6001600160401b03815460a01c164210156105ec5760206105d38787878733886133ca565b50346101b05760203660031901126101b0576117f16130a9565b60018060a01b0360045416604051906318160ddd60e01b8252602082600481845afa9182156103d457839261198f575b50906020602492604051938480926370a0823160e01b82523060048301525afa9182156103d4578392611959575b5061185f60249261186792612874565b6004356131f5565b600654604051637da39d5b60e01b81526004810183905292849184919082906001600160a01b03165afa9182156103d4578392611934575b506003546040516370a0823160e01b8152306004820152929390602090849060249082906001600160a01b03165afa90811561192857906118f4575b6118e592506132a6565b6113c2604051928392836122a3565b506020823d602011611920575b8161190e602093836121e4565b8101031261040f576118e591516118db565b3d9150611901565b604051903d90823e3d90fd5b60249250611953903d8086833e61194b81836121e4565b810190612881565b9161189f565b91506020823d602011611987575b81611974602093836121e4565b8101031261040f5790519061185f61184f565b3d9150611967565b91506020823d6020116119bc575b816119aa602093836121e4565b8101031261040f579051906020611821565b3d915061199d565b50346101b05760403660031901126101b0576119de612229565b602435906119ea6129a8565b6001600160401b03835460a01c164210156101a1576003546040516323b872dd60e01b602082015233602482015230604482015260648101849052611a4e916001600160a01b0316611a4982608481015b03601f1981018452836121e4565b613a05565b60045483906001600160a01b0316803b156103d0576040516340c10f1960e01b81526001600160a01b0384166004820152602481018590529082908290604490829084905af180156103a857611b52575b506005546001600160a01b0316803b156103d0576040516340c10f1960e01b81526001600160a01b0384166004820152602481018590529082908290604490829084905af180156103a857611b3d575b50506040519182526001600160a01b03169033907fab8530f87dc9b59234c4623bf917212bb2536d647574c8e7e5da92c2ede0c9f890602090a360015f516020613a7e5f395f51905f525580f35b81611b47916121e4565b6103b357825f611aef565b81611b5c916121e4565b6103b357825f611a9f565b50346101b057806003193601126101b05760206113696127f0565b50346101b05760603660031901126101b057611b9c612229565b602435906001600160801b0382168083036103df5760443591611bbd6129a8565b6001600160401b03855460a01c164210156104285760065485906001600160a01b0316803b156103d0578180916064604051809481936316e8363160e11b83523360048401528a60248401528960448401525af180156103a857611d76575b5050611c266128e3565b93611c3b61026c611c356127f0565b8561316c565b600454955190956001600160a01b0391821691889116803b156103d057878291611c7c94836040518097819582946340c10f1960e01b845260048401613066565b03925af191821561041b578792611d5d575b5050611c9991613089565b6004549095906001600160a01b0316803b156103d0578160405180926340c10f1960e01b8252818381611cd08d8a60048401613066565b03925af180156103a857611d48575b50506001600160801b03806020966040519485521694858785015216604083015260018060a01b0316907fb50ea3d7fe2bef28974c75926a6ef8a7266c9e12c600e4bf0ea8d40d401accfb60603392a460015f516020613a7e5f395f51905f5255604051908152f35b611d538280926121e4565b6101b05780611cdf565b81925090611d6a916121e4565b61100a5784865f611c8e565b81611d80916121e4565b610fe657845f611c1c565b503461040f5760e036600319011261040f576004356001600160a01b0381169081900361040f5760c036602319011261040f57604051611dca816121c9565b60243563ffffffff8116810361040f57815260443563ffffffff8116810361040f57602082015260643563ffffffff8116810361040f57604082015260843563ffffffff8116810361040f57606082015260a43563ffffffff8116810361040f57608082015260c43563ffffffff8116810361040f5760a0820152611e4d612f69565b611e5681612f9c565b813b1561040f57611e8160c45f9283604051958694859363b53f9bff60e01b85526004850190612675565b5af18015611e9f57611e91575080f35b611e9d91505f906121e4565b005b6040513d5f823e3d90fd5b3461040f57611eb836612617565b611ec06129a8565b6001600160401b035f5460a01c16421015611fbe57815160c080840151610100850151606090810151604080516001600160a01b03968716602082019081529487169181019190915294169084015230608084015260a08301939093527f0000000000000000000000000000000000000000000000000000000000000000926e5af43d82803e903d91602b57fd5bf3929091611f5f908290810161115d565b51902091763d602d80600a3d3981f3363d3d373d3d3d363d7300000062ffffff8260881c16175f5260781b1760205260018060a01b0390603760095ff5168015611faf576105d381602093612d82565b63b06ebf3d60e01b5f5260045ffd5b630cf6cf4760e01b5f5260045ffd5b3461040f576113a1611fde36612269565b91611fe76129a8565b33906129e0565b3461040f575f36600319011261040f576113c260405161200f6040826121e4565b60058152640322e302e360dc1b6020820152604051918291602083526020830190612205565b3461040f575f36600319011261040f575f60075461205281612110565b80845290600181169081156120ec575060011461208e575b6113c28361207a818503826121e4565b604051918291602083526020830190612205565b91905060075f527fa66cc928b5edb82af9bd49922954155ab7b0942694bea4ce44661d9a8736c688915f905b8082106120d25750909150810160200161207a61206a565b9192600181602092548385880101520191019092916120ba565b60ff191660208086019190915291151560051b8401909101915061207a905061206a565b90600182811c9216801561213e575b602083101461212a57565b634e487b7160e01b5f52602260045260245ffd5b91607f169161211f565b606081019081106001600160401b0382111761216357604052565b634e487b7160e01b5f52604160045260245ffd5b61012081019081106001600160401b0382111761216357604052565b60a081019081106001600160401b0382111761216357604052565b604081019081106001600160401b0382111761216357604052565b60c081019081106001600160401b0382111761216357604052565b90601f801991011681019081106001600160401b0382111761216357604052565b805180835260209291819084018484015e5f828201840152601f01601f1916010190565b600435906001600160a01b038216820361040f57565b602435906001600160a01b038216820361040f57565b35906001600160a01b038216820361040f57565b606090600319011261040f576004356001600160a01b038116810361040f57906024356001600160a01b038116810361040f579060443590565b6040906122ba939281528160208201520190612205565b90565b35906001600160401b038216820361040f57565b81601f8201121561040f578035906001600160401b038211612163576040519261230160208460051b01856121e4565b8284526020606081860194028301019181831161040f57602001925b82841061232b575050505090565b60608483031261040f57602060609160405161234681612148565b8635815282870135838201526040870135604082015281520193019261231d565b919060408382031261040f5760405190612380826121ae565b819380356001600160401b03811161040f578261239e9183016122d1565b83526020810135916001600160401b03831161040f576020926123c192016122d1565b910152565b359063ffffffff8216820361040f57565b60c090604319011261040f57604051906123f0826121c9565b8160443563ffffffff8116810361040f57815260643563ffffffff8116810361040f57602082015260843563ffffffff8116810361040f57604082015260a43563ffffffff8116810361040f57606082015260c43563ffffffff8116810361040f57608082015260e4359063ffffffff8216820361040f5760a00152565b91908260c091031261040f57604051612486816121c9565b60a06123c1818395612497816123c6565b85526124a5602082016123c6565b60208601526124b6604082016123c6565b60408601526124c7606082016123c6565b60608601526124d8608082016123c6565b6080860152016123c6565b91906101208382031261040f57604051906124fd82612177565b819361250881612255565b835261251660208201612255565b602084015261252760408201612255565b604084015261253860608201612255565b606084015260808101356001600160a01b038116810361040f57608084015260a0818101359084015260c08101356001600160a01b038116810361040f5760c084015261258760e082016122bd565b60e0840152610100810135906001600160401b03821161040f5701916101408383031261040f57604051926125bb84612193565b8035926001600160401b03841161040f576080826125e1836101009761260e9601612367565b8752602081013560208801526040810135604088015261260360608201612255565b60608801520161246e565b60808401520152565b604060031982011261040f57600435906001600160401b03821161040f57612641916004016124e3565b9060243590565b9181601f8401121561040f578235916001600160401b03831161040f576020838186019501011161040f57565b63ffffffff60a08092828151168552826020820151166020860152826040820151166040860152826060820151166060860152826080820151166080860152015116910152565b81516001600160a01b031681526020808301516001600160401b031690820152604091820151610100820193926126f4920190612675565b565b6001600160401b03811161216357601f01601f191660200190565b81601f8201121561040f5760208135910161272b826126f6565b9261273960405194856121e4565b8284528282011161040f57815f92602092838601378301015290565b606060031982011261040f576004356001600160a01b038116810361040f57916024356001600160801b038116810361040f5791604435906001600160401b03821161040f576127a791600401612648565b9091565b818102929181159184041417156127be57565b634e487b7160e01b5f52601160045260245ffd5b81156127dc570490565b634e487b7160e01b5f52601260045260245ffd5b6128086001600160401b035f5460a01c164290612874565b620151808101908181116127be576201517f019081116127be576201518090046128586001549161285263ffffffff612846818660801c16846127ab565b9460a01c1680946127ab565b926127ab565b64087f91cd00018064087f91cd00116127be576122ba916127d2565b919082039182116127be57565b60208183031261040f578051906001600160401b03821161040f570181601f8201121561040f578051906128b4826126f6565b926128c260405194856121e4565b8284526020838301011161040f57815f9260208093018386015e8301015290565b604051906128f082612148565b5f546001600160a01b038116835260a01c6001600160401b0316602083015260408051908361291e836121c9565b63ffffffff6001548181168552818160201c1660208601528181851c1684860152818160601c166060860152818160801c16608086015260a01c1660a08401520152565b6004356001600160a01b038116810361040f5790565b60405190612985826121c9565b5f60a0838281528260208201528260408201528260608201528260808201520152565b60025f516020613a7e5f395f51905f5254146129d15760025f516020613a7e5f395f51905f5255565b633ee5aeb560e01b5f5260045ffd5b9391925f946129ed6130a9565b600480546040516370a0823160e01b815230928101929092529091906001600160a01b0316602083602481845afa908115611e9f5788935f92612d00575b5081612c9d575b505060018060a01b0360045416906040516318160ddd60e01b8152602081600481865afa908115612c92578491612c5a575b50612a6f90856131f5565b93823b156103df57604051633dae446f60e21b81526001600160a01b039283166004820152918616602483015260448201529082908290606490829084905af180156103a857612c45575b5050600654604051637e3a509d60e11b8152600481018390526001600160a01b038681166024830181905294919391928891859160449183918591165af192831561100e578793612c29575b50829560018060a01b0360035416976040516370a0823160e01b81523060048201526020816024818d5afa9182156119285791612bed575b50612bb48361026c7f0830e859d308193a7466cf07715c0389a0c5692d9b29004dbf4a629a702a1de69694611a499c612b826001600160801b0398612be8976132a6565b60405163a9059cbb60e01b60208201526001600160a01b039093166024840152604483018190529d8260648101611a3b565b9183612bbf8b613955565b6040519586951685521660208401526060604084015260018060a01b0316946060830190612205565b0390a3565b92939190506020833d602011612c21575b81612c0b602093836121e4565b8101031261040f57915190929190612bb4612b3e565b3d9150612bfe565b612c3e9193503d8089833e61194b81836121e4565b915f612b06565b81612c4f916121e4565b610fe657845f612aba565b9350506020833d602011612c8a575b81612c76602093836121e4565b8101031261040f57612a6f88935190612a64565b3d9150612c69565b6040513d86823e3d90fd5b80919293503b1561040f57604051633dae446f60e21b81523060048201819052602482015260448101929092525f908290606490829084905af18015611e9f57612ceb575b90818792612a32565b612cf89196505f906121e4565b5f945f612ce2565b935090506020833d602011612d2f575b81612d1d602093836121e4565b8101031261040f57879251905f612a2b565b3d9150612d10565b90602080835192838152019201905f5b818110612d545750505090565b9091926020606060019260408751805183528481015185840152015160408201520194019101919091612d47565b5f805460a01c6001600160401b031660e083019081526004546001600160a01b03908116602085019081526005548216604086019081526006548316608087019081526003548416606088019081529790931696949594919390929091873b1561040f5760408051634aba348f60e01b815260206004820181905288516001600160a01b0390811660248401529751881660448301529551871660648201529151861660848301529151851660a482015260a086015160c482015260c086015190941660e485015290516001600160401b0316610104840152610100840151610120610124850152805161014061014486015280516102848601939093525f938593849392612ef192608092612eb9929190612ea3906102c4890190612d37565b91015186820361028319016102a4880152612d37565b6020840151610164860152604084015161018486015260608401516001600160a01b03166101a48601529201516101c4840190612675565b038183885af18015611e9f57612f34575b50516001600160a01b0316907fd736aee681a6a9c77bb981212f26edcfdfc58eddbb8a6db63b9863ae286f99069080a3565b612f419192505f906121e4565b5f907fd736aee681a6a9c77bb981212f26edcfdfc58eddbb8a6db63b9863ae286f9906612f02565b5f516020613a5e5f395f51905f52546001600160a01b03163303612f8957565b63118cdaa760e01b5f523360045260245ffd5b6301312d0063ffffffff604083015116109081159161304c575b8115613035575b811561301b575b8115613001575b8115612fe8575b50612fd957565b63cd4e616760e01b5f5260045ffd5b631dcd6500915060a063ffffffff91015116115f612fd2565b90506301312d0063ffffffff608083015116101590612fcb565b90506301312d0063ffffffff602083015116101590612fc4565b90506301312d0063ffffffff825116101590612fbd565b90506301312d0063ffffffff606083015116101590612fb6565b6001600160a01b0390911681526001600160801b03909116602082015260400190565b906001600160801b03809116911603906001600160801b0382116127be57565b6130b16128e3565b60065460405163a91a53b360e01b815290602090829060049082906001600160a01b03165afa908115611e9f575f9161312a575b506001600160401b03916020911561312257015116611c2081018091116127be575b8042106131115750565b62c9e77160e71b5f5260045260245ffd5b015116613107565b90506020813d602011613164575b81613145602093836121e4565b8101031261040f5751801515810361040f576001600160401b036130e5565b3d9150613138565b9190915f838202915f19858209918380841093039280840393146131e657826305f5e10011156131d457507facbe0e98f503f8881186e60dbb7f727bf36b7213ee9f5a78c767074b22e90e2193946305f5e100910990828211900360f81b910360081c170290565b634e487b71905260116020526024601cfd5b5050506305f5e1009192500490565b90662386f26fc100008202905f19662386f26fc1000084099282808510940393808503941461329a578382111561328257662386f26fc10000829109815f0382168092046002816003021880820260020302808202600203028082026002030280820260020302808202600203028091026002030293600183805f03040190848311900302920304170290565b50634e487b715f52156003026011186020526024601cfd5b50906122ba92506127d2565b9190915f838202915f19858209918380841093039280840393146133145782662386f26fc1000011156131d457507fdfd55a2ef7fed2da00d3bd6d84eb0053f60b3275305c1066e4a4d1417cd9a0419394662386f26fc10000910990828211900360f01b910360101c170290565b505050662386f26fc100009192500490565b906305f5e1008202905f196305f5e10084099282808510940393808503941461329a5783821115613282576305f5e100829109815f0382168092046002816003021880820260020302808202600203028082026002030280820260020302808202600203028091026002030293600183805f03040190848311900302920304170290565b908060209392818452848401375f828201840152601f01601f1916010190565b60035460405163a9059cbb60e01b60208201526001600160a01b03841660248201526001600160801b03861660448201819052929897959694959492935f9392849261342b9161341d8260648101611a3b565b6001600160a01b0316613a05565b600354604051634cd2a52d60e11b81526001600160a01b0398891660048201819052918916602482015260448101879052608060648201529097919091169590928391829161347e9160848401916133aa565b038183885af1908115611e9f575f9161369a575b5061349b6127f0565b6305f5e100036305f5e10081116127be5761026c6134b99185613326565b916134cc6134c56128e3565b9784613089565b60045497516001600160a01b039081169891929116803b1561040f57825f9161350c9a83604051809d819582946340c10f1960e01b845260048401613066565b03925af1978815611e9f576001600160801b0398613687575b50600654604051630d60240d60e21b815260048101889052602481018990529890941660448901819052608060648a01529360209089906001600160a01b0316818481613575608482018a612205565b03925af197881561041b578198613653575b5060055497998a986001600160a01b031690813b156103b357604051633dae446f60e21b81526001600160a01b039091166004820152336024820152604481018790529082908290606490829084905af180156103a85761363e575b50507f5ed89e8445cb54712c2b9c1d3d2edb9c3f431b711a76cede9fecd1d3e93ccc849392916001600160801b036136399260405195869586526020860152166040840152608060608401526080830190612205565b0390a4565b6136498280926121e4565b6101b057806135e3565b9097506020813d60201161367f575b8161366f602093836121e4565b8101031261040f5751965f613587565b3d9150613662565b61369391505f906121e4565b5f5f613525565b6136ae91503d805f833e61194b81836121e4565b5f613492565b5f516020613abe5f395f51905f5280546001600160a01b03199081169091555f516020613a5e5f395f51905f5280549182166001600160a01b0393841690811790915591167f8be0079c531659141344cd1fd0a4f28419497f9722a3daafe3b4186f6b6457e05f80a3565b6040519061372e6040836121e4565b6003825262232a1d60e91b6020830152565b9161376c60ff9161375e604094979697606087526060870190612205565b908582036020870152612205565b9416910152565b604051906137826040836121e4565b60038252622c2a1d60e91b6020830152565b604051906137a36040836121e4565b600382526223aa1d60e91b6020830152565b6122ba9060208080946040519584879551918291018487015e8401908282015f8152815193849201905e01015f815203601f1981018352826121e4565b600454909392915f916001600160a01b0316803b1561040f57604051633dae446f60e21b81526001600160a01b0387811660048301528316602482015260448101869052905f908290606490829084905af18015611e9f57613940575b506005546001600160a01b031690813b156103b357604051633dae446f60e21b81526001600160a01b038781166004830152919091166024820152604481018590529082908290606490829084905af180156103a85761392b575b505060035460405163a9059cbb60e01b6020828101919091526001600160a01b038085166024840152604483018690527fbac40739b0d4ca32fa2d82fc91630465ba3eddd1598da6fca393b26fb63b9453949193919261391492909116611a498260648101611a3b565b6040519384526001600160a01b03908116941692a3565b6139368280926121e4565b6101b057806138aa565b61394d9192505f906121e4565b5f905f61384f565b6001600160801b03811161396f576001600160801b031690565b6306dfcc6560e41b5f52608060045260245260445ffd5b60ff5f516020613a9e5f395f51905f525460401c16156139a257565b631afcd79f60e31b5f5260045ffd5b6e5af43d82803e903d91602b57fd5bf390763d602d80600a3d3981f3363d3d373d3d3d363d7300000062ffffff8260881c16175f5260781b17602052603760095ff0906001600160a01b03821615611faf57565b905f602091828151910182855af115611e9f575f513d613a5457506001600160a01b0381163b155b613a345750565b635274afe760e01b5f9081526001600160a01b0391909116600452602490fd5b60011415613a2d56fe9016d09d72d40fdae2fd8ceac6b6234c7706214fd39c1cd1e609a0528c1993009b779b17422d0df92223018b32b4d1fa46e071723d6817e2486d003becc55f00f0c57e16840df040f15088dc2f81fe391c3923bec73e23a9662efc9c229c6a00237e158222e3e6968b72b9db0d8043aacf074ad9f650f0d1606b4d82ee432c00a26469706673582212206177be28e765eed7654e9dfad78777148e5f0cec3f6e507377f6588290ce43e764736f6c63430008210033f0c57e16840df040f15088dc2f81fe391c3923bec73e23a9662efc9c229c6a00","linkReferences":{}},"methodIdentifiers":{"acceptOwnership()":"79ba5097","burn(address,address,uint256)":"f6b911bc","burn(address,uint256)":"9dc29fac","config()":"79502c55","createOrder((address,address,address,address,address,uint256,address,uint64,(((uint256,uint256,int256)[],(uint256,uint256,int256)[]),uint256,uint256,address,(uint32,uint32,uint32,uint32,uint32,uint32))))":"52f919a9","createOrder((address,address,address,address,address,uint256,address,uint64,(((uint256,uint256,int256)[],(uint256,uint256,int256)[]),uint256,uint256,address,(uint32,uint32,uint32,uint32,uint32,uint32))),uint256)":"13560a90","createOrder(address,uint256,address,((uint256,uint256,int256)[],(uint256,uint256,int256)[]))":"887bb989","getVersion()":"0d8e6e2c","initialize((address,address,address,address,(address,uint64,(uint32,uint32,uint32,uint32,uint32,uint32)),(address,uint32,uint32,bool),bytes,string,string))":"910a105c","issueFt(address,uint128,bytes)":"f41dc9f2","issueFtByExistedGt(address,uint128,uint256)":"39a380ed","leverageByXt(address,address,uint128,bytes)":"4fa05f1d","leverageByXt(address,uint128,bytes)":"9ea1c1c9","mint(address,uint256)":"40c10f19","mintGtFeeRatio()":"3f5ffaf5","name()":"06fdde03","owner()":"8da5cb5b","pendingOwner()":"e30c3978","predictOrderAddress((address,address,address,address,address,uint256,address,uint64,(((uint256,uint256,int256)[],(uint256,uint256,int256)[]),uint256,uint256,address,(uint32,uint32,uint32,uint32,uint32,uint32))),uint256)":"8ff16793","previewRedeem(uint256)":"4cdad506","redeem(address,address,uint256)":"0e6dfcd5","redeem(uint256,address)":"7bde82f2","renounceOwnership()":"715018a6","tokens()":"9d63848a","transferOwnership(address)":"f2fde38b","updateGtConfig(bytes)":"d1f55a3c","updateMarketConfig((address,uint64,(uint32,uint32,uint32,uint32,uint32,uint32)))":"624a5104","updateOrderFeeRate(address,(uint32,uint32,uint32,uint32,uint32,uint32))":"358aa0eb"},"id":45}