{"abi":[{"type":"function","name":"UPGRADE_INTERFACE_VERSION","inputs":[],"outputs":[{"name":"","type":"string","internalType":"string"}],"stateMutability":"view"},{"type":"function","name":"acceptOwnership","inputs":[],"outputs":[],"stateMutability":"nonpayable"},{"type":"function","name":"batchSetWhitelist","inputs":[{"name":"contractAddresses","type":"address[]","internalType":"address[]"},{"name":"module","type":"uint8","internalType":"enum IWhitelistManager.ContractModule"},{"name":"approved","type":"bool","internalType":"bool"}],"outputs":[],"stateMutability":"nonpayable"},{"type":"function","name":"getVersion","inputs":[],"outputs":[{"name":"","type":"string","internalType":"string"}],"stateMutability":"pure"},{"type":"function","name":"initialize","inputs":[{"name":"admin","type":"address","internalType":"address"}],"outputs":[],"stateMutability":"nonpayable"},{"type":"function","name":"isWhitelisted","inputs":[{"name":"contractAddress","type":"address","internalType":"address"},{"name":"module","type":"uint8","internalType":"enum IWhitelistManager.ContractModule"}],"outputs":[{"name":"","type":"bool","internalType":"bool"}],"stateMutability":"view"},{"type":"function","name":"owner","inputs":[],"outputs":[{"name":"","type":"address","internalType":"address"}],"stateMutability":"view"},{"type":"function","name":"pendingOwner","inputs":[],"outputs":[{"name":"","type":"address","internalType":"address"}],"stateMutability":"view"},{"type":"function","name":"proxiableUUID","inputs":[],"outputs":[{"name":"","type":"bytes32","internalType":"bytes32"}],"stateMutability":"view"},{"type":"function","name":"renounceOwnership","inputs":[],"outputs":[],"stateMutability":"nonpayable"},{"type":"function","name":"transferOwnership","inputs":[{"name":"newOwner","type":"address","internalType":"address"}],"outputs":[],"stateMutability":"nonpayable"},{"type":"function","name":"upgradeToAndCall","inputs":[{"name":"newImplementation","type":"address","internalType":"address"},{"name":"data","type":"bytes","internalType":"bytes"}],"outputs":[],"stateMutability":"payable"},{"type":"event","name":"Initialized","inputs":[{"name":"version","type":"uint64","indexed":false,"internalType":"uint64"}],"anonymous":false},{"type":"event","name":"OwnershipTransferStarted","inputs":[{"name":"previousOwner","type":"address","indexed":true,"internalType":"address"},{"name":"newOwner","type":"address","indexed":true,"internalType":"address"}],"anonymous":false},{"type":"event","name":"OwnershipTransferred","inputs":[{"name":"previousOwner","type":"address","indexed":true,"internalType":"address"},{"name":"newOwner","type":"address","indexed":true,"internalType":"address"}],"anonymous":false},{"type":"event","name":"Upgraded","inputs":[{"name":"implementation","type":"address","indexed":true,"internalType":"address"}],"anonymous":false},{"type":"event","name":"WhitelistUpdated","inputs":[{"name":"contractAddress","type":"address[]","indexed":false,"internalType":"address[]"},{"name":"module","type":"uint8","indexed":false,"internalType":"enum IWhitelistManager.ContractModule"},{"name":"approved","type":"bool","indexed":false,"internalType":"bool"}],"anonymous":false},{"type":"error","name":"AddressEmptyCode","inputs":[{"name":"target","type":"address","internalType":"address"}]},{"type":"error","name":"ERC1967InvalidImplementation","inputs":[{"name":"implementation","type":"address","internalType":"address"}]},{"type":"error","name":"ERC1967NonPayable","inputs":[]},{"type":"error","name":"FailedCall","inputs":[]},{"type":"error","name":"InvalidInitialization","inputs":[]},{"type":"error","name":"NotInitializing","inputs":[]},{"type":"error","name":"OwnableInvalidOwner","inputs":[{"name":"owner","type":"address","internalType":"address"}]},{"type":"error","name":"OwnableUnauthorizedAccount","inputs":[{"name":"account","type":"address","internalType":"address"}]},{"type":"error","name":"UUPSUnauthorizedCallContext","inputs":[]},{"type":"error","name":"UUPSUnsupportedProxiableUUID","inputs":[{"name":"slot","type":"bytes32","internalType":"bytes32"}]}],"bytecode":{"object":"0x60a0806040523460295730608052610b3b908161002e823960805181818161060901526106d90152f35b5f80fdfe60806040526004361015610011575f80fd5b5f3560e01c80630d8e6e2c1461088e5780634f1ef2861461065d57806352d1902d146105f757806354797392146105a7578063715018a61461052a57806379ba5097146104dc5780637c0c2631146103405780638da5cb5b1461030c578063ad3cb1cc146102c9578063c4d66de814610159578063e30c3978146101255763f2fde38b1461009d575f80fd5b34610121576020366003190112610121576100b66108f3565b6100be610971565b5f516020610ae65f395f51905f5280546001600160a01b0319166001600160a01b039283169081179091555f516020610a865f395f51905f52549091167f38d16b8cac22d99fc7c124b9cd0de2d3fa1faef420bfe791d8c362d765e227005f80a3005b5f80fd5b34610121575f366003190112610121575f516020610ae65f395f51905f52546040516001600160a01b039091168152602090f35b34610121576020366003190112610121576101726108f3565b5f516020610ac65f395f51905f52549060ff8260401c16159167ffffffffffffffff8116801590816102c1575b60011490816102b7575b1590816102ae575b5061029f5767ffffffffffffffff1981166001175f516020610ac65f395f51905f525582610273575b506101e36109fc565b6101eb6109fc565b6001600160a01b038116156102605761020390610991565b61020957005b68ff0000000000000000195f516020610ac65f395f51905f5254165f516020610ac65f395f51905f52557fc7f505b2f371ae2175ee4913f4499e1f2633a7b5936321eed1cdaeb6115181d2602060405160018152a1005b631e4fbdf760e01b5f525f60045260245ffd5b68ffffffffffffffffff191668010000000000000001175f516020610ac65f395f51905f5255826101da565b63f92ee8a960e01b5f5260045ffd5b905015846101b1565b303b1591506101a9565b84915061019f565b34610121575f366003190112610121576103086040516102ea604082610909565b60058152640352e302e360dc1b6020820152604051918291826108c9565b0390f35b34610121575f366003190112610121575f516020610a865f395f51905f52546040516001600160a01b039091168152602090f35b346101215760603660031901126101215760043567ffffffffffffffff8111610121573660238201121561012157806004013567ffffffffffffffff81116104c8578060051b91604051916103986020850184610909565b82526020820190602482948201019036821161012157602401915b8183106104a85750505060243560058110156101215760443591821515809303610121576103e2929192610971565b6103eb83610947565b905f9260ff8116935b8251811015610430576020600582901b84018101516001600160a01b03165f9081529085905260409020805460ff1916861790556001016103f4565b8683838860405192606084019060608552518091526080840194905f5b818110610489577f8c313170024355ce9211016d28e5e6f55ebaebad7fd43c86775ed3d3a3adadbb8680898888602084015260408301520390a1005b82516001600160a01b031687526020968701969092019160010161044d565b82356001600160a01b0381168103610121578152602092830192016103b3565b634e487b7160e01b5f52604160045260245ffd5b34610121575f366003190112610121575f516020610ae65f395f51905f5254336001600160a01b03909116036105175761051533610991565b005b63118cdaa760e01b5f523360045260245ffd5b34610121575f36600319011261012157610542610971565b5f516020610ae65f395f51905f5280546001600160a01b03199081169091555f516020610a865f395f51905f52805491821690555f906001600160a01b03167f8be0079c531659141344cd1fd0a4f28419497f9722a3daafe3b4186f6b6457e08280a3005b34610121576040366003190112610121576105c06108f3565b6024356005811015610121576105d590610947565b9060018060a01b03165f52602052602060ff60405f2054166040519015158152f35b34610121575f366003190112610121577f00000000000000000000000000000000000000000000000000000000000000006001600160a01b0316300361064e5760206040515f516020610aa65f395f51905f528152f35b63703e46dd60e11b5f5260045ffd5b6040366003190112610121576106716108f3565b6024359067ffffffffffffffff821161012157366023830112156101215781600401359061069e8261092b565b916106ac6040519384610909565b8083526020830193366024838301011161012157815f926024602093018737840101526001600160a01b037f00000000000000000000000000000000000000000000000000000000000000001630811490811561086c575b5061064e57610711610971565b6040516352d1902d60e01b81526001600160a01b0382169390602081600481885afa5f9181610838575b506107535784634c9c8ce360e01b5f5260045260245ffd5b805f516020610aa65f395f51905f528692036108265750823b15610814575f516020610aa65f395f51905f5280546001600160a01b031916821790557fbc7cd75a20ee27fd9adebab32041f755214dbc6bffa90cc0225b39da2e5c2d3b5f80a28251156107fb575f8091610515945190845af43d156107f3573d916107d78361092b565b926107e56040519485610909565b83523d5f602085013e610a27565b606091610a27565b5050503461080557005b63b398979f60e01b5f5260045ffd5b634c9c8ce360e01b5f5260045260245ffd5b632a87526960e21b5f5260045260245ffd5b9091506020813d602011610864575b8161085460209383610909565b810103126101215751908661073b565b3d9150610847565b5f516020610aa65f395f51905f52546001600160a01b03161415905084610704565b34610121575f366003190112610121576103086040516108af604082610909565b60058152640322e302e360dc1b6020820152604051918291825b602060409281835280519182918282860152018484015e5f828201840152601f01601f1916010190565b600435906001600160a01b038216820361012157565b90601f8019910116810190811067ffffffffffffffff8211176104c857604052565b67ffffffffffffffff81116104c857601f01601f191660200190565b600581101561095d575f525f60205260405f2090565b634e487b7160e01b5f52602160045260245ffd5b5f516020610a865f395f51905f52546001600160a01b0316330361051757565b5f516020610ae65f395f51905f5280546001600160a01b03199081169091555f516020610a865f395f51905f5280549182166001600160a01b0393841690811790915591167f8be0079c531659141344cd1fd0a4f28419497f9722a3daafe3b4186f6b6457e05f80a3565b60ff5f516020610ac65f395f51905f525460401c1615610a1857565b631afcd79f60e31b5f5260045ffd5b90610a4b5750805115610a3c57805190602001fd5b63d6bda27560e01b5f5260045ffd5b81511580610a7c575b610a5c575090565b639996b31560e01b5f9081526001600160a01b0391909116600452602490fd5b50803b15610a5456fe9016d09d72d40fdae2fd8ceac6b6234c7706214fd39c1cd1e609a0528c199300360894a13ba1a3210667c828492db98dca3e2076cc3735a920a3ca505d382bbcf0c57e16840df040f15088dc2f81fe391c3923bec73e23a9662efc9c229c6a00237e158222e3e6968b72b9db0d8043aacf074ad9f650f0d1606b4d82ee432c00a2646970667358221220ee8405a5303890cd8f618ddd5ac1b92b3fa09dc62c7b90382b4ab5078e0d401b64736f6c63430008210033","linkReferences":{}},"methodIdentifiers":{"UPGRADE_INTERFACE_VERSION()":"ad3cb1cc","acceptOwnership()":"79ba5097","batchSetWhitelist(address[],uint8,bool)":"7c0c2631","getVersion()":"0d8e6e2c","initialize(address)":"c4d66de8","isWhitelisted(address,uint8)":"54797392","owner()":"8da5cb5b","pendingOwner()":"e30c3978","proxiableUUID()":"52d1902d","renounceOwnership()":"715018a6","transferOwnership(address)":"f2fde38b","upgradeToAndCall(address,bytes)":"4f1ef286"},"id":50}